{
  "transactions": [
    {
      "hash": "0x365c4ecb62df3099dc8940204c308483942fa76e56e41f09993f523dfb7fe3cf",
      "transactionType": "CREATE",
      "contractName": "Liquidator",
      "contractAddress": "0xa057ad54d312e63f4081bd5089b0962ac3b89eed",
      "function": null,
      "arguments": [
        "0xBBBBBbbBBb9cC5e90e3b3Af64bdAF62C37EEFFCb",
        "0xE592427A0AEce92De3Edee1F18E0157C05861564"
      ],
      "transaction": {
        "from": "0x73109baf60bab74b9e8273dfd4236d17c56cfc67",
        "gas": "0x266f70",
        "value": "0x0",
        "input": "0x60c0346200016157601f6200233238819003918201601f19168301916001600160401b038311848410176200016657808492604094855283398101031262000161576200005a602062000052836200017c565b92016200017c565b903315620001485760008054336001600160a01b0319821681178355604051946001600160a01b0394909385939192918416907f8be0079c531659141344cd1fd0a4f28419497f9722a3daafe3b4186f6b6457e09080a3166080521660a0526121a09081620001928239608051818181610159015281816102f90152818161038c0152818161040d01528181610506015281816106500152818161080501528181610858015281816109dc01528181610c6801528181610d8701528181610de3015281816110a70152818161114e01528181611250015281816113ec015261174e015260a051816113160152f35b604051631e4fbdf760e01b815260006004820152602490fd5b600080fd5b634e487b7160e01b600052604160045260246000fd5b51906001600160a01b0382168203620001615756fe6040608081526004908136101561001557600080fd5b600091823560e01c9081629f7501146113b35781630a0a3fe91461137157816320154288146113455781632b3297f9146113015781633c0ebf60146112e6578382635024e5751461123157508163559cb3a9146110d15781636b116ebc14610d04578163706eaf1314610c37578163715018a614610bda5781637362377b14610b8e5781638947606914610ac35781638da5cb5b14610a9b578163a01225ca146109a9578163b4dfbfe414610830578163b936ba0c146107d8578163ba570dbf1461061f578163c1195161146105dd578163cd32e0b5146104d5578163cf7ea196146103bb578163d8fbc83314610377578163e0317517146102b2578163e42c08f214610218578163f2fde38b1461018b575063f367be6b1461013757600080fd5b346101875760a03660031901126101875760209061017d610157366115ac565b7f0000000000000000000000000000000000000000000000000000000000000000611cea565b5092519283525050f35b5080fd5b905034610214576020366003190112610214576101a6611596565b906101af611ac3565b6001600160a01b039182169283156101fe5750506000548260018060a01b0319821617600055167f8be0079c531659141344cd1fd0a4f28419497f9722a3daafe3b4186f6b6457e0600080a380f35b51631e4fbdf760e01b8152908101849052602490fd5b8280fd5b8383346101875760209283600319360112610214576001600160a01b03908490602483610243611596565b169386541691855194859384926370a0823160e01b84528301525afa9283156102a75792610273575b5051908152f35b9091508281813d83116102a0575b61028b818361155f565b8101031261029b5751908361026c565b600080fd5b503d610281565b8251903d90823e3d90fd5b839150346101875760c036600319011261018757826102f4916102d4366115ac565b82516350d8cd4b60e01b815293849283923391829160a435918601611939565b0381857f00000000000000000000000000000000000000000000000000000000000000006001600160a01b03165af190811561036d57829161033e575b5082519182526020820152f35b90506103609150823d8411610366575b610358818361155f565b8101906118aa565b83610331565b503d61034e565b83513d84823e3d90fd5b505034610187578160031936011261018757517f00000000000000000000000000000000000000000000000000000000000000006001600160a01b03168152602090f35b905034610214578160031936011261021457602435916001600160401b038084116104d157366023850112156104d157838301359081116104d15783013660248201116104d1576001600160a01b03927f00000000000000000000000000000000000000000000000000000000000000008416330361048e575083602091031261048a57602481519361044d856114f3565b01359182169182810361029b576020935251908152207f66f7054e689959c3bda7f62e0d02c602abe5123a8e5cfb0b260190d3bb4fce868280a280f35b8380fd5b606490602084519162461bcd60e51b8352820152602060248201527f6d73672e73656e6465722073686f756c64206265204d6f7270686f20426c75656044820152fd5b8480fd5b839150346101875760a0366003190112610187576104f2366115ac565b60a0812084516349e2903160e11b815291927f00000000000000000000000000000000000000000000000000000000000000006001600160a01b0316929091606090829081906105469033908388016116ec565b0381865afa9081156105d3579185879492610586969482916105a4575b505160011c855196879586948593635c2bea4960e01b8552339233928601611900565b03925af190811561036d57829161033e575082519182526020820152f35b6105c6915060603d6060116105cc575b6105be818361155f565b81019061169b565b89610563565b503d6105b4565b86513d87823e3d90fd5b839150346101875760c036600319011261018757826102f4916105ff366115ac565b8251635c2bea4960e01b815293849283923391829160a435918601611939565b839150346101875760c03660031901126101875761063c366115ac565b9060a43560018060a01b03908184511691807f000000000000000000000000000000000000000000000000000000000000000016928751906020820163095ea7b360e01b9081815286602485015260001960448501526044845260808401906001600160401b0391858110838211176107c357918b80809795938f9c9b9a9997958d5286519082875af16106ce611972565b81610794575b508061078a575b15610716575b50505050956106fa836105869883511630903390611a10565b855163a99aad8960e01b815296879586948593339285016119b1565b919395979996989092945051916020830152876024830152896044830152604482526080820190828210908211176107755795809461076d8b958d9a98956107686106fa966105869e9c8e5282611c52565b611c52565b92988c6106e1565b604189634e487b7160e01b6000525260246000fd5b50823b15156106db565b80518015925082156107a9575b50508e6106d4565b6107bc9250602080918301019101611619565b8e806107a1565b60418a634e487b7160e01b6000525260246000fd5b5050346101875760c0366003190112610187576020906108296107fa366115ac565b610802611580565b907f0000000000000000000000000000000000000000000000000000000000000000611a54565b9051908152f35b9050346102145760c03660031901126102145761084c366115ac565b610854611580565b93807f0000000000000000000000000000000000000000000000000000000000000000956108b06108be60a0862088516020810191825260028a82015289815261089d81611544565b5190208851928391602083019586611631565b03601f19810183528261155f565b51902091610996575060006108d56108ed92612077565b855180938192637784c68560e01b8352878301611b6a565b03816001600160a01b0389165afa90811561098b57610920929161091991600091610968575b50611ba6565b5194611cea565b50509390916001830180931161095357620f4240850180951161095357509261094e61082992602095611ab0565b6119f0565b601190634e487b7160e01b6000525260246000fd5b61098591503d806000833e61097d818361155f565b810190611aef565b38610913565b84513d6000823e3d90fd5b634e487b7160e01b815260118452602490fd5b839150346101875760c0366003190112610187576109c6366115ac565b60a43560018060a01b03918281511692856020827f0000000000000000000000000000000000000000000000000000000000000000169560448a518094819363095ea7b360e01b83528a8c84015260001960248401525af18015610a915792610a46856105869896948a948c9997610a62575b5083511630903390611a10565b85516320b76e8160e01b815296879586948593339285016119b1565b610a839060203d602011610a8a575b610a7b818361155f565b810190611619565b508c610a39565b503d610a71565b88513d89823e3d90fd5b505034610187578160031936011261018757905490516001600160a01b039091168152602090f35b905034610214576020918260031936011261048a57610ae0611596565b610ae8611ac3565b81516370a0823160e01b815230938101939093526001600160a01b0316908383602481855afa928315610b84578593610b53575b50610b5093610b42610768925194859263a9059cbb60e01b908401523360248401611631565b03601f19810184528361155f565b80f35b9092508381813d8311610b7d575b610b6b818361155f565b8101031261029b575191610b50610b1c565b503d610b61565b81513d87823e3d90fd5b91905034610214578260031936011261021457610ba9611ac3565b8280808060018060a01b0381541647905af1610bc3611972565b5015610bcd578280f35b516347474d6760e11b8152fd5b8334610c345780600319360112610c3457610bf3611ac3565b600080546001600160a01b0319811682556001600160a01b03167f8be0079c531659141344cd1fd0a4f28419497f9722a3daafe3b4186f6b6457e08280a380f35b80fd5b839150346101875760a036600319011261018757610c54366115ac565b60a0812084516349e2903160e11b815291927f00000000000000000000000000000000000000000000000000000000000000006001600160a01b031692909160609082908190610ca89033908388016116ec565b0381865afa9081156105d357918587949261058696948291610ce5575b50518551635c2bea4960e01b815296879586948593339283928601611900565b610cfe915060603d6060116105cc576105be818361155f565b89610cc5565b90503461021457366003190160e0811261048a5760a01361021457610d27611580565b9260c435801515810361018757610d3c611ac3565b818560a0610d49366115ac565b2082839460001461109e5750610d66610d839392610d6b9261202d565b612077565b865180938192637784c68560e01b8352888301611b6a565b03817f00000000000000000000000000000000000000000000000000000000000000006001600160a01b03165afa908115610ff35790610dc991849161108a5750611ba6565b5160801c5b610dd6611894565b9560018060a01b039182807f000000000000000000000000000000000000000000000000000000000000000016981697875198636eb1769f60e11b8a5230888b01528160248b01526020998a81604481855afa908115611080578891611053575b5015610ffd575b506024359484861680960361029b57858951610e59816114f3565b52885192868b8501528a8452610e6e84611529565b8951631b1d579760e31b81529686610e84611596565b168a890152602488015260443586811680910361029b57604488015260643586811680910361029b57610eec889586948b948a8f9a8896606488015260843560848801521660a486015260c485015260e48401526101206101048401526101248301906118c0565b03925af1938415610ff35783928495610fce575b508682610f0b611894565b169160248851809481936370a0823160e01b835233908301525afa938415610fc3579087929194610f72575b50907fd6ce906bec1daf0f48062ab9510e6e5b207e4418abfa65f675e14b0df4eae30c91610f63611894565b16948651908152a45160018152f35b8281939295503d8311610fbc575b610f8a818361155f565b8101031261029b57519185907fd6ce906bec1daf0f48062ab9510e6e5b207e4418abfa65f675e14b0df4eae30c610f37565b503d610f80565b8651903d90823e3d90fd5b909450610fe9919250853d871161036657610358818361155f565b9190919338610f00565b85513d85823e3d90fd5b898260448a8a8d51958694859363095ea7b360e01b855284015260001960248401525af180156110495715610e3e57611042908a3d8c11610a8a57610a7b818361155f565b5038610e3e565b89513d89823e3d90fd5b90508a81813d8311611079575b61106a818361155f565b8101031261029b575138610e37565b503d611060565b8a513d8a823e3d90fd5b61098591503d8086833e61097d818361155f565b93506110cb92507f0000000000000000000000000000000000000000000000000000000000000000611bc9565b90610dce565b9050346102145760c0366003190112610214576110ed366115ac565b82810151835163501ad8ff60e11b81529192906001600160a01b039060209084908490829085165afa9283156112275786936111f1575b5061114a91606091865180809581946349e2903160e11b8352339060a4359084016116ec565b03917f0000000000000000000000000000000000000000000000000000000000000000165afa9081156111e7576a0c097ce7bc90715b34b9f160241b6111b66111c094670de0b6b3a7640000969460809460209a916111c8575b508801516000196001861b0116611ab0565b0491015190611ab0565b049051908152f35b6111e1915060603d6060116105cc576105be818361155f565b386111a4565b84513d87823e3d90fd5b9092506020813d60201161121f575b8161120d6020938361155f565b8101031261029b57519161114a611124565b3d9150611200565b85513d88823e3d90fd5b809184346112e25760c03660031901126112e25761124e366115ac565b7f00000000000000000000000000000000000000000000000000000000000000006001600160a01b03169290833b156104d1576101048592836112a49686519788958694638720316d60e01b865285019061164c565b60a43560a48401523360c48401523360e48401525af19081156112d957506112c95750f35b6112d2906114ca565b610c345780f35b513d84823e3d90fd5b5050fd5b50503461018757816003193601126101875751478152602090f35b505034610187578160031936011261018757517f00000000000000000000000000000000000000000000000000000000000000006001600160a01b03168152602090f35b5050346101875760a036600319011261018757602090611367610157366115ac565b5050509051908152f35b828434610c345760e0366003190112610c34575061138e366115ac565b60c43591906001600160a01b038316830361029b576020926108299160a43590611705565b919050346102145760c036600319011261021457826113d1366115ac565b60a43593602082019060018060a01b038083511692856020837f0000000000000000000000000000000000000000000000000000000000000000169560448a518094819363095ea7b360e01b83528a8a84015260001960248401525af18015610a91579161144d93918a936114ab575b50511630903390611a10565b813b1561048a578361012492611476978751988996879563238d657960e01b875286019061164c565b60a48401523360c484015261010060e4840152816101048401525af19081156112d957506114a2575080f35b610b50906114ca565b6114c39060203d602011610a8a57610a7b818361155f565b5038611441565b6001600160401b0381116114dd57604052565b634e487b7160e01b600052604160045260246000fd5b602081019081106001600160401b038211176114dd57604052565b60a081019081106001600160401b038211176114dd57604052565b604081019081106001600160401b038211176114dd57604052565b606081019081106001600160401b038211176114dd57604052565b90601f801991011681019081106001600160401b038211176114dd57604052565b60a435906001600160a01b038216820361029b57565b600435906001600160a01b038216820361029b57565b60a090600319011261029b57604051906115c58261150e565b816001600160a01b03600435818116810361029b578252602435818116810361029b576020830152604435818116810361029b576040830152606435908116810361029b5760608201526080608435910152565b9081602091031261029b5751801515810361029b5790565b6001600160a01b039091168152602081019190915260400190565b6080809160018060a01b0380825116855280602083015116602086015280604083015116604086015260608201511660608501520151910152565b51906001600160801b038216820361029b57565b9081606091031261029b5760405190606082018281106001600160401b038211176114dd576116e4916040918252805184526116d960208201611687565b602085015201611687565b604082015290565b9081526001600160a01b03909116602082015260400190565b604081810151815163501ad8ff60e11b81529594919391906001600160a01b03906020908890600490829085165afa9687156118525760009761185d575b5090606081611789937f00000000000000000000000000000000000000000000000000000000000000009588518096819482936349e2903160e11b8452600484016116ec565b039187165afa91821561185257966117ed936a0c097ce7bc90715b34b9f160241b936117d8938760809a9b60009361182f575b506117c79293611a54565b9601516000196001891b0116611ab0565b04670de0b6b3a7640000948593015190611ab0565b048115611826578281029281840414901517156118105761180d916119f0565b90565b634e487b7160e01b600052601160045260246000fd5b50505060001990565b6117c7935061184c9060603d6060116105cc576105be818361155f565b926117bc565b85513d6000823e3d90fd5b919096506020823d60201161188c575b8161187a6020938361155f565b8101031261029b579051956060611743565b3d915061186d565b6004356001600160a01b038116810361029b5790565b919082604091031261029b576020825192015190565b919082519283825260005b8481106118ec575050826000602080949584010152601f8019910116010190565b6020818301810151848301820152016118cb565b92909493610100926119178561012081019861164c565b600060a086015260c08501526001600160a01b0391821660e085015216910152565b92909493610100926119508561012081019861164c565b60a0850152600060c08501526001600160a01b0391821660e085015216910152565b3d156119ac573d906001600160401b0382116114dd57604051916119a0601f8201601f19166020018461155f565b82523d6000602084013e565b606090565b9190610140936000926119c7856101209461164c565b60a085015260c084018390526001600160a01b031660e084015261010083018190528201520190565b81156119fa570490565b634e487b7160e01b600052601260045260246000fd5b6040516323b872dd60e01b60208201526001600160a01b039283166024820152929091166044830152606480830193909352918152611a52916107688261150e565b565b9190611a67611a6d9260a0832085611bc9565b92611cea565b93925090506001810180911161181057620f424083019182841161181057620f423f91611a9991611ab0565b9201918183116118105761180d9261094e91612020565b8181029291811591840414171561181057565b6000546001600160a01b03163303611ad757565b60405163118cdaa760e01b8152336004820152602490fd5b90602090818382031261029b5782516001600160401b039384821161029b570181601f8201121561029b5780519384116114dd578360051b9060405194611b388584018761155f565b8552838086019282010192831161029b578301905b828210611b5b575050505090565b81518152908301908301611b4d565b602090602060408183019282815285518094520193019160005b828110611b92575050505090565b835185529381019392810192600101611b84565b805115611bb35760200190565b634e487b7160e01b600052603260045260246000fd5b611bdb610d66611bf79460009461202d565b906040518080958194637784c68560e01b835260048301611b6a565b03916001600160a01b03165afa908115611c4657600091611c2b575b506001600160801b0390611c2690611ba6565b511690565b611c4091503d806000833e61097d818361155f565b38611c13565b6040513d6000823e3d90fd5b600080611c7b9260018060a01b03169360208151910182865af1611c74611972565b9083612107565b8051908115159182611ca9575b5050611c915750565b60249060405190635274afe760e01b82526004820152fd5b611cbc9250602080918301019101611619565b153880611c88565b9190820391821161181057565b6001600160801b03918216908216019190821161181057565b60a0822060408051632e3071cd60e11b815260048101929092529390926001600160a01b039260c0908590602490829087165afa93841561185257600094611f5d575b506080840180516001600160801b03949190611d4b90861642611cc4565b9182151580611f4f575b80611f40575b611d83575b505050508183511691606081806020870151169686015116940151169193929190565b60608401518851638c00bf6b60e01b8152911693611da590600483019061164c565b8587511660a482015260208701938685511660c483015286898901938185511660e48501528160608b01511661010485015251166101248301526020826101648160a08c01948b8651166101448301525afa8015611f35578792600091611efc575b50611e66611e1c611e5b968587511693611ab0565b91611e60671bc16d674ec80000611e338580611ab0565b0493670de0b6b3a764000098856729a2241af62c0000611e54848d99611ab0565b0492612020565b612020565b90611ab0565b049282611e7e611e758661209c565b82845116611cd1565b16905281611e97611e8e8561209c565b828b5116611cd1565b16885251168015611d6057611eab91611ab0565b04611eb98185875116611cc4565b8483511691620f42408301809311611810576001820180921161181057611eeb611ef09261094e8895611e7594611ab0565b61209c565b16905238808080611d60565b9250506020823d602011611f2d575b81611f186020938361155f565b8101031261029b579051869190611e66611e07565b3d9150611f0b565b89513d6000823e3d90fd5b50806060850151161515611d5b565b508588880151161515611d55565b60c0949194813d60c011612018575b81611f7960c0938361155f565b810103126101875785519160c08301908382106001600160401b038311176120045750611ff89160a0918852611fae81611687565b8452611fbc60208201611687565b6020850152611fcc888201611687565b88850152611fdc60608201611687565b6060850152611fed60808201611687565b608085015201611687565b60a08201529238611d2d565b634e487b7160e01b81526041600452602490fd5b3d9150611f6c565b9190820180921161181057565b6120666108b09160405160208101918252600260408201526040815261205281611544565b519020604051928391602083019586611631565b519020600181018091116118105790565b6040519061208482611529565b600182526020368184013761209882611ba6565b5290565b6040516001600160801b0391906120b281611529565b60148152731b585e081d5a5b9d0c4c8e08195e18d95959195960621b60208201528282116120df57501690565b60405162461bcd60e51b8152602060048201529081906121039060248301906118c0565b0390fd5b9061212e575080511561211c57805190602001fd5b604051630a12f52160e11b8152600490fd5b81511580612161575b61213f575090565b604051639996b31560e01b81526001600160a01b039091166004820152602490fd5b50803b1561213756fea2646970667358221220578990d5ef03076a38d94a900e599596775b1e6a8cbadbc872b78299c75f355d64736f6c63430008170033000000000000000000000000bbbbbbbbbb9cc5e90e3b3af64bdaf62c37eeffcb000000000000000000000000e592427a0aece92de3edee1f18e0157c05861564",
        "nonce": "0x2d",
        "chainId": "0x1"
      },
      "additionalContracts": [],
      "isFixedGasLimit": false
    },
    {
      "hash": "0xca0f143c58686f940bd95f075b64f1e642974b2594cad8437c47404dd3b613dc",
      "transactionType": "CREATE",
      "contractName": "MockToken",
      "contractAddress": "0x91ace67ae6dfeff94f8cb9e6c3f9e09f99ae013a",
      "function": null,
      "arguments": [
        "\"LoanToken\"",
        "\"LT\""
      ],
      "transaction": {
        "from": "0x73109baf60bab74b9e8273dfd4236d17c56cfc67",
        "gas": "0xb048c",
        "value": "0x0",
        "input": "0x60406080815234620003a45762000b5e803803806200001e81620003a9565b92833981018282820312620003a45781516001600160401b039290838111620003a457826200004f918301620003cf565b9060209283820151858111620003a4576200006b9201620003cf565b928151818111620002a4576003908154906001948583811c9316801562000399575b8784101462000383578190601f938481116200032d575b508790848311600114620002c657600092620002ba575b505060001982851b1c191690851b1782555b8551928311620002a45760049586548581811c9116801562000299575b87821014620002845782811162000239575b5085918411600114620001ce57938394918492600095620001c2575b50501b92600019911b1c19161782555b3315620001ab57600254683635c9adc5dea00000928382018092116200019657506000917fddf252ad1be2c89b69c2b068fc378daa952ba7f163c4a11628f55a4df523b3ef9160025533835282815284832084815401905584519384523393a35161071c9081620004428239f35b601190634e487b7160e01b6000525260246000fd5b506000602492519163ec442f0560e01b8352820152fd5b01519350388062000118565b9190601f198416928760005284876000209460005b898983831062000221575050501062000206575b50505050811b01825562000128565b01519060f884600019921b161c1916905538808080620001f7565b868601518955909701969485019488935001620001e3565b87600052866000208380870160051c8201928988106200027a575b0160051c019086905b8281106200026d575050620000fc565b600081550186906200025d565b9250819262000254565b602288634e487b7160e01b6000525260246000fd5b90607f1690620000ea565b634e487b7160e01b600052604160045260246000fd5b015190503880620000bb565b90879350601f1983169186600052896000209260005b8b828210620003165750508411620002fd575b505050811b018255620000cd565b015160001983871b60f8161c19169055388080620002ef565b8385015186558b97909501949384019301620002dc565b90915084600052876000208480850160051c8201928a861062000379575b918991869594930160051c01915b82811062000369575050620000a4565b6000815585945089910162000359565b925081926200034b565b634e487b7160e01b600052602260045260246000fd5b92607f16926200008d565b600080fd5b6040519190601f01601f191682016001600160401b03811183821017620002a457604052565b919080601f84011215620003a45782516001600160401b038111620002a45760209062000405601f8201601f19168301620003a9565b92818452828287010111620003a45760005b8181106200042d57508260009394955001015290565b85810183015184820184015282016200041756fe608060408181526004918236101561001657600080fd5b600092833560e01c91826306fdde03146104d157508163095ea7b31461042757816318160ddd1461040857816323b872dd14610311578163313ce567146102f557816340c10f191461024957816370a082311461021257816395d89b411461010e57508063a9059cbb146100de5763dd62ed3e1461009357600080fd5b346100da57806003193601126100da57806020926100af6105d7565b6100b76105f2565b6001600160a01b0391821683526001865283832091168252845220549051908152f35b5080fd5b50346100da57806003193601126100da576020906101076100fd6105d7565b6024359033610608565b5160018152f35b8383346100da57816003193601126100da5780519082845460018160011c9060018316928315610208575b60209384841081146101f5578388529081156101d957506001146101a1575b505050829003601f01601f191682019267ffffffffffffffff84118385101761018e575082918261018a92528261058e565b0390f35b634e487b7160e01b815260418552602490fd5b919250868652828620918387935b8385106101c55750505050830101858080610158565b8054888601830152930192849082016101af565b60ff1916878501525050151560051b8401019050858080610158565b634e487b7160e01b895260228a52602489fd5b91607f1691610139565b5050346100da5760203660031901126100da5760209181906001600160a01b0361023a6105d7565b16815280845220549051908152f35b919050346102f157806003193601126102f1576102646105d7565b6001600160a01b031691602435919083156102dc57600254908382018092116102c9575084927fddf252ad1be2c89b69c2b068fc378daa952ba7f163c4a11628f55a4df523b3ef9260209260025585855284835280852082815401905551908152a380f35b634e487b7160e01b865260119052602485fd5b84602492519163ec442f0560e01b8352820152fd5b8280fd5b5050346100da57816003193601126100da576020905160128152f35b905082346104055760603660031901126104055761032d6105d7565b6103356105f2565b916044359360018060a01b038316808352600160205286832033845260205286832054916000198303610371575b602088610107898989610608565b8683106103d95781156103c25733156103ab5750825260016020908152868320338452815291869020908590039055829061010787610363565b8751634a1406b160e11b8152908101849052602490fd5b875163e602df0560e01b8152908101849052602490fd5b8751637dc7a0d960e11b8152339181019182526020820193909352604081018790528291506060010390fd5b80fd5b5050346100da57816003193601126100da576020906002549051908152f35b9050346102f157816003193601126102f1576104416105d7565b6024359033156104ba576001600160a01b03169182156104a357508083602095338152600187528181208582528752205582519081527f8c5be1e5ebec7d5bd14f71427d1e84f3dd0314c0f7b2291e5b200ac8c7c3b925843392a35160018152f35b8351634a1406b160e11b8152908101859052602490fd5b835163e602df0560e01b8152808401869052602490fd5b849084346102f157826003193601126102f1578260035460018160011c9060018316928315610584575b60209384841081146101f5578388529081156101d9575060011461054b57505050829003601f01601f191682019267ffffffffffffffff84118385101761018e575082918261018a92528261058e565b91925060038652828620918387935b8385106105705750505050830101858080610158565b80548886018301529301928490820161055a565b91607f16916104fb565b6020808252825181830181905290939260005b8281106105c357505060409293506000838284010152601f8019910116010190565b8181018601518482016040015285016105a1565b600435906001600160a01b03821682036105ed57565b600080fd5b602435906001600160a01b03821682036105ed57565b916001600160a01b038084169283156106cd57169283156106b45760009083825281602052604082205490838210610682575091604082827fddf252ad1be2c89b69c2b068fc378daa952ba7f163c4a11628f55a4df523b3ef958760209652828652038282205586815220818154019055604051908152a3565b60405163391434e360e21b81526001600160a01b03919091166004820152602481019190915260448101839052606490fd5b60405163ec442f0560e01b815260006004820152602490fd5b604051634b637e8f60e11b815260006004820152602490fdfea2646970667358221220fb4b09f7652b6ed6b7f7c99ef828b4067b7e6c6e331e3587efdc639d67ac10a264736f6c634300081700330000000000000000000000000000000000000000000000000000000000000040000000000000000000000000000000000000000000000000000000000000008000000000000000000000000000000000000000000000000000000000000000094c6f616e546f6b656e000000000000000000000000000000000000000000000000000000000000000000000000000000000000000000000000000000000000024c54000000000000000000000000000000000000000000000000000000000000",
        "nonce": "0x2e",
        "chainId": "0x1"
      },
      "additionalContracts": [],
      "isFixedGasLimit": false
    },
    {
      "hash": "0x2172cf518ba366f1f28c021fdd8a426b4a7e421e5f13781daf02b59728caa408",
      "transactionType": "CREATE",
      "contractName": "MockToken",
      "contractAddress": "0xaf75f1066a83d08229be323c9a0ec5713dac3354",
      "function": null,
      "arguments": [
        "\"CollatToken\"",
        "\"CT\""
      ],
      "transaction": {
        "from": "0x73109baf60bab74b9e8273dfd4236d17c56cfc67",
        "gas": "0xb04ab",
        "value": "0x0",
        "input": "0x60406080815234620003a45762000b5e803803806200001e81620003a9565b92833981018282820312620003a45781516001600160401b039290838111620003a457826200004f918301620003cf565b9060209283820151858111620003a4576200006b9201620003cf565b928151818111620002a4576003908154906001948583811c9316801562000399575b8784101462000383578190601f938481116200032d575b508790848311600114620002c657600092620002ba575b505060001982851b1c191690851b1782555b8551928311620002a45760049586548581811c9116801562000299575b87821014620002845782811162000239575b5085918411600114620001ce57938394918492600095620001c2575b50501b92600019911b1c19161782555b3315620001ab57600254683635c9adc5dea00000928382018092116200019657506000917fddf252ad1be2c89b69c2b068fc378daa952ba7f163c4a11628f55a4df523b3ef9160025533835282815284832084815401905584519384523393a35161071c9081620004428239f35b601190634e487b7160e01b6000525260246000fd5b506000602492519163ec442f0560e01b8352820152fd5b01519350388062000118565b9190601f198416928760005284876000209460005b898983831062000221575050501062000206575b50505050811b01825562000128565b01519060f884600019921b161c1916905538808080620001f7565b868601518955909701969485019488935001620001e3565b87600052866000208380870160051c8201928988106200027a575b0160051c019086905b8281106200026d575050620000fc565b600081550186906200025d565b9250819262000254565b602288634e487b7160e01b6000525260246000fd5b90607f1690620000ea565b634e487b7160e01b600052604160045260246000fd5b015190503880620000bb565b90879350601f1983169186600052896000209260005b8b828210620003165750508411620002fd575b505050811b018255620000cd565b015160001983871b60f8161c19169055388080620002ef565b8385015186558b97909501949384019301620002dc565b90915084600052876000208480850160051c8201928a861062000379575b918991869594930160051c01915b82811062000369575050620000a4565b6000815585945089910162000359565b925081926200034b565b634e487b7160e01b600052602260045260246000fd5b92607f16926200008d565b600080fd5b6040519190601f01601f191682016001600160401b03811183821017620002a457604052565b919080601f84011215620003a45782516001600160401b038111620002a45760209062000405601f8201601f19168301620003a9565b92818452828287010111620003a45760005b8181106200042d57508260009394955001015290565b85810183015184820184015282016200041756fe608060408181526004918236101561001657600080fd5b600092833560e01c91826306fdde03146104d157508163095ea7b31461042757816318160ddd1461040857816323b872dd14610311578163313ce567146102f557816340c10f191461024957816370a082311461021257816395d89b411461010e57508063a9059cbb146100de5763dd62ed3e1461009357600080fd5b346100da57806003193601126100da57806020926100af6105d7565b6100b76105f2565b6001600160a01b0391821683526001865283832091168252845220549051908152f35b5080fd5b50346100da57806003193601126100da576020906101076100fd6105d7565b6024359033610608565b5160018152f35b8383346100da57816003193601126100da5780519082845460018160011c9060018316928315610208575b60209384841081146101f5578388529081156101d957506001146101a1575b505050829003601f01601f191682019267ffffffffffffffff84118385101761018e575082918261018a92528261058e565b0390f35b634e487b7160e01b815260418552602490fd5b919250868652828620918387935b8385106101c55750505050830101858080610158565b8054888601830152930192849082016101af565b60ff1916878501525050151560051b8401019050858080610158565b634e487b7160e01b895260228a52602489fd5b91607f1691610139565b5050346100da5760203660031901126100da5760209181906001600160a01b0361023a6105d7565b16815280845220549051908152f35b919050346102f157806003193601126102f1576102646105d7565b6001600160a01b031691602435919083156102dc57600254908382018092116102c9575084927fddf252ad1be2c89b69c2b068fc378daa952ba7f163c4a11628f55a4df523b3ef9260209260025585855284835280852082815401905551908152a380f35b634e487b7160e01b865260119052602485fd5b84602492519163ec442f0560e01b8352820152fd5b8280fd5b5050346100da57816003193601126100da576020905160128152f35b905082346104055760603660031901126104055761032d6105d7565b6103356105f2565b916044359360018060a01b038316808352600160205286832033845260205286832054916000198303610371575b602088610107898989610608565b8683106103d95781156103c25733156103ab5750825260016020908152868320338452815291869020908590039055829061010787610363565b8751634a1406b160e11b8152908101849052602490fd5b875163e602df0560e01b8152908101849052602490fd5b8751637dc7a0d960e11b8152339181019182526020820193909352604081018790528291506060010390fd5b80fd5b5050346100da57816003193601126100da576020906002549051908152f35b9050346102f157816003193601126102f1576104416105d7565b6024359033156104ba576001600160a01b03169182156104a357508083602095338152600187528181208582528752205582519081527f8c5be1e5ebec7d5bd14f71427d1e84f3dd0314c0f7b2291e5b200ac8c7c3b925843392a35160018152f35b8351634a1406b160e11b8152908101859052602490fd5b835163e602df0560e01b8152808401869052602490fd5b849084346102f157826003193601126102f1578260035460018160011c9060018316928315610584575b60209384841081146101f5578388529081156101d9575060011461054b57505050829003601f01601f191682019267ffffffffffffffff84118385101761018e575082918261018a92528261058e565b91925060038652828620918387935b8385106105705750505050830101858080610158565b80548886018301529301928490820161055a565b91607f16916104fb565b6020808252825181830181905290939260005b8281106105c357505060409293506000838284010152601f8019910116010190565b8181018601518482016040015285016105a1565b600435906001600160a01b03821682036105ed57565b600080fd5b602435906001600160a01b03821682036105ed57565b916001600160a01b038084169283156106cd57169283156106b45760009083825281602052604082205490838210610682575091604082827fddf252ad1be2c89b69c2b068fc378daa952ba7f163c4a11628f55a4df523b3ef958760209652828652038282205586815220818154019055604051908152a3565b60405163391434e360e21b81526001600160a01b03919091166004820152602481019190915260448101839052606490fd5b60405163ec442f0560e01b815260006004820152602490fd5b604051634b637e8f60e11b815260006004820152602490fdfea2646970667358221220fb4b09f7652b6ed6b7f7c99ef828b4067b7e6c6e331e3587efdc639d67ac10a264736f6c6343000817003300000000000000000000000000000000000000000000000000000000000000400000000000000000000000000000000000000000000000000000000000000080000000000000000000000000000000000000000000000000000000000000000b436f6c6c6174546f6b656e00000000000000000000000000000000000000000000000000000000000000000000000000000000000000000000000000000000024354000000000000000000000000000000000000000000000000000000000000",
        "nonce": "0x2f",
        "chainId": "0x1"
      },
      "additionalContracts": [],
      "isFixedGasLimit": false
    },
    {
      "hash": "0x2660bb392d0418e294ca521ceec1f7c1c47da7c7935df741527bbc55d8698bd7",
      "transactionType": "CREATE",
      "contractName": "Swap",
      "contractAddress": "0x66a139dbb3f284d964f530e0db38a4e5a0e0fa71",
      "function": null,
      "arguments": [
        "0xE592427A0AEce92De3Edee1F18E0157C05861564",
        "0x91aCe67AE6DfEFf94F8Cb9e6c3F9E09f99AE013A",
        "0xAf75F1066a83d08229be323c9a0EC5713DAC3354",
        "0xa057ad54D312E63F4081bD5089B0962AC3B89Eed"
      ],
      "transaction": {
        "from": "0x73109baf60bab74b9e8273dfd4236d17c56cfc67",
        "gas": "0x5b2bf",
        "value": "0x0",
        "input": "0x60a0346100d657601f61032938819003918201601f19168301916001600160401b038311848410176100db578084926080946040528339810103126100d657610047816100f1565b90610054602082016100f1565b61006c6060610065604085016100f1565b93016100f1565b906304e45aaf60e01b60805260018060a01b03928380928160018060a01b03199716876000541617600055168560015416176001551683600254161760025533836004541617600455169060035416176003556040516102239081610106823960805181608d0152f35b600080fd5b634e487b7160e01b600052604160045260246000fd5b51906001600160a01b03821682036100d65756fe60806040818152600436101561001457600080fd5b600091823560e01c90816306d3781714610184575080632681f7e41461015d5780634046ebae1461013557806365fd87d9146101115780638b23ccac146101115780638da5cb5b146100e957806394ee0827146100c15763feca4a1d1461007a57600080fd5b346100bd57816003193601126100bd57517f00000000000000000000000000000000000000000000000000000000000000006001600160e01b0319168152602090f35b5080fd5b50346100bd57816003193601126100bd5760025490516001600160a01b039091168152602090f35b50346100bd57816003193601126100bd5760045490516001600160a01b039091168152602090f35b50346100bd5760203660031901126100bd5760209061012e6101a9565b9051908152f35b50346100bd57816003193601126100bd5760035490516001600160a01b039091168152602090f35b50346100bd57816003193601126100bd57905490516001600160a01b039091168152602090f35b8390346100bd57816003193601126100bd576001546001600160a01b03168152602090f35b600354336001600160a01b0391821614801591906101de575b506101cc57600090565b604051631648fd0160e01b8152600490fd5b905060045416331415386101c256fea264697066735822122052e48ba40a909f840495943c0ade8cb6abd7d0c3137f07aa9a398c6b0d4ac73264736f6c63430008170033000000000000000000000000e592427a0aece92de3edee1f18e0157c0586156400000000000000000000000091ace67ae6dfeff94f8cb9e6c3f9e09f99ae013a000000000000000000000000af75f1066a83d08229be323c9a0ec5713dac3354000000000000000000000000a057ad54d312e63f4081bd5089b0962ac3b89eed",
        "nonce": "0x30",
        "chainId": "0x1"
      },
      "additionalContracts": [],
      "isFixedGasLimit": false
    },
    {
      "hash": "0x1105cf0bdb9c0159568e3034843a819b7b0a426a2f1c9e77ff049b38098f4b2c",
      "transactionType": "CALL",
      "contractName": null,
      "contractAddress": "0xbbbbbbbbbb9cc5e90e3b3af64bdaf62c37eeffcb",
      "function": "setAuthorization(address,bool)",
      "arguments": [
        "0xa057ad54D312E63F4081bD5089B0962AC3B89Eed",
        "true"
      ],
      "transaction": {
        "from": "0x73109baf60bab74b9e8273dfd4236d17c56cfc67",
        "to": "0xbbbbbbbbbb9cc5e90e3b3af64bdaf62c37eeffcb",
        "gas": "0x10dee",
        "value": "0x0",
        "input": "0xeecea000000000000000000000000000a057ad54d312e63f4081bd5089b0962ac3b89eed0000000000000000000000000000000000000000000000000000000000000001",
        "nonce": "0x31",
        "chainId": "0x1"
      },
      "additionalContracts": [],
      "isFixedGasLimit": false
    },
    {
      "hash": "0xfee1505e37069bb10979e9dc23fd50021f4d3144fd928d309acd896348456b27",
      "transactionType": "CREATE",
      "contractName": "MockOracle",
      "contractAddress": "0x72c476549982ae8a10f9f13ee55939242db128d2",
      "function": null,
      "arguments": [
        "101000000000000000000"
      ],
      "transaction": {
        "from": "0x73109baf60bab74b9e8273dfd4236d17c56cfc67",
        "gas": "0x260d1",
        "value": "0x0",
        "input": "0x60803461005057601f61013238819003918201601f19168301916001600160401b0383118484101761005557808492602094604052833981010312610050575160005560405160c6908161006c8239f35b600080fd5b634e487b7160e01b600052604160045260246000fdfe6080806040526004361015601257600080fd5b600090813560e01c908163673a7e28146077578163859310b614605b575063a035b1fe14603e57600080fd5b346058578060031936011260585760209054604051908152f35b80fd5b90503460735781600319360112607357602091548152f35b5080fd5b823460585780600319360112605857805460011c815580f3fea264697066735822122046a4906cef5c6eef9c4710602113fcd15000a4879121968654f21c7005898c6f64736f6c6343000817003300000000000000000000000000000000000000000000000579a814e10a740000",
        "nonce": "0x32",
        "chainId": "0x1"
      },
      "additionalContracts": [],
      "isFixedGasLimit": false
    },
    {
      "hash": "0x381225ce1ed7d104b1554aec7258a901527d442d728eb5ed2dcb505381c244e5",
      "transactionType": "CREATE",
      "contractName": "MockOracle",
      "contractAddress": "0x23451f913ca08934ca3db5bb8871f5fe956aaede",
      "function": null,
      "arguments": [
        "331000000000000000000"
      ],
      "transaction": {
        "from": "0x73109baf60bab74b9e8273dfd4236d17c56cfc67",
        "gas": "0x260d1",
        "value": "0x0",
        "input": "0x60803461005057601f61013238819003918201601f19168301916001600160401b0383118484101761005557808492602094604052833981010312610050575160005560405160c6908161006c8239f35b600080fd5b634e487b7160e01b600052604160045260246000fdfe6080806040526004361015601257600080fd5b600090813560e01c908163673a7e28146077578163859310b614605b575063a035b1fe14603e57600080fd5b346058578060031936011260585760209054604051908152f35b80fd5b90503460735781600319360112607357602091548152f35b5080fd5b823460585780600319360112605857805460011c815580f3fea264697066735822122046a4906cef5c6eef9c4710602113fcd15000a4879121968654f21c7005898c6f64736f6c63430008170033000000000000000000000000000000000000000000000011f18c3a496e4c0000",
        "nonce": "0x33",
        "chainId": "0x1"
      },
      "additionalContracts": [],
      "isFixedGasLimit": false
    },
    {
      "hash": "0x2a63688dcf9433f38ab5da8a1aff9579969096fe19308d8e3879b0dfac76805c",
      "transactionType": "CALL",
      "contractName": "MockToken",
      "contractAddress": "0xaf75f1066a83d08229be323c9a0ec5713dac3354",
      "function": "mint(address,uint256)",
      "arguments": [
        "0x73109Baf60baB74B9E8273DfD4236d17C56CFc67",
        "20000000000000000000000"
      ],
      "transaction": {
        "from": "0x73109baf60bab74b9e8273dfd4236d17c56cfc67",
        "to": "0xaf75f1066a83d08229be323c9a0ec5713dac3354",
        "gas": "0xb73a",
        "value": "0x0",
        "input": "0x40c10f1900000000000000000000000073109baf60bab74b9e8273dfd4236d17c56cfc6700000000000000000000000000000000000000000000043c33c1937564800000",
        "nonce": "0x34",
        "chainId": "0x1"
      },
      "additionalContracts": [],
      "isFixedGasLimit": false
    },
    {
      "hash": "0x9324d12ff519978f84f6320234cfbb821133acc17f87291fc372dd1b08ad7a0c",
      "transactionType": "CALL",
      "contractName": "MockToken",
      "contractAddress": "0xaf75f1066a83d08229be323c9a0ec5713dac3354",
      "function": "mint(address,uint256)",
      "arguments": [
        "0x73109Baf60baB74B9E8273DfD4236d17C56CFc67",
        "20000000000000000000000"
      ],
      "transaction": {
        "from": "0x73109baf60bab74b9e8273dfd4236d17c56cfc67",
        "to": "0xaf75f1066a83d08229be323c9a0ec5713dac3354",
        "gas": "0xb73a",
        "value": "0x0",
        "input": "0x40c10f1900000000000000000000000073109baf60bab74b9e8273dfd4236d17c56cfc6700000000000000000000000000000000000000000000043c33c1937564800000",
        "nonce": "0x35",
        "chainId": "0x1"
      },
      "additionalContracts": [],
      "isFixedGasLimit": false
    },
    {
      "hash": "0x6697a273ba04ed4fca51b7c868c74c8b931393179be2a1de40c323685a259eb2",
      "transactionType": "CALL",
      "contractName": "MockToken",
      "contractAddress": "0x91ace67ae6dfeff94f8cb9e6c3f9e09f99ae013a",
      "function": "mint(address,uint256)",
      "arguments": [
        "0x73109Baf60baB74B9E8273DfD4236d17C56CFc67",
        "20000000000000000000000"
      ],
      "transaction": {
        "from": "0x73109baf60bab74b9e8273dfd4236d17c56cfc67",
        "to": "0x91ace67ae6dfeff94f8cb9e6c3f9e09f99ae013a",
        "gas": "0xb73a",
        "value": "0x0",
        "input": "0x40c10f1900000000000000000000000073109baf60bab74b9e8273dfd4236d17c56cfc6700000000000000000000000000000000000000000000043c33c1937564800000",
        "nonce": "0x36",
        "chainId": "0x1"
      },
      "additionalContracts": [],
      "isFixedGasLimit": false
    },
    {
      "hash": "0x5add9034f1a170dbdb4e068f170cdfa6ecf5cbee8c121dfb8c7c3b62f234e79b",
      "transactionType": "CALL",
      "contractName": null,
      "contractAddress": "0xbbbbbbbbbb9cc5e90e3b3af64bdaf62c37eeffcb",
      "function": "createMarket((address,address,address,address,uint256))",
      "arguments": [
        "(0x91aCe67AE6DfEFf94F8Cb9e6c3F9E09f99AE013A, 0xAf75F1066a83d08229be323c9a0EC5713DAC3354, 0x72C476549982Ae8A10f9f13EE55939242dB128d2, 0x0000000000000000000000000000000000000000, 945000000000000000)"
      ],
      "transaction": {
        "from": "0x73109baf60bab74b9e8273dfd4236d17c56cfc67",
        "to": "0xbbbbbbbbbb9cc5e90e3b3af64bdaf62c37eeffcb",
        "gas": "0x33770",
        "value": "0x0",
        "input": "0x8c1358a200000000000000000000000091ace67ae6dfeff94f8cb9e6c3f9e09f99ae013a000000000000000000000000af75f1066a83d08229be323c9a0ec5713dac335400000000000000000000000072c476549982ae8a10f9f13ee55939242db128d200000000000000000000000000000000000000000000000000000000000000000000000000000000000000000000000000000000000000000d1d507e40be8000",
        "nonce": "0x37",
        "chainId": "0x1"
      },
      "additionalContracts": [],
      "isFixedGasLimit": false
    },
    {
      "hash": "0x164343ffbfeb78a2a56e460ba0b4feacfb1a91a8d1a4529324d54726758d0e39",
      "transactionType": "CALL",
      "contractName": null,
      "contractAddress": "0xbbbbbbbbbb9cc5e90e3b3af64bdaf62c37eeffcb",
      "function": "accrueInterest((address,address,address,address,uint256))",
      "arguments": [
        "(0x91aCe67AE6DfEFf94F8Cb9e6c3F9E09f99AE013A, 0xAf75F1066a83d08229be323c9a0EC5713DAC3354, 0x72C476549982Ae8A10f9f13EE55939242dB128d2, 0x0000000000000000000000000000000000000000, 945000000000000000)"
      ],
      "transaction": {
        "from": "0x73109baf60bab74b9e8273dfd4236d17c56cfc67",
        "to": "0xbbbbbbbbbb9cc5e90e3b3af64bdaf62c37eeffcb",
        "gas": "0x8b26",
        "value": "0x0",
        "input": "0x151c1ade00000000000000000000000091ace67ae6dfeff94f8cb9e6c3f9e09f99ae013a000000000000000000000000af75f1066a83d08229be323c9a0ec5713dac335400000000000000000000000072c476549982ae8a10f9f13ee55939242db128d200000000000000000000000000000000000000000000000000000000000000000000000000000000000000000000000000000000000000000d1d507e40be8000",
        "nonce": "0x38",
        "chainId": "0x1"
      },
      "additionalContracts": [],
      "isFixedGasLimit": false
    },
    {
      "hash": "0x5c49f63027708bc1db83a6fdb72f5e431c8c3d9fd6bbb5eab91f077bf1fdb598",
      "transactionType": "CALL",
      "contractName": "MockToken",
      "contractAddress": "0xaf75f1066a83d08229be323c9a0ec5713dac3354",
      "function": "approve(address,uint256)",
      "arguments": [
        "0xa057ad54D312E63F4081bD5089B0962AC3B89Eed",
        "115792089237316195423570985008687907853269984665640564039457584007913129639935"
      ],
      "transaction": {
        "from": "0x73109baf60bab74b9e8273dfd4236d17c56cfc67",
        "to": "0xaf75f1066a83d08229be323c9a0ec5713dac3354",
        "gas": "0xf9c5",
        "value": "0x0",
        "input": "0x095ea7b3000000000000000000000000a057ad54d312e63f4081bd5089b0962ac3b89eedffffffffffffffffffffffffffffffffffffffffffffffffffffffffffffffff",
        "nonce": "0x39",
        "chainId": "0x1"
      },
      "additionalContracts": [],
      "isFixedGasLimit": false
    },
    {
      "hash": "0x4bd7669ed699660aa9684ab59e95e9ff6ede510de5ebed635a9cf2804053ba1c",
      "transactionType": "CALL",
      "contractName": "Liquidator",
      "contractAddress": "0xa057ad54d312e63f4081bd5089b0962ac3b89eed",
      "function": "supplyCollateral((address,address,address,address,uint256),uint256)",
      "arguments": [
        "(0x91aCe67AE6DfEFf94F8Cb9e6c3F9E09f99AE013A, 0xAf75F1066a83d08229be323c9a0EC5713DAC3354, 0x72C476549982Ae8A10f9f13EE55939242dB128d2, 0x0000000000000000000000000000000000000000, 945000000000000000)",
        "2000000000000000000000"
      ],
      "transaction": {
        "from": "0x73109baf60bab74b9e8273dfd4236d17c56cfc67",
        "to": "0xa057ad54d312e63f4081bd5089b0962ac3b89eed",
        "gas": "0x2b786",
        "value": "0x0",
        "input": "0x009f750100000000000000000000000091ace67ae6dfeff94f8cb9e6c3f9e09f99ae013a000000000000000000000000af75f1066a83d08229be323c9a0ec5713dac335400000000000000000000000072c476549982ae8a10f9f13ee55939242db128d200000000000000000000000000000000000000000000000000000000000000000000000000000000000000000000000000000000000000000d1d507e40be800000000000000000000000000000000000000000000000006c6b935b8bbd400000",
        "nonce": "0x3a",
        "chainId": "0x1"
      },
      "additionalContracts": [],
      "isFixedGasLimit": false
    },
    {
      "hash": "0xd19a0ef9e4b00e9e628b22502343b5426c09c7d8410e934fd23cef36db3709b7",
      "transactionType": "CALL",
      "contractName": "MockToken",
      "contractAddress": "0x91ace67ae6dfeff94f8cb9e6c3f9e09f99ae013a",
      "function": "approve(address,uint256)",
      "arguments": [
        "0xa057ad54D312E63F4081bD5089B0962AC3B89Eed",
        "115792089237316195423570985008687907853269984665640564039457584007913129639935"
      ],
      "transaction": {
        "from": "0x73109baf60bab74b9e8273dfd4236d17c56cfc67",
        "to": "0x91ace67ae6dfeff94f8cb9e6c3f9e09f99ae013a",
        "gas": "0xf9c5",
        "value": "0x0",
        "input": "0x095ea7b3000000000000000000000000a057ad54d312e63f4081bd5089b0962ac3b89eedffffffffffffffffffffffffffffffffffffffffffffffffffffffffffffffff",
        "nonce": "0x3b",
        "chainId": "0x1"
      },
      "additionalContracts": [],
      "isFixedGasLimit": false
    },
    {
      "hash": "0x72a1fc29602fc5caf34002d3ba5245087fb4a257f09cce1d3c27661b94098370",
      "transactionType": "CALL",
      "contractName": "Liquidator",
      "contractAddress": "0xa057ad54d312e63f4081bd5089b0962ac3b89eed",
      "function": "supply((address,address,address,address,uint256),uint256)",
      "arguments": [
        "(0x91aCe67AE6DfEFf94F8Cb9e6c3F9E09f99AE013A, 0xAf75F1066a83d08229be323c9a0EC5713DAC3354, 0x72C476549982Ae8A10f9f13EE55939242dB128d2, 0x0000000000000000000000000000000000000000, 945000000000000000)",
        "2000000000000000000000"
      ],
      "transaction": {
        "from": "0x73109baf60bab74b9e8273dfd4236d17c56cfc67",
        "to": "0xa057ad54d312e63f4081bd5089b0962ac3b89eed",
        "gas": "0x3487e",
        "value": "0x0",
        "input": "0xba570dbf00000000000000000000000091ace67ae6dfeff94f8cb9e6c3f9e09f99ae013a000000000000000000000000af75f1066a83d08229be323c9a0ec5713dac335400000000000000000000000072c476549982ae8a10f9f13ee55939242db128d200000000000000000000000000000000000000000000000000000000000000000000000000000000000000000000000000000000000000000d1d507e40be800000000000000000000000000000000000000000000000006c6b935b8bbd400000",
        "nonce": "0x3c",
        "chainId": "0x1"
      },
      "additionalContracts": [],
      "isFixedGasLimit": false
    },
    {
      "hash": "0x5d50693c45d7d72b320a3b3efabe97cbf49b4a3ebc81e2394ca6c54978ae8e86",
      "transactionType": "CALL",
      "contractName": "MockToken",
      "contractAddress": "0x91ace67ae6dfeff94f8cb9e6c3f9e09f99ae013a",
      "function": "mint(address,uint256)",
      "arguments": [
        "0xa057ad54D312E63F4081bD5089B0962AC3B89Eed",
        "20000000000000000000000"
      ],
      "transaction": {
        "from": "0x73109baf60bab74b9e8273dfd4236d17c56cfc67",
        "to": "0x91ace67ae6dfeff94f8cb9e6c3f9e09f99ae013a",
        "gas": "0x1137e",
        "value": "0x0",
        "input": "0x40c10f19000000000000000000000000a057ad54d312e63f4081bd5089b0962ac3b89eed00000000000000000000000000000000000000000000043c33c1937564800000",
        "nonce": "0x3d",
        "chainId": "0x1"
      },
      "additionalContracts": [],
      "isFixedGasLimit": false
    },
    {
      "hash": "0xd6fc7b97c66e328740196af63fd21edd43f742ee9d4af05f4e38c4ebaa7bc494",
      "transactionType": "CALL",
      "contractName": "MockToken",
      "contractAddress": "0xaf75f1066a83d08229be323c9a0ec5713dac3354",
      "function": "approve(address,uint256)",
      "arguments": [
        "0xa057ad54D312E63F4081bD5089B0962AC3B89Eed",
        "115792089237316195423570985008687907853269984665640564039457584007913129639935"
      ],
      "transaction": {
        "from": "0x73109baf60bab74b9e8273dfd4236d17c56cfc67",
        "to": "0xaf75f1066a83d08229be323c9a0ec5713dac3354",
        "gas": "0x96c7",
        "value": "0x0",
        "input": "0x095ea7b3000000000000000000000000a057ad54d312e63f4081bd5089b0962ac3b89eedffffffffffffffffffffffffffffffffffffffffffffffffffffffffffffffff",
        "nonce": "0x3e",
        "chainId": "0x1"
      },
      "additionalContracts": [],
      "isFixedGasLimit": false
    },
    {
      "hash": "0xbf027b0efd37736c0c22ca2fd09775b9fdbe28396503c25a6c6299d8adf6a431",
      "transactionType": "CALL",
      "contractName": "Liquidator",
      "contractAddress": "0xa057ad54d312e63f4081bd5089b0962ac3b89eed",
      "function": "supplyCollateral((address,address,address,address,uint256),uint256)",
      "arguments": [
        "(0x91aCe67AE6DfEFf94F8Cb9e6c3F9E09f99AE013A, 0xAf75F1066a83d08229be323c9a0EC5713DAC3354, 0x72C476549982Ae8A10f9f13EE55939242dB128d2, 0x0000000000000000000000000000000000000000, 945000000000000000)",
        "10000000000000000000"
      ],
      "transaction": {
        "from": "0x73109baf60bab74b9e8273dfd4236d17c56cfc67",
        "to": "0xa057ad54d312e63f4081bd5089b0962ac3b89eed",
        "gas": "0x179d5",
        "value": "0x0",
        "input": "0x009f750100000000000000000000000091ace67ae6dfeff94f8cb9e6c3f9e09f99ae013a000000000000000000000000af75f1066a83d08229be323c9a0ec5713dac335400000000000000000000000072c476549982ae8a10f9f13ee55939242db128d200000000000000000000000000000000000000000000000000000000000000000000000000000000000000000000000000000000000000000d1d507e40be80000000000000000000000000000000000000000000000000008ac7230489e80000",
        "nonce": "0x3f",
        "chainId": "0x1"
      },
      "additionalContracts": [],
      "isFixedGasLimit": false
    },
    {
      "hash": "0xa82d30a3c1f52103aef59200ebf5b501d1aa61511d105eba823ddcd5c5bd0279",
      "transactionType": "CALL",
      "contractName": "Liquidator",
      "contractAddress": "0xa057ad54d312e63f4081bd5089b0962ac3b89eed",
      "function": "maxBorrow((address,address,address,address,uint256),bytes32)",
      "arguments": [
        "(0x91aCe67AE6DfEFf94F8Cb9e6c3F9E09f99AE013A, 0xAf75F1066a83d08229be323c9a0EC5713DAC3354, 0x72C476549982Ae8A10f9f13EE55939242dB128d2, 0x0000000000000000000000000000000000000000, 945000000000000000)",
        "0x73c805ae078a3df9eaa2fa5ae4d0e3080510b5dc6cb2e12284aa02e97d39dfa0"
      ],
      "transaction": {
        "from": "0x73109baf60bab74b9e8273dfd4236d17c56cfc67",
        "to": "0xa057ad54d312e63f4081bd5089b0962ac3b89eed",
        "gas": "0xca8b",
        "value": "0x0",
        "input": "0x559cb3a900000000000000000000000091ace67ae6dfeff94f8cb9e6c3f9e09f99ae013a000000000000000000000000af75f1066a83d08229be323c9a0ec5713dac335400000000000000000000000072c476549982ae8a10f9f13ee55939242db128d200000000000000000000000000000000000000000000000000000000000000000000000000000000000000000000000000000000000000000d1d507e40be800073c805ae078a3df9eaa2fa5ae4d0e3080510b5dc6cb2e12284aa02e97d39dfa0",
        "nonce": "0x40",
        "chainId": "0x1"
      },
      "additionalContracts": [],
      "isFixedGasLimit": false
    },
    {
      "hash": "0x65edecdc5d2cced7d4918ad910b00bf24053ce195503c131b9bf9d2cd0a31dbd",
      "transactionType": "CALL",
      "contractName": "Liquidator",
      "contractAddress": "0xa057ad54d312e63f4081bd5089b0962ac3b89eed",
      "function": "borrow((address,address,address,address,uint256),uint256)",
      "arguments": [
        "(0x91aCe67AE6DfEFf94F8Cb9e6c3F9E09f99AE013A, 0xAf75F1066a83d08229be323c9a0EC5713DAC3354, 0x72C476549982Ae8A10f9f13EE55939242dB128d2, 0x0000000000000000000000000000000000000000, 945000000000000000)",
        "191844"
      ],
      "transaction": {
        "from": "0x73109baf60bab74b9e8273dfd4236d17c56cfc67",
        "to": "0xa057ad54d312e63f4081bd5089b0962ac3b89eed",
        "gas": "0x1edf3",
        "value": "0x0",
        "input": "0xe031751700000000000000000000000091ace67ae6dfeff94f8cb9e6c3f9e09f99ae013a000000000000000000000000af75f1066a83d08229be323c9a0ec5713dac335400000000000000000000000072c476549982ae8a10f9f13ee55939242db128d200000000000000000000000000000000000000000000000000000000000000000000000000000000000000000000000000000000000000000d1d507e40be8000000000000000000000000000000000000000000000000000000000000002ed64",
        "nonce": "0x41",
        "chainId": "0x1"
      },
      "additionalContracts": [],
      "isFixedGasLimit": false
    },
    {
      "hash": "0xb605da020aa83a8ad21f3d5d66f9eb54c2905d19b566e008c4e7b54af6cbae4e",
      "transactionType": "CALL",
      "contractName": "MockOracle",
      "contractAddress": "0x72c476549982ae8a10f9f13ee55939242db128d2",
      "function": "updatePrice()",
      "arguments": [],
      "transaction": {
        "from": "0x73109baf60bab74b9e8273dfd4236d17c56cfc67",
        "to": "0x72c476549982ae8a10f9f13ee55939242db128d2",
        "gas": "0x95c6",
        "value": "0x0",
        "input": "0x673a7e28",
        "nonce": "0x42",
        "chainId": "0x1"
      },
      "additionalContracts": [],
      "isFixedGasLimit": false
    }
  ],
  "receipts": [
    {
      "status": "0x1",
      "cumulativeGasUsed": "0x1d9305",
      "logs": [
        {
          "address": "0xa057ad54d312e63f4081bd5089b0962ac3b89eed",
          "topics": [
            "0x8be0079c531659141344cd1fd0a4f28419497f9722a3daafe3b4186f6b6457e0",
            "0x0000000000000000000000000000000000000000000000000000000000000000",
            "0x00000000000000000000000073109baf60bab74b9e8273dfd4236d17c56cfc67"
          ],
          "data": "0x",
          "blockHash": "0x818788ac0271deb6a33da1b31b2c888ea14ebf7ac05547b18204d8a36c86963f",
          "blockNumber": "0x1329a94",
          "blockTimestamp": "0x666d5be4",
          "transactionHash": "0x365c4ecb62df3099dc8940204c308483942fa76e56e41f09993f523dfb7fe3cf",
          "transactionIndex": "0x0",
          "logIndex": "0x0",
          "removed": false
        }
      ],
      "logsBloom": "0x00000000000000000000000000000000000000000000000000800000000200000000000000000000000000000080000000000000000000000000000000000000000000000000000000000000000000000001000000000000000000000000000004000000020000000000040000000800000000000000000000000000000000400000000000000000000000000000000000000000000000000000000000000000000000000000000000000000000000000100000000000000000000000000000000000000000000000000000000000000000000000000000000000000000020000000000000100000000000000000000000000000000000000000000000000000",
      "type": "0x2",
      "transactionHash": "0x365c4ecb62df3099dc8940204c308483942fa76e56e41f09993f523dfb7fe3cf",
      "transactionIndex": "0x0",
      "blockHash": "0x818788ac0271deb6a33da1b31b2c888ea14ebf7ac05547b18204d8a36c86963f",
      "blockNumber": "0x1329a94",
      "gasUsed": "0x1d9305",
      "effectiveGasPrice": "0xfbad9b2",
      "blobGasPrice": "0x1",
      "from": "0x73109baf60bab74b9e8273dfd4236d17c56cfc67",
      "to": null,
      "contractAddress": "0xa057ad54d312e63f4081bd5089b0962ac3b89eed",
      "root": "0x0000000000000000000000000000000000000000000000000000000000000000"
    },
    {
      "status": "0x1",
      "cumulativeGasUsed": "0x87a69",
      "logs": [
        {
          "address": "0x91ace67ae6dfeff94f8cb9e6c3f9e09f99ae013a",
          "topics": [
            "0xddf252ad1be2c89b69c2b068fc378daa952ba7f163c4a11628f55a4df523b3ef",
            "0x0000000000000000000000000000000000000000000000000000000000000000",
            "0x00000000000000000000000073109baf60bab74b9e8273dfd4236d17c56cfc67"
          ],
          "data": "0x00000000000000000000000000000000000000000000003635c9adc5dea00000",
          "blockHash": "0xaa26ff0f43eee68278d34427b3da5e7d59c333153e6702d1f1f33038b84520de",
          "blockNumber": "0x1329a95",
          "blockTimestamp": "0x666d5be5",
          "transactionHash": "0xca0f143c58686f940bd95f075b64f1e642974b2594cad8437c47404dd3b613dc",
          "transactionIndex": "0x0",
          "logIndex": "0x0",
          "removed": false
        }
      ],
      "logsBloom": "0x00000000000000000000004000000000000000000000000000000000000200000000000000000000000000000000000000000000000000000000000000000000000000000000000000000008000000000000000000000000000000000000000004000000020000000000000000000800000000000000000000000010000000000000000000000000000000000000000000000000000000000000000000000000000000000000000000000000000000000100000000000004000000000000000000000002000000000000000000000000000000000000000000000000000020000000000000000000000000000000000000000000000000000000000008000000",
      "type": "0x2",
      "transactionHash": "0xca0f143c58686f940bd95f075b64f1e642974b2594cad8437c47404dd3b613dc",
      "transactionIndex": "0x0",
      "blockHash": "0xaa26ff0f43eee68278d34427b3da5e7d59c333153e6702d1f1f33038b84520de",
      "blockNumber": "0x1329a95",
      "gasUsed": "0x87a69",
      "effectiveGasPrice": "0xe9a03b3",
      "blobGasPrice": "0x1",
      "from": "0x73109baf60bab74b9e8273dfd4236d17c56cfc67",
      "to": null,
      "contractAddress": "0x91ace67ae6dfeff94f8cb9e6c3f9e09f99ae013a",
      "root": "0x0000000000000000000000000000000000000000000000000000000000000000"
    },
    {
      "status": "0x1",
      "cumulativeGasUsed": "0x87a81",
      "logs": [
        {
          "address": "0xaf75f1066a83d08229be323c9a0ec5713dac3354",
          "topics": [
            "0xddf252ad1be2c89b69c2b068fc378daa952ba7f163c4a11628f55a4df523b3ef",
            "0x0000000000000000000000000000000000000000000000000000000000000000",
            "0x00000000000000000000000073109baf60bab74b9e8273dfd4236d17c56cfc67"
          ],
          "data": "0x00000000000000000000000000000000000000000000003635c9adc5dea00000",
          "blockHash": "0xe5401068a5999d99ce3a137be8f4be42db49bdd04dca16925a7af721cd68571c",
          "blockNumber": "0x1329a96",
          "blockTimestamp": "0x666d5be6",
          "transactionHash": "0x2172cf518ba366f1f28c021fdd8a426b4a7e421e5f13781daf02b59728caa408",
          "transactionIndex": "0x0",
          "logIndex": "0x0",
          "removed": false
        }
      ],
      "logsBloom": "0x00000000000000000000000000000000000000000000000000000000000200000000000000000000000000000000000000000000000000000000000000000000000000000000000000000008000000000000000000000000000000000000000804000000020000000000000000000800000000000000000000000010000000000000000000000000000000000000000000000000000000000000000000000000000000000000000000000000000000000100000000000000000000000000000000000002000020000000000000000000000000000000000000000000000020000000000000000000000000000000100000000000000000000000000000000000",
      "type": "0x2",
      "transactionHash": "0x2172cf518ba366f1f28c021fdd8a426b4a7e421e5f13781daf02b59728caa408",
      "transactionIndex": "0x0",
      "blockHash": "0xe5401068a5999d99ce3a137be8f4be42db49bdd04dca16925a7af721cd68571c",
      "blockNumber": "0x1329a96",
      "gasUsed": "0x87a81",
      "effectiveGasPrice": "0xd7d5f89",
      "blobGasPrice": "0x1",
      "from": "0x73109baf60bab74b9e8273dfd4236d17c56cfc67",
      "to": null,
      "contractAddress": "0xaf75f1066a83d08229be323c9a0ec5713dac3354",
      "root": "0x0000000000000000000000000000000000000000000000000000000000000000"
    },
    {
      "status": "0x1",
      "cumulativeGasUsed": "0xcdcda",
      "logs": [],
      "logsBloom": "0x00000000000000000000000000000000000000000000000000000000000000000000000000000000000000000000000000000000000000000000000000000000000000000000000000000000000000000000000000000000000000000000000000000000000000000000000000000000000000000000000000000000000000000000000000000000000000000000000000000000000000000000000000000000000000000000000000000000000000000000000000000000000000000000000000000000000000000000000000000000000000000000000000000000000000000000000000000000000000000000000000000000000000000000000000000000",
      "type": "0x2",
      "transactionHash": "0x2660bb392d0418e294ca521ceec1f7c1c47da7c7935df741527bbc55d8698bd7",
      "transactionIndex": "0x1",
      "blockHash": "0xe5401068a5999d99ce3a137be8f4be42db49bdd04dca16925a7af721cd68571c",
      "blockNumber": "0x1329a96",
      "gasUsed": "0x46259",
      "effectiveGasPrice": "0xd7d5f89",
      "blobGasPrice": "0x1",
      "from": "0x73109baf60bab74b9e8273dfd4236d17c56cfc67",
      "to": null,
      "contractAddress": "0x66a139dbb3f284d964f530e0db38a4e5a0e0fa71",
      "root": "0x0000000000000000000000000000000000000000000000000000000000000000"
    },
    {
      "status": "0x1",
      "cumulativeGasUsed": "0xd956c",
      "logs": [
        {
          "address": "0xbbbbbbbbbb9cc5e90e3b3af64bdaf62c37eeffcb",
          "topics": [
            "0xd5e969f01efe921d3f766bdebad25f0a05e3f237311f56482bf132d0326309c0",
            "0x00000000000000000000000073109baf60bab74b9e8273dfd4236d17c56cfc67",
            "0x00000000000000000000000073109baf60bab74b9e8273dfd4236d17c56cfc67",
            "0x000000000000000000000000a057ad54d312e63f4081bd5089b0962ac3b89eed"
          ],
          "data": "0x0000000000000000000000000000000000000000000000000000000000000001",
          "blockHash": "0xe5401068a5999d99ce3a137be8f4be42db49bdd04dca16925a7af721cd68571c",
          "blockNumber": "0x1329a96",
          "blockTimestamp": "0x666d5be6",
          "transactionHash": "0x1105cf0bdb9c0159568e3034843a819b7b0a426a2f1c9e77ff049b38098f4b2c",
          "transactionIndex": "0x2",
          "logIndex": "0x1",
          "removed": false
        }
      ],
      "logsBloom": "0x00000000000000000000002000000000000000000000000000000000000200000000000000000000000000000000000000000000000000000000000000000000000000000010000000000000000000000000000800000000000000000000000004000000000000000000200000000000000000000000000000000000000000000000000000000008000000000000000000000000000000000000000000000000000000000000000000000000000000000100000000000000000000000000000020004000000000000000000000000000000000000008000000000000000000000000000400000000000000000000000000000000000000000000000000000000",
      "type": "0x2",
      "transactionHash": "0x1105cf0bdb9c0159568e3034843a819b7b0a426a2f1c9e77ff049b38098f4b2c",
      "transactionIndex": "0x2",
      "blockHash": "0xe5401068a5999d99ce3a137be8f4be42db49bdd04dca16925a7af721cd68571c",
      "blockNumber": "0x1329a96",
      "gasUsed": "0xb892",
      "effectiveGasPrice": "0xd7d5f89",
      "blobGasPrice": "0x1",
      "from": "0x73109baf60bab74b9e8273dfd4236d17c56cfc67",
      "to": "0xbbbbbbbbbb9cc5e90e3b3af64bdaf62c37eeffcb",
      "contractAddress": null,
      "root": "0x0000000000000000000000000000000000000000000000000000000000000000"
    },
    {
      "status": "0x1",
      "cumulativeGasUsed": "0x1d468",
      "logs": [],
      "logsBloom": "0x00000000000000000000000000000000000000000000000000000000000000000000000000000000000000000000000000000000000000000000000000000000000000000000000000000000000000000000000000000000000000000000000000000000000000000000000000000000000000000000000000000000000000000000000000000000000000000000000000000000000000000000000000000000000000000000000000000000000000000000000000000000000000000000000000000000000000000000000000000000000000000000000000000000000000000000000000000000000000000000000000000000000000000000000000000000",
      "type": "0x2",
      "transactionHash": "0xfee1505e37069bb10979e9dc23fd50021f4d3144fd928d309acd896348456b27",
      "transactionIndex": "0x0",
      "blockHash": "0xec1f19abbe0b3435f08f13632e405c1a6475b8ba2a6b7f8989e3ba7904cad1e6",
      "blockNumber": "0x1329a97",
      "gasUsed": "0x1d468",
      "effectiveGasPrice": "0xc88cb44",
      "blobGasPrice": "0x1",
      "from": "0x73109baf60bab74b9e8273dfd4236d17c56cfc67",
      "to": null,
      "contractAddress": "0x72c476549982ae8a10f9f13ee55939242db128d2",
      "root": "0x0000000000000000000000000000000000000000000000000000000000000000"
    },
    {
      "status": "0x1",
      "cumulativeGasUsed": "0x3a8d0",
      "logs": [],
      "logsBloom": "0x00000000000000000000000000000000000000000000000000000000000000000000000000000000000000000000000000000000000000000000000000000000000000000000000000000000000000000000000000000000000000000000000000000000000000000000000000000000000000000000000000000000000000000000000000000000000000000000000000000000000000000000000000000000000000000000000000000000000000000000000000000000000000000000000000000000000000000000000000000000000000000000000000000000000000000000000000000000000000000000000000000000000000000000000000000000",
      "type": "0x2",
      "transactionHash": "0x381225ce1ed7d104b1554aec7258a901527d442d728eb5ed2dcb505381c244e5",
      "transactionIndex": "0x1",
      "blockHash": "0xec1f19abbe0b3435f08f13632e405c1a6475b8ba2a6b7f8989e3ba7904cad1e6",
      "blockNumber": "0x1329a97",
      "gasUsed": "0x1d468",
      "effectiveGasPrice": "0xc88cb44",
      "blobGasPrice": "0x1",
      "from": "0x73109baf60bab74b9e8273dfd4236d17c56cfc67",
      "to": null,
      "contractAddress": "0x23451f913ca08934ca3db5bb8871f5fe956aaede",
      "root": "0x0000000000000000000000000000000000000000000000000000000000000000"
    },
    {
      "status": "0x1",
      "cumulativeGasUsed": "0x42d78",
      "logs": [
        {
          "address": "0xaf75f1066a83d08229be323c9a0ec5713dac3354",
          "topics": [
            "0xddf252ad1be2c89b69c2b068fc378daa952ba7f163c4a11628f55a4df523b3ef",
            "0x0000000000000000000000000000000000000000000000000000000000000000",
            "0x00000000000000000000000073109baf60bab74b9e8273dfd4236d17c56cfc67"
          ],
          "data": "0x00000000000000000000000000000000000000000000043c33c1937564800000",
          "blockHash": "0xec1f19abbe0b3435f08f13632e405c1a6475b8ba2a6b7f8989e3ba7904cad1e6",
          "blockNumber": "0x1329a97",
          "blockTimestamp": "0x666d5be7",
          "transactionHash": "0x2a63688dcf9433f38ab5da8a1aff9579969096fe19308d8e3879b0dfac76805c",
          "transactionIndex": "0x2",
          "logIndex": "0x0",
          "removed": false
        }
      ],
      "logsBloom": "0x00000000000000000000000000000000000000000000000000000000000200000000000000000000000000000000000000000000000000000000000000000000000000000000000000000008000000000000000000000000000000000000000804000000020000000000000000000800000000000000000000000010000000000000000000000000000000000000000000000000000000000000000000000000000000000000000000000000000000000100000000000000000000000000000000000002000020000000000000000000000000000000000000000000000020000000000000000000000000000000100000000000000000000000000000000000",
      "type": "0x2",
      "transactionHash": "0x2a63688dcf9433f38ab5da8a1aff9579969096fe19308d8e3879b0dfac76805c",
      "transactionIndex": "0x2",
      "blockHash": "0xec1f19abbe0b3435f08f13632e405c1a6475b8ba2a6b7f8989e3ba7904cad1e6",
      "blockNumber": "0x1329a97",
      "gasUsed": "0x84a8",
      "effectiveGasPrice": "0xc88cb44",
      "blobGasPrice": "0x1",
      "from": "0x73109baf60bab74b9e8273dfd4236d17c56cfc67",
      "to": "0xaf75f1066a83d08229be323c9a0ec5713dac3354",
      "contractAddress": null,
      "root": "0x0000000000000000000000000000000000000000000000000000000000000000"
    },
    {
      "status": "0x1",
      "cumulativeGasUsed": "0x4b220",
      "logs": [
        {
          "address": "0xaf75f1066a83d08229be323c9a0ec5713dac3354",
          "topics": [
            "0xddf252ad1be2c89b69c2b068fc378daa952ba7f163c4a11628f55a4df523b3ef",
            "0x0000000000000000000000000000000000000000000000000000000000000000",
            "0x00000000000000000000000073109baf60bab74b9e8273dfd4236d17c56cfc67"
          ],
          "data": "0x00000000000000000000000000000000000000000000043c33c1937564800000",
          "blockHash": "0xec1f19abbe0b3435f08f13632e405c1a6475b8ba2a6b7f8989e3ba7904cad1e6",
          "blockNumber": "0x1329a97",
          "blockTimestamp": "0x666d5be7",
          "transactionHash": "0x9324d12ff519978f84f6320234cfbb821133acc17f87291fc372dd1b08ad7a0c",
          "transactionIndex": "0x3",
          "logIndex": "0x1",
          "removed": false
        }
      ],
      "logsBloom": "0x00000000000000000000000000000000000000000000000000000000000200000000000000000000000000000000000000000000000000000000000000000000000000000000000000000008000000000000000000000000000000000000000804000000020000000000000000000800000000000000000000000010000000000000000000000000000000000000000000000000000000000000000000000000000000000000000000000000000000000100000000000000000000000000000000000002000020000000000000000000000000000000000000000000000020000000000000000000000000000000100000000000000000000000000000000000",
      "type": "0x2",
      "transactionHash": "0x9324d12ff519978f84f6320234cfbb821133acc17f87291fc372dd1b08ad7a0c",
      "transactionIndex": "0x3",
      "blockHash": "0xec1f19abbe0b3435f08f13632e405c1a6475b8ba2a6b7f8989e3ba7904cad1e6",
      "blockNumber": "0x1329a97",
      "gasUsed": "0x84a8",
      "effectiveGasPrice": "0xc88cb44",
      "blobGasPrice": "0x1",
      "from": "0x73109baf60bab74b9e8273dfd4236d17c56cfc67",
      "to": "0xaf75f1066a83d08229be323c9a0ec5713dac3354",
      "contractAddress": null,
      "root": "0x0000000000000000000000000000000000000000000000000000000000000000"
    },
    {
      "status": "0x1",
      "cumulativeGasUsed": "0x84a8",
      "logs": [
        {
          "address": "0x91ace67ae6dfeff94f8cb9e6c3f9e09f99ae013a",
          "topics": [
            "0xddf252ad1be2c89b69c2b068fc378daa952ba7f163c4a11628f55a4df523b3ef",
            "0x0000000000000000000000000000000000000000000000000000000000000000",
            "0x00000000000000000000000073109baf60bab74b9e8273dfd4236d17c56cfc67"
          ],
          "data": "0x00000000000000000000000000000000000000000000043c33c1937564800000",
          "blockHash": "0x3dadd2acba157c6ce6594a37ee98586e4e715e7e714861251ebbafa8f3262329",
          "blockNumber": "0x1329a98",
          "blockTimestamp": "0x666d5be8",
          "transactionHash": "0x6697a273ba04ed4fca51b7c868c74c8b931393179be2a1de40c323685a259eb2",
          "transactionIndex": "0x0",
          "logIndex": "0x0",
          "removed": false
        }
      ],
      "logsBloom": "0x00000000000000000000004000000000000000000000000000000000000200000000000000000000000000000000000000000000000000000000000000000000000000000000000000000008000000000000000000000000000000000000000004000000020000000000000000000800000000000000000000000010000000000000000000000000000000000000000000000000000000000000000000000000000000000000000000000000000000000100000000000004000000000000000000000002000000000000000000000000000000000000000000000000000020000000000000000000000000000000000000000000000000000000000008000000",
      "type": "0x2",
      "transactionHash": "0x6697a273ba04ed4fca51b7c868c74c8b931393179be2a1de40c323685a259eb2",
      "transactionIndex": "0x0",
      "blockHash": "0x3dadd2acba157c6ce6594a37ee98586e4e715e7e714861251ebbafa8f3262329",
      "blockNumber": "0x1329a98",
      "gasUsed": "0x84a8",
      "effectiveGasPrice": "0xba81038",
      "blobGasPrice": "0x1",
      "from": "0x73109baf60bab74b9e8273dfd4236d17c56cfc67",
      "to": "0x91ace67ae6dfeff94f8cb9e6c3f9e09f99ae013a",
      "contractAddress": null,
      "root": "0x0000000000000000000000000000000000000000000000000000000000000000"
    },
    {
      "status": "0x1",
      "cumulativeGasUsed": "0x23309",
      "logs": [
        {
          "address": "0xbbbbbbbbbb9cc5e90e3b3af64bdaf62c37eeffcb",
          "topics": [
            "0xac4b2400f169220b0c0afdde7a0b32e775ba727ea1cb30b35f935cdaab8683ac",
            "0x73c805ae078a3df9eaa2fa5ae4d0e3080510b5dc6cb2e12284aa02e97d39dfa0"
          ],
          "data": "0x00000000000000000000000091ace67ae6dfeff94f8cb9e6c3f9e09f99ae013a000000000000000000000000af75f1066a83d08229be323c9a0ec5713dac335400000000000000000000000072c476549982ae8a10f9f13ee55939242db128d200000000000000000000000000000000000000000000000000000000000000000000000000000000000000000000000000000000000000000d1d507e40be8000",
          "blockHash": "0xdec6e5dd4312692382e6c790a9e2129a5abb7a20e5e70ae38971f3abd1b0ffe3",
          "blockNumber": "0x1329a99",
          "blockTimestamp": "0x666d5be9",
          "transactionHash": "0x5add9034f1a170dbdb4e068f170cdfa6ecf5cbee8c121dfb8c7c3b62f234e79b",
          "transactionIndex": "0x0",
          "logIndex": "0x0",
          "removed": false
        }
      ],
      "logsBloom": "0x00000000000000000000000000000800000000000000000000000000000000000000000000000000000000000000000000000000000000000000000000000000000000000010000000000000000000000000000000000000000000000000000000000000000000000000000000000000000000200000000000000040000000000000000000000088000000000000000000000000000000040000000000000000000000000000000000000000000000000000000000000000000000000000000020000000000000000000000000000000000000000000000000000000000000000000000000000000000000000000000000000000000000000000000000000010",
      "type": "0x2",
      "transactionHash": "0x5add9034f1a170dbdb4e068f170cdfa6ecf5cbee8c121dfb8c7c3b62f234e79b",
      "transactionIndex": "0x0",
      "blockHash": "0xdec6e5dd4312692382e6c790a9e2129a5abb7a20e5e70ae38971f3abd1b0ffe3",
      "blockNumber": "0x1329a99",
      "gasUsed": "0x23309",
      "effectiveGasPrice": "0xadf2c34",
      "blobGasPrice": "0x1",
      "from": "0x73109baf60bab74b9e8273dfd4236d17c56cfc67",
      "to": "0xbbbbbbbbbb9cc5e90e3b3af64bdaf62c37eeffcb",
      "contractAddress": null,
      "root": "0x0000000000000000000000000000000000000000000000000000000000000000"
    },
    {
      "status": "0x1",
      "cumulativeGasUsed": "0x70ed",
      "logs": [],
      "logsBloom": "0x00000000000000000000000000000000000000000000000000000000000000000000000000000000000000000000000000000000000000000000000000000000000000000000000000000000000000000000000000000000000000000000000000000000000000000000000000000000000000000000000000000000000000000000000000000000000000000000000000000000000000000000000000000000000000000000000000000000000000000000000000000000000000000000000000000000000000000000000000000000000000000000000000000000000000000000000000000000000000000000000000000000000000000000000000000000",
      "type": "0x2",
      "transactionHash": "0x164343ffbfeb78a2a56e460ba0b4feacfb1a91a8d1a4529324d54726758d0e39",
      "transactionIndex": "0x0",
      "blockHash": "0xa1edf92f72b59ba01a29b93095fecbaa42d484027d135e29b703f874fb11715c",
      "blockNumber": "0x1329a9a",
      "gasUsed": "0x70ed",
      "effectiveGasPrice": "0xa30a185",
      "blobGasPrice": "0x1",
      "from": "0x73109baf60bab74b9e8273dfd4236d17c56cfc67",
      "to": "0xbbbbbbbbbb9cc5e90e3b3af64bdaf62c37eeffcb",
      "contractAddress": null,
      "root": "0x0000000000000000000000000000000000000000000000000000000000000000"
    },
    {
      "status": "0x1",
      "cumulativeGasUsed": "0x125c2",
      "logs": [
        {
          "address": "0xaf75f1066a83d08229be323c9a0ec5713dac3354",
          "topics": [
            "0x8c5be1e5ebec7d5bd14f71427d1e84f3dd0314c0f7b2291e5b200ac8c7c3b925",
            "0x00000000000000000000000073109baf60bab74b9e8273dfd4236d17c56cfc67",
            "0x000000000000000000000000a057ad54d312e63f4081bd5089b0962ac3b89eed"
          ],
          "data": "0xffffffffffffffffffffffffffffffffffffffffffffffffffffffffffffffff",
          "blockHash": "0xa1edf92f72b59ba01a29b93095fecbaa42d484027d135e29b703f874fb11715c",
          "blockNumber": "0x1329a9a",
          "blockTimestamp": "0x666d5bea",
          "transactionHash": "0x5c49f63027708bc1db83a6fdb72f5e431c8c3d9fd6bbb5eab91f077bf1fdb598",
          "transactionIndex": "0x1",
          "logIndex": "0x0",
          "removed": false
        }
      ],
      "logsBloom": "0x00000000000000000000000000000000000000000000000000000000000200000000000000000000000000000000000000000000000000000000000000200000000000000000000000000000000000000000000000000000000000000000000804000000000000000000000000000000000000000000000000000000000000000000000000000000000000000000000000000000000000000000000000000000020000000000000000000000000000000100000000000000000000000000000000004000000020000000000000000000000000000008000000000000000000000010000400000000000000000000100000000000000000000000000000000000",
      "type": "0x2",
      "transactionHash": "0x5c49f63027708bc1db83a6fdb72f5e431c8c3d9fd6bbb5eab91f077bf1fdb598",
      "transactionIndex": "0x1",
      "blockHash": "0xa1edf92f72b59ba01a29b93095fecbaa42d484027d135e29b703f874fb11715c",
      "blockNumber": "0x1329a9a",
      "gasUsed": "0xb4d5",
      "effectiveGasPrice": "0xa30a185",
      "blobGasPrice": "0x1",
      "from": "0x73109baf60bab74b9e8273dfd4236d17c56cfc67",
      "to": "0xaf75f1066a83d08229be323c9a0ec5713dac3354",
      "contractAddress": null,
      "root": "0x0000000000000000000000000000000000000000000000000000000000000000"
    },
    {
      "status": "0x1",
      "cumulativeGasUsed": "0x1db93",
      "logs": [
        {
          "address": "0xaf75f1066a83d08229be323c9a0ec5713dac3354",
          "topics": [
            "0x8c5be1e5ebec7d5bd14f71427d1e84f3dd0314c0f7b2291e5b200ac8c7c3b925",
            "0x000000000000000000000000a057ad54d312e63f4081bd5089b0962ac3b89eed",
            "0x000000000000000000000000bbbbbbbbbb9cc5e90e3b3af64bdaf62c37eeffcb"
          ],
          "data": "0xffffffffffffffffffffffffffffffffffffffffffffffffffffffffffffffff",
          "blockHash": "0x4bccd286b67049d57d988a124966b0c8a1968e35198b4bac18403152050aede4",
          "blockNumber": "0x1329a9b",
          "blockTimestamp": "0x666d5beb",
          "transactionHash": "0x4bd7669ed699660aa9684ab59e95e9ff6ede510de5ebed635a9cf2804053ba1c",
          "transactionIndex": "0x0",
          "logIndex": "0x0",
          "removed": false
        },
        {
          "address": "0xaf75f1066a83d08229be323c9a0ec5713dac3354",
          "topics": [
            "0xddf252ad1be2c89b69c2b068fc378daa952ba7f163c4a11628f55a4df523b3ef",
            "0x00000000000000000000000073109baf60bab74b9e8273dfd4236d17c56cfc67",
            "0x000000000000000000000000a057ad54d312e63f4081bd5089b0962ac3b89eed"
          ],
          "data": "0x00000000000000000000000000000000000000000000006c6b935b8bbd400000",
          "blockHash": "0x4bccd286b67049d57d988a124966b0c8a1968e35198b4bac18403152050aede4",
          "blockNumber": "0x1329a9b",
          "blockTimestamp": "0x666d5beb",
          "transactionHash": "0x4bd7669ed699660aa9684ab59e95e9ff6ede510de5ebed635a9cf2804053ba1c",
          "transactionIndex": "0x0",
          "logIndex": "0x1",
          "removed": false
        },
        {
          "address": "0xbbbbbbbbbb9cc5e90e3b3af64bdaf62c37eeffcb",
          "topics": [
            "0xa3b9472a1399e17e123f3c2e6586c23e504184d504de59cdaa2b375e880c6184",
            "0x73c805ae078a3df9eaa2fa5ae4d0e3080510b5dc6cb2e12284aa02e97d39dfa0",
            "0x000000000000000000000000a057ad54d312e63f4081bd5089b0962ac3b89eed",
            "0x00000000000000000000000073109baf60bab74b9e8273dfd4236d17c56cfc67"
          ],
          "data": "0x00000000000000000000000000000000000000000000006c6b935b8bbd400000",
          "blockHash": "0x4bccd286b67049d57d988a124966b0c8a1968e35198b4bac18403152050aede4",
          "blockNumber": "0x1329a9b",
          "blockTimestamp": "0x666d5beb",
          "transactionHash": "0x4bd7669ed699660aa9684ab59e95e9ff6ede510de5ebed635a9cf2804053ba1c",
          "transactionIndex": "0x0",
          "logIndex": "0x2",
          "removed": false
        },
        {
          "address": "0xaf75f1066a83d08229be323c9a0ec5713dac3354",
          "topics": [
            "0xddf252ad1be2c89b69c2b068fc378daa952ba7f163c4a11628f55a4df523b3ef",
            "0x000000000000000000000000a057ad54d312e63f4081bd5089b0962ac3b89eed",
            "0x000000000000000000000000bbbbbbbbbb9cc5e90e3b3af64bdaf62c37eeffcb"
          ],
          "data": "0x00000000000000000000000000000000000000000000006c6b935b8bbd400000",
          "blockHash": "0x4bccd286b67049d57d988a124966b0c8a1968e35198b4bac18403152050aede4",
          "blockNumber": "0x1329a9b",
          "blockTimestamp": "0x666d5beb",
          "transactionHash": "0x4bd7669ed699660aa9684ab59e95e9ff6ede510de5ebed635a9cf2804053ba1c",
          "transactionIndex": "0x0",
          "logIndex": "0x3",
          "removed": false
        }
      ],
      "logsBloom": "0x00000000000000000000000000000080000000000000000000000000000200000000000000000000000000000000000000000000000000000000000000200000000000000010000000000008000000000000000000000000000000000000000804000000000000000000000000000000000000200000000000000010000000000000008000000088000000000000000000000000000000040000000000000000020000000000000000000000000000000100000000000000000000000000000020004002000020000000000000000000000000000008000400000000000000000010000401000000000000200000300000000000000000000000000000000000",
      "type": "0x2",
      "transactionHash": "0x4bd7669ed699660aa9684ab59e95e9ff6ede510de5ebed635a9cf2804053ba1c",
      "transactionIndex": "0x0",
      "blockHash": "0x4bccd286b67049d57d988a124966b0c8a1968e35198b4bac18403152050aede4",
      "blockNumber": "0x1329a9b",
      "gasUsed": "0x1db93",
      "effectiveGasPrice": "0x996fcd5",
      "blobGasPrice": "0x1",
      "from": "0x73109baf60bab74b9e8273dfd4236d17c56cfc67",
      "to": "0xa057ad54d312e63f4081bd5089b0962ac3b89eed",
      "contractAddress": null,
      "root": "0x0000000000000000000000000000000000000000000000000000000000000000"
    },
    {
      "status": "0x1",
      "cumulativeGasUsed": "0xb4d5",
      "logs": [
        {
          "address": "0x91ace67ae6dfeff94f8cb9e6c3f9e09f99ae013a",
          "topics": [
            "0x8c5be1e5ebec7d5bd14f71427d1e84f3dd0314c0f7b2291e5b200ac8c7c3b925",
            "0x00000000000000000000000073109baf60bab74b9e8273dfd4236d17c56cfc67",
            "0x000000000000000000000000a057ad54d312e63f4081bd5089b0962ac3b89eed"
          ],
          "data": "0xffffffffffffffffffffffffffffffffffffffffffffffffffffffffffffffff",
          "blockHash": "0x2e1d4752355ca01c791b20820062ea343b7511a5ce6a1ee863ab466818e9afd5",
          "blockNumber": "0x1329a9c",
          "blockTimestamp": "0x666d5bec",
          "transactionHash": "0xd19a0ef9e4b00e9e628b22502343b5426c09c7d8410e934fd23cef36db3709b7",
          "transactionIndex": "0x0",
          "logIndex": "0x0",
          "removed": false
        }
      ],
      "logsBloom": "0x00000000000000000000004000000000000000000000000000000000000200000000000000000000000000000000000000000000000000000000000000200000000000000000000000000000000000000000000000000000000000000000000004000000000000000000000000000000000000000000000000000000000000000000000000000000000000000000000000000000000000000000000000000000020000000000000000000000000000000100000000000004000000000000000000004000000000000000000000000000000000000008000000000000000000000010000400000000000000000000000000000000000000000000000008000000",
      "type": "0x2",
      "transactionHash": "0xd19a0ef9e4b00e9e628b22502343b5426c09c7d8410e934fd23cef36db3709b7",
      "transactionIndex": "0x0",
      "blockHash": "0x2e1d4752355ca01c791b20820062ea343b7511a5ce6a1ee863ab466818e9afd5",
      "blockNumber": "0x1329a9c",
      "gasUsed": "0xb4d5",
      "effectiveGasPrice": "0x910df7d",
      "blobGasPrice": "0x1",
      "from": "0x73109baf60bab74b9e8273dfd4236d17c56cfc67",
      "to": "0x91ace67ae6dfeff94f8cb9e6c3f9e09f99ae013a",
      "contractAddress": null,
      "root": "0x0000000000000000000000000000000000000000000000000000000000000000"
    },
    {
      "status": "0x1",
      "cumulativeGasUsed": "0x2ffb6",
      "logs": [
        {
          "address": "0x91ace67ae6dfeff94f8cb9e6c3f9e09f99ae013a",
          "topics": [
            "0x8c5be1e5ebec7d5bd14f71427d1e84f3dd0314c0f7b2291e5b200ac8c7c3b925",
            "0x000000000000000000000000a057ad54d312e63f4081bd5089b0962ac3b89eed",
            "0x000000000000000000000000bbbbbbbbbb9cc5e90e3b3af64bdaf62c37eeffcb"
          ],
          "data": "0xffffffffffffffffffffffffffffffffffffffffffffffffffffffffffffffff",
          "blockHash": "0x2e1d4752355ca01c791b20820062ea343b7511a5ce6a1ee863ab466818e9afd5",
          "blockNumber": "0x1329a9c",
          "blockTimestamp": "0x666d5bec",
          "transactionHash": "0x72a1fc29602fc5caf34002d3ba5245087fb4a257f09cce1d3c27661b94098370",
          "transactionIndex": "0x1",
          "logIndex": "0x1",
          "removed": false
        },
        {
          "address": "0x91ace67ae6dfeff94f8cb9e6c3f9e09f99ae013a",
          "topics": [
            "0xddf252ad1be2c89b69c2b068fc378daa952ba7f163c4a11628f55a4df523b3ef",
            "0x00000000000000000000000073109baf60bab74b9e8273dfd4236d17c56cfc67",
            "0x000000000000000000000000a057ad54d312e63f4081bd5089b0962ac3b89eed"
          ],
          "data": "0x00000000000000000000000000000000000000000000006c6b935b8bbd400000",
          "blockHash": "0x2e1d4752355ca01c791b20820062ea343b7511a5ce6a1ee863ab466818e9afd5",
          "blockNumber": "0x1329a9c",
          "blockTimestamp": "0x666d5bec",
          "transactionHash": "0x72a1fc29602fc5caf34002d3ba5245087fb4a257f09cce1d3c27661b94098370",
          "transactionIndex": "0x1",
          "logIndex": "0x2",
          "removed": false
        },
        {
          "address": "0xbbbbbbbbbb9cc5e90e3b3af64bdaf62c37eeffcb",
          "topics": [
            "0xedf8870433c83823eb071d3df1caa8d008f12f6440918c20d75a3602cda30fe0",
            "0x73c805ae078a3df9eaa2fa5ae4d0e3080510b5dc6cb2e12284aa02e97d39dfa0",
            "0x000000000000000000000000a057ad54d312e63f4081bd5089b0962ac3b89eed",
            "0x00000000000000000000000073109baf60bab74b9e8273dfd4236d17c56cfc67"
          ],
          "data": "0x00000000000000000000000000000000000000000000006c6b935b8bbd400000000000000000000000000000000000000000000006765c793fa10079d0000000",
          "blockHash": "0x2e1d4752355ca01c791b20820062ea343b7511a5ce6a1ee863ab466818e9afd5",
          "blockNumber": "0x1329a9c",
          "blockTimestamp": "0x666d5bec",
          "transactionHash": "0x72a1fc29602fc5caf34002d3ba5245087fb4a257f09cce1d3c27661b94098370",
          "transactionIndex": "0x1",
          "logIndex": "0x3",
          "removed": false
        },
        {
          "address": "0x91ace67ae6dfeff94f8cb9e6c3f9e09f99ae013a",
          "topics": [
            "0xddf252ad1be2c89b69c2b068fc378daa952ba7f163c4a11628f55a4df523b3ef",
            "0x000000000000000000000000a057ad54d312e63f4081bd5089b0962ac3b89eed",
            "0x000000000000000000000000bbbbbbbbbb9cc5e90e3b3af64bdaf62c37eeffcb"
          ],
          "data": "0x00000000000000000000000000000000000000000000006c6b935b8bbd400000",
          "blockHash": "0x2e1d4752355ca01c791b20820062ea343b7511a5ce6a1ee863ab466818e9afd5",
          "blockNumber": "0x1329a9c",
          "blockTimestamp": "0x666d5bec",
          "transactionHash": "0x72a1fc29602fc5caf34002d3ba5245087fb4a257f09cce1d3c27661b94098370",
          "transactionIndex": "0x1",
          "logIndex": "0x4",
          "removed": false
        }
      ],
      "logsBloom": "0x00000000000000000000004000000080000000000000000000000000000200000000000000000000000000000000000000000000000000000000000000200000000000000010000000000008800000000000000800000000000000000000000004000000000000000000000000000000000000200000000000000010000000000000000000000088000000000000000000000000000000040000000000000000020000000000000000000000000000000100000000000004000000000000000020004002000000000000000000000000000000000008000000000000000000400010000401000000000000200000000000000000000000000000000008000000",
      "type": "0x2",
      "transactionHash": "0x72a1fc29602fc5caf34002d3ba5245087fb4a257f09cce1d3c27661b94098370",
      "transactionIndex": "0x1",
      "blockHash": "0x2e1d4752355ca01c791b20820062ea343b7511a5ce6a1ee863ab466818e9afd5",
      "blockNumber": "0x1329a9c",
      "gasUsed": "0x24ae1",
      "effectiveGasPrice": "0x910df7d",
      "blobGasPrice": "0x1",
      "from": "0x73109baf60bab74b9e8273dfd4236d17c56cfc67",
      "to": "0xa057ad54d312e63f4081bd5089b0962ac3b89eed",
      "contractAddress": null,
      "root": "0x0000000000000000000000000000000000000000000000000000000000000000"
    },
    {
      "status": "0x1",
      "cumulativeGasUsed": "0x3c72a",
      "logs": [
        {
          "address": "0x91ace67ae6dfeff94f8cb9e6c3f9e09f99ae013a",
          "topics": [
            "0xddf252ad1be2c89b69c2b068fc378daa952ba7f163c4a11628f55a4df523b3ef",
            "0x0000000000000000000000000000000000000000000000000000000000000000",
            "0x000000000000000000000000a057ad54d312e63f4081bd5089b0962ac3b89eed"
          ],
          "data": "0x00000000000000000000000000000000000000000000043c33c1937564800000",
          "blockHash": "0x2e1d4752355ca01c791b20820062ea343b7511a5ce6a1ee863ab466818e9afd5",
          "blockNumber": "0x1329a9c",
          "blockTimestamp": "0x666d5bec",
          "transactionHash": "0x5d50693c45d7d72b320a3b3efabe97cbf49b4a3ebc81e2394ca6c54978ae8e86",
          "transactionIndex": "0x2",
          "logIndex": "0x5",
          "removed": false
        }
      ],
      "logsBloom": "0x00000000000000000000004000000000000000000000000000000000000000000000000000000000000000000000000000000000000000000000000000000000000000000000000000000008000000000000000000000000000000000000000000000000020000000000000000000800000000000000000000000010000000000000000000000000000000000000000000000000000000000000000000000000000000000000000000000000000000000000000000000004000000000000000000004002000000000000000000000000000000000008000000000000000020000000000400000000000000000000000000000000000000000000000008000000",
      "type": "0x2",
      "transactionHash": "0x5d50693c45d7d72b320a3b3efabe97cbf49b4a3ebc81e2394ca6c54978ae8e86",
      "transactionIndex": "0x2",
      "blockHash": "0x2e1d4752355ca01c791b20820062ea343b7511a5ce6a1ee863ab466818e9afd5",
      "blockNumber": "0x1329a9c",
      "gasUsed": "0xc774",
      "effectiveGasPrice": "0x910df7d",
      "blobGasPrice": "0x1",
      "from": "0x73109baf60bab74b9e8273dfd4236d17c56cfc67",
      "to": "0x91ace67ae6dfeff94f8cb9e6c3f9e09f99ae013a",
      "contractAddress": null,
      "root": "0x0000000000000000000000000000000000000000000000000000000000000000"
    },
    {
      "status": "0x1",
      "cumulativeGasUsed": "0x6719",
      "logs": [
        {
          "address": "0xaf75f1066a83d08229be323c9a0ec5713dac3354",
          "topics": [
            "0x8c5be1e5ebec7d5bd14f71427d1e84f3dd0314c0f7b2291e5b200ac8c7c3b925",
            "0x00000000000000000000000073109baf60bab74b9e8273dfd4236d17c56cfc67",
            "0x000000000000000000000000a057ad54d312e63f4081bd5089b0962ac3b89eed"
          ],
          "data": "0xffffffffffffffffffffffffffffffffffffffffffffffffffffffffffffffff",
          "blockHash": "0x85d787864617857f7b1a4cfaf56e4539405350895b0dde775679e94343e3fe88",
          "blockNumber": "0x1329a9d",
          "blockTimestamp": "0x666d5bed",
          "transactionHash": "0xd6fc7b97c66e328740196af63fd21edd43f742ee9d4af05f4e38c4ebaa7bc494",
          "transactionIndex": "0x0",
          "logIndex": "0x0",
          "removed": false
        }
      ],
      "logsBloom": "0x00000000000000000000000000000000000000000000000000000000000200000000000000000000000000000000000000000000000000000000000000200000000000000000000000000000000000000000000000000000000000000000000804000000000000000000000000000000000000000000000000000000000000000000000000000000000000000000000000000000000000000000000000000000020000000000000000000000000000000100000000000000000000000000000000004000000020000000000000000000000000000008000000000000000000000010000400000000000000000000100000000000000000000000000000000000",
      "type": "0x2",
      "transactionHash": "0xd6fc7b97c66e328740196af63fd21edd43f742ee9d4af05f4e38c4ebaa7bc494",
      "transactionIndex": "0x0",
      "blockHash": "0x85d787864617857f7b1a4cfaf56e4539405350895b0dde775679e94343e3fe88",
      "blockNumber": "0x1329a9d",
      "gasUsed": "0x6719",
      "effectiveGasPrice": "0x89c6161",
      "blobGasPrice": "0x1",
      "from": "0x73109baf60bab74b9e8273dfd4236d17c56cfc67",
      "to": "0xaf75f1066a83d08229be323c9a0ec5713dac3354",
      "contractAddress": null,
      "root": "0x0000000000000000000000000000000000000000000000000000000000000000"
    },
    {
      "status": "0x1",
      "cumulativeGasUsed": "0x1118c",
      "logs": [
        {
          "address": "0xaf75f1066a83d08229be323c9a0ec5713dac3354",
          "topics": [
            "0x8c5be1e5ebec7d5bd14f71427d1e84f3dd0314c0f7b2291e5b200ac8c7c3b925",
            "0x000000000000000000000000a057ad54d312e63f4081bd5089b0962ac3b89eed",
            "0x000000000000000000000000bbbbbbbbbb9cc5e90e3b3af64bdaf62c37eeffcb"
          ],
          "data": "0xffffffffffffffffffffffffffffffffffffffffffffffffffffffffffffffff",
          "blockHash": "0x2da15ab598415bc289e9c57ccfb6d5f097c5d3129de490b04ddcfc9ee42126c7",
          "blockNumber": "0x1329a9e",
          "blockTimestamp": "0x666d5bee",
          "transactionHash": "0xbf027b0efd37736c0c22ca2fd09775b9fdbe28396503c25a6c6299d8adf6a431",
          "transactionIndex": "0x0",
          "logIndex": "0x0",
          "removed": false
        },
        {
          "address": "0xaf75f1066a83d08229be323c9a0ec5713dac3354",
          "topics": [
            "0xddf252ad1be2c89b69c2b068fc378daa952ba7f163c4a11628f55a4df523b3ef",
            "0x00000000000000000000000073109baf60bab74b9e8273dfd4236d17c56cfc67",
            "0x000000000000000000000000a057ad54d312e63f4081bd5089b0962ac3b89eed"
          ],
          "data": "0x0000000000000000000000000000000000000000000000008ac7230489e80000",
          "blockHash": "0x2da15ab598415bc289e9c57ccfb6d5f097c5d3129de490b04ddcfc9ee42126c7",
          "blockNumber": "0x1329a9e",
          "blockTimestamp": "0x666d5bee",
          "transactionHash": "0xbf027b0efd37736c0c22ca2fd09775b9fdbe28396503c25a6c6299d8adf6a431",
          "transactionIndex": "0x0",
          "logIndex": "0x1",
          "removed": false
        },
        {
          "address": "0xbbbbbbbbbb9cc5e90e3b3af64bdaf62c37eeffcb",
          "topics": [
            "0xa3b9472a1399e17e123f3c2e6586c23e504184d504de59cdaa2b375e880c6184",
            "0x73c805ae078a3df9eaa2fa5ae4d0e3080510b5dc6cb2e12284aa02e97d39dfa0",
            "0x000000000000000000000000a057ad54d312e63f4081bd5089b0962ac3b89eed",
            "0x00000000000000000000000073109baf60bab74b9e8273dfd4236d17c56cfc67"
          ],
          "data": "0x0000000000000000000000000000000000000000000000008ac7230489e80000",
          "blockHash": "0x2da15ab598415bc289e9c57ccfb6d5f097c5d3129de490b04ddcfc9ee42126c7",
          "blockNumber": "0x1329a9e",
          "blockTimestamp": "0x666d5bee",
          "transactionHash": "0xbf027b0efd37736c0c22ca2fd09775b9fdbe28396503c25a6c6299d8adf6a431",
          "transactionIndex": "0x0",
          "logIndex": "0x2",
          "removed": false
        },
        {
          "address": "0xaf75f1066a83d08229be323c9a0ec5713dac3354",
          "topics": [
            "0xddf252ad1be2c89b69c2b068fc378daa952ba7f163c4a11628f55a4df523b3ef",
            "0x000000000000000000000000a057ad54d312e63f4081bd5089b0962ac3b89eed",
            "0x000000000000000000000000bbbbbbbbbb9cc5e90e3b3af64bdaf62c37eeffcb"
          ],
          "data": "0x0000000000000000000000000000000000000000000000008ac7230489e80000",
          "blockHash": "0x2da15ab598415bc289e9c57ccfb6d5f097c5d3129de490b04ddcfc9ee42126c7",
          "blockNumber": "0x1329a9e",
          "blockTimestamp": "0x666d5bee",
          "transactionHash": "0xbf027b0efd37736c0c22ca2fd09775b9fdbe28396503c25a6c6299d8adf6a431",
          "transactionIndex": "0x0",
          "logIndex": "0x3",
          "removed": false
        }
      ],
      "logsBloom": "0x00000000000000000000000000000080000000000000000000000000000200000000000000000000000000000000000000000000000000000000000000200000000000000010000000000008000000000000000000000000000000000000000804000000000000000000000000000000000000200000000000000010000000000000008000000088000000000000000000000000000000040000000000000000020000000000000000000000000000000100000000000000000000000000000020004002000020000000000000000000000000000008000400000000000000000010000401000000000000200000300000000000000000000000000000000000",
      "type": "0x2",
      "transactionHash": "0xbf027b0efd37736c0c22ca2fd09775b9fdbe28396503c25a6c6299d8adf6a431",
      "transactionIndex": "0x0",
      "blockHash": "0x2da15ab598415bc289e9c57ccfb6d5f097c5d3129de490b04ddcfc9ee42126c7",
      "blockNumber": "0x1329a9e",
      "gasUsed": "0x1118c",
      "effectiveGasPrice": "0x834ad51",
      "blobGasPrice": "0x1",
      "from": "0x73109baf60bab74b9e8273dfd4236d17c56cfc67",
      "to": "0xa057ad54d312e63f4081bd5089b0962ac3b89eed",
      "contractAddress": null,
      "root": "0x0000000000000000000000000000000000000000000000000000000000000000"
    },
    {
      "status": "0x1",
      "cumulativeGasUsed": "0x92a4",
      "logs": [],
      "logsBloom": "0x00000000000000000000000000000000000000000000000000000000000000000000000000000000000000000000000000000000000000000000000000000000000000000000000000000000000000000000000000000000000000000000000000000000000000000000000000000000000000000000000000000000000000000000000000000000000000000000000000000000000000000000000000000000000000000000000000000000000000000000000000000000000000000000000000000000000000000000000000000000000000000000000000000000000000000000000000000000000000000000000000000000000000000000000000000000",
      "type": "0x2",
      "transactionHash": "0xa82d30a3c1f52103aef59200ebf5b501d1aa61511d105eba823ddcd5c5bd0279",
      "transactionIndex": "0x0",
      "blockHash": "0x5fad06fad66cfa06f42045d3dd259092972e43fce1f54d6dda27220b985ac4fe",
      "blockNumber": "0x1329a9f",
      "gasUsed": "0x92a4",
      "effectiveGasPrice": "0x7da2da2",
      "blobGasPrice": "0x1",
      "from": "0x73109baf60bab74b9e8273dfd4236d17c56cfc67",
      "to": "0xa057ad54d312e63f4081bd5089b0962ac3b89eed",
      "contractAddress": null,
      "root": "0x0000000000000000000000000000000000000000000000000000000000000000"
    },
    {
      "status": "0x1",
      "cumulativeGasUsed": "0x171cb",
      "logs": [
        {
          "address": "0xbbbbbbbbbb9cc5e90e3b3af64bdaf62c37eeffcb",
          "topics": [
            "0x570954540bed6b1304a87dfe815a5eda4a648f7097a16240dcd85c9b5fd42a43",
            "0x73c805ae078a3df9eaa2fa5ae4d0e3080510b5dc6cb2e12284aa02e97d39dfa0",
            "0x00000000000000000000000073109baf60bab74b9e8273dfd4236d17c56cfc67",
            "0x00000000000000000000000073109baf60bab74b9e8273dfd4236d17c56cfc67"
          ],
          "data": "0x000000000000000000000000a057ad54d312e63f4081bd5089b0962ac3b89eed000000000000000000000000000000000000000000000000000000000002ed640000000000000000000000000000000000000000000000000000002caacb2100",
          "blockHash": "0xa5e7f07e6df4228df364329a222f7e0545ab2465e2c7a981f18082d526e5792e",
          "blockNumber": "0x1329aa0",
          "blockTimestamp": "0x666d5bf0",
          "transactionHash": "0x65edecdc5d2cced7d4918ad910b00bf24053ce195503c131b9bf9d2cd0a31dbd",
          "transactionIndex": "0x0",
          "logIndex": "0x0",
          "removed": false
        },
        {
          "address": "0x91ace67ae6dfeff94f8cb9e6c3f9e09f99ae013a",
          "topics": [
            "0xddf252ad1be2c89b69c2b068fc378daa952ba7f163c4a11628f55a4df523b3ef",
            "0x000000000000000000000000bbbbbbbbbb9cc5e90e3b3af64bdaf62c37eeffcb",
            "0x00000000000000000000000073109baf60bab74b9e8273dfd4236d17c56cfc67"
          ],
          "data": "0x000000000000000000000000000000000000000000000000000000000002ed64",
          "blockHash": "0xa5e7f07e6df4228df364329a222f7e0545ab2465e2c7a981f18082d526e5792e",
          "blockNumber": "0x1329aa0",
          "blockTimestamp": "0x666d5bf0",
          "transactionHash": "0x65edecdc5d2cced7d4918ad910b00bf24053ce195503c131b9bf9d2cd0a31dbd",
          "transactionIndex": "0x0",
          "logIndex": "0x1",
          "removed": false
        }
      ],
      "logsBloom": "0x00000000000000000002004000000080000000000000000000000000000200000000000000000000000000000000000000000000000000000000000000000000000000000010000000000008000000000000000000000000000000000000000004000000000000000000000000000000000000200000000000000010000000000000000000000088000000000000000000000000000000040000000000000000000000000000000000000000000000000100000000000004000000000000000020000002000000000000000000000000000000000000000000000000000000000000004001000008000000200000000000000000000000000000000008000000",
      "type": "0x2",
      "transactionHash": "0x65edecdc5d2cced7d4918ad910b00bf24053ce195503c131b9bf9d2cd0a31dbd",
      "transactionIndex": "0x0",
      "blockHash": "0xa5e7f07e6df4228df364329a222f7e0545ab2465e2c7a981f18082d526e5792e",
      "blockNumber": "0x1329aa0",
      "gasUsed": "0x171cb",
      "effectiveGasPrice": "0x78ac440",
      "blobGasPrice": "0x1",
      "from": "0x73109baf60bab74b9e8273dfd4236d17c56cfc67",
      "to": "0xa057ad54d312e63f4081bd5089b0962ac3b89eed",
      "contractAddress": null,
      "root": "0x0000000000000000000000000000000000000000000000000000000000000000"
    },
    {
      "status": "0x1",
      "cumulativeGasUsed": "0x6669",
      "logs": [],
      "logsBloom": "0x00000000000000000000000000000000000000000000000000000000000000000000000000000000000000000000000000000000000000000000000000000000000000000000000000000000000000000000000000000000000000000000000000000000000000000000000000000000000000000000000000000000000000000000000000000000000000000000000000000000000000000000000000000000000000000000000000000000000000000000000000000000000000000000000000000000000000000000000000000000000000000000000000000000000000000000000000000000000000000000000000000000000000000000000000000000",
      "type": "0x2",
      "transactionHash": "0xb605da020aa83a8ad21f3d5d66f9eb54c2905d19b566e008c4e7b54af6cbae4e",
      "transactionIndex": "0x0",
      "blockHash": "0x0a7a659920e4ff33a05cc83e67f42b5005d07c2dc4abb4204584633ee7fea358",
      "blockNumber": "0x1329aa1",
      "gasUsed": "0x6669",
      "effectiveGasPrice": "0x745859e",
      "blobGasPrice": "0x1",
      "from": "0x73109baf60bab74b9e8273dfd4236d17c56cfc67",
      "to": "0x72c476549982ae8a10f9f13ee55939242db128d2",
      "contractAddress": null,
      "root": "0x0000000000000000000000000000000000000000000000000000000000000000"
    }
  ],
  "libraries": [],
  "pending": [],
  "returns": {},
  "timestamp": 1718557193,
  "chain": 1,
  "commit": "201e34d"
}