{
  "transactions": [
    {
      "hash": "0x7cffafe22af41f69074cd88265214023de7e453e8eef779b70442aa000e63abc",
      "transactionType": "CREATE",
      "contractName": "Liquidator",
      "contractAddress": "0x9db9d7dbb584f4b10a829ba1dc1e19ac00e2eba9",
      "function": null,
      "arguments": [
        "0xBBBBBbbBBb9cC5e90e3b3Af64bdAF62C37EEFFCb",
        "0xE592427A0AEce92De3Edee1F18E0157C05861564"
      ],
      "transaction": {
        "from": "0x73109baf60bab74b9e8273dfd4236d17c56cfc67",
        "gas": "0x266f70",
        "value": "0x0",
        "input": "0x60c0346200016157601f6200233238819003918201601f19168301916001600160401b038311848410176200016657808492604094855283398101031262000161576200005a602062000052836200017c565b92016200017c565b903315620001485760008054336001600160a01b0319821681178355604051946001600160a01b0394909385939192918416907f8be0079c531659141344cd1fd0a4f28419497f9722a3daafe3b4186f6b6457e09080a3166080521660a0526121a09081620001928239608051818181610159015281816102f90152818161038c0152818161040d01528181610506015281816106500152818161080501528181610858015281816109dc01528181610c6801528181610d8701528181610de3015281816110a70152818161114e01528181611250015281816113ec015261174e015260a051816113160152f35b604051631e4fbdf760e01b815260006004820152602490fd5b600080fd5b634e487b7160e01b600052604160045260246000fd5b51906001600160a01b0382168203620001615756fe6040608081526004908136101561001557600080fd5b600091823560e01c9081629f7501146113b35781630a0a3fe91461137157816320154288146113455781632b3297f9146113015781633c0ebf60146112e6578382635024e5751461123157508163559cb3a9146110d15781636b116ebc14610d04578163706eaf1314610c37578163715018a614610bda5781637362377b14610b8e5781638947606914610ac35781638da5cb5b14610a9b578163a01225ca146109a9578163b4dfbfe414610830578163b936ba0c146107d8578163ba570dbf1461061f578163c1195161146105dd578163cd32e0b5146104d5578163cf7ea196146103bb578163d8fbc83314610377578163e0317517146102b2578163e42c08f214610218578163f2fde38b1461018b575063f367be6b1461013757600080fd5b346101875760a03660031901126101875760209061017d610157366115ac565b7f0000000000000000000000000000000000000000000000000000000000000000611cea565b5092519283525050f35b5080fd5b905034610214576020366003190112610214576101a6611596565b906101af611ac3565b6001600160a01b039182169283156101fe5750506000548260018060a01b0319821617600055167f8be0079c531659141344cd1fd0a4f28419497f9722a3daafe3b4186f6b6457e0600080a380f35b51631e4fbdf760e01b8152908101849052602490fd5b8280fd5b8383346101875760209283600319360112610214576001600160a01b03908490602483610243611596565b169386541691855194859384926370a0823160e01b84528301525afa9283156102a75792610273575b5051908152f35b9091508281813d83116102a0575b61028b818361155f565b8101031261029b5751908361026c565b600080fd5b503d610281565b8251903d90823e3d90fd5b839150346101875760c036600319011261018757826102f4916102d4366115ac565b82516350d8cd4b60e01b815293849283923391829160a435918601611939565b0381857f00000000000000000000000000000000000000000000000000000000000000006001600160a01b03165af190811561036d57829161033e575b5082519182526020820152f35b90506103609150823d8411610366575b610358818361155f565b8101906118aa565b83610331565b503d61034e565b83513d84823e3d90fd5b505034610187578160031936011261018757517f00000000000000000000000000000000000000000000000000000000000000006001600160a01b03168152602090f35b905034610214578160031936011261021457602435916001600160401b038084116104d157366023850112156104d157838301359081116104d15783013660248201116104d1576001600160a01b03927f00000000000000000000000000000000000000000000000000000000000000008416330361048e575083602091031261048a57602481519361044d856114f3565b01359182169182810361029b576020935251908152207f66f7054e689959c3bda7f62e0d02c602abe5123a8e5cfb0b260190d3bb4fce868280a280f35b8380fd5b606490602084519162461bcd60e51b8352820152602060248201527f6d73672e73656e6465722073686f756c64206265204d6f7270686f20426c75656044820152fd5b8480fd5b839150346101875760a0366003190112610187576104f2366115ac565b60a0812084516349e2903160e11b815291927f00000000000000000000000000000000000000000000000000000000000000006001600160a01b0316929091606090829081906105469033908388016116ec565b0381865afa9081156105d3579185879492610586969482916105a4575b505160011c855196879586948593635c2bea4960e01b8552339233928601611900565b03925af190811561036d57829161033e575082519182526020820152f35b6105c6915060603d6060116105cc575b6105be818361155f565b81019061169b565b89610563565b503d6105b4565b86513d87823e3d90fd5b839150346101875760c036600319011261018757826102f4916105ff366115ac565b8251635c2bea4960e01b815293849283923391829160a435918601611939565b839150346101875760c03660031901126101875761063c366115ac565b9060a43560018060a01b03908184511691807f000000000000000000000000000000000000000000000000000000000000000016928751906020820163095ea7b360e01b9081815286602485015260001960448501526044845260808401906001600160401b0391858110838211176107c357918b80809795938f9c9b9a9997958d5286519082875af16106ce611972565b81610794575b508061078a575b15610716575b50505050956106fa836105869883511630903390611a10565b855163a99aad8960e01b815296879586948593339285016119b1565b919395979996989092945051916020830152876024830152896044830152604482526080820190828210908211176107755795809461076d8b958d9a98956107686106fa966105869e9c8e5282611c52565b611c52565b92988c6106e1565b604189634e487b7160e01b6000525260246000fd5b50823b15156106db565b80518015925082156107a9575b50508e6106d4565b6107bc9250602080918301019101611619565b8e806107a1565b60418a634e487b7160e01b6000525260246000fd5b5050346101875760c0366003190112610187576020906108296107fa366115ac565b610802611580565b907f0000000000000000000000000000000000000000000000000000000000000000611a54565b9051908152f35b9050346102145760c03660031901126102145761084c366115ac565b610854611580565b93807f0000000000000000000000000000000000000000000000000000000000000000956108b06108be60a0862088516020810191825260028a82015289815261089d81611544565b5190208851928391602083019586611631565b03601f19810183528261155f565b51902091610996575060006108d56108ed92612077565b855180938192637784c68560e01b8352878301611b6a565b03816001600160a01b0389165afa90811561098b57610920929161091991600091610968575b50611ba6565b5194611cea565b50509390916001830180931161095357620f4240850180951161095357509261094e61082992602095611ab0565b6119f0565b601190634e487b7160e01b6000525260246000fd5b61098591503d806000833e61097d818361155f565b810190611aef565b38610913565b84513d6000823e3d90fd5b634e487b7160e01b815260118452602490fd5b839150346101875760c0366003190112610187576109c6366115ac565b60a43560018060a01b03918281511692856020827f0000000000000000000000000000000000000000000000000000000000000000169560448a518094819363095ea7b360e01b83528a8c84015260001960248401525af18015610a915792610a46856105869896948a948c9997610a62575b5083511630903390611a10565b85516320b76e8160e01b815296879586948593339285016119b1565b610a839060203d602011610a8a575b610a7b818361155f565b810190611619565b508c610a39565b503d610a71565b88513d89823e3d90fd5b505034610187578160031936011261018757905490516001600160a01b039091168152602090f35b905034610214576020918260031936011261048a57610ae0611596565b610ae8611ac3565b81516370a0823160e01b815230938101939093526001600160a01b0316908383602481855afa928315610b84578593610b53575b50610b5093610b42610768925194859263a9059cbb60e01b908401523360248401611631565b03601f19810184528361155f565b80f35b9092508381813d8311610b7d575b610b6b818361155f565b8101031261029b575191610b50610b1c565b503d610b61565b81513d87823e3d90fd5b91905034610214578260031936011261021457610ba9611ac3565b8280808060018060a01b0381541647905af1610bc3611972565b5015610bcd578280f35b516347474d6760e11b8152fd5b8334610c345780600319360112610c3457610bf3611ac3565b600080546001600160a01b0319811682556001600160a01b03167f8be0079c531659141344cd1fd0a4f28419497f9722a3daafe3b4186f6b6457e08280a380f35b80fd5b839150346101875760a036600319011261018757610c54366115ac565b60a0812084516349e2903160e11b815291927f00000000000000000000000000000000000000000000000000000000000000006001600160a01b031692909160609082908190610ca89033908388016116ec565b0381865afa9081156105d357918587949261058696948291610ce5575b50518551635c2bea4960e01b815296879586948593339283928601611900565b610cfe915060603d6060116105cc576105be818361155f565b89610cc5565b90503461021457366003190160e0811261048a5760a01361021457610d27611580565b9260c435801515810361018757610d3c611ac3565b818560a0610d49366115ac565b2082839460001461109e5750610d66610d839392610d6b9261202d565b612077565b865180938192637784c68560e01b8352888301611b6a565b03817f00000000000000000000000000000000000000000000000000000000000000006001600160a01b03165afa908115610ff35790610dc991849161108a5750611ba6565b5160801c5b610dd6611894565b9560018060a01b039182807f000000000000000000000000000000000000000000000000000000000000000016981697875198636eb1769f60e11b8a5230888b01528160248b01526020998a81604481855afa908115611080578891611053575b5015610ffd575b506024359484861680960361029b57858951610e59816114f3565b52885192868b8501528a8452610e6e84611529565b8951631b1d579760e31b81529686610e84611596565b168a890152602488015260443586811680910361029b57604488015260643586811680910361029b57610eec889586948b948a8f9a8896606488015260843560848801521660a486015260c485015260e48401526101206101048401526101248301906118c0565b03925af1938415610ff35783928495610fce575b508682610f0b611894565b169160248851809481936370a0823160e01b835233908301525afa938415610fc3579087929194610f72575b50907fd6ce906bec1daf0f48062ab9510e6e5b207e4418abfa65f675e14b0df4eae30c91610f63611894565b16948651908152a45160018152f35b8281939295503d8311610fbc575b610f8a818361155f565b8101031261029b57519185907fd6ce906bec1daf0f48062ab9510e6e5b207e4418abfa65f675e14b0df4eae30c610f37565b503d610f80565b8651903d90823e3d90fd5b909450610fe9919250853d871161036657610358818361155f565b9190919338610f00565b85513d85823e3d90fd5b898260448a8a8d51958694859363095ea7b360e01b855284015260001960248401525af180156110495715610e3e57611042908a3d8c11610a8a57610a7b818361155f565b5038610e3e565b89513d89823e3d90fd5b90508a81813d8311611079575b61106a818361155f565b8101031261029b575138610e37565b503d611060565b8a513d8a823e3d90fd5b61098591503d8086833e61097d818361155f565b93506110cb92507f0000000000000000000000000000000000000000000000000000000000000000611bc9565b90610dce565b9050346102145760c0366003190112610214576110ed366115ac565b82810151835163501ad8ff60e11b81529192906001600160a01b039060209084908490829085165afa9283156112275786936111f1575b5061114a91606091865180809581946349e2903160e11b8352339060a4359084016116ec565b03917f0000000000000000000000000000000000000000000000000000000000000000165afa9081156111e7576a0c097ce7bc90715b34b9f160241b6111b66111c094670de0b6b3a7640000969460809460209a916111c8575b508801516000196001861b0116611ab0565b0491015190611ab0565b049051908152f35b6111e1915060603d6060116105cc576105be818361155f565b386111a4565b84513d87823e3d90fd5b9092506020813d60201161121f575b8161120d6020938361155f565b8101031261029b57519161114a611124565b3d9150611200565b85513d88823e3d90fd5b809184346112e25760c03660031901126112e25761124e366115ac565b7f00000000000000000000000000000000000000000000000000000000000000006001600160a01b03169290833b156104d1576101048592836112a49686519788958694638720316d60e01b865285019061164c565b60a43560a48401523360c48401523360e48401525af19081156112d957506112c95750f35b6112d2906114ca565b610c345780f35b513d84823e3d90fd5b5050fd5b50503461018757816003193601126101875751478152602090f35b505034610187578160031936011261018757517f00000000000000000000000000000000000000000000000000000000000000006001600160a01b03168152602090f35b5050346101875760a036600319011261018757602090611367610157366115ac565b5050509051908152f35b828434610c345760e0366003190112610c34575061138e366115ac565b60c43591906001600160a01b038316830361029b576020926108299160a43590611705565b919050346102145760c036600319011261021457826113d1366115ac565b60a43593602082019060018060a01b038083511692856020837f0000000000000000000000000000000000000000000000000000000000000000169560448a518094819363095ea7b360e01b83528a8a84015260001960248401525af18015610a91579161144d93918a936114ab575b50511630903390611a10565b813b1561048a578361012492611476978751988996879563238d657960e01b875286019061164c565b60a48401523360c484015261010060e4840152816101048401525af19081156112d957506114a2575080f35b610b50906114ca565b6114c39060203d602011610a8a57610a7b818361155f565b5038611441565b6001600160401b0381116114dd57604052565b634e487b7160e01b600052604160045260246000fd5b602081019081106001600160401b038211176114dd57604052565b60a081019081106001600160401b038211176114dd57604052565b604081019081106001600160401b038211176114dd57604052565b606081019081106001600160401b038211176114dd57604052565b90601f801991011681019081106001600160401b038211176114dd57604052565b60a435906001600160a01b038216820361029b57565b600435906001600160a01b038216820361029b57565b60a090600319011261029b57604051906115c58261150e565b816001600160a01b03600435818116810361029b578252602435818116810361029b576020830152604435818116810361029b576040830152606435908116810361029b5760608201526080608435910152565b9081602091031261029b5751801515810361029b5790565b6001600160a01b039091168152602081019190915260400190565b6080809160018060a01b0380825116855280602083015116602086015280604083015116604086015260608201511660608501520151910152565b51906001600160801b038216820361029b57565b9081606091031261029b5760405190606082018281106001600160401b038211176114dd576116e4916040918252805184526116d960208201611687565b602085015201611687565b604082015290565b9081526001600160a01b03909116602082015260400190565b604081810151815163501ad8ff60e11b81529594919391906001600160a01b03906020908890600490829085165afa9687156118525760009761185d575b5090606081611789937f00000000000000000000000000000000000000000000000000000000000000009588518096819482936349e2903160e11b8452600484016116ec565b039187165afa91821561185257966117ed936a0c097ce7bc90715b34b9f160241b936117d8938760809a9b60009361182f575b506117c79293611a54565b9601516000196001891b0116611ab0565b04670de0b6b3a7640000948593015190611ab0565b048115611826578281029281840414901517156118105761180d916119f0565b90565b634e487b7160e01b600052601160045260246000fd5b50505060001990565b6117c7935061184c9060603d6060116105cc576105be818361155f565b926117bc565b85513d6000823e3d90fd5b919096506020823d60201161188c575b8161187a6020938361155f565b8101031261029b579051956060611743565b3d915061186d565b6004356001600160a01b038116810361029b5790565b919082604091031261029b576020825192015190565b919082519283825260005b8481106118ec575050826000602080949584010152601f8019910116010190565b6020818301810151848301820152016118cb565b92909493610100926119178561012081019861164c565b600060a086015260c08501526001600160a01b0391821660e085015216910152565b92909493610100926119508561012081019861164c565b60a0850152600060c08501526001600160a01b0391821660e085015216910152565b3d156119ac573d906001600160401b0382116114dd57604051916119a0601f8201601f19166020018461155f565b82523d6000602084013e565b606090565b9190610140936000926119c7856101209461164c565b60a085015260c084018390526001600160a01b031660e084015261010083018190528201520190565b81156119fa570490565b634e487b7160e01b600052601260045260246000fd5b6040516323b872dd60e01b60208201526001600160a01b039283166024820152929091166044830152606480830193909352918152611a52916107688261150e565b565b9190611a67611a6d9260a0832085611bc9565b92611cea565b93925090506001810180911161181057620f424083019182841161181057620f423f91611a9991611ab0565b9201918183116118105761180d9261094e91612020565b8181029291811591840414171561181057565b6000546001600160a01b03163303611ad757565b60405163118cdaa760e01b8152336004820152602490fd5b90602090818382031261029b5782516001600160401b039384821161029b570181601f8201121561029b5780519384116114dd578360051b9060405194611b388584018761155f565b8552838086019282010192831161029b578301905b828210611b5b575050505090565b81518152908301908301611b4d565b602090602060408183019282815285518094520193019160005b828110611b92575050505090565b835185529381019392810192600101611b84565b805115611bb35760200190565b634e487b7160e01b600052603260045260246000fd5b611bdb610d66611bf79460009461202d565b906040518080958194637784c68560e01b835260048301611b6a565b03916001600160a01b03165afa908115611c4657600091611c2b575b506001600160801b0390611c2690611ba6565b511690565b611c4091503d806000833e61097d818361155f565b38611c13565b6040513d6000823e3d90fd5b600080611c7b9260018060a01b03169360208151910182865af1611c74611972565b9083612107565b8051908115159182611ca9575b5050611c915750565b60249060405190635274afe760e01b82526004820152fd5b611cbc9250602080918301019101611619565b153880611c88565b9190820391821161181057565b6001600160801b03918216908216019190821161181057565b60a0822060408051632e3071cd60e11b815260048101929092529390926001600160a01b039260c0908590602490829087165afa93841561185257600094611f5d575b506080840180516001600160801b03949190611d4b90861642611cc4565b9182151580611f4f575b80611f40575b611d83575b505050508183511691606081806020870151169686015116940151169193929190565b60608401518851638c00bf6b60e01b8152911693611da590600483019061164c565b8587511660a482015260208701938685511660c483015286898901938185511660e48501528160608b01511661010485015251166101248301526020826101648160a08c01948b8651166101448301525afa8015611f35578792600091611efc575b50611e66611e1c611e5b968587511693611ab0565b91611e60671bc16d674ec80000611e338580611ab0565b0493670de0b6b3a764000098856729a2241af62c0000611e54848d99611ab0565b0492612020565b612020565b90611ab0565b049282611e7e611e758661209c565b82845116611cd1565b16905281611e97611e8e8561209c565b828b5116611cd1565b16885251168015611d6057611eab91611ab0565b04611eb98185875116611cc4565b8483511691620f42408301809311611810576001820180921161181057611eeb611ef09261094e8895611e7594611ab0565b61209c565b16905238808080611d60565b9250506020823d602011611f2d575b81611f186020938361155f565b8101031261029b579051869190611e66611e07565b3d9150611f0b565b89513d6000823e3d90fd5b50806060850151161515611d5b565b508588880151161515611d55565b60c0949194813d60c011612018575b81611f7960c0938361155f565b810103126101875785519160c08301908382106001600160401b038311176120045750611ff89160a0918852611fae81611687565b8452611fbc60208201611687565b6020850152611fcc888201611687565b88850152611fdc60608201611687565b6060850152611fed60808201611687565b608085015201611687565b60a08201529238611d2d565b634e487b7160e01b81526041600452602490fd5b3d9150611f6c565b9190820180921161181057565b6120666108b09160405160208101918252600260408201526040815261205281611544565b519020604051928391602083019586611631565b519020600181018091116118105790565b6040519061208482611529565b600182526020368184013761209882611ba6565b5290565b6040516001600160801b0391906120b281611529565b60148152731b585e081d5a5b9d0c4c8e08195e18d95959195960621b60208201528282116120df57501690565b60405162461bcd60e51b8152602060048201529081906121039060248301906118c0565b0390fd5b9061212e575080511561211c57805190602001fd5b604051630a12f52160e11b8152600490fd5b81511580612161575b61213f575090565b604051639996b31560e01b81526001600160a01b039091166004820152602490fd5b50803b1561213756fea2646970667358221220578990d5ef03076a38d94a900e599596775b1e6a8cbadbc872b78299c75f355d64736f6c63430008170033000000000000000000000000bbbbbbbbbb9cc5e90e3b3af64bdaf62c37eeffcb000000000000000000000000e592427a0aece92de3edee1f18e0157c05861564",
        "nonce": "0x45",
        "chainId": "0x1"
      },
      "additionalContracts": [],
      "isFixedGasLimit": false
    },
    {
      "hash": "0xe13a0d90dad9ba1b85a27423e52deebc8e00e8732715d7a74dee61d734d910b9",
      "transactionType": "CREATE",
      "contractName": "MockToken",
      "contractAddress": "0xffbe32f59ef658e7b698ea1ff4fc441004093aae",
      "function": null,
      "arguments": [
        "\"LoanToken\"",
        "\"LT\""
      ],
      "transaction": {
        "from": "0x73109baf60bab74b9e8273dfd4236d17c56cfc67",
        "gas": "0xb048c",
        "value": "0x0",
        "input": "0x60406080815234620003a45762000b5e803803806200001e81620003a9565b92833981018282820312620003a45781516001600160401b039290838111620003a457826200004f918301620003cf565b9060209283820151858111620003a4576200006b9201620003cf565b928151818111620002a4576003908154906001948583811c9316801562000399575b8784101462000383578190601f938481116200032d575b508790848311600114620002c657600092620002ba575b505060001982851b1c191690851b1782555b8551928311620002a45760049586548581811c9116801562000299575b87821014620002845782811162000239575b5085918411600114620001ce57938394918492600095620001c2575b50501b92600019911b1c19161782555b3315620001ab57600254683635c9adc5dea00000928382018092116200019657506000917fddf252ad1be2c89b69c2b068fc378daa952ba7f163c4a11628f55a4df523b3ef9160025533835282815284832084815401905584519384523393a35161071c9081620004428239f35b601190634e487b7160e01b6000525260246000fd5b506000602492519163ec442f0560e01b8352820152fd5b01519350388062000118565b9190601f198416928760005284876000209460005b898983831062000221575050501062000206575b50505050811b01825562000128565b01519060f884600019921b161c1916905538808080620001f7565b868601518955909701969485019488935001620001e3565b87600052866000208380870160051c8201928988106200027a575b0160051c019086905b8281106200026d575050620000fc565b600081550186906200025d565b9250819262000254565b602288634e487b7160e01b6000525260246000fd5b90607f1690620000ea565b634e487b7160e01b600052604160045260246000fd5b015190503880620000bb565b90879350601f1983169186600052896000209260005b8b828210620003165750508411620002fd575b505050811b018255620000cd565b015160001983871b60f8161c19169055388080620002ef565b8385015186558b97909501949384019301620002dc565b90915084600052876000208480850160051c8201928a861062000379575b918991869594930160051c01915b82811062000369575050620000a4565b6000815585945089910162000359565b925081926200034b565b634e487b7160e01b600052602260045260246000fd5b92607f16926200008d565b600080fd5b6040519190601f01601f191682016001600160401b03811183821017620002a457604052565b919080601f84011215620003a45782516001600160401b038111620002a45760209062000405601f8201601f19168301620003a9565b92818452828287010111620003a45760005b8181106200042d57508260009394955001015290565b85810183015184820184015282016200041756fe608060408181526004918236101561001657600080fd5b600092833560e01c91826306fdde03146104d157508163095ea7b31461042757816318160ddd1461040857816323b872dd14610311578163313ce567146102f557816340c10f191461024957816370a082311461021257816395d89b411461010e57508063a9059cbb146100de5763dd62ed3e1461009357600080fd5b346100da57806003193601126100da57806020926100af6105d7565b6100b76105f2565b6001600160a01b0391821683526001865283832091168252845220549051908152f35b5080fd5b50346100da57806003193601126100da576020906101076100fd6105d7565b6024359033610608565b5160018152f35b8383346100da57816003193601126100da5780519082845460018160011c9060018316928315610208575b60209384841081146101f5578388529081156101d957506001146101a1575b505050829003601f01601f191682019267ffffffffffffffff84118385101761018e575082918261018a92528261058e565b0390f35b634e487b7160e01b815260418552602490fd5b919250868652828620918387935b8385106101c55750505050830101858080610158565b8054888601830152930192849082016101af565b60ff1916878501525050151560051b8401019050858080610158565b634e487b7160e01b895260228a52602489fd5b91607f1691610139565b5050346100da5760203660031901126100da5760209181906001600160a01b0361023a6105d7565b16815280845220549051908152f35b919050346102f157806003193601126102f1576102646105d7565b6001600160a01b031691602435919083156102dc57600254908382018092116102c9575084927fddf252ad1be2c89b69c2b068fc378daa952ba7f163c4a11628f55a4df523b3ef9260209260025585855284835280852082815401905551908152a380f35b634e487b7160e01b865260119052602485fd5b84602492519163ec442f0560e01b8352820152fd5b8280fd5b5050346100da57816003193601126100da576020905160128152f35b905082346104055760603660031901126104055761032d6105d7565b6103356105f2565b916044359360018060a01b038316808352600160205286832033845260205286832054916000198303610371575b602088610107898989610608565b8683106103d95781156103c25733156103ab5750825260016020908152868320338452815291869020908590039055829061010787610363565b8751634a1406b160e11b8152908101849052602490fd5b875163e602df0560e01b8152908101849052602490fd5b8751637dc7a0d960e11b8152339181019182526020820193909352604081018790528291506060010390fd5b80fd5b5050346100da57816003193601126100da576020906002549051908152f35b9050346102f157816003193601126102f1576104416105d7565b6024359033156104ba576001600160a01b03169182156104a357508083602095338152600187528181208582528752205582519081527f8c5be1e5ebec7d5bd14f71427d1e84f3dd0314c0f7b2291e5b200ac8c7c3b925843392a35160018152f35b8351634a1406b160e11b8152908101859052602490fd5b835163e602df0560e01b8152808401869052602490fd5b849084346102f157826003193601126102f1578260035460018160011c9060018316928315610584575b60209384841081146101f5578388529081156101d9575060011461054b57505050829003601f01601f191682019267ffffffffffffffff84118385101761018e575082918261018a92528261058e565b91925060038652828620918387935b8385106105705750505050830101858080610158565b80548886018301529301928490820161055a565b91607f16916104fb565b6020808252825181830181905290939260005b8281106105c357505060409293506000838284010152601f8019910116010190565b8181018601518482016040015285016105a1565b600435906001600160a01b03821682036105ed57565b600080fd5b602435906001600160a01b03821682036105ed57565b916001600160a01b038084169283156106cd57169283156106b45760009083825281602052604082205490838210610682575091604082827fddf252ad1be2c89b69c2b068fc378daa952ba7f163c4a11628f55a4df523b3ef958760209652828652038282205586815220818154019055604051908152a3565b60405163391434e360e21b81526001600160a01b03919091166004820152602481019190915260448101839052606490fd5b60405163ec442f0560e01b815260006004820152602490fd5b604051634b637e8f60e11b815260006004820152602490fdfea2646970667358221220fb4b09f7652b6ed6b7f7c99ef828b4067b7e6c6e331e3587efdc639d67ac10a264736f6c634300081700330000000000000000000000000000000000000000000000000000000000000040000000000000000000000000000000000000000000000000000000000000008000000000000000000000000000000000000000000000000000000000000000094c6f616e546f6b656e000000000000000000000000000000000000000000000000000000000000000000000000000000000000000000000000000000000000024c54000000000000000000000000000000000000000000000000000000000000",
        "nonce": "0x46",
        "chainId": "0x1"
      },
      "additionalContracts": [],
      "isFixedGasLimit": false
    },
    {
      "hash": "0xe7ad5fe38ed23837f5a2d6457e5594db6e9a000cda9eed4c18c2a206a80b2b3e",
      "transactionType": "CREATE",
      "contractName": "MockToken",
      "contractAddress": "0xa86695ad7f625413c6c8f40906edfa510226e451",
      "function": null,
      "arguments": [
        "\"CollatToken\"",
        "\"CT\""
      ],
      "transaction": {
        "from": "0x73109baf60bab74b9e8273dfd4236d17c56cfc67",
        "gas": "0xb04ab",
        "value": "0x0",
        "input": "0x60406080815234620003a45762000b5e803803806200001e81620003a9565b92833981018282820312620003a45781516001600160401b039290838111620003a457826200004f918301620003cf565b9060209283820151858111620003a4576200006b9201620003cf565b928151818111620002a4576003908154906001948583811c9316801562000399575b8784101462000383578190601f938481116200032d575b508790848311600114620002c657600092620002ba575b505060001982851b1c191690851b1782555b8551928311620002a45760049586548581811c9116801562000299575b87821014620002845782811162000239575b5085918411600114620001ce57938394918492600095620001c2575b50501b92600019911b1c19161782555b3315620001ab57600254683635c9adc5dea00000928382018092116200019657506000917fddf252ad1be2c89b69c2b068fc378daa952ba7f163c4a11628f55a4df523b3ef9160025533835282815284832084815401905584519384523393a35161071c9081620004428239f35b601190634e487b7160e01b6000525260246000fd5b506000602492519163ec442f0560e01b8352820152fd5b01519350388062000118565b9190601f198416928760005284876000209460005b898983831062000221575050501062000206575b50505050811b01825562000128565b01519060f884600019921b161c1916905538808080620001f7565b868601518955909701969485019488935001620001e3565b87600052866000208380870160051c8201928988106200027a575b0160051c019086905b8281106200026d575050620000fc565b600081550186906200025d565b9250819262000254565b602288634e487b7160e01b6000525260246000fd5b90607f1690620000ea565b634e487b7160e01b600052604160045260246000fd5b015190503880620000bb565b90879350601f1983169186600052896000209260005b8b828210620003165750508411620002fd575b505050811b018255620000cd565b015160001983871b60f8161c19169055388080620002ef565b8385015186558b97909501949384019301620002dc565b90915084600052876000208480850160051c8201928a861062000379575b918991869594930160051c01915b82811062000369575050620000a4565b6000815585945089910162000359565b925081926200034b565b634e487b7160e01b600052602260045260246000fd5b92607f16926200008d565b600080fd5b6040519190601f01601f191682016001600160401b03811183821017620002a457604052565b919080601f84011215620003a45782516001600160401b038111620002a45760209062000405601f8201601f19168301620003a9565b92818452828287010111620003a45760005b8181106200042d57508260009394955001015290565b85810183015184820184015282016200041756fe608060408181526004918236101561001657600080fd5b600092833560e01c91826306fdde03146104d157508163095ea7b31461042757816318160ddd1461040857816323b872dd14610311578163313ce567146102f557816340c10f191461024957816370a082311461021257816395d89b411461010e57508063a9059cbb146100de5763dd62ed3e1461009357600080fd5b346100da57806003193601126100da57806020926100af6105d7565b6100b76105f2565b6001600160a01b0391821683526001865283832091168252845220549051908152f35b5080fd5b50346100da57806003193601126100da576020906101076100fd6105d7565b6024359033610608565b5160018152f35b8383346100da57816003193601126100da5780519082845460018160011c9060018316928315610208575b60209384841081146101f5578388529081156101d957506001146101a1575b505050829003601f01601f191682019267ffffffffffffffff84118385101761018e575082918261018a92528261058e565b0390f35b634e487b7160e01b815260418552602490fd5b919250868652828620918387935b8385106101c55750505050830101858080610158565b8054888601830152930192849082016101af565b60ff1916878501525050151560051b8401019050858080610158565b634e487b7160e01b895260228a52602489fd5b91607f1691610139565b5050346100da5760203660031901126100da5760209181906001600160a01b0361023a6105d7565b16815280845220549051908152f35b919050346102f157806003193601126102f1576102646105d7565b6001600160a01b031691602435919083156102dc57600254908382018092116102c9575084927fddf252ad1be2c89b69c2b068fc378daa952ba7f163c4a11628f55a4df523b3ef9260209260025585855284835280852082815401905551908152a380f35b634e487b7160e01b865260119052602485fd5b84602492519163ec442f0560e01b8352820152fd5b8280fd5b5050346100da57816003193601126100da576020905160128152f35b905082346104055760603660031901126104055761032d6105d7565b6103356105f2565b916044359360018060a01b038316808352600160205286832033845260205286832054916000198303610371575b602088610107898989610608565b8683106103d95781156103c25733156103ab5750825260016020908152868320338452815291869020908590039055829061010787610363565b8751634a1406b160e11b8152908101849052602490fd5b875163e602df0560e01b8152908101849052602490fd5b8751637dc7a0d960e11b8152339181019182526020820193909352604081018790528291506060010390fd5b80fd5b5050346100da57816003193601126100da576020906002549051908152f35b9050346102f157816003193601126102f1576104416105d7565b6024359033156104ba576001600160a01b03169182156104a357508083602095338152600187528181208582528752205582519081527f8c5be1e5ebec7d5bd14f71427d1e84f3dd0314c0f7b2291e5b200ac8c7c3b925843392a35160018152f35b8351634a1406b160e11b8152908101859052602490fd5b835163e602df0560e01b8152808401869052602490fd5b849084346102f157826003193601126102f1578260035460018160011c9060018316928315610584575b60209384841081146101f5578388529081156101d9575060011461054b57505050829003601f01601f191682019267ffffffffffffffff84118385101761018e575082918261018a92528261058e565b91925060038652828620918387935b8385106105705750505050830101858080610158565b80548886018301529301928490820161055a565b91607f16916104fb565b6020808252825181830181905290939260005b8281106105c357505060409293506000838284010152601f8019910116010190565b8181018601518482016040015285016105a1565b600435906001600160a01b03821682036105ed57565b600080fd5b602435906001600160a01b03821682036105ed57565b916001600160a01b038084169283156106cd57169283156106b45760009083825281602052604082205490838210610682575091604082827fddf252ad1be2c89b69c2b068fc378daa952ba7f163c4a11628f55a4df523b3ef958760209652828652038282205586815220818154019055604051908152a3565b60405163391434e360e21b81526001600160a01b03919091166004820152602481019190915260448101839052606490fd5b60405163ec442f0560e01b815260006004820152602490fd5b604051634b637e8f60e11b815260006004820152602490fdfea2646970667358221220fb4b09f7652b6ed6b7f7c99ef828b4067b7e6c6e331e3587efdc639d67ac10a264736f6c6343000817003300000000000000000000000000000000000000000000000000000000000000400000000000000000000000000000000000000000000000000000000000000080000000000000000000000000000000000000000000000000000000000000000b436f6c6c6174546f6b656e00000000000000000000000000000000000000000000000000000000000000000000000000000000000000000000000000000000024354000000000000000000000000000000000000000000000000000000000000",
        "nonce": "0x47",
        "chainId": "0x1"
      },
      "additionalContracts": [],
      "isFixedGasLimit": false
    },
    {
      "hash": "0x989a2ca59ad5ae098a63e68e4c7f02966103067a554fc857aea3e1c4fc11ef1e",
      "transactionType": "CREATE",
      "contractName": "Swap",
      "contractAddress": "0x78432b0e883ff214042bfc99a124e888a1030bc1",
      "function": null,
      "arguments": [
        "0xE592427A0AEce92De3Edee1F18E0157C05861564",
        "0xffbe32f59ef658e7B698ea1FF4fc441004093aAE",
        "0xA86695Ad7f625413c6C8f40906EdFa510226e451",
        "0x9dB9d7DBb584F4B10a829Ba1DC1E19Ac00e2eBA9"
      ],
      "transaction": {
        "from": "0x73109baf60bab74b9e8273dfd4236d17c56cfc67",
        "gas": "0x5b2af",
        "value": "0x0",
        "input": "0x60a0346100d657601f61032938819003918201601f19168301916001600160401b038311848410176100db578084926080946040528339810103126100d657610047816100f1565b90610054602082016100f1565b61006c6060610065604085016100f1565b93016100f1565b906304e45aaf60e01b60805260018060a01b03928380928160018060a01b03199716876000541617600055168560015416176001551683600254161760025533836004541617600455169060035416176003556040516102239081610106823960805181608d0152f35b600080fd5b634e487b7160e01b600052604160045260246000fd5b51906001600160a01b03821682036100d65756fe60806040818152600436101561001457600080fd5b600091823560e01c90816306d3781714610184575080632681f7e41461015d5780634046ebae1461013557806365fd87d9146101115780638b23ccac146101115780638da5cb5b146100e957806394ee0827146100c15763feca4a1d1461007a57600080fd5b346100bd57816003193601126100bd57517f00000000000000000000000000000000000000000000000000000000000000006001600160e01b0319168152602090f35b5080fd5b50346100bd57816003193601126100bd5760025490516001600160a01b039091168152602090f35b50346100bd57816003193601126100bd5760045490516001600160a01b039091168152602090f35b50346100bd5760203660031901126100bd5760209061012e6101a9565b9051908152f35b50346100bd57816003193601126100bd5760035490516001600160a01b039091168152602090f35b50346100bd57816003193601126100bd57905490516001600160a01b039091168152602090f35b8390346100bd57816003193601126100bd576001546001600160a01b03168152602090f35b600354336001600160a01b0391821614801591906101de575b506101cc57600090565b604051631648fd0160e01b8152600490fd5b905060045416331415386101c256fea264697066735822122052e48ba40a909f840495943c0ade8cb6abd7d0c3137f07aa9a398c6b0d4ac73264736f6c63430008170033000000000000000000000000e592427a0aece92de3edee1f18e0157c05861564000000000000000000000000ffbe32f59ef658e7b698ea1ff4fc441004093aae000000000000000000000000a86695ad7f625413c6c8f40906edfa510226e4510000000000000000000000009db9d7dbb584f4b10a829ba1dc1e19ac00e2eba9",
        "nonce": "0x48",
        "chainId": "0x1"
      },
      "additionalContracts": [],
      "isFixedGasLimit": false
    },
    {
      "hash": "0xb622f0f8ed1917f4a59b2af304d44853304e9f986c4e3016f1ff49e9d97ff045",
      "transactionType": "CALL",
      "contractName": null,
      "contractAddress": "0xbbbbbbbbbb9cc5e90e3b3af64bdaf62c37eeffcb",
      "function": "setAuthorization(address,bool)",
      "arguments": [
        "0x9dB9d7DBb584F4B10a829Ba1DC1E19Ac00e2eBA9",
        "true"
      ],
      "transaction": {
        "from": "0x73109baf60bab74b9e8273dfd4236d17c56cfc67",
        "to": "0xbbbbbbbbbb9cc5e90e3b3af64bdaf62c37eeffcb",
        "gas": "0xfedf",
        "value": "0x0",
        "input": "0xeecea0000000000000000000000000009db9d7dbb584f4b10a829ba1dc1e19ac00e2eba90000000000000000000000000000000000000000000000000000000000000001",
        "nonce": "0x49",
        "chainId": "0x1"
      },
      "additionalContracts": [],
      "isFixedGasLimit": false
    },
    {
      "hash": "0xb54208b332ac87f7f9af974409de0824c8f209c6694b34009adf8599b749cf04",
      "transactionType": "CREATE",
      "contractName": "MockOracle",
      "contractAddress": "0x42a2ec464037f01a84f0a83abc04f57f95123476",
      "function": null,
      "arguments": [
        "101000000000000000000"
      ],
      "transaction": {
        "from": "0x73109baf60bab74b9e8273dfd4236d17c56cfc67",
        "gas": "0x260d1",
        "value": "0x0",
        "input": "0x60803461005057601f61013238819003918201601f19168301916001600160401b0383118484101761005557808492602094604052833981010312610050575160005560405160c6908161006c8239f35b600080fd5b634e487b7160e01b600052604160045260246000fdfe6080806040526004361015601257600080fd5b600090813560e01c908163673a7e28146077578163859310b614605b575063a035b1fe14603e57600080fd5b346058578060031936011260585760209054604051908152f35b80fd5b90503460735781600319360112607357602091548152f35b5080fd5b823460585780600319360112605857805460011c815580f3fea264697066735822122046a4906cef5c6eef9c4710602113fcd15000a4879121968654f21c7005898c6f64736f6c6343000817003300000000000000000000000000000000000000000000000579a814e10a740000",
        "nonce": "0x4a",
        "chainId": "0x1"
      },
      "additionalContracts": [],
      "isFixedGasLimit": false
    },
    {
      "hash": "0x80f9cd67ec76b034990b5d5b2dbfa1c7cfe82475ef6ff0ab067ea112bae27a3a",
      "transactionType": "CREATE",
      "contractName": "MockOracle",
      "contractAddress": "0xfd4ede21cc3eef1a1d6aaa2430c019ac2fa35d6a",
      "function": null,
      "arguments": [
        "331000000000000000000"
      ],
      "transaction": {
        "from": "0x73109baf60bab74b9e8273dfd4236d17c56cfc67",
        "gas": "0x260d1",
        "value": "0x0",
        "input": "0x60803461005057601f61013238819003918201601f19168301916001600160401b0383118484101761005557808492602094604052833981010312610050575160005560405160c6908161006c8239f35b600080fd5b634e487b7160e01b600052604160045260246000fdfe6080806040526004361015601257600080fd5b600090813560e01c908163673a7e28146077578163859310b614605b575063a035b1fe14603e57600080fd5b346058578060031936011260585760209054604051908152f35b80fd5b90503460735781600319360112607357602091548152f35b5080fd5b823460585780600319360112605857805460011c815580f3fea264697066735822122046a4906cef5c6eef9c4710602113fcd15000a4879121968654f21c7005898c6f64736f6c63430008170033000000000000000000000000000000000000000000000011f18c3a496e4c0000",
        "nonce": "0x4b",
        "chainId": "0x1"
      },
      "additionalContracts": [],
      "isFixedGasLimit": false
    },
    {
      "hash": "0xb9bc29dc8ef23935f4e25efad4d6f3758ead1595cb938687ac1cd68a29c0bf15",
      "transactionType": "CALL",
      "contractName": "MockToken",
      "contractAddress": "0xa86695ad7f625413c6c8f40906edfa510226e451",
      "function": "mint(address,uint256)",
      "arguments": [
        "0x73109Baf60baB74B9E8273DfD4236d17C56CFc67",
        "20000000000000000000000"
      ],
      "transaction": {
        "from": "0x73109baf60bab74b9e8273dfd4236d17c56cfc67",
        "to": "0xa86695ad7f625413c6c8f40906edfa510226e451",
        "gas": "0xb73a",
        "value": "0x0",
        "input": "0x40c10f1900000000000000000000000073109baf60bab74b9e8273dfd4236d17c56cfc6700000000000000000000000000000000000000000000043c33c1937564800000",
        "nonce": "0x4c",
        "chainId": "0x1"
      },
      "additionalContracts": [],
      "isFixedGasLimit": false
    },
    {
      "hash": "0x9e39a301827d9044e34d448746a915111e6ccb53f1820e9fdca37d6efa70e67b",
      "transactionType": "CALL",
      "contractName": "MockToken",
      "contractAddress": "0xa86695ad7f625413c6c8f40906edfa510226e451",
      "function": "mint(address,uint256)",
      "arguments": [
        "0x73109Baf60baB74B9E8273DfD4236d17C56CFc67",
        "20000000000000000000000"
      ],
      "transaction": {
        "from": "0x73109baf60bab74b9e8273dfd4236d17c56cfc67",
        "to": "0xa86695ad7f625413c6c8f40906edfa510226e451",
        "gas": "0xb73a",
        "value": "0x0",
        "input": "0x40c10f1900000000000000000000000073109baf60bab74b9e8273dfd4236d17c56cfc6700000000000000000000000000000000000000000000043c33c1937564800000",
        "nonce": "0x4d",
        "chainId": "0x1"
      },
      "additionalContracts": [],
      "isFixedGasLimit": false
    },
    {
      "hash": "0xb506553a12cd8cc23661d1c7051009cd8cbf666126734818cf48e45d74b50175",
      "transactionType": "CALL",
      "contractName": "MockToken",
      "contractAddress": "0xffbe32f59ef658e7b698ea1ff4fc441004093aae",
      "function": "mint(address,uint256)",
      "arguments": [
        "0x73109Baf60baB74B9E8273DfD4236d17C56CFc67",
        "20000000000000000000000"
      ],
      "transaction": {
        "from": "0x73109baf60bab74b9e8273dfd4236d17c56cfc67",
        "to": "0xffbe32f59ef658e7b698ea1ff4fc441004093aae",
        "gas": "0xb73a",
        "value": "0x0",
        "input": "0x40c10f1900000000000000000000000073109baf60bab74b9e8273dfd4236d17c56cfc6700000000000000000000000000000000000000000000043c33c1937564800000",
        "nonce": "0x4e",
        "chainId": "0x1"
      },
      "additionalContracts": [],
      "isFixedGasLimit": false
    },
    {
      "hash": "0xf1237913e98e4ee3c648b22306152a2c4e5183b0835edc20600d2330009d6e4f",
      "transactionType": "CALL",
      "contractName": null,
      "contractAddress": "0xbbbbbbbbbb9cc5e90e3b3af64bdaf62c37eeffcb",
      "function": "createMarket((address,address,address,address,uint256))",
      "arguments": [
        "(0xffbe32f59ef658e7B698ea1FF4fc441004093aAE, 0xA86695Ad7f625413c6C8f40906EdFa510226e451, 0x42A2eC464037F01A84f0A83Abc04f57f95123476, 0x0000000000000000000000000000000000000000, 945000000000000000)"
      ],
      "transaction": {
        "from": "0x73109baf60bab74b9e8273dfd4236d17c56cfc67",
        "to": "0xbbbbbbbbbb9cc5e90e3b3af64bdaf62c37eeffcb",
        "gas": "0x33770",
        "value": "0x0",
        "input": "0x8c1358a2000000000000000000000000ffbe32f59ef658e7b698ea1ff4fc441004093aae000000000000000000000000a86695ad7f625413c6c8f40906edfa510226e45100000000000000000000000042a2ec464037f01a84f0a83abc04f57f9512347600000000000000000000000000000000000000000000000000000000000000000000000000000000000000000000000000000000000000000d1d507e40be8000",
        "nonce": "0x4f",
        "chainId": "0x1"
      },
      "additionalContracts": [],
      "isFixedGasLimit": false
    },
    {
      "hash": "0x6d0829f729d069ffd7f2863c16117a753a5616940c4c9b685242cb689656797a",
      "transactionType": "CALL",
      "contractName": null,
      "contractAddress": "0xbbbbbbbbbb9cc5e90e3b3af64bdaf62c37eeffcb",
      "function": "accrueInterest((address,address,address,address,uint256))",
      "arguments": [
        "(0xffbe32f59ef658e7B698ea1FF4fc441004093aAE, 0xA86695Ad7f625413c6C8f40906EdFa510226e451, 0x42A2eC464037F01A84f0A83Abc04f57f95123476, 0x0000000000000000000000000000000000000000, 945000000000000000)"
      ],
      "transaction": {
        "from": "0x73109baf60bab74b9e8273dfd4236d17c56cfc67",
        "to": "0xbbbbbbbbbb9cc5e90e3b3af64bdaf62c37eeffcb",
        "gas": "0x8b26",
        "value": "0x0",
        "input": "0x151c1ade000000000000000000000000ffbe32f59ef658e7b698ea1ff4fc441004093aae000000000000000000000000a86695ad7f625413c6c8f40906edfa510226e45100000000000000000000000042a2ec464037f01a84f0a83abc04f57f9512347600000000000000000000000000000000000000000000000000000000000000000000000000000000000000000000000000000000000000000d1d507e40be8000",
        "nonce": "0x50",
        "chainId": "0x1"
      },
      "additionalContracts": [],
      "isFixedGasLimit": false
    },
    {
      "hash": "0x75b37dac987b3640458df42b08deb8f70fa9e77e0efb7091cf772c409cdf3bbe",
      "transactionType": "CALL",
      "contractName": "MockToken",
      "contractAddress": "0xa86695ad7f625413c6c8f40906edfa510226e451",
      "function": "approve(address,uint256)",
      "arguments": [
        "0x9dB9d7DBb584F4B10a829Ba1DC1E19Ac00e2eBA9",
        "115792089237316195423570985008687907853269984665640564039457584007913129639935"
      ],
      "transaction": {
        "from": "0x73109baf60bab74b9e8273dfd4236d17c56cfc67",
        "to": "0xa86695ad7f625413c6c8f40906edfa510226e451",
        "gas": "0x10865",
        "value": "0x0",
        "input": "0x095ea7b30000000000000000000000009db9d7dbb584f4b10a829ba1dc1e19ac00e2eba9ffffffffffffffffffffffffffffffffffffffffffffffffffffffffffffffff",
        "nonce": "0x51",
        "chainId": "0x1"
      },
      "additionalContracts": [],
      "isFixedGasLimit": false
    },
    {
      "hash": "0x2a799355bb15eba9599c44d4713b24c2a8d1679a9e397fda788e12649323fdb1",
      "transactionType": "CALL",
      "contractName": "Liquidator",
      "contractAddress": "0x9db9d7dbb584f4b10a829ba1dc1e19ac00e2eba9",
      "function": "supplyCollateral((address,address,address,address,uint256),uint256)",
      "arguments": [
        "(0xffbe32f59ef658e7B698ea1FF4fc441004093aAE, 0xA86695Ad7f625413c6C8f40906EdFa510226e451, 0x42A2eC464037F01A84f0A83Abc04f57f95123476, 0x0000000000000000000000000000000000000000, 945000000000000000)",
        "2000000000000000000000"
      ],
      "transaction": {
        "from": "0x73109baf60bab74b9e8273dfd4236d17c56cfc67",
        "to": "0x9db9d7dbb584f4b10a829ba1dc1e19ac00e2eba9",
        "gas": "0x2b786",
        "value": "0x0",
        "input": "0x009f7501000000000000000000000000ffbe32f59ef658e7b698ea1ff4fc441004093aae000000000000000000000000a86695ad7f625413c6c8f40906edfa510226e45100000000000000000000000042a2ec464037f01a84f0a83abc04f57f9512347600000000000000000000000000000000000000000000000000000000000000000000000000000000000000000000000000000000000000000d1d507e40be800000000000000000000000000000000000000000000000006c6b935b8bbd400000",
        "nonce": "0x52",
        "chainId": "0x1"
      },
      "additionalContracts": [],
      "isFixedGasLimit": false
    },
    {
      "hash": "0x94d117b6d9e80f92cb31635d89b2e3b42ce7275111e04bb7a4a7ff10be599160",
      "transactionType": "CALL",
      "contractName": "MockToken",
      "contractAddress": "0xffbe32f59ef658e7b698ea1ff4fc441004093aae",
      "function": "approve(address,uint256)",
      "arguments": [
        "0x9dB9d7DBb584F4B10a829Ba1DC1E19Ac00e2eBA9",
        "115792089237316195423570985008687907853269984665640564039457584007913129639935"
      ],
      "transaction": {
        "from": "0x73109baf60bab74b9e8273dfd4236d17c56cfc67",
        "to": "0xffbe32f59ef658e7b698ea1ff4fc441004093aae",
        "gas": "0x10865",
        "value": "0x0",
        "input": "0x095ea7b30000000000000000000000009db9d7dbb584f4b10a829ba1dc1e19ac00e2eba9ffffffffffffffffffffffffffffffffffffffffffffffffffffffffffffffff",
        "nonce": "0x53",
        "chainId": "0x1"
      },
      "additionalContracts": [],
      "isFixedGasLimit": false
    },
    {
      "hash": "0x1076406c3cd26e381a2a18c5046aafd0e71c4fa4c8b680ae63735ad5e019d565",
      "transactionType": "CALL",
      "contractName": "Liquidator",
      "contractAddress": "0x9db9d7dbb584f4b10a829ba1dc1e19ac00e2eba9",
      "function": "supply((address,address,address,address,uint256),uint256)",
      "arguments": [
        "(0xffbe32f59ef658e7B698ea1FF4fc441004093aAE, 0xA86695Ad7f625413c6C8f40906EdFa510226e451, 0x42A2eC464037F01A84f0A83Abc04f57f95123476, 0x0000000000000000000000000000000000000000, 945000000000000000)",
        "2000000000000000000000"
      ],
      "transaction": {
        "from": "0x73109baf60bab74b9e8273dfd4236d17c56cfc67",
        "to": "0x9db9d7dbb584f4b10a829ba1dc1e19ac00e2eba9",
        "gas": "0x3487e",
        "value": "0x0",
        "input": "0xba570dbf000000000000000000000000ffbe32f59ef658e7b698ea1ff4fc441004093aae000000000000000000000000a86695ad7f625413c6c8f40906edfa510226e45100000000000000000000000042a2ec464037f01a84f0a83abc04f57f9512347600000000000000000000000000000000000000000000000000000000000000000000000000000000000000000000000000000000000000000d1d507e40be800000000000000000000000000000000000000000000000006c6b935b8bbd400000",
        "nonce": "0x54",
        "chainId": "0x1"
      },
      "additionalContracts": [],
      "isFixedGasLimit": false
    },
    {
      "hash": "0x29c7daaec17bff122e73d69828592f5cb95196380901ad1d24424f33dac78021",
      "transactionType": "CALL",
      "contractName": "MockToken",
      "contractAddress": "0xffbe32f59ef658e7b698ea1ff4fc441004093aae",
      "function": "mint(address,uint256)",
      "arguments": [
        "0x9dB9d7DBb584F4B10a829Ba1DC1E19Ac00e2eBA9",
        "20000000000000000000000"
      ],
      "transaction": {
        "from": "0x73109baf60bab74b9e8273dfd4236d17c56cfc67",
        "to": "0xffbe32f59ef658e7b698ea1ff4fc441004093aae",
        "gas": "0x1136d",
        "value": "0x0",
        "input": "0x40c10f190000000000000000000000009db9d7dbb584f4b10a829ba1dc1e19ac00e2eba900000000000000000000000000000000000000000000043c33c1937564800000",
        "nonce": "0x55",
        "chainId": "0x1"
      },
      "additionalContracts": [],
      "isFixedGasLimit": false
    },
    {
      "hash": "0xb5bcfa962cef8e4e61efd6abb20a5e54c2fc970c4fcd99621509ab1d38c95bbd",
      "transactionType": "CALL",
      "contractName": "MockToken",
      "contractAddress": "0xa86695ad7f625413c6c8f40906edfa510226e451",
      "function": "approve(address,uint256)",
      "arguments": [
        "0x9dB9d7DBb584F4B10a829Ba1DC1E19Ac00e2eBA9",
        "115792089237316195423570985008687907853269984665640564039457584007913129639935"
      ],
      "transaction": {
        "from": "0x73109baf60bab74b9e8273dfd4236d17c56cfc67",
        "to": "0xa86695ad7f625413c6c8f40906edfa510226e451",
        "gas": "0x8e55",
        "value": "0x0",
        "input": "0x095ea7b30000000000000000000000009db9d7dbb584f4b10a829ba1dc1e19ac00e2eba9ffffffffffffffffffffffffffffffffffffffffffffffffffffffffffffffff",
        "nonce": "0x56",
        "chainId": "0x1"
      },
      "additionalContracts": [],
      "isFixedGasLimit": false
    },
    {
      "hash": "0x591e40fb7d57fd691aa5ec2d14f18b2706bf68ecdbe10b67019843a94165cc61",
      "transactionType": "CALL",
      "contractName": "Liquidator",
      "contractAddress": "0x9db9d7dbb584f4b10a829ba1dc1e19ac00e2eba9",
      "function": "supplyCollateral((address,address,address,address,uint256),uint256)",
      "arguments": [
        "(0xffbe32f59ef658e7B698ea1FF4fc441004093aAE, 0xA86695Ad7f625413c6C8f40906EdFa510226e451, 0x42A2eC464037F01A84f0A83Abc04f57f95123476, 0x0000000000000000000000000000000000000000, 945000000000000000)",
        "10000000000000000000"
      ],
      "transaction": {
        "from": "0x73109baf60bab74b9e8273dfd4236d17c56cfc67",
        "to": "0x9db9d7dbb584f4b10a829ba1dc1e19ac00e2eba9",
        "gas": "0x179d5",
        "value": "0x0",
        "input": "0x009f7501000000000000000000000000ffbe32f59ef658e7b698ea1ff4fc441004093aae000000000000000000000000a86695ad7f625413c6c8f40906edfa510226e45100000000000000000000000042a2ec464037f01a84f0a83abc04f57f9512347600000000000000000000000000000000000000000000000000000000000000000000000000000000000000000000000000000000000000000d1d507e40be80000000000000000000000000000000000000000000000000008ac7230489e80000",
        "nonce": "0x57",
        "chainId": "0x1"
      },
      "additionalContracts": [],
      "isFixedGasLimit": false
    },
    {
      "hash": "0x468e670e7f9af641c79a7312ddf81df4b25e2bc5f06933f869db8bb6b27e18f6",
      "transactionType": "CALL",
      "contractName": "Liquidator",
      "contractAddress": "0x9db9d7dbb584f4b10a829ba1dc1e19ac00e2eba9",
      "function": "maxBorrow((address,address,address,address,uint256),bytes32)",
      "arguments": [
        "(0xffbe32f59ef658e7B698ea1FF4fc441004093aAE, 0xA86695Ad7f625413c6C8f40906EdFa510226e451, 0x42A2eC464037F01A84f0A83Abc04f57f95123476, 0x0000000000000000000000000000000000000000, 945000000000000000)",
        "0xba4cd47fa887c18eb560eec14d9b1184c681a7307804e98c46f7fafc92cf5d79"
      ],
      "transaction": {
        "from": "0x73109baf60bab74b9e8273dfd4236d17c56cfc67",
        "to": "0x9db9d7dbb584f4b10a829ba1dc1e19ac00e2eba9",
        "gas": "0xca8b",
        "value": "0x0",
        "input": "0x559cb3a9000000000000000000000000ffbe32f59ef658e7b698ea1ff4fc441004093aae000000000000000000000000a86695ad7f625413c6c8f40906edfa510226e45100000000000000000000000042a2ec464037f01a84f0a83abc04f57f9512347600000000000000000000000000000000000000000000000000000000000000000000000000000000000000000000000000000000000000000d1d507e40be8000ba4cd47fa887c18eb560eec14d9b1184c681a7307804e98c46f7fafc92cf5d79",
        "nonce": "0x58",
        "chainId": "0x1"
      },
      "additionalContracts": [],
      "isFixedGasLimit": false
    },
    {
      "hash": "0x3fd65aff5478f2a83e9b74dd7beaa797a05a60cd046534dbd7b8bd953ee771b8",
      "transactionType": "CALL",
      "contractName": "Liquidator",
      "contractAddress": "0x9db9d7dbb584f4b10a829ba1dc1e19ac00e2eba9",
      "function": "borrow((address,address,address,address,uint256),uint256)",
      "arguments": [
        "(0xffbe32f59ef658e7B698ea1FF4fc441004093aAE, 0xA86695Ad7f625413c6C8f40906EdFa510226e451, 0x42A2eC464037F01A84f0A83Abc04f57f95123476, 0x0000000000000000000000000000000000000000, 945000000000000000)",
        "191844"
      ],
      "transaction": {
        "from": "0x73109baf60bab74b9e8273dfd4236d17c56cfc67",
        "to": "0x9db9d7dbb584f4b10a829ba1dc1e19ac00e2eba9",
        "gas": "0x1edf3",
        "value": "0x0",
        "input": "0xe0317517000000000000000000000000ffbe32f59ef658e7b698ea1ff4fc441004093aae000000000000000000000000a86695ad7f625413c6c8f40906edfa510226e45100000000000000000000000042a2ec464037f01a84f0a83abc04f57f9512347600000000000000000000000000000000000000000000000000000000000000000000000000000000000000000000000000000000000000000d1d507e40be8000000000000000000000000000000000000000000000000000000000000002ed64",
        "nonce": "0x59",
        "chainId": "0x1"
      },
      "additionalContracts": [],
      "isFixedGasLimit": false
    },
    {
      "hash": "0x834a878ea7412234b5cabe9acd6b93d1a2e906133e7b7038c88f8d46c99d57d9",
      "transactionType": "CALL",
      "contractName": "MockOracle",
      "contractAddress": "0x42a2ec464037f01a84f0a83abc04f57f95123476",
      "function": "updatePrice()",
      "arguments": [],
      "transaction": {
        "from": "0x73109baf60bab74b9e8273dfd4236d17c56cfc67",
        "to": "0x42a2ec464037f01a84f0a83abc04f57f95123476",
        "gas": "0x95c6",
        "value": "0x0",
        "input": "0x673a7e28",
        "nonce": "0x5a",
        "chainId": "0x1"
      },
      "additionalContracts": [],
      "isFixedGasLimit": false
    }
  ],
  "receipts": [
    {
      "status": "0x1",
      "cumulativeGasUsed": "0x1d9305",
      "logs": [
        {
          "address": "0x9db9d7dbb584f4b10a829ba1dc1e19ac00e2eba9",
          "topics": [
            "0x8be0079c531659141344cd1fd0a4f28419497f9722a3daafe3b4186f6b6457e0",
            "0x0000000000000000000000000000000000000000000000000000000000000000",
            "0x00000000000000000000000073109baf60bab74b9e8273dfd4236d17c56cfc67"
          ],
          "data": "0x",
          "blockHash": "0x1d882dd511fa12c392833ecdd1e5d413a9b965198f2b3567b101bdc0a32fadeb",
          "blockNumber": "0x1329aa4",
          "blockTimestamp": "0x666d5e36",
          "transactionHash": "0x7cffafe22af41f69074cd88265214023de7e453e8eef779b70442aa000e63abc",
          "transactionIndex": "0x0",
          "logIndex": "0x0",
          "removed": false
        }
      ],
      "logsBloom": "0x00000000000000000000000000000000000000000000000000800000000200000000000000000000000000000000000000000000000000000000000000000000000000080000000000000000000800000001000000000000000000000000000004000000020000000000000000000800000000000000000000000000000000400000000000000000000000000000000000000000000000000000000000000000000000000000000000000000000000000100000000000000000000000000000000000000000000000000000001000000000000000000000000000000000020000000000000000000000000000000000000000000000000000000000000000000",
      "type": "0x2",
      "transactionHash": "0x7cffafe22af41f69074cd88265214023de7e453e8eef779b70442aa000e63abc",
      "transactionIndex": "0x0",
      "blockHash": "0x1d882dd511fa12c392833ecdd1e5d413a9b965198f2b3567b101bdc0a32fadeb",
      "blockNumber": "0x1329aa4",
      "gasUsed": "0x1d9305",
      "effectiveGasPrice": "0x6a496e7",
      "blobGasPrice": "0x1",
      "from": "0x73109baf60bab74b9e8273dfd4236d17c56cfc67",
      "to": null,
      "contractAddress": "0x9db9d7dbb584f4b10a829ba1dc1e19ac00e2eba9",
      "root": "0x0000000000000000000000000000000000000000000000000000000000000000"
    },
    {
      "status": "0x1",
      "cumulativeGasUsed": "0x87a69",
      "logs": [
        {
          "address": "0xffbe32f59ef658e7b698ea1ff4fc441004093aae",
          "topics": [
            "0xddf252ad1be2c89b69c2b068fc378daa952ba7f163c4a11628f55a4df523b3ef",
            "0x0000000000000000000000000000000000000000000000000000000000000000",
            "0x00000000000000000000000073109baf60bab74b9e8273dfd4236d17c56cfc67"
          ],
          "data": "0x00000000000000000000000000000000000000000000003635c9adc5dea00000",
          "blockHash": "0xe06c78e7d480512c469b979ac4a262224b3e82d66c5ff3beff57d92379468a55",
          "blockNumber": "0x1329aa5",
          "blockTimestamp": "0x666d5e37",
          "transactionHash": "0xe13a0d90dad9ba1b85a27423e52deebc8e00e8732715d7a74dee61d734d910b9",
          "transactionIndex": "0x0",
          "logIndex": "0x0",
          "removed": false
        }
      ],
      "logsBloom": "0x00000000000000000000000000000000000000000000000000000000000200000000000000000000000000000000000000000000000000000800000000000000000000000000000000000008000000000000000000000000000000000000000004000000020000000000000000000800000000000000000000000010000000400000000000000000000002000000000000000000000000000000000000000000000000000000000000000000000000000100000000000000000000000000000000000002000000000000000000000000000000000000000000000000000020000000000000000000000000000000000000000000000000000000000000000000",
      "type": "0x2",
      "transactionHash": "0xe13a0d90dad9ba1b85a27423e52deebc8e00e8732715d7a74dee61d734d910b9",
      "transactionIndex": "0x0",
      "blockHash": "0xe06c78e7d480512c469b979ac4a262224b3e82d66c5ff3beff57d92379468a55",
      "blockNumber": "0x1329aa5",
      "gasUsed": "0x87a69",
      "effectiveGasPrice": "0x680f6aa",
      "blobGasPrice": "0x1",
      "from": "0x73109baf60bab74b9e8273dfd4236d17c56cfc67",
      "to": null,
      "contractAddress": "0xffbe32f59ef658e7b698ea1ff4fc441004093aae",
      "root": "0x0000000000000000000000000000000000000000000000000000000000000000"
    },
    {
      "status": "0x1",
      "cumulativeGasUsed": "0x10f4ea",
      "logs": [
        {
          "address": "0xa86695ad7f625413c6c8f40906edfa510226e451",
          "topics": [
            "0xddf252ad1be2c89b69c2b068fc378daa952ba7f163c4a11628f55a4df523b3ef",
            "0x0000000000000000000000000000000000000000000000000000000000000000",
            "0x00000000000000000000000073109baf60bab74b9e8273dfd4236d17c56cfc67"
          ],
          "data": "0x00000000000000000000000000000000000000000000003635c9adc5dea00000",
          "blockHash": "0xe06c78e7d480512c469b979ac4a262224b3e82d66c5ff3beff57d92379468a55",
          "blockNumber": "0x1329aa5",
          "blockTimestamp": "0x666d5e37",
          "transactionHash": "0xe7ad5fe38ed23837f5a2d6457e5594db6e9a000cda9eed4c18c2a206a80b2b3e",
          "transactionIndex": "0x1",
          "logIndex": "0x1",
          "removed": false
        }
      ],
      "logsBloom": "0x00000000000000000000000000000000000000000000000000000000000200000000000000000000000000000000000000000000000000000000000000000000000000000000000000000008000000000000000000000000000000000000000004000000020000000000000000000800000000000000000000000010000000000000000000000000000000000000000000000000000000000000000040000000000000000000000000000000000000000100000000000000000000000000000020000002000000000000000000000000000000000000000000000000000020000000000000000000000000000000000200000000000000000000000000000000",
      "type": "0x2",
      "transactionHash": "0xe7ad5fe38ed23837f5a2d6457e5594db6e9a000cda9eed4c18c2a206a80b2b3e",
      "transactionIndex": "0x1",
      "blockHash": "0xe06c78e7d480512c469b979ac4a262224b3e82d66c5ff3beff57d92379468a55",
      "blockNumber": "0x1329aa5",
      "gasUsed": "0x87a81",
      "effectiveGasPrice": "0x680f6aa",
      "blobGasPrice": "0x1",
      "from": "0x73109baf60bab74b9e8273dfd4236d17c56cfc67",
      "to": null,
      "contractAddress": "0xa86695ad7f625413c6c8f40906edfa510226e451",
      "root": "0x0000000000000000000000000000000000000000000000000000000000000000"
    },
    {
      "status": "0x1",
      "cumulativeGasUsed": "0x4624d",
      "logs": [],
      "logsBloom": "0x00000000000000000000000000000000000000000000000000000000000000000000000000000000000000000000000000000000000000000000000000000000000000000000000000000000000000000000000000000000000000000000000000000000000000000000000000000000000000000000000000000000000000000000000000000000000000000000000000000000000000000000000000000000000000000000000000000000000000000000000000000000000000000000000000000000000000000000000000000000000000000000000000000000000000000000000000000000000000000000000000000000000000000000000000000000",
      "type": "0x2",
      "transactionHash": "0x989a2ca59ad5ae098a63e68e4c7f02966103067a554fc857aea3e1c4fc11ef1e",
      "transactionIndex": "0x0",
      "blockHash": "0xbe3a40d40217c2907d983ea53ec643e5edf30beb052b179be153e081202e59cd",
      "blockNumber": "0x1329aa6",
      "gasUsed": "0x4624d",
      "effectiveGasPrice": "0x65f349e",
      "blobGasPrice": "0x1",
      "from": "0x73109baf60bab74b9e8273dfd4236d17c56cfc67",
      "to": null,
      "contractAddress": "0x78432b0e883ff214042bfc99a124e888a1030bc1",
      "root": "0x0000000000000000000000000000000000000000000000000000000000000000"
    },
    {
      "status": "0x1",
      "cumulativeGasUsed": "0x51ad3",
      "logs": [
        {
          "address": "0xbbbbbbbbbb9cc5e90e3b3af64bdaf62c37eeffcb",
          "topics": [
            "0xd5e969f01efe921d3f766bdebad25f0a05e3f237311f56482bf132d0326309c0",
            "0x00000000000000000000000073109baf60bab74b9e8273dfd4236d17c56cfc67",
            "0x00000000000000000000000073109baf60bab74b9e8273dfd4236d17c56cfc67",
            "0x0000000000000000000000009db9d7dbb584f4b10a829ba1dc1e19ac00e2eba9"
          ],
          "data": "0x0000000000000000000000000000000000000000000000000000000000000001",
          "blockHash": "0xbe3a40d40217c2907d983ea53ec643e5edf30beb052b179be153e081202e59cd",
          "blockNumber": "0x1329aa6",
          "blockTimestamp": "0x666d5e38",
          "transactionHash": "0xb622f0f8ed1917f4a59b2af304d44853304e9f986c4e3016f1ff49e9d97ff045",
          "transactionIndex": "0x1",
          "logIndex": "0x0",
          "removed": false
        }
      ],
      "logsBloom": "0x00000000000000000000002000000000000000000000000000000000000200000000000000000000000000000000000000000000000800000000000000000000000000000010000000000000000000000000000800000000000000000000000004000000000000000000200000000000000010000000000000000000000000000000000000000008000000000000000000000000000000000000000000000000000000000000000000000000000000000100000000000000000000000000000020000000000000000000000000000000000000000000000000000000000000000000000000000000000000000000000000010000000000000000000000000000",
      "type": "0x2",
      "transactionHash": "0xb622f0f8ed1917f4a59b2af304d44853304e9f986c4e3016f1ff49e9d97ff045",
      "transactionIndex": "0x1",
      "blockHash": "0xbe3a40d40217c2907d983ea53ec643e5edf30beb052b179be153e081202e59cd",
      "blockNumber": "0x1329aa6",
      "gasUsed": "0xb886",
      "effectiveGasPrice": "0x65f349e",
      "blobGasPrice": "0x1",
      "from": "0x73109baf60bab74b9e8273dfd4236d17c56cfc67",
      "to": "0xbbbbbbbbbb9cc5e90e3b3af64bdaf62c37eeffcb",
      "contractAddress": null,
      "root": "0x0000000000000000000000000000000000000000000000000000000000000000"
    },
    {
      "status": "0x1",
      "cumulativeGasUsed": "0x6ef3b",
      "logs": [],
      "logsBloom": "0x00000000000000000000000000000000000000000000000000000000000000000000000000000000000000000000000000000000000000000000000000000000000000000000000000000000000000000000000000000000000000000000000000000000000000000000000000000000000000000000000000000000000000000000000000000000000000000000000000000000000000000000000000000000000000000000000000000000000000000000000000000000000000000000000000000000000000000000000000000000000000000000000000000000000000000000000000000000000000000000000000000000000000000000000000000000",
      "type": "0x2",
      "transactionHash": "0xb54208b332ac87f7f9af974409de0824c8f209c6694b34009adf8599b749cf04",
      "transactionIndex": "0x2",
      "blockHash": "0xbe3a40d40217c2907d983ea53ec643e5edf30beb052b179be153e081202e59cd",
      "blockNumber": "0x1329aa6",
      "gasUsed": "0x1d468",
      "effectiveGasPrice": "0x65f349e",
      "blobGasPrice": "0x1",
      "from": "0x73109baf60bab74b9e8273dfd4236d17c56cfc67",
      "to": null,
      "contractAddress": "0x42a2ec464037f01a84f0a83abc04f57f95123476",
      "root": "0x0000000000000000000000000000000000000000000000000000000000000000"
    },
    {
      "status": "0x1",
      "cumulativeGasUsed": "0x8c3a3",
      "logs": [],
      "logsBloom": "0x00000000000000000000000000000000000000000000000000000000000000000000000000000000000000000000000000000000000000000000000000000000000000000000000000000000000000000000000000000000000000000000000000000000000000000000000000000000000000000000000000000000000000000000000000000000000000000000000000000000000000000000000000000000000000000000000000000000000000000000000000000000000000000000000000000000000000000000000000000000000000000000000000000000000000000000000000000000000000000000000000000000000000000000000000000000",
      "type": "0x2",
      "transactionHash": "0x80f9cd67ec76b034990b5d5b2dbfa1c7cfe82475ef6ff0ab067ea112bae27a3a",
      "transactionIndex": "0x3",
      "blockHash": "0xbe3a40d40217c2907d983ea53ec643e5edf30beb052b179be153e081202e59cd",
      "blockNumber": "0x1329aa6",
      "gasUsed": "0x1d468",
      "effectiveGasPrice": "0x65f349e",
      "blobGasPrice": "0x1",
      "from": "0x73109baf60bab74b9e8273dfd4236d17c56cfc67",
      "to": null,
      "contractAddress": "0xfd4ede21cc3eef1a1d6aaa2430c019ac2fa35d6a",
      "root": "0x0000000000000000000000000000000000000000000000000000000000000000"
    },
    {
      "status": "0x1",
      "cumulativeGasUsed": "0x9484b",
      "logs": [
        {
          "address": "0xa86695ad7f625413c6c8f40906edfa510226e451",
          "topics": [
            "0xddf252ad1be2c89b69c2b068fc378daa952ba7f163c4a11628f55a4df523b3ef",
            "0x0000000000000000000000000000000000000000000000000000000000000000",
            "0x00000000000000000000000073109baf60bab74b9e8273dfd4236d17c56cfc67"
          ],
          "data": "0x00000000000000000000000000000000000000000000043c33c1937564800000",
          "blockHash": "0xbe3a40d40217c2907d983ea53ec643e5edf30beb052b179be153e081202e59cd",
          "blockNumber": "0x1329aa6",
          "blockTimestamp": "0x666d5e38",
          "transactionHash": "0xb9bc29dc8ef23935f4e25efad4d6f3758ead1595cb938687ac1cd68a29c0bf15",
          "transactionIndex": "0x4",
          "logIndex": "0x1",
          "removed": false
        }
      ],
      "logsBloom": "0x00000000000000000000000000000000000000000000000000000000000200000000000000000000000000000000000000000000000000000000000000000000000000000000000000000008000000000000000000000000000000000000000004000000020000000000000000000800000000000000000000000010000000000000000000000000000000000000000000000000000000000000000040000000000000000000000000000000000000000100000000000000000000000000000020000002000000000000000000000000000000000000000000000000000020000000000000000000000000000000000200000000000000000000000000000000",
      "type": "0x2",
      "transactionHash": "0xb9bc29dc8ef23935f4e25efad4d6f3758ead1595cb938687ac1cd68a29c0bf15",
      "transactionIndex": "0x4",
      "blockHash": "0xbe3a40d40217c2907d983ea53ec643e5edf30beb052b179be153e081202e59cd",
      "blockNumber": "0x1329aa6",
      "gasUsed": "0x84a8",
      "effectiveGasPrice": "0x65f349e",
      "blobGasPrice": "0x1",
      "from": "0x73109baf60bab74b9e8273dfd4236d17c56cfc67",
      "to": "0xa86695ad7f625413c6c8f40906edfa510226e451",
      "contractAddress": null,
      "root": "0x0000000000000000000000000000000000000000000000000000000000000000"
    },
    {
      "status": "0x1",
      "cumulativeGasUsed": "0x84a8",
      "logs": [
        {
          "address": "0xa86695ad7f625413c6c8f40906edfa510226e451",
          "topics": [
            "0xddf252ad1be2c89b69c2b068fc378daa952ba7f163c4a11628f55a4df523b3ef",
            "0x0000000000000000000000000000000000000000000000000000000000000000",
            "0x00000000000000000000000073109baf60bab74b9e8273dfd4236d17c56cfc67"
          ],
          "data": "0x00000000000000000000000000000000000000000000043c33c1937564800000",
          "blockHash": "0x99aaa8d35f24202c90d57651c627e53088d79f8d36d5a4963da5efd380f26372",
          "blockNumber": "0x1329aa7",
          "blockTimestamp": "0x666d5e39",
          "transactionHash": "0x9e39a301827d9044e34d448746a915111e6ccb53f1820e9fdca37d6efa70e67b",
          "transactionIndex": "0x0",
          "logIndex": "0x0",
          "removed": false
        }
      ],
      "logsBloom": "0x00000000000000000000000000000000000000000000000000000000000200000000000000000000000000000000000000000000000000000000000000000000000000000000000000000008000000000000000000000000000000000000000004000000020000000000000000000800000000000000000000000010000000000000000000000000000000000000000000000000000000000000000040000000000000000000000000000000000000000100000000000000000000000000000020000002000000000000000000000000000000000000000000000000000020000000000000000000000000000000000200000000000000000000000000000000",
      "type": "0x2",
      "transactionHash": "0x9e39a301827d9044e34d448746a915111e6ccb53f1820e9fdca37d6efa70e67b",
      "transactionIndex": "0x0",
      "blockHash": "0x99aaa8d35f24202c90d57651c627e53088d79f8d36d5a4963da5efd380f26372",
      "blockNumber": "0x1329aa7",
      "gasUsed": "0x84a8",
      "effectiveGasPrice": "0x6404612",
      "blobGasPrice": "0x1",
      "from": "0x73109baf60bab74b9e8273dfd4236d17c56cfc67",
      "to": "0xa86695ad7f625413c6c8f40906edfa510226e451",
      "contractAddress": null,
      "root": "0x0000000000000000000000000000000000000000000000000000000000000000"
    },
    {
      "status": "0x1",
      "cumulativeGasUsed": "0x84a8",
      "logs": [
        {
          "address": "0xffbe32f59ef658e7b698ea1ff4fc441004093aae",
          "topics": [
            "0xddf252ad1be2c89b69c2b068fc378daa952ba7f163c4a11628f55a4df523b3ef",
            "0x0000000000000000000000000000000000000000000000000000000000000000",
            "0x00000000000000000000000073109baf60bab74b9e8273dfd4236d17c56cfc67"
          ],
          "data": "0x00000000000000000000000000000000000000000000043c33c1937564800000",
          "blockHash": "0x25c556c0e35f82e4ecd36f38591fe8cf72864055d6d1f9a2267960c65951d3b2",
          "blockNumber": "0x1329aa8",
          "blockTimestamp": "0x666d5e3a",
          "transactionHash": "0xb506553a12cd8cc23661d1c7051009cd8cbf666126734818cf48e45d74b50175",
          "transactionIndex": "0x0",
          "logIndex": "0x0",
          "removed": false
        }
      ],
      "logsBloom": "0x00000000000000000000000000000000000000000000000000000000000200000000000000000000000000000000000000000000000000000800000000000000000000000000000000000008000000000000000000000000000000000000000004000000020000000000000000000800000000000000000000000010000000400000000000000000000002000000000000000000000000000000000000000000000000000000000000000000000000000100000000000000000000000000000000000002000000000000000000000000000000000000000000000000000020000000000000000000000000000000000000000000000000000000000000000000",
      "type": "0x2",
      "transactionHash": "0xb506553a12cd8cc23661d1c7051009cd8cbf666126734818cf48e45d74b50175",
      "transactionIndex": "0x0",
      "blockHash": "0x25c556c0e35f82e4ecd36f38591fe8cf72864055d6d1f9a2267960c65951d3b2",
      "blockNumber": "0x1329aa8",
      "gasUsed": "0x84a8",
      "effectiveGasPrice": "0x623f712",
      "blobGasPrice": "0x1",
      "from": "0x73109baf60bab74b9e8273dfd4236d17c56cfc67",
      "to": "0xffbe32f59ef658e7b698ea1ff4fc441004093aae",
      "contractAddress": null,
      "root": "0x0000000000000000000000000000000000000000000000000000000000000000"
    },
    {
      "status": "0x1",
      "cumulativeGasUsed": "0x23309",
      "logs": [
        {
          "address": "0xbbbbbbbbbb9cc5e90e3b3af64bdaf62c37eeffcb",
          "topics": [
            "0xac4b2400f169220b0c0afdde7a0b32e775ba727ea1cb30b35f935cdaab8683ac",
            "0xba4cd47fa887c18eb560eec14d9b1184c681a7307804e98c46f7fafc92cf5d79"
          ],
          "data": "0x000000000000000000000000ffbe32f59ef658e7b698ea1ff4fc441004093aae000000000000000000000000a86695ad7f625413c6c8f40906edfa510226e45100000000000000000000000042a2ec464037f01a84f0a83abc04f57f9512347600000000000000000000000000000000000000000000000000000000000000000000000000000000000000000000000000000000000000000d1d507e40be8000",
          "blockHash": "0xd8d7946bf454c5675e3fc8bc1dcf32205d306a7d3db6fc5d03c457851e36d2e9",
          "blockNumber": "0x1329aa9",
          "blockTimestamp": "0x666d5e3b",
          "transactionHash": "0xf1237913e98e4ee3c648b22306152a2c4e5183b0835edc20600d2330009d6e4f",
          "transactionIndex": "0x0",
          "logIndex": "0x0",
          "removed": false
        }
      ],
      "logsBloom": "0x08000000000000000000000000000800000000000000000000000000000000008000000000000000000000000000000000000000000000000000000000000000000000000010000000000000000000000000000000000000000000000000000000000000000000000000000000000000000000000001000000000040000000000000000000000008000000000000000000000000000000000000000000000000000000000000000000000000000000000000000000000000000000000000000020000000000000000000000000000000000000000000000000000000000000000000000000000000000000000000000000000000000000000000000000000010",
      "type": "0x2",
      "transactionHash": "0xf1237913e98e4ee3c648b22306152a2c4e5183b0835edc20600d2330009d6e4f",
      "transactionIndex": "0x0",
      "blockHash": "0xd8d7946bf454c5675e3fc8bc1dcf32205d306a7d3db6fc5d03c457851e36d2e9",
      "blockNumber": "0x1329aa9",
      "gasUsed": "0x23309",
      "effectiveGasPrice": "0x60b2fe5",
      "blobGasPrice": "0x1",
      "from": "0x73109baf60bab74b9e8273dfd4236d17c56cfc67",
      "to": "0xbbbbbbbbbb9cc5e90e3b3af64bdaf62c37eeffcb",
      "contractAddress": null,
      "root": "0x0000000000000000000000000000000000000000000000000000000000000000"
    },
    {
      "status": "0x1",
      "cumulativeGasUsed": "0x297c8",
      "logs": [],
      "logsBloom": "0x00000000000000000000000000000000000000000000000000000000000000000000000000000000000000000000000000000000000000000000000000000000000000000000000000000000000000000000000000000000000000000000000000000000000000000000000000000000000000000000000000000000000000000000000000000000000000000000000000000000000000000000000000000000000000000000000000000000000000000000000000000000000000000000000000000000000000000000000000000000000000000000000000000000000000000000000000000000000000000000000000000000000000000000000000000000",
      "type": "0x2",
      "transactionHash": "0x6d0829f729d069ffd7f2863c16117a753a5616940c4c9b685242cb689656797a",
      "transactionIndex": "0x1",
      "blockHash": "0xd8d7946bf454c5675e3fc8bc1dcf32205d306a7d3db6fc5d03c457851e36d2e9",
      "blockNumber": "0x1329aa9",
      "gasUsed": "0x64bf",
      "effectiveGasPrice": "0x60b2fe5",
      "blobGasPrice": "0x1",
      "from": "0x73109baf60bab74b9e8273dfd4236d17c56cfc67",
      "to": "0xbbbbbbbbbb9cc5e90e3b3af64bdaf62c37eeffcb",
      "contractAddress": null,
      "root": "0x0000000000000000000000000000000000000000000000000000000000000000"
    },
    {
      "status": "0x1",
      "cumulativeGasUsed": "0x34c91",
      "logs": [
        {
          "address": "0xa86695ad7f625413c6c8f40906edfa510226e451",
          "topics": [
            "0x8c5be1e5ebec7d5bd14f71427d1e84f3dd0314c0f7b2291e5b200ac8c7c3b925",
            "0x00000000000000000000000073109baf60bab74b9e8273dfd4236d17c56cfc67",
            "0x0000000000000000000000009db9d7dbb584f4b10a829ba1dc1e19ac00e2eba9"
          ],
          "data": "0xffffffffffffffffffffffffffffffffffffffffffffffffffffffffffffffff",
          "blockHash": "0xd8d7946bf454c5675e3fc8bc1dcf32205d306a7d3db6fc5d03c457851e36d2e9",
          "blockNumber": "0x1329aa9",
          "blockTimestamp": "0x666d5e3b",
          "transactionHash": "0x75b37dac987b3640458df42b08deb8f70fa9e77e0efb7091cf772c409cdf3bbe",
          "transactionIndex": "0x2",
          "logIndex": "0x1",
          "removed": false
        }
      ],
      "logsBloom": "0x00000000000000000000000000000000000000000000000000000000000200000000000000000000000000000000000000000000000800000000000000200000000000000000000000000000000000000000000000000000000000000000000004000000000000000000000000000000000010000000000000000000000000000000000000000000000000000000000000000000000000000000000040000000020000000000000000000000000000000100000000000000000000000000000020000000000000000000000000000000000000000000000000000000000000000010000000000000000000000000000200010000000000000000000000000000",
      "type": "0x2",
      "transactionHash": "0x75b37dac987b3640458df42b08deb8f70fa9e77e0efb7091cf772c409cdf3bbe",
      "transactionIndex": "0x2",
      "blockHash": "0xd8d7946bf454c5675e3fc8bc1dcf32205d306a7d3db6fc5d03c457851e36d2e9",
      "blockNumber": "0x1329aa9",
      "gasUsed": "0xb4c9",
      "effectiveGasPrice": "0x60b2fe5",
      "blobGasPrice": "0x1",
      "from": "0x73109baf60bab74b9e8273dfd4236d17c56cfc67",
      "to": "0xa86695ad7f625413c6c8f40906edfa510226e451",
      "contractAddress": null,
      "root": "0x0000000000000000000000000000000000000000000000000000000000000000"
    },
    {
      "status": "0x1",
      "cumulativeGasUsed": "0x1db93",
      "logs": [
        {
          "address": "0xa86695ad7f625413c6c8f40906edfa510226e451",
          "topics": [
            "0x8c5be1e5ebec7d5bd14f71427d1e84f3dd0314c0f7b2291e5b200ac8c7c3b925",
            "0x0000000000000000000000009db9d7dbb584f4b10a829ba1dc1e19ac00e2eba9",
            "0x000000000000000000000000bbbbbbbbbb9cc5e90e3b3af64bdaf62c37eeffcb"
          ],
          "data": "0xffffffffffffffffffffffffffffffffffffffffffffffffffffffffffffffff",
          "blockHash": "0xede2456fa12e918aa822601e7a296c6f3c2959ba8e723d76012f53a811f11278",
          "blockNumber": "0x1329aaa",
          "blockTimestamp": "0x666d5e3c",
          "transactionHash": "0x2a799355bb15eba9599c44d4713b24c2a8d1679a9e397fda788e12649323fdb1",
          "transactionIndex": "0x0",
          "logIndex": "0x0",
          "removed": false
        },
        {
          "address": "0xa86695ad7f625413c6c8f40906edfa510226e451",
          "topics": [
            "0xddf252ad1be2c89b69c2b068fc378daa952ba7f163c4a11628f55a4df523b3ef",
            "0x00000000000000000000000073109baf60bab74b9e8273dfd4236d17c56cfc67",
            "0x0000000000000000000000009db9d7dbb584f4b10a829ba1dc1e19ac00e2eba9"
          ],
          "data": "0x00000000000000000000000000000000000000000000006c6b935b8bbd400000",
          "blockHash": "0xede2456fa12e918aa822601e7a296c6f3c2959ba8e723d76012f53a811f11278",
          "blockNumber": "0x1329aaa",
          "blockTimestamp": "0x666d5e3c",
          "transactionHash": "0x2a799355bb15eba9599c44d4713b24c2a8d1679a9e397fda788e12649323fdb1",
          "transactionIndex": "0x0",
          "logIndex": "0x1",
          "removed": false
        },
        {
          "address": "0xbbbbbbbbbb9cc5e90e3b3af64bdaf62c37eeffcb",
          "topics": [
            "0xa3b9472a1399e17e123f3c2e6586c23e504184d504de59cdaa2b375e880c6184",
            "0xba4cd47fa887c18eb560eec14d9b1184c681a7307804e98c46f7fafc92cf5d79",
            "0x0000000000000000000000009db9d7dbb584f4b10a829ba1dc1e19ac00e2eba9",
            "0x00000000000000000000000073109baf60bab74b9e8273dfd4236d17c56cfc67"
          ],
          "data": "0x00000000000000000000000000000000000000000000006c6b935b8bbd400000",
          "blockHash": "0xede2456fa12e918aa822601e7a296c6f3c2959ba8e723d76012f53a811f11278",
          "blockNumber": "0x1329aaa",
          "blockTimestamp": "0x666d5e3c",
          "transactionHash": "0x2a799355bb15eba9599c44d4713b24c2a8d1679a9e397fda788e12649323fdb1",
          "transactionIndex": "0x0",
          "logIndex": "0x2",
          "removed": false
        },
        {
          "address": "0xa86695ad7f625413c6c8f40906edfa510226e451",
          "topics": [
            "0xddf252ad1be2c89b69c2b068fc378daa952ba7f163c4a11628f55a4df523b3ef",
            "0x0000000000000000000000009db9d7dbb584f4b10a829ba1dc1e19ac00e2eba9",
            "0x000000000000000000000000bbbbbbbbbb9cc5e90e3b3af64bdaf62c37eeffcb"
          ],
          "data": "0x00000000000000000000000000000000000000000000006c6b935b8bbd400000",
          "blockHash": "0xede2456fa12e918aa822601e7a296c6f3c2959ba8e723d76012f53a811f11278",
          "blockNumber": "0x1329aaa",
          "blockTimestamp": "0x666d5e3c",
          "transactionHash": "0x2a799355bb15eba9599c44d4713b24c2a8d1679a9e397fda788e12649323fdb1",
          "transactionIndex": "0x0",
          "logIndex": "0x3",
          "removed": false
        }
      ],
      "logsBloom": "0x08000000000000000000000000000080000000000000000000000000000200008000000000000000000000000000000000000000000800000000000000200000000000000010000000000008000000000000000000000000000000000000000004000000000000000000000000000000000010000001000000000010000000000000008000000008000000000000000000000000000000000000000040000000020000000000000000000000000000000100000000000000000000000000000020000002000000000000000000000000000000000000000400000000000000000010000001000000000000200000200200010000000000000000000000000000",
      "type": "0x2",
      "transactionHash": "0x2a799355bb15eba9599c44d4713b24c2a8d1679a9e397fda788e12649323fdb1",
      "transactionIndex": "0x0",
      "blockHash": "0xede2456fa12e918aa822601e7a296c6f3c2959ba8e723d76012f53a811f11278",
      "blockNumber": "0x1329aaa",
      "gasUsed": "0x1db93",
      "effectiveGasPrice": "0x5f5c36e",
      "blobGasPrice": "0x1",
      "from": "0x73109baf60bab74b9e8273dfd4236d17c56cfc67",
      "to": "0x9db9d7dbb584f4b10a829ba1dc1e19ac00e2eba9",
      "contractAddress": null,
      "root": "0x0000000000000000000000000000000000000000000000000000000000000000"
    },
    {
      "status": "0x1",
      "cumulativeGasUsed": "0x2905c",
      "logs": [
        {
          "address": "0xffbe32f59ef658e7b698ea1ff4fc441004093aae",
          "topics": [
            "0x8c5be1e5ebec7d5bd14f71427d1e84f3dd0314c0f7b2291e5b200ac8c7c3b925",
            "0x00000000000000000000000073109baf60bab74b9e8273dfd4236d17c56cfc67",
            "0x0000000000000000000000009db9d7dbb584f4b10a829ba1dc1e19ac00e2eba9"
          ],
          "data": "0xffffffffffffffffffffffffffffffffffffffffffffffffffffffffffffffff",
          "blockHash": "0xede2456fa12e918aa822601e7a296c6f3c2959ba8e723d76012f53a811f11278",
          "blockNumber": "0x1329aaa",
          "blockTimestamp": "0x666d5e3c",
          "transactionHash": "0x94d117b6d9e80f92cb31635d89b2e3b42ce7275111e04bb7a4a7ff10be599160",
          "transactionIndex": "0x1",
          "logIndex": "0x4",
          "removed": false
        }
      ],
      "logsBloom": "0x00000000000000000000000000000000000000000000000000000000000200000000000000000000000000000000000000000000000800000800000000200000000000000000000000000000000000000000000000000000000000000000000004000000000000000000000000000000000010000000000000000000000000400000000000000000000002000000000000000000000000000000000000000000020000000000000000000000000000000100000000000000000000000000000000000000000000000000000000000000000000000000000000000000000000000010000000000000000000000000000000010000000000000000000000000000",
      "type": "0x2",
      "transactionHash": "0x94d117b6d9e80f92cb31635d89b2e3b42ce7275111e04bb7a4a7ff10be599160",
      "transactionIndex": "0x1",
      "blockHash": "0xede2456fa12e918aa822601e7a296c6f3c2959ba8e723d76012f53a811f11278",
      "blockNumber": "0x1329aaa",
      "gasUsed": "0xb4c9",
      "effectiveGasPrice": "0x5f5c36e",
      "blobGasPrice": "0x1",
      "from": "0x73109baf60bab74b9e8273dfd4236d17c56cfc67",
      "to": "0xffbe32f59ef658e7b698ea1ff4fc441004093aae",
      "contractAddress": null,
      "root": "0x0000000000000000000000000000000000000000000000000000000000000000"
    },
    {
      "status": "0x1",
      "cumulativeGasUsed": "0x4db3d",
      "logs": [
        {
          "address": "0xffbe32f59ef658e7b698ea1ff4fc441004093aae",
          "topics": [
            "0x8c5be1e5ebec7d5bd14f71427d1e84f3dd0314c0f7b2291e5b200ac8c7c3b925",
            "0x0000000000000000000000009db9d7dbb584f4b10a829ba1dc1e19ac00e2eba9",
            "0x000000000000000000000000bbbbbbbbbb9cc5e90e3b3af64bdaf62c37eeffcb"
          ],
          "data": "0xffffffffffffffffffffffffffffffffffffffffffffffffffffffffffffffff",
          "blockHash": "0xede2456fa12e918aa822601e7a296c6f3c2959ba8e723d76012f53a811f11278",
          "blockNumber": "0x1329aaa",
          "blockTimestamp": "0x666d5e3c",
          "transactionHash": "0x1076406c3cd26e381a2a18c5046aafd0e71c4fa4c8b680ae63735ad5e019d565",
          "transactionIndex": "0x2",
          "logIndex": "0x5",
          "removed": false
        },
        {
          "address": "0xffbe32f59ef658e7b698ea1ff4fc441004093aae",
          "topics": [
            "0xddf252ad1be2c89b69c2b068fc378daa952ba7f163c4a11628f55a4df523b3ef",
            "0x00000000000000000000000073109baf60bab74b9e8273dfd4236d17c56cfc67",
            "0x0000000000000000000000009db9d7dbb584f4b10a829ba1dc1e19ac00e2eba9"
          ],
          "data": "0x00000000000000000000000000000000000000000000006c6b935b8bbd400000",
          "blockHash": "0xede2456fa12e918aa822601e7a296c6f3c2959ba8e723d76012f53a811f11278",
          "blockNumber": "0x1329aaa",
          "blockTimestamp": "0x666d5e3c",
          "transactionHash": "0x1076406c3cd26e381a2a18c5046aafd0e71c4fa4c8b680ae63735ad5e019d565",
          "transactionIndex": "0x2",
          "logIndex": "0x6",
          "removed": false
        },
        {
          "address": "0xbbbbbbbbbb9cc5e90e3b3af64bdaf62c37eeffcb",
          "topics": [
            "0xedf8870433c83823eb071d3df1caa8d008f12f6440918c20d75a3602cda30fe0",
            "0xba4cd47fa887c18eb560eec14d9b1184c681a7307804e98c46f7fafc92cf5d79",
            "0x0000000000000000000000009db9d7dbb584f4b10a829ba1dc1e19ac00e2eba9",
            "0x00000000000000000000000073109baf60bab74b9e8273dfd4236d17c56cfc67"
          ],
          "data": "0x00000000000000000000000000000000000000000000006c6b935b8bbd400000000000000000000000000000000000000000000006765c793fa10079d0000000",
          "blockHash": "0xede2456fa12e918aa822601e7a296c6f3c2959ba8e723d76012f53a811f11278",
          "blockNumber": "0x1329aaa",
          "blockTimestamp": "0x666d5e3c",
          "transactionHash": "0x1076406c3cd26e381a2a18c5046aafd0e71c4fa4c8b680ae63735ad5e019d565",
          "transactionIndex": "0x2",
          "logIndex": "0x7",
          "removed": false
        },
        {
          "address": "0xffbe32f59ef658e7b698ea1ff4fc441004093aae",
          "topics": [
            "0xddf252ad1be2c89b69c2b068fc378daa952ba7f163c4a11628f55a4df523b3ef",
            "0x0000000000000000000000009db9d7dbb584f4b10a829ba1dc1e19ac00e2eba9",
            "0x000000000000000000000000bbbbbbbbbb9cc5e90e3b3af64bdaf62c37eeffcb"
          ],
          "data": "0x00000000000000000000000000000000000000000000006c6b935b8bbd400000",
          "blockHash": "0xede2456fa12e918aa822601e7a296c6f3c2959ba8e723d76012f53a811f11278",
          "blockNumber": "0x1329aaa",
          "blockTimestamp": "0x666d5e3c",
          "transactionHash": "0x1076406c3cd26e381a2a18c5046aafd0e71c4fa4c8b680ae63735ad5e019d565",
          "transactionIndex": "0x2",
          "logIndex": "0x8",
          "removed": false
        }
      ],
      "logsBloom": "0x08000000000000000000000000000080000000000000000000000000000200008000000000000000000000000000000000000000000800000800000000200000000000000010000000000008800000000000000800000000000000000000000004000000000000000000000000000000000010000001000000000010000000400000000000000008000002000000000000000000000000000000000000000000020000000000000000000000000000000100000000000000000000000000000020000002000000000000000000000000000000000000000000000000000000400010000001000000000000200000000000010000000000000000000000000000",
      "type": "0x2",
      "transactionHash": "0x1076406c3cd26e381a2a18c5046aafd0e71c4fa4c8b680ae63735ad5e019d565",
      "transactionIndex": "0x2",
      "blockHash": "0xede2456fa12e918aa822601e7a296c6f3c2959ba8e723d76012f53a811f11278",
      "blockNumber": "0x1329aaa",
      "gasUsed": "0x24ae1",
      "effectiveGasPrice": "0x5f5c36e",
      "blobGasPrice": "0x1",
      "from": "0x73109baf60bab74b9e8273dfd4236d17c56cfc67",
      "to": "0x9db9d7dbb584f4b10a829ba1dc1e19ac00e2eba9",
      "contractAddress": null,
      "root": "0x0000000000000000000000000000000000000000000000000000000000000000"
    },
    {
      "status": "0x1",
      "cumulativeGasUsed": "0xc768",
      "logs": [
        {
          "address": "0xffbe32f59ef658e7b698ea1ff4fc441004093aae",
          "topics": [
            "0xddf252ad1be2c89b69c2b068fc378daa952ba7f163c4a11628f55a4df523b3ef",
            "0x0000000000000000000000000000000000000000000000000000000000000000",
            "0x0000000000000000000000009db9d7dbb584f4b10a829ba1dc1e19ac00e2eba9"
          ],
          "data": "0x00000000000000000000000000000000000000000000043c33c1937564800000",
          "blockHash": "0xc91fd68340d3b453f0cf5c2330bd3170b329e3922f2f3e05efd4b9f9171d20e2",
          "blockNumber": "0x1329aab",
          "blockTimestamp": "0x666d5e3d",
          "transactionHash": "0x29c7daaec17bff122e73d69828592f5cb95196380901ad1d24424f33dac78021",
          "transactionIndex": "0x0",
          "logIndex": "0x0",
          "removed": false
        }
      ],
      "logsBloom": "0x00000000000000000000000000000000000000000000000000000000000000000000000000000000000000000000000000000000000800000800000000000000000000000000000000000008000000000000000000000000000000000000000000000000020000000000000000000800000010000000000000000010000000400000000000000000000002000000000000000000000000000000000000000000000000000000000000000000000000000000000000000000000000000000000000000002000000000000000000000000000000000000000000000000000020000000000000000000000000000000000000010000000000000000000000000000",
      "type": "0x2",
      "transactionHash": "0x29c7daaec17bff122e73d69828592f5cb95196380901ad1d24424f33dac78021",
      "transactionIndex": "0x0",
      "blockHash": "0xc91fd68340d3b453f0cf5c2330bd3170b329e3922f2f3e05efd4b9f9171d20e2",
      "blockNumber": "0x1329aab",
      "gasUsed": "0xc768",
      "effectiveGasPrice": "0x5e31bd7",
      "blobGasPrice": "0x1",
      "from": "0x73109baf60bab74b9e8273dfd4236d17c56cfc67",
      "to": "0xffbe32f59ef658e7b698ea1ff4fc441004093aae",
      "contractAddress": null,
      "root": "0x0000000000000000000000000000000000000000000000000000000000000000"
    },
    {
      "status": "0x1",
      "cumulativeGasUsed": "0x12e75",
      "logs": [
        {
          "address": "0xa86695ad7f625413c6c8f40906edfa510226e451",
          "topics": [
            "0x8c5be1e5ebec7d5bd14f71427d1e84f3dd0314c0f7b2291e5b200ac8c7c3b925",
            "0x00000000000000000000000073109baf60bab74b9e8273dfd4236d17c56cfc67",
            "0x0000000000000000000000009db9d7dbb584f4b10a829ba1dc1e19ac00e2eba9"
          ],
          "data": "0xffffffffffffffffffffffffffffffffffffffffffffffffffffffffffffffff",
          "blockHash": "0xc91fd68340d3b453f0cf5c2330bd3170b329e3922f2f3e05efd4b9f9171d20e2",
          "blockNumber": "0x1329aab",
          "blockTimestamp": "0x666d5e3d",
          "transactionHash": "0xb5bcfa962cef8e4e61efd6abb20a5e54c2fc970c4fcd99621509ab1d38c95bbd",
          "transactionIndex": "0x1",
          "logIndex": "0x1",
          "removed": false
        }
      ],
      "logsBloom": "0x00000000000000000000000000000000000000000000000000000000000200000000000000000000000000000000000000000000000800000000000000200000000000000000000000000000000000000000000000000000000000000000000004000000000000000000000000000000000010000000000000000000000000000000000000000000000000000000000000000000000000000000000040000000020000000000000000000000000000000100000000000000000000000000000020000000000000000000000000000000000000000000000000000000000000000010000000000000000000000000000200010000000000000000000000000000",
      "type": "0x2",
      "transactionHash": "0xb5bcfa962cef8e4e61efd6abb20a5e54c2fc970c4fcd99621509ab1d38c95bbd",
      "transactionIndex": "0x1",
      "blockHash": "0xc91fd68340d3b453f0cf5c2330bd3170b329e3922f2f3e05efd4b9f9171d20e2",
      "blockNumber": "0x1329aab",
      "gasUsed": "0x670d",
      "effectiveGasPrice": "0x5e31bd7",
      "blobGasPrice": "0x1",
      "from": "0x73109baf60bab74b9e8273dfd4236d17c56cfc67",
      "to": "0xa86695ad7f625413c6c8f40906edfa510226e451",
      "contractAddress": null,
      "root": "0x0000000000000000000000000000000000000000000000000000000000000000"
    },
    {
      "status": "0x1",
      "cumulativeGasUsed": "0x1118c",
      "logs": [
        {
          "address": "0xa86695ad7f625413c6c8f40906edfa510226e451",
          "topics": [
            "0x8c5be1e5ebec7d5bd14f71427d1e84f3dd0314c0f7b2291e5b200ac8c7c3b925",
            "0x0000000000000000000000009db9d7dbb584f4b10a829ba1dc1e19ac00e2eba9",
            "0x000000000000000000000000bbbbbbbbbb9cc5e90e3b3af64bdaf62c37eeffcb"
          ],
          "data": "0xffffffffffffffffffffffffffffffffffffffffffffffffffffffffffffffff",
          "blockHash": "0x0572a0c40abeafdf26a8dbcd625d760ed1b9652475058302cbd6420bd15af64b",
          "blockNumber": "0x1329aac",
          "blockTimestamp": "0x666d5e3e",
          "transactionHash": "0x591e40fb7d57fd691aa5ec2d14f18b2706bf68ecdbe10b67019843a94165cc61",
          "transactionIndex": "0x0",
          "logIndex": "0x0",
          "removed": false
        },
        {
          "address": "0xa86695ad7f625413c6c8f40906edfa510226e451",
          "topics": [
            "0xddf252ad1be2c89b69c2b068fc378daa952ba7f163c4a11628f55a4df523b3ef",
            "0x00000000000000000000000073109baf60bab74b9e8273dfd4236d17c56cfc67",
            "0x0000000000000000000000009db9d7dbb584f4b10a829ba1dc1e19ac00e2eba9"
          ],
          "data": "0x0000000000000000000000000000000000000000000000008ac7230489e80000",
          "blockHash": "0x0572a0c40abeafdf26a8dbcd625d760ed1b9652475058302cbd6420bd15af64b",
          "blockNumber": "0x1329aac",
          "blockTimestamp": "0x666d5e3e",
          "transactionHash": "0x591e40fb7d57fd691aa5ec2d14f18b2706bf68ecdbe10b67019843a94165cc61",
          "transactionIndex": "0x0",
          "logIndex": "0x1",
          "removed": false
        },
        {
          "address": "0xbbbbbbbbbb9cc5e90e3b3af64bdaf62c37eeffcb",
          "topics": [
            "0xa3b9472a1399e17e123f3c2e6586c23e504184d504de59cdaa2b375e880c6184",
            "0xba4cd47fa887c18eb560eec14d9b1184c681a7307804e98c46f7fafc92cf5d79",
            "0x0000000000000000000000009db9d7dbb584f4b10a829ba1dc1e19ac00e2eba9",
            "0x00000000000000000000000073109baf60bab74b9e8273dfd4236d17c56cfc67"
          ],
          "data": "0x0000000000000000000000000000000000000000000000008ac7230489e80000",
          "blockHash": "0x0572a0c40abeafdf26a8dbcd625d760ed1b9652475058302cbd6420bd15af64b",
          "blockNumber": "0x1329aac",
          "blockTimestamp": "0x666d5e3e",
          "transactionHash": "0x591e40fb7d57fd691aa5ec2d14f18b2706bf68ecdbe10b67019843a94165cc61",
          "transactionIndex": "0x0",
          "logIndex": "0x2",
          "removed": false
        },
        {
          "address": "0xa86695ad7f625413c6c8f40906edfa510226e451",
          "topics": [
            "0xddf252ad1be2c89b69c2b068fc378daa952ba7f163c4a11628f55a4df523b3ef",
            "0x0000000000000000000000009db9d7dbb584f4b10a829ba1dc1e19ac00e2eba9",
            "0x000000000000000000000000bbbbbbbbbb9cc5e90e3b3af64bdaf62c37eeffcb"
          ],
          "data": "0x0000000000000000000000000000000000000000000000008ac7230489e80000",
          "blockHash": "0x0572a0c40abeafdf26a8dbcd625d760ed1b9652475058302cbd6420bd15af64b",
          "blockNumber": "0x1329aac",
          "blockTimestamp": "0x666d5e3e",
          "transactionHash": "0x591e40fb7d57fd691aa5ec2d14f18b2706bf68ecdbe10b67019843a94165cc61",
          "transactionIndex": "0x0",
          "logIndex": "0x3",
          "removed": false
        }
      ],
      "logsBloom": "0x08000000000000000000000000000080000000000000000000000000000200008000000000000000000000000000000000000000000800000000000000200000000000000010000000000008000000000000000000000000000000000000000004000000000000000000000000000000000010000001000000000010000000000000008000000008000000000000000000000000000000000000000040000000020000000000000000000000000000000100000000000000000000000000000020000002000000000000000000000000000000000000000400000000000000000010000001000000000000200000200200010000000000000000000000000000",
      "type": "0x2",
      "transactionHash": "0x591e40fb7d57fd691aa5ec2d14f18b2706bf68ecdbe10b67019843a94165cc61",
      "transactionIndex": "0x0",
      "blockHash": "0x0572a0c40abeafdf26a8dbcd625d760ed1b9652475058302cbd6420bd15af64b",
      "blockNumber": "0x1329aac",
      "gasUsed": "0x1118c",
      "effectiveGasPrice": "0x5d277c7",
      "blobGasPrice": "0x1",
      "from": "0x73109baf60bab74b9e8273dfd4236d17c56cfc67",
      "to": "0x9db9d7dbb584f4b10a829ba1dc1e19ac00e2eba9",
      "contractAddress": null,
      "root": "0x0000000000000000000000000000000000000000000000000000000000000000"
    },
    {
      "status": "0x1",
      "cumulativeGasUsed": "0x92a4",
      "logs": [],
      "logsBloom": "0x00000000000000000000000000000000000000000000000000000000000000000000000000000000000000000000000000000000000000000000000000000000000000000000000000000000000000000000000000000000000000000000000000000000000000000000000000000000000000000000000000000000000000000000000000000000000000000000000000000000000000000000000000000000000000000000000000000000000000000000000000000000000000000000000000000000000000000000000000000000000000000000000000000000000000000000000000000000000000000000000000000000000000000000000000000000",
      "type": "0x2",
      "transactionHash": "0x468e670e7f9af641c79a7312ddf81df4b25e2bc5f06933f869db8bb6b27e18f6",
      "transactionIndex": "0x0",
      "blockHash": "0xb3ed05427391685968519724465586d40d28870de7569b09822fcedc071d1459",
      "blockNumber": "0x1329aad",
      "gasUsed": "0x92a4",
      "effectiveGasPrice": "0x5c3e3a0",
      "blobGasPrice": "0x1",
      "from": "0x73109baf60bab74b9e8273dfd4236d17c56cfc67",
      "to": "0x9db9d7dbb584f4b10a829ba1dc1e19ac00e2eba9",
      "contractAddress": null,
      "root": "0x0000000000000000000000000000000000000000000000000000000000000000"
    },
    {
      "status": "0x1",
      "cumulativeGasUsed": "0x171cb",
      "logs": [
        {
          "address": "0xbbbbbbbbbb9cc5e90e3b3af64bdaf62c37eeffcb",
          "topics": [
            "0x570954540bed6b1304a87dfe815a5eda4a648f7097a16240dcd85c9b5fd42a43",
            "0xba4cd47fa887c18eb560eec14d9b1184c681a7307804e98c46f7fafc92cf5d79",
            "0x00000000000000000000000073109baf60bab74b9e8273dfd4236d17c56cfc67",
            "0x00000000000000000000000073109baf60bab74b9e8273dfd4236d17c56cfc67"
          ],
          "data": "0x0000000000000000000000009db9d7dbb584f4b10a829ba1dc1e19ac00e2eba9000000000000000000000000000000000000000000000000000000000002ed640000000000000000000000000000000000000000000000000000002caacb2100",
          "blockHash": "0xcc969f146c8e399c359836ae9db43afe4f5d45c5c3ae3182451346534dd6c24a",
          "blockNumber": "0x1329aae",
          "blockTimestamp": "0x666d5e40",
          "transactionHash": "0x3fd65aff5478f2a83e9b74dd7beaa797a05a60cd046534dbd7b8bd953ee771b8",
          "transactionIndex": "0x0",
          "logIndex": "0x0",
          "removed": false
        },
        {
          "address": "0xffbe32f59ef658e7b698ea1ff4fc441004093aae",
          "topics": [
            "0xddf252ad1be2c89b69c2b068fc378daa952ba7f163c4a11628f55a4df523b3ef",
            "0x000000000000000000000000bbbbbbbbbb9cc5e90e3b3af64bdaf62c37eeffcb",
            "0x00000000000000000000000073109baf60bab74b9e8273dfd4236d17c56cfc67"
          ],
          "data": "0x000000000000000000000000000000000000000000000000000000000002ed64",
          "blockHash": "0xcc969f146c8e399c359836ae9db43afe4f5d45c5c3ae3182451346534dd6c24a",
          "blockNumber": "0x1329aae",
          "blockTimestamp": "0x666d5e40",
          "transactionHash": "0x3fd65aff5478f2a83e9b74dd7beaa797a05a60cd046534dbd7b8bd953ee771b8",
          "transactionIndex": "0x0",
          "logIndex": "0x1",
          "removed": false
        }
      ],
      "logsBloom": "0x08000000000000000002000000000080000000000000000000000000000200008000000000000000000000000000000000000000000000000800000000000000000000000010000000000008000000000000000000000000000000000000000004000000000000000000000000000000000000000001000000000010000000400000000000000008000002000000000000000000000000000000000000000000000000000000000000000000000000000100000000000000000000000000000020000002000000000000000000000000000000000000000000000000000000000000004001000008000000200000000000000000000000000000000000000000",
      "type": "0x2",
      "transactionHash": "0x3fd65aff5478f2a83e9b74dd7beaa797a05a60cd046534dbd7b8bd953ee771b8",
      "transactionIndex": "0x0",
      "blockHash": "0xcc969f146c8e399c359836ae9db43afe4f5d45c5c3ae3182451346534dd6c24a",
      "blockNumber": "0x1329aae",
      "gasUsed": "0x171cb",
      "effectiveGasPrice": "0x5b718b4",
      "blobGasPrice": "0x1",
      "from": "0x73109baf60bab74b9e8273dfd4236d17c56cfc67",
      "to": "0x9db9d7dbb584f4b10a829ba1dc1e19ac00e2eba9",
      "contractAddress": null,
      "root": "0x0000000000000000000000000000000000000000000000000000000000000000"
    },
    {
      "status": "0x1",
      "cumulativeGasUsed": "0x1d834",
      "logs": [],
      "logsBloom": "0x00000000000000000000000000000000000000000000000000000000000000000000000000000000000000000000000000000000000000000000000000000000000000000000000000000000000000000000000000000000000000000000000000000000000000000000000000000000000000000000000000000000000000000000000000000000000000000000000000000000000000000000000000000000000000000000000000000000000000000000000000000000000000000000000000000000000000000000000000000000000000000000000000000000000000000000000000000000000000000000000000000000000000000000000000000000",
      "type": "0x2",
      "transactionHash": "0x834a878ea7412234b5cabe9acd6b93d1a2e906133e7b7038c88f8d46c99d57d9",
      "transactionIndex": "0x1",
      "blockHash": "0xcc969f146c8e399c359836ae9db43afe4f5d45c5c3ae3182451346534dd6c24a",
      "blockNumber": "0x1329aae",
      "gasUsed": "0x6669",
      "effectiveGasPrice": "0x5b718b4",
      "blobGasPrice": "0x1",
      "from": "0x73109baf60bab74b9e8273dfd4236d17c56cfc67",
      "to": "0x42a2ec464037f01a84f0a83abc04f57f95123476",
      "contractAddress": null,
      "root": "0x0000000000000000000000000000000000000000000000000000000000000000"
    }
  ],
  "libraries": [],
  "pending": [],
  "returns": {},
  "timestamp": 1718557787,
  "chain": 1,
  "commit": "201e34d"
}