{
  "transactions": [
    {
      "hash": "0x50fb69895309dbd62774dd60ec5f06f77639c9f9f058369ca590465b3703b0d5",
      "transactionType": "CREATE",
      "contractName": "Liquidator",
      "contractAddress": "0xafa2b03e027e0ae3864cf85cc736fd067960573c",
      "function": null,
      "arguments": [
        "0xBBBBBbbBBb9cC5e90e3b3Af64bdAF62C37EEFFCb",
        "0xE592427A0AEce92De3Edee1F18E0157C05861564"
      ],
      "transaction": {
        "from": "0x73109baf60bab74b9e8273dfd4236d17c56cfc67",
        "gas": "0x29057c",
        "value": "0x0",
        "input": "0x60c0346200016157601f6200258d38819003918201601f19168301916001600160401b038311848410176200016657808492604094855283398101031262000161576200005a602062000052836200017c565b92016200017c565b903315620001485760008054336001600160a01b0319821681178355604051946001600160a01b0394909385939192918416907f8be0079c531659141344cd1fd0a4f28419497f9722a3daafe3b4186f6b6457e09080a3166080521660a0526123fb9081620001928239608051818181610164015281816103040152818161039701528181610418015281816105110152818161065b0152818161081001528181610863015281816109e701528181610c7301528181610d9201528181610def015281816110d50152818161117b0152818161127d0152818161163201526119d4015260a051816113430152f35b604051631e4fbdf760e01b815260006004820152602490fd5b600080fd5b634e487b7160e01b600052604160045260246000fd5b51906001600160a01b0382168203620001615756fe6040608081526004908136101561001557600080fd5b600091823560e01c9081629f7501146115f95781630a0a3fe9146115b7578163201542881461158b578163252dba42146113725781632b3297f91461132e5781633c0ebf6014611313578382635024e5751461125e57508163559cb3a9146110fe5781636b116ebc14610d0f578163706eaf1314610c42578163715018a614610be55781637362377b14610b995781638947606914610ace5781638da5cb5b14610aa6578163a01225ca146109b4578163b4dfbfe41461083b578163b936ba0c146107e3578163ba570dbf1461062a578163c1195161146105e8578163cd32e0b5146104e0578163cf7ea196146103c6578163d8fbc83314610382578163e0317517146102bd578163e42c08f214610223578163f2fde38b14610196575063f367be6b1461014257600080fd5b346101925760a036600319011261019257602090610188610162366117f2565b7f0000000000000000000000000000000000000000000000000000000000000000611f45565b5092519283525050f35b5080fd5b90503461021f57602036600319011261021f576101b16117dc565b906101ba611d43565b6001600160a01b039182169283156102095750506000548260018060a01b0319821617600055167f8be0079c531659141344cd1fd0a4f28419497f9722a3daafe3b4186f6b6457e0600080a380f35b51631e4fbdf760e01b8152908101849052602490fd5b8280fd5b838334610192576020928360031936011261021f576001600160a01b0390849060248361024e6117dc565b169386541691855194859384926370a0823160e01b84528301525afa9283156102b2579261027e575b5051908152f35b9091508281813d83116102ab575b61029681836117a5565b810103126102a657519083610277565b600080fd5b503d61028c565b8251903d90823e3d90fd5b839150346101925760c036600319011261019257826102ff916102df366117f2565b82516350d8cd4b60e01b815293849283923391829160a435918601611bf8565b0381857f00000000000000000000000000000000000000000000000000000000000000006001600160a01b03165af1908115610378578291610349575b5082519182526020820152f35b905061036b9150823d8411610371575b61036381836117a5565b810190611ba9565b8361033c565b503d610359565b83513d84823e3d90fd5b505034610192578160031936011261019257517f00000000000000000000000000000000000000000000000000000000000000006001600160a01b03168152602090f35b90503461021f578160031936011261021f57602435916001600160401b038084116104dc57366023850112156104dc57838301359081116104dc5783013660248201116104dc576001600160a01b03927f000000000000000000000000000000000000000000000000000000000000000084163303610499575083602091031261049557602481519361045885611739565b0135918216918281036102a6576020935251908152207f66f7054e689959c3bda7f62e0d02c602abe5123a8e5cfb0b260190d3bb4fce868280a280f35b8380fd5b606490602084519162461bcd60e51b8352820152602060248201527f6d73672e73656e6465722073686f756c64206265204d6f7270686f20426c75656044820152fd5b8480fd5b839150346101925760a0366003190112610192576104fd366117f2565b60a0812084516349e2903160e11b815291927f00000000000000000000000000000000000000000000000000000000000000006001600160a01b031692909160609082908190610551903390838801611972565b0381865afa9081156105de579185879492610591969482916105af575b505160011c855196879586948593635c2bea4960e01b8552339233928601611bbf565b03925af1908115610378578291610349575082519182526020820152f35b6105d1915060603d6060116105d7575b6105c981836117a5565b810190611921565b8961056e565b503d6105bf565b86513d87823e3d90fd5b839150346101925760c036600319011261019257826102ff9161060a366117f2565b8251635c2bea4960e01b815293849283923391829160a435918601611bf8565b839150346101925760c036600319011261019257610647366117f2565b9060a43560018060a01b03908184511691807f000000000000000000000000000000000000000000000000000000000000000016928751906020820163095ea7b360e01b9081815286602485015260001960448501526044845260808401906001600160401b0391858110838211176107ce57918b80809795938f9c9b9a9997958d5286519082875af16106d9611b47565b8161079f575b5080610795575b15610721575b5050505095610705836105919883511630903390611c90565b855163a99aad8960e01b81529687958694859333928501611c31565b91939597999698909294505191602083015287602483015289604483015260448252608082019082821090821117610780579580946107788b958d9a9895610773610705966105919e9c8e5282611ead565b611ead565b92988c6106ec565b604189634e487b7160e01b6000525260246000fd5b50823b15156106e6565b80518015925082156107b4575b50508e6106df565b6107c7925060208091830101910161189f565b8e806107ac565b60418a634e487b7160e01b6000525260246000fd5b5050346101925760c036600319011261019257602090610834610805366117f2565b61080d6117c6565b907f0000000000000000000000000000000000000000000000000000000000000000611cd4565b9051908152f35b90503461021f5760c036600319011261021f57610857366117f2565b61085f6117c6565b93807f0000000000000000000000000000000000000000000000000000000000000000956108bb6108c960a0862088516020810191825260028a8201528981526108a88161178a565b51902088519283916020830195866118b7565b03601f1981018352826117a5565b519020916109a1575060006108e06108f8926122d2565b855180938192637784c68560e01b8352878301611de8565b03816001600160a01b0389165afa9081156109965761092b929161092491600091610973575b50611b86565b5194611f45565b50509390916001830180931161095e57620f4240850180951161095e57509261095961083492602095611d30565b611c70565b601190634e487b7160e01b6000525260246000fd5b61099091503d806000833e61098881836117a5565b810190611d6f565b3861091e565b84513d6000823e3d90fd5b634e487b7160e01b815260118452602490fd5b839150346101925760c0366003190112610192576109d1366117f2565b60a43560018060a01b03918281511692856020827f0000000000000000000000000000000000000000000000000000000000000000169560448a518094819363095ea7b360e01b83528a8c84015260001960248401525af18015610a9c5792610a51856105919896948a948c9997610a6d575b5083511630903390611c90565b85516320b76e8160e01b81529687958694859333928501611c31565b610a8e9060203d602011610a95575b610a8681836117a5565b81019061189f565b508c610a44565b503d610a7c565b88513d89823e3d90fd5b505034610192578160031936011261019257905490516001600160a01b039091168152602090f35b90503461021f576020918260031936011261049557610aeb6117dc565b610af3611d43565b81516370a0823160e01b815230938101939093526001600160a01b0316908383602481855afa928315610b8f578593610b5e575b50610b5b93610b4d610773925194859263a9059cbb60e01b9084015233602484016118b7565b03601f1981018452836117a5565b80f35b9092508381813d8311610b88575b610b7681836117a5565b810103126102a6575191610b5b610b27565b503d610b6c565b81513d87823e3d90fd5b9190503461021f578260031936011261021f57610bb4611d43565b8280808060018060a01b0381541647905af1610bce611b47565b5015610bd8578280f35b516347474d6760e11b8152fd5b8334610c3f5780600319360112610c3f57610bfe611d43565b600080546001600160a01b0319811682556001600160a01b03167f8be0079c531659141344cd1fd0a4f28419497f9722a3daafe3b4186f6b6457e08280a380f35b80fd5b839150346101925760a036600319011261019257610c5f366117f2565b60a0812084516349e2903160e11b815291927f00000000000000000000000000000000000000000000000000000000000000006001600160a01b031692909160609082908190610cb3903390838801611972565b0381865afa9081156105de57918587949261059196948291610cf0575b50518551635c2bea4960e01b815296879586948593339283928601611bbf565b610d09915060603d6060116105d7576105c981836117a5565b89610cd0565b90503461021f57366003190160e081126104955760a01361021f57610d326117c6565b9260c43591821515830361019257610d48611d43565b8460a0610d54366117f2565b208384956000146110cc5750610d76610d71610d8e938693612288565b6122d2565b865180938192637784c68560e01b8352868301611de8565b03817f00000000000000000000000000000000000000000000000000000000000000006001600160a01b03165afa9081156110c25790610dd49184916110ae5750611b86565b5160801c925b610de2611b31565b9160018060a01b039182807f000000000000000000000000000000000000000000000000000000000000000016941697875198636eb1769f60e11b8a5230848b01528560248b01526020998a81604481855afa9081156110a457918b9189938491611070575b5015611015575b505050602435948486168096036102a657858951610e6c81611739565b528851868b8201528a8152610e808161176f565b8951631b1d579760e31b81529686610e966117dc565b168689015260248801526044358681168091036102a6576044880152606435938685168095036102a65787610f028195938b938a8f9996859760648701526084356084870152169d8e60a486015260c485015260e484015261012061010484015261012483019061185f565b03925af191821561100b57879085948694610fe6575b50610f21611b31565b169160248851809481936370a0823160e01b835233908301525afa938415610fdb5793610f8c575b507f1ac3940f9ca6e82e9afa0d23b23c01ec12a3f7389a76ad85bb3968557c776aff90610f74611b31565b610f828751928392836118b7565b0390a45160018152f35b9092508581813d8311610fd4575b610fa481836117a5565b810103126102a65751917f1ac3940f9ca6e82e9afa0d23b23c01ec12a3f7389a76ad85bb3968557c776aff610f49565b503d610f9a565b8651903d90823e3d90fd5b909350611001919450873d89116103715761036381836117a5565b9390939238610f18565b86513d86823e3d90fd5b60448b518094819363095ea7b360e01b83528b8a84015260001960248401525af1801561106657611049575b898791610e4f565b61105f908a3d8c11610a9557610a8681836117a5565b5038611041565b89513d89823e3d90fd5b92809294508391503d831161109d575b61108a81836117a5565b810103126102a65787918b915138610e48565b503d611080565b8a513d8a823e3d90fd5b61099091503d8086833e61098881836117a5565b85513d85823e3d90fd5b9450906110f9917f0000000000000000000000000000000000000000000000000000000000000000611e24565b610dda565b90503461021f5760c036600319011261021f5761111a366117f2565b82810151835163501ad8ff60e11b81529192906001600160a01b039060209084908490829085165afa92831561125457869361121e575b5061117791606091865180809581946349e2903160e11b8352339060a435908401611972565b03917f0000000000000000000000000000000000000000000000000000000000000000165afa908115611214576a0c097ce7bc90715b34b9f160241b6111e36111ed94670de0b6b3a7640000969460809460209a916111f5575b508801516000196001861b0116611d30565b0491015190611d30565b049051908152f35b61120e915060603d6060116105d7576105c981836117a5565b386111d1565b84513d87823e3d90fd5b9092506020813d60201161124c575b8161123a602093836117a5565b810103126102a6575191611177611151565b3d915061122d565b85513d88823e3d90fd5b8091843461130f5760c036600319011261130f5761127b366117f2565b7f00000000000000000000000000000000000000000000000000000000000000006001600160a01b03169290833b156104dc576101048592836112d19686519788958694638720316d60e01b86528501906118d2565b60a43560a48401523360c48401523360e48401525af190811561130657506112f65750f35b6112ff90611710565b610c3f5780f35b513d84823e3d90fd5b5050fd5b50503461019257816003193601126101925751478152602090f35b505034610192578160031936011261019257517f00000000000000000000000000000000000000000000000000000000000000006001600160a01b03168152602090f35b9050602091826003193601126104955781356001600160401b0392838211611587573660238301121561158757818101359380851161158357602460059336828860051b8301011161157f576113c787611b1a565b966113d4875198896117a5565b8088526113e081611b1a565b601f1901898b5b82811061156f575050503461155f5794899698999060621983360301915b878110611470578b8b8b8b8251928084019043855285850152825180915260608401948060608360051b870101940192955b8287106114445785850386f35b909192938280611460600193605f198a8203018652885161185f565b9601920196019592919092611437565b80829c9b999c1b8581860101358481121561155b57850190868201356001600160a01b03811681036102a6578e9060449384810135906042198136030182121561049557019089820135918b83116104955785019180360383136104955783928f8290519283928337810184815203915af4906114eb611b47565b908d51851015611547578d018e01521561150c57506001019a97999a611405565b8776135d5b1d1a58d85b1b0cce8818d85b1b0819985a5b1959604a1b60649260178f8a908f519562461bcd60e51b8752860152840152820152fd5b8860328c634e487b7160e01b600052526000fd5b8d80fd5b8651630f007ec960e41b81528590fd5b606082828d010152018a906113e7565b8880fd5b8680fd5b8580fd5b5050346101925760a0366003190112610192576020906115ad610162366117f2565b5050509051908152f35b828434610c3f5760e0366003190112610c3f57506115d4366117f2565b60c43591906001600160a01b03831683036102a6576020926108349160a4359061198b565b9190503461021f5760c036600319011261021f5782611617366117f2565b60a43593602082019060018060a01b038083511692856020837f0000000000000000000000000000000000000000000000000000000000000000169560448a518094819363095ea7b360e01b83528a8a84015260001960248401525af18015610a9c579161169393918a936116f1575b50511630903390611c90565b813b156104955783610124926116bc978751988996879563238d657960e01b87528601906118d2565b60a48401523360c484015261010060e4840152816101048401525af190811561130657506116e8575080f35b610b5b90611710565b6117099060203d602011610a9557610a8681836117a5565b5038611687565b6001600160401b03811161172357604052565b634e487b7160e01b600052604160045260246000fd5b602081019081106001600160401b0382111761172357604052565b60a081019081106001600160401b0382111761172357604052565b604081019081106001600160401b0382111761172357604052565b606081019081106001600160401b0382111761172357604052565b90601f801991011681019081106001600160401b0382111761172357604052565b60a435906001600160a01b03821682036102a657565b600435906001600160a01b03821682036102a657565b60a09060031901126102a6576040519061180b82611754565b816001600160a01b0360043581811681036102a657825260243581811681036102a657602083015260443581811681036102a657604083015260643590811681036102a65760608201526080608435910152565b919082519283825260005b84811061188b575050826000602080949584010152601f8019910116010190565b60208183018101518483018201520161186a565b908160209103126102a6575180151581036102a65790565b6001600160a01b039091168152602081019190915260400190565b6080809160018060a01b0380825116855280602083015116602086015280604083015116604086015260608201511660608501520151910152565b51906001600160801b03821682036102a657565b908160609103126102a65760405190606082018281106001600160401b038211176117235761196a9160409182528051845261195f6020820161190d565b60208501520161190d565b604082015290565b9081526001600160a01b03909116602082015260400190565b604081810151815163501ad8ff60e11b81529594919391906001600160a01b03906020908890600490829085165afa968715611ad857600097611ae3575b5090606081611a0f937f00000000000000000000000000000000000000000000000000000000000000009588518096819482936349e2903160e11b845260048401611972565b039187165afa918215611ad85796611a73936a0c097ce7bc90715b34b9f160241b93611a5e938760809a9b600093611ab5575b50611a4d9293611cd4565b9601516000196001891b0116611d30565b04670de0b6b3a7640000948593015190611d30565b048115611aac57828102928184041490151715611a9657611a9391611c70565b90565b634e487b7160e01b600052601160045260246000fd5b50505060001990565b611a4d9350611ad29060603d6060116105d7576105c981836117a5565b92611a42565b85513d6000823e3d90fd5b919096506020823d602011611b12575b81611b00602093836117a5565b810103126102a65790519560606119c9565b3d9150611af3565b6001600160401b0381116117235760051b60200190565b6004356001600160a01b03811681036102a65790565b3d15611b81573d906001600160401b0382116117235760405191611b75601f8201601f1916602001846117a5565b82523d6000602084013e565b606090565b805115611b935760200190565b634e487b7160e01b600052603260045260246000fd5b91908260409103126102a6576020825192015190565b9290949361010092611bd6856101208101986118d2565b600060a086015260c08501526001600160a01b0391821660e085015216910152565b9290949361010092611c0f856101208101986118d2565b60a0850152600060c08501526001600160a01b0391821660e085015216910152565b919061014093600092611c4785610120946118d2565b60a085015260c084018390526001600160a01b031660e084015261010083018190528201520190565b8115611c7a570490565b634e487b7160e01b600052601260045260246000fd5b6040516323b872dd60e01b60208201526001600160a01b039283166024820152929091166044830152606480830193909352918152611cd29161077382611754565b565b9190611ce7611ced9260a0832085611e24565b92611f45565b939250905060018101809111611a9657620f4240830191828411611a9657620f423f91611d1991611d30565b920191818311611a9657611a93926109599161227b565b81810292918115918404141715611a9657565b6000546001600160a01b03163303611d5757565b60405163118cdaa760e01b8152336004820152602490fd5b60209081818403126102a6578051906001600160401b0382116102a657019180601f840112156102a6578251611da481611b1a565b93611db260405195866117a5565b818552838086019260051b8201019283116102a6578301905b828210611dd9575050505090565b81518152908301908301611dcb565b602090602060408183019282815285518094520193019160005b828110611e10575050505090565b835185529381019392810192600101611e02565b611e36610d71611e5294600094612288565b906040518080958194637784c68560e01b835260048301611de8565b03916001600160a01b03165afa908115611ea157600091611e86575b506001600160801b0390611e8190611b86565b511690565b611e9b91503d806000833e61098881836117a5565b38611e6e565b6040513d6000823e3d90fd5b600080611ed69260018060a01b03169360208151910182865af1611ecf611b47565b9083612362565b8051908115159182611f04575b5050611eec5750565b60249060405190635274afe760e01b82526004820152fd5b611f17925060208091830101910161189f565b153880611ee3565b91908203918211611a9657565b6001600160801b039182169082160191908211611a9657565b60a0822060408051632e3071cd60e11b815260048101929092529390926001600160a01b039260c0908590602490829087165afa938415611ad8576000946121b8575b506080840180516001600160801b03949190611fa690861642611f1f565b91821515806121aa575b8061219b575b611fde575b505050508183511691606081806020870151169686015116940151169193929190565b60608401518851638c00bf6b60e01b81529116936120009060048301906118d2565b8587511660a482015260208701938685511660c483015286898901938185511660e48501528160608b01511661010485015251166101248301526020826101648160a08c01948b8651166101448301525afa8015612190578792600091612157575b506120c16120776120b6968587511693611d30565b916120bb671bc16d674ec8000061208e8580611d30565b0493670de0b6b3a764000098856729a2241af62c00006120af848d99611d30565b049261227b565b61227b565b90611d30565b0492826120d96120d0866122f7565b82845116611f2c565b169052816120f26120e9856122f7565b828b5116611f2c565b16885251168015611fbb5761210691611d30565b046121148185875116611f1f565b8483511691620f42408301809311611a965760018201809211611a965761214661214b9261095988956120d094611d30565b6122f7565b16905238808080611fbb565b9250506020823d602011612188575b81612173602093836117a5565b810103126102a65790518691906120c1612062565b3d9150612166565b89513d6000823e3d90fd5b50806060850151161515611fb6565b508588880151161515611fb0565b60c0949194813d60c011612273575b816121d460c093836117a5565b810103126101925785519160c08301908382106001600160401b0383111761225f57506122539160a09188526122098161190d565b84526122176020820161190d565b602085015261222788820161190d565b888501526122376060820161190d565b60608501526122486080820161190d565b60808501520161190d565b60a08201529238611f88565b634e487b7160e01b81526041600452602490fd5b3d91506121c7565b91908201809211611a9657565b6122c16108bb916040516020810191825260026040820152604081526122ad8161178a565b5190206040519283916020830195866118b7565b51902060018101809111611a965790565b604051906122df8261176f565b60018252602036818401376122f382611b86565b5290565b6040516001600160801b03919061230d8161176f565b60148152731b585e081d5a5b9d0c4c8e08195e18d95959195960621b602082015282821161233a57501690565b60405162461bcd60e51b81526020600482015290819061235e90602483019061185f565b0390fd5b90612389575080511561237757805190602001fd5b604051630a12f52160e11b8152600490fd5b815115806123bc575b61239a575090565b604051639996b31560e01b81526001600160a01b039091166004820152602490fd5b50803b1561239256fea2646970667358221220cd1a2c4b11ea92774da7a3486e1a4c45e9824eeec5d913f22ab861824365322864736f6c63430008170033000000000000000000000000bbbbbbbbbb9cc5e90e3b3af64bdaf62c37eeffcb000000000000000000000000e592427a0aece92de3edee1f18e0157c05861564",
        "nonce": "0xc3",
        "chainId": "0x1"
      },
      "additionalContracts": [],
      "isFixedGasLimit": false
    },
    {
      "hash": "0x58f3e835e184315a08233807c42a79ff9bb4f5503da4b2ace499db7da058e95d",
      "transactionType": "CREATE",
      "contractName": "MockToken",
      "contractAddress": "0xec62870a545dda5650437db9847cf4ec9bd4c48a",
      "function": null,
      "arguments": [
        "\"LoanToken\"",
        "\"LT\""
      ],
      "transaction": {
        "from": "0x73109baf60bab74b9e8273dfd4236d17c56cfc67",
        "gas": "0xb048c",
        "value": "0x0",
        "input": "0x60406080815234620003a45762000b5e803803806200001e81620003a9565b92833981018282820312620003a45781516001600160401b039290838111620003a457826200004f918301620003cf565b9060209283820151858111620003a4576200006b9201620003cf565b928151818111620002a4576003908154906001948583811c9316801562000399575b8784101462000383578190601f938481116200032d575b508790848311600114620002c657600092620002ba575b505060001982851b1c191690851b1782555b8551928311620002a45760049586548581811c9116801562000299575b87821014620002845782811162000239575b5085918411600114620001ce57938394918492600095620001c2575b50501b92600019911b1c19161782555b3315620001ab57600254683635c9adc5dea00000928382018092116200019657506000917fddf252ad1be2c89b69c2b068fc378daa952ba7f163c4a11628f55a4df523b3ef9160025533835282815284832084815401905584519384523393a35161071c9081620004428239f35b601190634e487b7160e01b6000525260246000fd5b506000602492519163ec442f0560e01b8352820152fd5b01519350388062000118565b9190601f198416928760005284876000209460005b898983831062000221575050501062000206575b50505050811b01825562000128565b01519060f884600019921b161c1916905538808080620001f7565b868601518955909701969485019488935001620001e3565b87600052866000208380870160051c8201928988106200027a575b0160051c019086905b8281106200026d575050620000fc565b600081550186906200025d565b9250819262000254565b602288634e487b7160e01b6000525260246000fd5b90607f1690620000ea565b634e487b7160e01b600052604160045260246000fd5b015190503880620000bb565b90879350601f1983169186600052896000209260005b8b828210620003165750508411620002fd575b505050811b018255620000cd565b015160001983871b60f8161c19169055388080620002ef565b8385015186558b97909501949384019301620002dc565b90915084600052876000208480850160051c8201928a861062000379575b918991869594930160051c01915b82811062000369575050620000a4565b6000815585945089910162000359565b925081926200034b565b634e487b7160e01b600052602260045260246000fd5b92607f16926200008d565b600080fd5b6040519190601f01601f191682016001600160401b03811183821017620002a457604052565b919080601f84011215620003a45782516001600160401b038111620002a45760209062000405601f8201601f19168301620003a9565b92818452828287010111620003a45760005b8181106200042d57508260009394955001015290565b85810183015184820184015282016200041756fe608060408181526004918236101561001657600080fd5b600092833560e01c91826306fdde03146104d157508163095ea7b31461042757816318160ddd1461040857816323b872dd14610311578163313ce567146102f557816340c10f191461024957816370a082311461021257816395d89b411461010e57508063a9059cbb146100de5763dd62ed3e1461009357600080fd5b346100da57806003193601126100da57806020926100af6105d7565b6100b76105f2565b6001600160a01b0391821683526001865283832091168252845220549051908152f35b5080fd5b50346100da57806003193601126100da576020906101076100fd6105d7565b6024359033610608565b5160018152f35b8383346100da57816003193601126100da5780519082845460018160011c9060018316928315610208575b60209384841081146101f5578388529081156101d957506001146101a1575b505050829003601f01601f191682019267ffffffffffffffff84118385101761018e575082918261018a92528261058e565b0390f35b634e487b7160e01b815260418552602490fd5b919250868652828620918387935b8385106101c55750505050830101858080610158565b8054888601830152930192849082016101af565b60ff1916878501525050151560051b8401019050858080610158565b634e487b7160e01b895260228a52602489fd5b91607f1691610139565b5050346100da5760203660031901126100da5760209181906001600160a01b0361023a6105d7565b16815280845220549051908152f35b919050346102f157806003193601126102f1576102646105d7565b6001600160a01b031691602435919083156102dc57600254908382018092116102c9575084927fddf252ad1be2c89b69c2b068fc378daa952ba7f163c4a11628f55a4df523b3ef9260209260025585855284835280852082815401905551908152a380f35b634e487b7160e01b865260119052602485fd5b84602492519163ec442f0560e01b8352820152fd5b8280fd5b5050346100da57816003193601126100da576020905160128152f35b905082346104055760603660031901126104055761032d6105d7565b6103356105f2565b916044359360018060a01b038316808352600160205286832033845260205286832054916000198303610371575b602088610107898989610608565b8683106103d95781156103c25733156103ab5750825260016020908152868320338452815291869020908590039055829061010787610363565b8751634a1406b160e11b8152908101849052602490fd5b875163e602df0560e01b8152908101849052602490fd5b8751637dc7a0d960e11b8152339181019182526020820193909352604081018790528291506060010390fd5b80fd5b5050346100da57816003193601126100da576020906002549051908152f35b9050346102f157816003193601126102f1576104416105d7565b6024359033156104ba576001600160a01b03169182156104a357508083602095338152600187528181208582528752205582519081527f8c5be1e5ebec7d5bd14f71427d1e84f3dd0314c0f7b2291e5b200ac8c7c3b925843392a35160018152f35b8351634a1406b160e11b8152908101859052602490fd5b835163e602df0560e01b8152808401869052602490fd5b849084346102f157826003193601126102f1578260035460018160011c9060018316928315610584575b60209384841081146101f5578388529081156101d9575060011461054b57505050829003601f01601f191682019267ffffffffffffffff84118385101761018e575082918261018a92528261058e565b91925060038652828620918387935b8385106105705750505050830101858080610158565b80548886018301529301928490820161055a565b91607f16916104fb565b6020808252825181830181905290939260005b8281106105c357505060409293506000838284010152601f8019910116010190565b8181018601518482016040015285016105a1565b600435906001600160a01b03821682036105ed57565b600080fd5b602435906001600160a01b03821682036105ed57565b916001600160a01b038084169283156106cd57169283156106b45760009083825281602052604082205490838210610682575091604082827fddf252ad1be2c89b69c2b068fc378daa952ba7f163c4a11628f55a4df523b3ef958760209652828652038282205586815220818154019055604051908152a3565b60405163391434e360e21b81526001600160a01b03919091166004820152602481019190915260448101839052606490fd5b60405163ec442f0560e01b815260006004820152602490fd5b604051634b637e8f60e11b815260006004820152602490fdfea2646970667358221220fb4b09f7652b6ed6b7f7c99ef828b4067b7e6c6e331e3587efdc639d67ac10a264736f6c634300081700330000000000000000000000000000000000000000000000000000000000000040000000000000000000000000000000000000000000000000000000000000008000000000000000000000000000000000000000000000000000000000000000094c6f616e546f6b656e000000000000000000000000000000000000000000000000000000000000000000000000000000000000000000000000000000000000024c54000000000000000000000000000000000000000000000000000000000000",
        "nonce": "0xc4",
        "chainId": "0x1"
      },
      "additionalContracts": [],
      "isFixedGasLimit": false
    },
    {
      "hash": "0xf7c19add0bcbd2d8500214b62499f7537e04bd13466c786940f19725688fcee1",
      "transactionType": "CREATE",
      "contractName": "MockToken",
      "contractAddress": "0x0103b836d24d935aad2e88016d225444f47a0417",
      "function": null,
      "arguments": [
        "\"CollatToken\"",
        "\"CT\""
      ],
      "transaction": {
        "from": "0x73109baf60bab74b9e8273dfd4236d17c56cfc67",
        "gas": "0xb04ab",
        "value": "0x0",
        "input": "0x60406080815234620003a45762000b5e803803806200001e81620003a9565b92833981018282820312620003a45781516001600160401b039290838111620003a457826200004f918301620003cf565b9060209283820151858111620003a4576200006b9201620003cf565b928151818111620002a4576003908154906001948583811c9316801562000399575b8784101462000383578190601f938481116200032d575b508790848311600114620002c657600092620002ba575b505060001982851b1c191690851b1782555b8551928311620002a45760049586548581811c9116801562000299575b87821014620002845782811162000239575b5085918411600114620001ce57938394918492600095620001c2575b50501b92600019911b1c19161782555b3315620001ab57600254683635c9adc5dea00000928382018092116200019657506000917fddf252ad1be2c89b69c2b068fc378daa952ba7f163c4a11628f55a4df523b3ef9160025533835282815284832084815401905584519384523393a35161071c9081620004428239f35b601190634e487b7160e01b6000525260246000fd5b506000602492519163ec442f0560e01b8352820152fd5b01519350388062000118565b9190601f198416928760005284876000209460005b898983831062000221575050501062000206575b50505050811b01825562000128565b01519060f884600019921b161c1916905538808080620001f7565b868601518955909701969485019488935001620001e3565b87600052866000208380870160051c8201928988106200027a575b0160051c019086905b8281106200026d575050620000fc565b600081550186906200025d565b9250819262000254565b602288634e487b7160e01b6000525260246000fd5b90607f1690620000ea565b634e487b7160e01b600052604160045260246000fd5b015190503880620000bb565b90879350601f1983169186600052896000209260005b8b828210620003165750508411620002fd575b505050811b018255620000cd565b015160001983871b60f8161c19169055388080620002ef565b8385015186558b97909501949384019301620002dc565b90915084600052876000208480850160051c8201928a861062000379575b918991869594930160051c01915b82811062000369575050620000a4565b6000815585945089910162000359565b925081926200034b565b634e487b7160e01b600052602260045260246000fd5b92607f16926200008d565b600080fd5b6040519190601f01601f191682016001600160401b03811183821017620002a457604052565b919080601f84011215620003a45782516001600160401b038111620002a45760209062000405601f8201601f19168301620003a9565b92818452828287010111620003a45760005b8181106200042d57508260009394955001015290565b85810183015184820184015282016200041756fe608060408181526004918236101561001657600080fd5b600092833560e01c91826306fdde03146104d157508163095ea7b31461042757816318160ddd1461040857816323b872dd14610311578163313ce567146102f557816340c10f191461024957816370a082311461021257816395d89b411461010e57508063a9059cbb146100de5763dd62ed3e1461009357600080fd5b346100da57806003193601126100da57806020926100af6105d7565b6100b76105f2565b6001600160a01b0391821683526001865283832091168252845220549051908152f35b5080fd5b50346100da57806003193601126100da576020906101076100fd6105d7565b6024359033610608565b5160018152f35b8383346100da57816003193601126100da5780519082845460018160011c9060018316928315610208575b60209384841081146101f5578388529081156101d957506001146101a1575b505050829003601f01601f191682019267ffffffffffffffff84118385101761018e575082918261018a92528261058e565b0390f35b634e487b7160e01b815260418552602490fd5b919250868652828620918387935b8385106101c55750505050830101858080610158565b8054888601830152930192849082016101af565b60ff1916878501525050151560051b8401019050858080610158565b634e487b7160e01b895260228a52602489fd5b91607f1691610139565b5050346100da5760203660031901126100da5760209181906001600160a01b0361023a6105d7565b16815280845220549051908152f35b919050346102f157806003193601126102f1576102646105d7565b6001600160a01b031691602435919083156102dc57600254908382018092116102c9575084927fddf252ad1be2c89b69c2b068fc378daa952ba7f163c4a11628f55a4df523b3ef9260209260025585855284835280852082815401905551908152a380f35b634e487b7160e01b865260119052602485fd5b84602492519163ec442f0560e01b8352820152fd5b8280fd5b5050346100da57816003193601126100da576020905160128152f35b905082346104055760603660031901126104055761032d6105d7565b6103356105f2565b916044359360018060a01b038316808352600160205286832033845260205286832054916000198303610371575b602088610107898989610608565b8683106103d95781156103c25733156103ab5750825260016020908152868320338452815291869020908590039055829061010787610363565b8751634a1406b160e11b8152908101849052602490fd5b875163e602df0560e01b8152908101849052602490fd5b8751637dc7a0d960e11b8152339181019182526020820193909352604081018790528291506060010390fd5b80fd5b5050346100da57816003193601126100da576020906002549051908152f35b9050346102f157816003193601126102f1576104416105d7565b6024359033156104ba576001600160a01b03169182156104a357508083602095338152600187528181208582528752205582519081527f8c5be1e5ebec7d5bd14f71427d1e84f3dd0314c0f7b2291e5b200ac8c7c3b925843392a35160018152f35b8351634a1406b160e11b8152908101859052602490fd5b835163e602df0560e01b8152808401869052602490fd5b849084346102f157826003193601126102f1578260035460018160011c9060018316928315610584575b60209384841081146101f5578388529081156101d9575060011461054b57505050829003601f01601f191682019267ffffffffffffffff84118385101761018e575082918261018a92528261058e565b91925060038652828620918387935b8385106105705750505050830101858080610158565b80548886018301529301928490820161055a565b91607f16916104fb565b6020808252825181830181905290939260005b8281106105c357505060409293506000838284010152601f8019910116010190565b8181018601518482016040015285016105a1565b600435906001600160a01b03821682036105ed57565b600080fd5b602435906001600160a01b03821682036105ed57565b916001600160a01b038084169283156106cd57169283156106b45760009083825281602052604082205490838210610682575091604082827fddf252ad1be2c89b69c2b068fc378daa952ba7f163c4a11628f55a4df523b3ef958760209652828652038282205586815220818154019055604051908152a3565b60405163391434e360e21b81526001600160a01b03919091166004820152602481019190915260448101839052606490fd5b60405163ec442f0560e01b815260006004820152602490fd5b604051634b637e8f60e11b815260006004820152602490fdfea2646970667358221220fb4b09f7652b6ed6b7f7c99ef828b4067b7e6c6e331e3587efdc639d67ac10a264736f6c6343000817003300000000000000000000000000000000000000000000000000000000000000400000000000000000000000000000000000000000000000000000000000000080000000000000000000000000000000000000000000000000000000000000000b436f6c6c6174546f6b656e00000000000000000000000000000000000000000000000000000000000000000000000000000000000000000000000000000000024354000000000000000000000000000000000000000000000000000000000000",
        "nonce": "0xc5",
        "chainId": "0x1"
      },
      "additionalContracts": [],
      "isFixedGasLimit": false
    },
    {
      "hash": "0x06972abb84e282155010c15adad03cf1a4eff2c83fda4261d10ec8ba59d12564",
      "transactionType": "CREATE",
      "contractName": "Swap",
      "contractAddress": "0xf6c267dc7f80d33aa819e580b62c092ee7a4d556",
      "function": null,
      "arguments": [
        "0xE592427A0AEce92De3Edee1F18E0157C05861564",
        "0xEC62870A545DdA5650437dB9847Cf4EC9Bd4C48A",
        "0x0103b836D24D935aaD2e88016d225444F47A0417",
        "0xafA2B03E027e0aE3864cf85Cc736fd067960573c"
      ],
      "transaction": {
        "from": "0x73109baf60bab74b9e8273dfd4236d17c56cfc67",
        "gas": "0x5b2bf",
        "value": "0x0",
        "input": "0x60a0346100d657601f61032938819003918201601f19168301916001600160401b038311848410176100db578084926080946040528339810103126100d657610047816100f1565b90610054602082016100f1565b61006c6060610065604085016100f1565b93016100f1565b906304e45aaf60e01b60805260018060a01b03928380928160018060a01b03199716876000541617600055168560015416176001551683600254161760025533836004541617600455169060035416176003556040516102239081610106823960805181608d0152f35b600080fd5b634e487b7160e01b600052604160045260246000fd5b51906001600160a01b03821682036100d65756fe60806040818152600436101561001457600080fd5b600091823560e01c90816306d3781714610184575080632681f7e41461015d5780634046ebae1461013557806365fd87d9146101115780638b23ccac146101115780638da5cb5b146100e957806394ee0827146100c15763feca4a1d1461007a57600080fd5b346100bd57816003193601126100bd57517f00000000000000000000000000000000000000000000000000000000000000006001600160e01b0319168152602090f35b5080fd5b50346100bd57816003193601126100bd5760025490516001600160a01b039091168152602090f35b50346100bd57816003193601126100bd5760045490516001600160a01b039091168152602090f35b50346100bd5760203660031901126100bd5760209061012e6101a9565b9051908152f35b50346100bd57816003193601126100bd5760035490516001600160a01b039091168152602090f35b50346100bd57816003193601126100bd57905490516001600160a01b039091168152602090f35b8390346100bd57816003193601126100bd576001546001600160a01b03168152602090f35b600354336001600160a01b0391821614801591906101de575b506101cc57600090565b604051631648fd0160e01b8152600490fd5b905060045416331415386101c256fea264697066735822122052e48ba40a909f840495943c0ade8cb6abd7d0c3137f07aa9a398c6b0d4ac73264736f6c63430008170033000000000000000000000000e592427a0aece92de3edee1f18e0157c05861564000000000000000000000000ec62870a545dda5650437db9847cf4ec9bd4c48a0000000000000000000000000103b836d24d935aad2e88016d225444f47a0417000000000000000000000000afa2b03e027e0ae3864cf85cc736fd067960573c",
        "nonce": "0xc6",
        "chainId": "0x1"
      },
      "additionalContracts": [],
      "isFixedGasLimit": false
    },
    {
      "hash": "0x6f0e5eca0f5d6e99f649a39b072441c3e9993d16a540002f4bf7238dc0dc2193",
      "transactionType": "CALL",
      "contractName": null,
      "contractAddress": "0xbbbbbbbbbb9cc5e90e3b3af64bdaf62c37eeffcb",
      "function": "setAuthorization(address,bool)",
      "arguments": [
        "0xafA2B03E027e0aE3864cf85Cc736fd067960573c",
        "true"
      ],
      "transaction": {
        "from": "0x73109baf60bab74b9e8273dfd4236d17c56cfc67",
        "to": "0xbbbbbbbbbb9cc5e90e3b3af64bdaf62c37eeffcb",
        "gas": "0x10dee",
        "value": "0x0",
        "input": "0xeecea000000000000000000000000000afa2b03e027e0ae3864cf85cc736fd067960573c0000000000000000000000000000000000000000000000000000000000000001",
        "nonce": "0xc7",
        "chainId": "0x1"
      },
      "additionalContracts": [],
      "isFixedGasLimit": false
    },
    {
      "hash": "0xce1c681c0b25cf1f5b13739fb64c2611403c2781231e22e70761916a7c830a21",
      "transactionType": "CREATE",
      "contractName": "MockOracle",
      "contractAddress": "0xf1f789bffa9fdd873d3aa8ed15559ce2e42e6e9b",
      "function": null,
      "arguments": [
        "101000000000000000000"
      ],
      "transaction": {
        "from": "0x73109baf60bab74b9e8273dfd4236d17c56cfc67",
        "gas": "0x260d1",
        "value": "0x0",
        "input": "0x60803461005057601f61013238819003918201601f19168301916001600160401b0383118484101761005557808492602094604052833981010312610050575160005560405160c6908161006c8239f35b600080fd5b634e487b7160e01b600052604160045260246000fdfe6080806040526004361015601257600080fd5b600090813560e01c908163673a7e28146077578163859310b614605b575063a035b1fe14603e57600080fd5b346058578060031936011260585760209054604051908152f35b80fd5b90503460735781600319360112607357602091548152f35b5080fd5b823460585780600319360112605857805460011c815580f3fea264697066735822122046a4906cef5c6eef9c4710602113fcd15000a4879121968654f21c7005898c6f64736f6c6343000817003300000000000000000000000000000000000000000000000579a814e10a740000",
        "nonce": "0xc8",
        "chainId": "0x1"
      },
      "additionalContracts": [],
      "isFixedGasLimit": false
    },
    {
      "hash": "0xb6a0711964291b727c0533a7a366ba8472ab381f6230c1a81e916f5a46d89a36",
      "transactionType": "CREATE",
      "contractName": "MockOracle",
      "contractAddress": "0xf3898e1350f8f5b6cee9fb504fe17a1390943e28",
      "function": null,
      "arguments": [
        "331000000000000000000"
      ],
      "transaction": {
        "from": "0x73109baf60bab74b9e8273dfd4236d17c56cfc67",
        "gas": "0x260d1",
        "value": "0x0",
        "input": "0x60803461005057601f61013238819003918201601f19168301916001600160401b0383118484101761005557808492602094604052833981010312610050575160005560405160c6908161006c8239f35b600080fd5b634e487b7160e01b600052604160045260246000fdfe6080806040526004361015601257600080fd5b600090813560e01c908163673a7e28146077578163859310b614605b575063a035b1fe14603e57600080fd5b346058578060031936011260585760209054604051908152f35b80fd5b90503460735781600319360112607357602091548152f35b5080fd5b823460585780600319360112605857805460011c815580f3fea264697066735822122046a4906cef5c6eef9c4710602113fcd15000a4879121968654f21c7005898c6f64736f6c63430008170033000000000000000000000000000000000000000000000011f18c3a496e4c0000",
        "nonce": "0xc9",
        "chainId": "0x1"
      },
      "additionalContracts": [],
      "isFixedGasLimit": false
    },
    {
      "hash": "0xe7d2fcf7607662bc5c2e16ca283691c04785304c1538fca16744c527bd0d4d02",
      "transactionType": "CALL",
      "contractName": "MockToken",
      "contractAddress": "0x0103b836d24d935aad2e88016d225444f47a0417",
      "function": "mint(address,uint256)",
      "arguments": [
        "0x73109Baf60baB74B9E8273DfD4236d17C56CFc67",
        "20000000000000000000000"
      ],
      "transaction": {
        "from": "0x73109baf60bab74b9e8273dfd4236d17c56cfc67",
        "to": "0x0103b836d24d935aad2e88016d225444f47a0417",
        "gas": "0xb73a",
        "value": "0x0",
        "input": "0x40c10f1900000000000000000000000073109baf60bab74b9e8273dfd4236d17c56cfc6700000000000000000000000000000000000000000000043c33c1937564800000",
        "nonce": "0xca",
        "chainId": "0x1"
      },
      "additionalContracts": [],
      "isFixedGasLimit": false
    },
    {
      "hash": "0x40b0cd1b08749b3ce137ef93a6be069104396d8038da719c07027c3dddf1e99e",
      "transactionType": "CALL",
      "contractName": "MockToken",
      "contractAddress": "0x0103b836d24d935aad2e88016d225444f47a0417",
      "function": "mint(address,uint256)",
      "arguments": [
        "0x73109Baf60baB74B9E8273DfD4236d17C56CFc67",
        "20000000000000000000000"
      ],
      "transaction": {
        "from": "0x73109baf60bab74b9e8273dfd4236d17c56cfc67",
        "to": "0x0103b836d24d935aad2e88016d225444f47a0417",
        "gas": "0xb73a",
        "value": "0x0",
        "input": "0x40c10f1900000000000000000000000073109baf60bab74b9e8273dfd4236d17c56cfc6700000000000000000000000000000000000000000000043c33c1937564800000",
        "nonce": "0xcb",
        "chainId": "0x1"
      },
      "additionalContracts": [],
      "isFixedGasLimit": false
    },
    {
      "hash": "0xfd98cf0b8a7ccf5cde9a8dd3515c2441c46fe272bf80c097d6515d2772c7d133",
      "transactionType": "CALL",
      "contractName": "MockToken",
      "contractAddress": "0xec62870a545dda5650437db9847cf4ec9bd4c48a",
      "function": "mint(address,uint256)",
      "arguments": [
        "0x73109Baf60baB74B9E8273DfD4236d17C56CFc67",
        "20000000000000000000000"
      ],
      "transaction": {
        "from": "0x73109baf60bab74b9e8273dfd4236d17c56cfc67",
        "to": "0xec62870a545dda5650437db9847cf4ec9bd4c48a",
        "gas": "0xb73a",
        "value": "0x0",
        "input": "0x40c10f1900000000000000000000000073109baf60bab74b9e8273dfd4236d17c56cfc6700000000000000000000000000000000000000000000043c33c1937564800000",
        "nonce": "0xcc",
        "chainId": "0x1"
      },
      "additionalContracts": [],
      "isFixedGasLimit": false
    },
    {
      "hash": "0x6df59fe3ebff0104478b3caee3124883235c0be8c0b7edcd55715d46e12344d6",
      "transactionType": "CALL",
      "contractName": null,
      "contractAddress": "0xbbbbbbbbbb9cc5e90e3b3af64bdaf62c37eeffcb",
      "function": "createMarket((address,address,address,address,uint256))",
      "arguments": [
        "(0xEC62870A545DdA5650437dB9847Cf4EC9Bd4C48A, 0x0103b836D24D935aaD2e88016d225444F47A0417, 0xf1F789bFFA9FdD873d3aA8eD15559ce2e42E6e9B, 0x0000000000000000000000000000000000000000, 945000000000000000)"
      ],
      "transaction": {
        "from": "0x73109baf60bab74b9e8273dfd4236d17c56cfc67",
        "to": "0xbbbbbbbbbb9cc5e90e3b3af64bdaf62c37eeffcb",
        "gas": "0x33770",
        "value": "0x0",
        "input": "0x8c1358a2000000000000000000000000ec62870a545dda5650437db9847cf4ec9bd4c48a0000000000000000000000000103b836d24d935aad2e88016d225444f47a0417000000000000000000000000f1f789bffa9fdd873d3aa8ed15559ce2e42e6e9b00000000000000000000000000000000000000000000000000000000000000000000000000000000000000000000000000000000000000000d1d507e40be8000",
        "nonce": "0xcd",
        "chainId": "0x1"
      },
      "additionalContracts": [],
      "isFixedGasLimit": false
    },
    {
      "hash": "0x2eb8883ecc568a1e4d17495695feb3a89e2c289dc5466804a65fc8a0d269498e",
      "transactionType": "CALL",
      "contractName": null,
      "contractAddress": "0xbbbbbbbbbb9cc5e90e3b3af64bdaf62c37eeffcb",
      "function": "accrueInterest((address,address,address,address,uint256))",
      "arguments": [
        "(0xEC62870A545DdA5650437dB9847Cf4EC9Bd4C48A, 0x0103b836D24D935aaD2e88016d225444F47A0417, 0xf1F789bFFA9FdD873d3aA8eD15559ce2e42E6e9B, 0x0000000000000000000000000000000000000000, 945000000000000000)"
      ],
      "transaction": {
        "from": "0x73109baf60bab74b9e8273dfd4236d17c56cfc67",
        "to": "0xbbbbbbbbbb9cc5e90e3b3af64bdaf62c37eeffcb",
        "gas": "0x8b26",
        "value": "0x0",
        "input": "0x151c1ade000000000000000000000000ec62870a545dda5650437db9847cf4ec9bd4c48a0000000000000000000000000103b836d24d935aad2e88016d225444f47a0417000000000000000000000000f1f789bffa9fdd873d3aa8ed15559ce2e42e6e9b00000000000000000000000000000000000000000000000000000000000000000000000000000000000000000000000000000000000000000d1d507e40be8000",
        "nonce": "0xce",
        "chainId": "0x1"
      },
      "additionalContracts": [],
      "isFixedGasLimit": false
    },
    {
      "hash": "0xe5d1fd9b1a8005f85ec0251bc65c8ff10b2ecf0490decd20a582b504ac497be9",
      "transactionType": "CALL",
      "contractName": "MockToken",
      "contractAddress": "0x0103b836d24d935aad2e88016d225444f47a0417",
      "function": "approve(address,uint256)",
      "arguments": [
        "0xafA2B03E027e0aE3864cf85Cc736fd067960573c",
        "115792089237316195423570985008687907853269984665640564039457584007913129639935"
      ],
      "transaction": {
        "from": "0x73109baf60bab74b9e8273dfd4236d17c56cfc67",
        "to": "0x0103b836d24d935aad2e88016d225444f47a0417",
        "gas": "0xf9c5",
        "value": "0x0",
        "input": "0x095ea7b3000000000000000000000000afa2b03e027e0ae3864cf85cc736fd067960573cffffffffffffffffffffffffffffffffffffffffffffffffffffffffffffffff",
        "nonce": "0xcf",
        "chainId": "0x1"
      },
      "additionalContracts": [],
      "isFixedGasLimit": false
    },
    {
      "hash": "0xcabb26192c866c5b587647973cf21ad7dfa14f76eb4eadc3c4176b76103e6987",
      "transactionType": "CALL",
      "contractName": "Liquidator",
      "contractAddress": "0xafa2b03e027e0ae3864cf85cc736fd067960573c",
      "function": "supplyCollateral((address,address,address,address,uint256),uint256)",
      "arguments": [
        "(0xEC62870A545DdA5650437dB9847Cf4EC9Bd4C48A, 0x0103b836D24D935aaD2e88016d225444F47A0417, 0xf1F789bFFA9FdD873d3aA8eD15559ce2e42E6e9B, 0x0000000000000000000000000000000000000000, 945000000000000000)",
        "2000000000000000000000"
      ],
      "transaction": {
        "from": "0x73109baf60bab74b9e8273dfd4236d17c56cfc67",
        "to": "0xafa2b03e027e0ae3864cf85cc736fd067960573c",
        "gas": "0x2b786",
        "value": "0x0",
        "input": "0x009f7501000000000000000000000000ec62870a545dda5650437db9847cf4ec9bd4c48a0000000000000000000000000103b836d24d935aad2e88016d225444f47a0417000000000000000000000000f1f789bffa9fdd873d3aa8ed15559ce2e42e6e9b00000000000000000000000000000000000000000000000000000000000000000000000000000000000000000000000000000000000000000d1d507e40be800000000000000000000000000000000000000000000000006c6b935b8bbd400000",
        "nonce": "0xd0",
        "chainId": "0x1"
      },
      "additionalContracts": [],
      "isFixedGasLimit": false
    },
    {
      "hash": "0x9f94e40950e5a4424001fcc076830410dda52c3bf45e56a5e253f69d2ad5ed69",
      "transactionType": "CALL",
      "contractName": "MockToken",
      "contractAddress": "0xec62870a545dda5650437db9847cf4ec9bd4c48a",
      "function": "approve(address,uint256)",
      "arguments": [
        "0xafA2B03E027e0aE3864cf85Cc736fd067960573c",
        "115792089237316195423570985008687907853269984665640564039457584007913129639935"
      ],
      "transaction": {
        "from": "0x73109baf60bab74b9e8273dfd4236d17c56cfc67",
        "to": "0xec62870a545dda5650437db9847cf4ec9bd4c48a",
        "gas": "0xf9c5",
        "value": "0x0",
        "input": "0x095ea7b3000000000000000000000000afa2b03e027e0ae3864cf85cc736fd067960573cffffffffffffffffffffffffffffffffffffffffffffffffffffffffffffffff",
        "nonce": "0xd1",
        "chainId": "0x1"
      },
      "additionalContracts": [],
      "isFixedGasLimit": false
    },
    {
      "hash": "0x34ba10fbeb886a432039855b6a85fff908226180f9f89615a7dcbc43e50fb6a2",
      "transactionType": "CALL",
      "contractName": "Liquidator",
      "contractAddress": "0xafa2b03e027e0ae3864cf85cc736fd067960573c",
      "function": "supply((address,address,address,address,uint256),uint256)",
      "arguments": [
        "(0xEC62870A545DdA5650437dB9847Cf4EC9Bd4C48A, 0x0103b836D24D935aaD2e88016d225444F47A0417, 0xf1F789bFFA9FdD873d3aA8eD15559ce2e42E6e9B, 0x0000000000000000000000000000000000000000, 945000000000000000)",
        "2000000000000000000000"
      ],
      "transaction": {
        "from": "0x73109baf60bab74b9e8273dfd4236d17c56cfc67",
        "to": "0xafa2b03e027e0ae3864cf85cc736fd067960573c",
        "gas": "0x3489f",
        "value": "0x0",
        "input": "0xba570dbf000000000000000000000000ec62870a545dda5650437db9847cf4ec9bd4c48a0000000000000000000000000103b836d24d935aad2e88016d225444f47a0417000000000000000000000000f1f789bffa9fdd873d3aa8ed15559ce2e42e6e9b00000000000000000000000000000000000000000000000000000000000000000000000000000000000000000000000000000000000000000d1d507e40be800000000000000000000000000000000000000000000000006c6b935b8bbd400000",
        "nonce": "0xd2",
        "chainId": "0x1"
      },
      "additionalContracts": [],
      "isFixedGasLimit": false
    },
    {
      "hash": "0xcde068ad3c800d9672190615ea12b446de3e35bbb4f22e046e0c9a10303214e6",
      "transactionType": "CALL",
      "contractName": "MockToken",
      "contractAddress": "0xec62870a545dda5650437db9847cf4ec9bd4c48a",
      "function": "mint(address,uint256)",
      "arguments": [
        "0xafA2B03E027e0aE3864cf85Cc736fd067960573c",
        "200000000000000000000000"
      ],
      "transaction": {
        "from": "0x73109baf60bab74b9e8273dfd4236d17c56cfc67",
        "to": "0xec62870a545dda5650437db9847cf4ec9bd4c48a",
        "gas": "0x1136d",
        "value": "0x0",
        "input": "0x40c10f19000000000000000000000000afa2b03e027e0ae3864cf85cc736fd067960573c000000000000000000000000000000000000000000002a5a058fc295ed000000",
        "nonce": "0xd3",
        "chainId": "0x1"
      },
      "additionalContracts": [],
      "isFixedGasLimit": false
    },
    {
      "hash": "0x9f665f01e949cd52342ea46662b997a67b26a4af17e705a601e15654a620fa6c",
      "transactionType": "CALL",
      "contractName": "MockToken",
      "contractAddress": "0x0103b836d24d935aad2e88016d225444f47a0417",
      "function": "approve(address,uint256)",
      "arguments": [
        "0xafA2B03E027e0aE3864cf85Cc736fd067960573c",
        "115792089237316195423570985008687907853269984665640564039457584007913129639935"
      ],
      "transaction": {
        "from": "0x73109baf60bab74b9e8273dfd4236d17c56cfc67",
        "to": "0x0103b836d24d935aad2e88016d225444f47a0417",
        "gas": "0x96c7",
        "value": "0x0",
        "input": "0x095ea7b3000000000000000000000000afa2b03e027e0ae3864cf85cc736fd067960573cffffffffffffffffffffffffffffffffffffffffffffffffffffffffffffffff",
        "nonce": "0xd4",
        "chainId": "0x1"
      },
      "additionalContracts": [],
      "isFixedGasLimit": false
    },
    {
      "hash": "0x1af5c2886fbe60a477cb32686776564ba080c2e90dc29d6ff47e309e3ee768f0",
      "transactionType": "CALL",
      "contractName": "Liquidator",
      "contractAddress": "0xafa2b03e027e0ae3864cf85cc736fd067960573c",
      "function": "supplyCollateral((address,address,address,address,uint256),uint256)",
      "arguments": [
        "(0xEC62870A545DdA5650437dB9847Cf4EC9Bd4C48A, 0x0103b836D24D935aaD2e88016d225444F47A0417, 0xf1F789bFFA9FdD873d3aA8eD15559ce2e42E6e9B, 0x0000000000000000000000000000000000000000, 945000000000000000)",
        "10000000000000000000"
      ],
      "transaction": {
        "from": "0x73109baf60bab74b9e8273dfd4236d17c56cfc67",
        "to": "0xafa2b03e027e0ae3864cf85cc736fd067960573c",
        "gas": "0x179d5",
        "value": "0x0",
        "input": "0x009f7501000000000000000000000000ec62870a545dda5650437db9847cf4ec9bd4c48a0000000000000000000000000103b836d24d935aad2e88016d225444f47a0417000000000000000000000000f1f789bffa9fdd873d3aa8ed15559ce2e42e6e9b00000000000000000000000000000000000000000000000000000000000000000000000000000000000000000000000000000000000000000d1d507e40be80000000000000000000000000000000000000000000000000008ac7230489e80000",
        "nonce": "0xd5",
        "chainId": "0x1"
      },
      "additionalContracts": [],
      "isFixedGasLimit": false
    },
    {
      "hash": "0x8593761abb87ac28079a521b25e1fcfd60ea5ff6682467cf2000e52f4071234b",
      "transactionType": "CALL",
      "contractName": "Liquidator",
      "contractAddress": "0xafa2b03e027e0ae3864cf85cc736fd067960573c",
      "function": "borrow((address,address,address,address,uint256),uint256)",
      "arguments": [
        "(0xEC62870A545DdA5650437dB9847Cf4EC9Bd4C48A, 0x0103b836D24D935aaD2e88016d225444F47A0417, 0xf1F789bFFA9FdD873d3aA8eD15559ce2e42E6e9B, 0x0000000000000000000000000000000000000000, 945000000000000000)",
        "191844"
      ],
      "transaction": {
        "from": "0x73109baf60bab74b9e8273dfd4236d17c56cfc67",
        "to": "0xafa2b03e027e0ae3864cf85cc736fd067960573c",
        "gas": "0x20b22",
        "value": "0x0",
        "input": "0xe0317517000000000000000000000000ec62870a545dda5650437db9847cf4ec9bd4c48a0000000000000000000000000103b836d24d935aad2e88016d225444f47a0417000000000000000000000000f1f789bffa9fdd873d3aa8ed15559ce2e42e6e9b00000000000000000000000000000000000000000000000000000000000000000000000000000000000000000000000000000000000000000d1d507e40be8000000000000000000000000000000000000000000000000000000000000002ed64",
        "nonce": "0xd6",
        "chainId": "0x1"
      },
      "additionalContracts": [],
      "isFixedGasLimit": false
    },
    {
      "hash": "0xf287cf6df23d657af146afb107b737e66f0d2c85efcc339786f1267286cdb9aa",
      "transactionType": "CALL",
      "contractName": "MockOracle",
      "contractAddress": "0xf1f789bffa9fdd873d3aa8ed15559ce2e42e6e9b",
      "function": "updatePrice()",
      "arguments": [],
      "transaction": {
        "from": "0x73109baf60bab74b9e8273dfd4236d17c56cfc67",
        "to": "0xf1f789bffa9fdd873d3aa8ed15559ce2e42e6e9b",
        "gas": "0x95c6",
        "value": "0x0",
        "input": "0x673a7e28",
        "nonce": "0xd7",
        "chainId": "0x1"
      },
      "additionalContracts": [],
      "isFixedGasLimit": false
    }
  ],
  "receipts": [
    {
      "status": "0x1",
      "cumulativeGasUsed": "0x1f906f",
      "logs": [
        {
          "address": "0xafa2b03e027e0ae3864cf85cc736fd067960573c",
          "topics": [
            "0x8be0079c531659141344cd1fd0a4f28419497f9722a3daafe3b4186f6b6457e0",
            "0x0000000000000000000000000000000000000000000000000000000000000000",
            "0x00000000000000000000000073109baf60bab74b9e8273dfd4236d17c56cfc67"
          ],
          "data": "0x",
          "blockHash": "0x8e6c6406b215cb2dfef3cfd203e2ab55716ed713ece4965a6b6300b82f274253",
          "blockNumber": "0x1329aed",
          "blockTimestamp": "0x666d6f70",
          "transactionHash": "0x50fb69895309dbd62774dd60ec5f06f77639c9f9f058369ca590465b3703b0d5",
          "transactionIndex": "0x0",
          "logIndex": "0x0",
          "removed": false
        }
      ],
      "logsBloom": "0x00000000000000000000000000000000000000000000000000800000000200000000000000000000000000000000000000000000000000000000000000000000000000000000000000002000000000000001000000800000040000000000000004000000020000000000000000000800000000000000000000000000000000400000000000000000000000000000000000000000000000000000000000000000000000000000000000000000000000000100000000000000000000000000000000000000000000000000000000000000000000000000000000000000000020000000000000000000000000000000000000000000000000000000000000000000",
      "type": "0x2",
      "transactionHash": "0x50fb69895309dbd62774dd60ec5f06f77639c9f9f058369ca590465b3703b0d5",
      "transactionIndex": "0x0",
      "blockHash": "0x8e6c6406b215cb2dfef3cfd203e2ab55716ed713ece4965a6b6300b82f274253",
      "blockNumber": "0x1329aed",
      "gasUsed": "0x1f906f",
      "effectiveGasPrice": "0x3b9ad034",
      "blobGasPrice": "0x1",
      "from": "0x73109baf60bab74b9e8273dfd4236d17c56cfc67",
      "to": null,
      "contractAddress": "0xafa2b03e027e0ae3864cf85cc736fd067960573c",
      "root": "0x0000000000000000000000000000000000000000000000000000000000000000"
    },
    {
      "status": "0x1",
      "cumulativeGasUsed": "0x87a69",
      "logs": [
        {
          "address": "0xec62870a545dda5650437db9847cf4ec9bd4c48a",
          "topics": [
            "0xddf252ad1be2c89b69c2b068fc378daa952ba7f163c4a11628f55a4df523b3ef",
            "0x0000000000000000000000000000000000000000000000000000000000000000",
            "0x00000000000000000000000073109baf60bab74b9e8273dfd4236d17c56cfc67"
          ],
          "data": "0x00000000000000000000000000000000000000000000003635c9adc5dea00000",
          "blockHash": "0x161b93cf54693ea4a84622a12b39321a72de62767d00dd667dc5a77ad42b046a",
          "blockNumber": "0x1329aee",
          "blockTimestamp": "0x666d6f71",
          "transactionHash": "0x58f3e835e184315a08233807c42a79ff9bb4f5503da4b2ace499db7da058e95d",
          "transactionIndex": "0x0",
          "logIndex": "0x0",
          "removed": false
        }
      ],
      "logsBloom": "0x00000000000000000000000000000000000000000000000000000000000200000000000000000000000000000000000000000000000000000000000000000000000000000000000000000008008000000000000000000000000000000000000004000000020000000000000000000800000000000000000000000010000000000000000000000000000000000000000000000000000000000000000000000000000000000000000000000000000000000100000000008000000000000000000000000002000000000000000000000000000000000000000000001000000020000000000000000000000000000000000000000000000000000000000000000000",
      "type": "0x2",
      "transactionHash": "0x58f3e835e184315a08233807c42a79ff9bb4f5503da4b2ace499db7da058e95d",
      "transactionIndex": "0x0",
      "blockHash": "0x161b93cf54693ea4a84622a12b39321a72de62767d00dd667dc5a77ad42b046a",
      "blockNumber": "0x1329aee",
      "gasUsed": "0x87a69",
      "effectiveGasPrice": "0x3b9acf89",
      "blobGasPrice": "0x1",
      "from": "0x73109baf60bab74b9e8273dfd4236d17c56cfc67",
      "to": null,
      "contractAddress": "0xec62870a545dda5650437db9847cf4ec9bd4c48a",
      "root": "0x0000000000000000000000000000000000000000000000000000000000000000"
    },
    {
      "status": "0x1",
      "cumulativeGasUsed": "0x87a81",
      "logs": [
        {
          "address": "0x0103b836d24d935aad2e88016d225444f47a0417",
          "topics": [
            "0xddf252ad1be2c89b69c2b068fc378daa952ba7f163c4a11628f55a4df523b3ef",
            "0x0000000000000000000000000000000000000000000000000000000000000000",
            "0x00000000000000000000000073109baf60bab74b9e8273dfd4236d17c56cfc67"
          ],
          "data": "0x00000000000000000000000000000000000000000000003635c9adc5dea00000",
          "blockHash": "0x2e65c4febde2bef0da745119ebaa547314848051c16af5921e2eac8582318a54",
          "blockNumber": "0x1329aef",
          "blockTimestamp": "0x666d6f72",
          "transactionHash": "0xf7c19add0bcbd2d8500214b62499f7537e04bd13466c786940f19725688fcee1",
          "transactionIndex": "0x0",
          "logIndex": "0x0",
          "removed": false
        }
      ],
      "logsBloom": "0x00000000000000000000000000000000000000000000000000000000000200000000000000000000000000000000000000000000000000000000000000000000000000000000000000000008008000000000080000000000000000000000000004000000020000000000000000000800000000000000000000000010000000000000000000000000000000000000000000000000000000000000000000000000000000000000000000000000000000000100008000000000000000000000000000000002000000000000000000000000000000000000000000000000000020000000000000000000000000000000000000000000000000000000000000000000",
      "type": "0x2",
      "transactionHash": "0xf7c19add0bcbd2d8500214b62499f7537e04bd13466c786940f19725688fcee1",
      "transactionIndex": "0x0",
      "blockHash": "0x2e65c4febde2bef0da745119ebaa547314848051c16af5921e2eac8582318a54",
      "blockNumber": "0x1329aef",
      "gasUsed": "0x87a81",
      "effectiveGasPrice": "0x3b9acedf",
      "blobGasPrice": "0x1",
      "from": "0x73109baf60bab74b9e8273dfd4236d17c56cfc67",
      "to": null,
      "contractAddress": "0x0103b836d24d935aad2e88016d225444f47a0417",
      "root": "0x0000000000000000000000000000000000000000000000000000000000000000"
    },
    {
      "status": "0x1",
      "cumulativeGasUsed": "0x46259",
      "logs": [],
      "logsBloom": "0x00000000000000000000000000000000000000000000000000000000000000000000000000000000000000000000000000000000000000000000000000000000000000000000000000000000000000000000000000000000000000000000000000000000000000000000000000000000000000000000000000000000000000000000000000000000000000000000000000000000000000000000000000000000000000000000000000000000000000000000000000000000000000000000000000000000000000000000000000000000000000000000000000000000000000000000000000000000000000000000000000000000000000000000000000000000",
      "type": "0x2",
      "transactionHash": "0x06972abb84e282155010c15adad03cf1a4eff2c83fda4261d10ec8ba59d12564",
      "transactionIndex": "0x0",
      "blockHash": "0x8dbf65a2fd03d680ff0e42a12edee86d967cf47515f863c94c306f29f4157646",
      "blockNumber": "0x1329af0",
      "gasUsed": "0x46259",
      "effectiveGasPrice": "0x3b9ace49",
      "blobGasPrice": "0x1",
      "from": "0x73109baf60bab74b9e8273dfd4236d17c56cfc67",
      "to": null,
      "contractAddress": "0xf6c267dc7f80d33aa819e580b62c092ee7a4d556",
      "root": "0x0000000000000000000000000000000000000000000000000000000000000000"
    },
    {
      "status": "0x1",
      "cumulativeGasUsed": "0x51aeb",
      "logs": [
        {
          "address": "0xbbbbbbbbbb9cc5e90e3b3af64bdaf62c37eeffcb",
          "topics": [
            "0xd5e969f01efe921d3f766bdebad25f0a05e3f237311f56482bf132d0326309c0",
            "0x00000000000000000000000073109baf60bab74b9e8273dfd4236d17c56cfc67",
            "0x00000000000000000000000073109baf60bab74b9e8273dfd4236d17c56cfc67",
            "0x000000000000000000000000afa2b03e027e0ae3864cf85cc736fd067960573c"
          ],
          "data": "0x0000000000000000000000000000000000000000000000000000000000000001",
          "blockHash": "0x8dbf65a2fd03d680ff0e42a12edee86d967cf47515f863c94c306f29f4157646",
          "blockNumber": "0x1329af0",
          "blockTimestamp": "0x666d6f73",
          "transactionHash": "0x6f0e5eca0f5d6e99f649a39b072441c3e9993d16a540002f4bf7238dc0dc2193",
          "transactionIndex": "0x1",
          "logIndex": "0x0",
          "removed": false
        }
      ],
      "logsBloom": "0x00000000000000000010202000000000000000000000000000000000000200000000000000000000000000000000000000000000000000000000000000000000000000000010000000000000000000000000000800000000000000000000000004000000000000000000200000000000000000000000000000000000000080000000000000000008000000000000000000000000000000000000000000000000000000000000000000000000000000000100000000000000000000000000000020000000000000000000000000000000000000000000000000000000000000000000000000000000000000000000000000000000000000000000000000000000",
      "type": "0x2",
      "transactionHash": "0x6f0e5eca0f5d6e99f649a39b072441c3e9993d16a540002f4bf7238dc0dc2193",
      "transactionIndex": "0x1",
      "blockHash": "0x8dbf65a2fd03d680ff0e42a12edee86d967cf47515f863c94c306f29f4157646",
      "blockNumber": "0x1329af0",
      "gasUsed": "0xb892",
      "effectiveGasPrice": "0x3b9ace49",
      "blobGasPrice": "0x1",
      "from": "0x73109baf60bab74b9e8273dfd4236d17c56cfc67",
      "to": "0xbbbbbbbbbb9cc5e90e3b3af64bdaf62c37eeffcb",
      "contractAddress": null,
      "root": "0x0000000000000000000000000000000000000000000000000000000000000000"
    },
    {
      "status": "0x1",
      "cumulativeGasUsed": "0x6ef53",
      "logs": [],
      "logsBloom": "0x00000000000000000000000000000000000000000000000000000000000000000000000000000000000000000000000000000000000000000000000000000000000000000000000000000000000000000000000000000000000000000000000000000000000000000000000000000000000000000000000000000000000000000000000000000000000000000000000000000000000000000000000000000000000000000000000000000000000000000000000000000000000000000000000000000000000000000000000000000000000000000000000000000000000000000000000000000000000000000000000000000000000000000000000000000000",
      "type": "0x2",
      "transactionHash": "0xce1c681c0b25cf1f5b13739fb64c2611403c2781231e22e70761916a7c830a21",
      "transactionIndex": "0x2",
      "blockHash": "0x8dbf65a2fd03d680ff0e42a12edee86d967cf47515f863c94c306f29f4157646",
      "blockNumber": "0x1329af0",
      "gasUsed": "0x1d468",
      "effectiveGasPrice": "0x3b9ace49",
      "blobGasPrice": "0x1",
      "from": "0x73109baf60bab74b9e8273dfd4236d17c56cfc67",
      "to": null,
      "contractAddress": "0xf1f789bffa9fdd873d3aa8ed15559ce2e42e6e9b",
      "root": "0x0000000000000000000000000000000000000000000000000000000000000000"
    },
    {
      "status": "0x1",
      "cumulativeGasUsed": "0x8c3bb",
      "logs": [],
      "logsBloom": "0x00000000000000000000000000000000000000000000000000000000000000000000000000000000000000000000000000000000000000000000000000000000000000000000000000000000000000000000000000000000000000000000000000000000000000000000000000000000000000000000000000000000000000000000000000000000000000000000000000000000000000000000000000000000000000000000000000000000000000000000000000000000000000000000000000000000000000000000000000000000000000000000000000000000000000000000000000000000000000000000000000000000000000000000000000000000",
      "type": "0x2",
      "transactionHash": "0xb6a0711964291b727c0533a7a366ba8472ab381f6230c1a81e916f5a46d89a36",
      "transactionIndex": "0x3",
      "blockHash": "0x8dbf65a2fd03d680ff0e42a12edee86d967cf47515f863c94c306f29f4157646",
      "blockNumber": "0x1329af0",
      "gasUsed": "0x1d468",
      "effectiveGasPrice": "0x3b9ace49",
      "blobGasPrice": "0x1",
      "from": "0x73109baf60bab74b9e8273dfd4236d17c56cfc67",
      "to": null,
      "contractAddress": "0xf3898e1350f8f5b6cee9fb504fe17a1390943e28",
      "root": "0x0000000000000000000000000000000000000000000000000000000000000000"
    },
    {
      "status": "0x1",
      "cumulativeGasUsed": "0x84a8",
      "logs": [
        {
          "address": "0x0103b836d24d935aad2e88016d225444f47a0417",
          "topics": [
            "0xddf252ad1be2c89b69c2b068fc378daa952ba7f163c4a11628f55a4df523b3ef",
            "0x0000000000000000000000000000000000000000000000000000000000000000",
            "0x00000000000000000000000073109baf60bab74b9e8273dfd4236d17c56cfc67"
          ],
          "data": "0x00000000000000000000000000000000000000000000043c33c1937564800000",
          "blockHash": "0x1aaf96252be5048c47740a67f22c95e133e378edd1d7dec7081d8ccb72a27519",
          "blockNumber": "0x1329af1",
          "blockTimestamp": "0x666d6f74",
          "transactionHash": "0xe7d2fcf7607662bc5c2e16ca283691c04785304c1538fca16744c527bd0d4d02",
          "transactionIndex": "0x0",
          "logIndex": "0x0",
          "removed": false
        }
      ],
      "logsBloom": "0x00000000000000000000000000000000000000000000000000000000000200000000000000000000000000000000000000000000000000000000000000000000000000000000000000000008008000000000080000000000000000000000000004000000020000000000000000000800000000000000000000000010000000000000000000000000000000000000000000000000000000000000000000000000000000000000000000000000000000000100008000000000000000000000000000000002000000000000000000000000000000000000000000000000000020000000000000000000000000000000000000000000000000000000000000000000",
      "type": "0x2",
      "transactionHash": "0xe7d2fcf7607662bc5c2e16ca283691c04785304c1538fca16744c527bd0d4d02",
      "transactionIndex": "0x0",
      "blockHash": "0x1aaf96252be5048c47740a67f22c95e133e378edd1d7dec7081d8ccb72a27519",
      "blockNumber": "0x1329af1",
      "gasUsed": "0x84a8",
      "effectiveGasPrice": "0x3b9acdc6",
      "blobGasPrice": "0x1",
      "from": "0x73109baf60bab74b9e8273dfd4236d17c56cfc67",
      "to": "0x0103b836d24d935aad2e88016d225444f47a0417",
      "contractAddress": null,
      "root": "0x0000000000000000000000000000000000000000000000000000000000000000"
    },
    {
      "status": "0x1",
      "cumulativeGasUsed": "0x84a8",
      "logs": [
        {
          "address": "0x0103b836d24d935aad2e88016d225444f47a0417",
          "topics": [
            "0xddf252ad1be2c89b69c2b068fc378daa952ba7f163c4a11628f55a4df523b3ef",
            "0x0000000000000000000000000000000000000000000000000000000000000000",
            "0x00000000000000000000000073109baf60bab74b9e8273dfd4236d17c56cfc67"
          ],
          "data": "0x00000000000000000000000000000000000000000000043c33c1937564800000",
          "blockHash": "0xf9f9ac4d467a8b1ce92fd7b8ecfc4a0f5381ed3c0ec983a2e2c91da47f856053",
          "blockNumber": "0x1329af2",
          "blockTimestamp": "0x666d6f75",
          "transactionHash": "0x40b0cd1b08749b3ce137ef93a6be069104396d8038da719c07027c3dddf1e99e",
          "transactionIndex": "0x0",
          "logIndex": "0x0",
          "removed": false
        }
      ],
      "logsBloom": "0x00000000000000000000000000000000000000000000000000000000000200000000000000000000000000000000000000000000000000000000000000000000000000000000000000000008008000000000080000000000000000000000000004000000020000000000000000000800000000000000000000000010000000000000000000000000000000000000000000000000000000000000000000000000000000000000000000000000000000000100008000000000000000000000000000000002000000000000000000000000000000000000000000000000000020000000000000000000000000000000000000000000000000000000000000000000",
      "type": "0x2",
      "transactionHash": "0x40b0cd1b08749b3ce137ef93a6be069104396d8038da719c07027c3dddf1e99e",
      "transactionIndex": "0x0",
      "blockHash": "0xf9f9ac4d467a8b1ce92fd7b8ecfc4a0f5381ed3c0ec983a2e2c91da47f856053",
      "blockNumber": "0x1329af2",
      "gasUsed": "0x84a8",
      "effectiveGasPrice": "0x3b9acd4e",
      "blobGasPrice": "0x1",
      "from": "0x73109baf60bab74b9e8273dfd4236d17c56cfc67",
      "to": "0x0103b836d24d935aad2e88016d225444f47a0417",
      "contractAddress": null,
      "root": "0x0000000000000000000000000000000000000000000000000000000000000000"
    },
    {
      "status": "0x1",
      "cumulativeGasUsed": "0x10950",
      "logs": [
        {
          "address": "0xec62870a545dda5650437db9847cf4ec9bd4c48a",
          "topics": [
            "0xddf252ad1be2c89b69c2b068fc378daa952ba7f163c4a11628f55a4df523b3ef",
            "0x0000000000000000000000000000000000000000000000000000000000000000",
            "0x00000000000000000000000073109baf60bab74b9e8273dfd4236d17c56cfc67"
          ],
          "data": "0x00000000000000000000000000000000000000000000043c33c1937564800000",
          "blockHash": "0xf9f9ac4d467a8b1ce92fd7b8ecfc4a0f5381ed3c0ec983a2e2c91da47f856053",
          "blockNumber": "0x1329af2",
          "blockTimestamp": "0x666d6f75",
          "transactionHash": "0xfd98cf0b8a7ccf5cde9a8dd3515c2441c46fe272bf80c097d6515d2772c7d133",
          "transactionIndex": "0x1",
          "logIndex": "0x1",
          "removed": false
        }
      ],
      "logsBloom": "0x00000000000000000000000000000000000000000000000000000000000200000000000000000000000000000000000000000000000000000000000000000000000000000000000000000008008000000000000000000000000000000000000004000000020000000000000000000800000000000000000000000010000000000000000000000000000000000000000000000000000000000000000000000000000000000000000000000000000000000100000000008000000000000000000000000002000000000000000000000000000000000000000000001000000020000000000000000000000000000000000000000000000000000000000000000000",
      "type": "0x2",
      "transactionHash": "0xfd98cf0b8a7ccf5cde9a8dd3515c2441c46fe272bf80c097d6515d2772c7d133",
      "transactionIndex": "0x1",
      "blockHash": "0xf9f9ac4d467a8b1ce92fd7b8ecfc4a0f5381ed3c0ec983a2e2c91da47f856053",
      "blockNumber": "0x1329af2",
      "gasUsed": "0x84a8",
      "effectiveGasPrice": "0x3b9acd4e",
      "blobGasPrice": "0x1",
      "from": "0x73109baf60bab74b9e8273dfd4236d17c56cfc67",
      "to": "0xec62870a545dda5650437db9847cf4ec9bd4c48a",
      "contractAddress": null,
      "root": "0x0000000000000000000000000000000000000000000000000000000000000000"
    },
    {
      "status": "0x1",
      "cumulativeGasUsed": "0x23309",
      "logs": [
        {
          "address": "0xbbbbbbbbbb9cc5e90e3b3af64bdaf62c37eeffcb",
          "topics": [
            "0xac4b2400f169220b0c0afdde7a0b32e775ba727ea1cb30b35f935cdaab8683ac",
            "0xd37c9fc8c1a699ea58869149a19ad214130681604ea498ef3652295a7c99a078"
          ],
          "data": "0x000000000000000000000000ec62870a545dda5650437db9847cf4ec9bd4c48a0000000000000000000000000103b836d24d935aad2e88016d225444f47a0417000000000000000000000000f1f789bffa9fdd873d3aa8ed15559ce2e42e6e9b00000000000000000000000000000000000000000000000000000000000000000000000000000000000000000000000000000000000000000d1d507e40be8000",
          "blockHash": "0xa37634b28348d66dee773707609f8a3219d31bd8ae9f3d5b4a42fe2466ca0406",
          "blockNumber": "0x1329af3",
          "blockTimestamp": "0x666d6f76",
          "transactionHash": "0x6df59fe3ebff0104478b3caee3124883235c0be8c0b7edcd55715d46e12344d6",
          "transactionIndex": "0x0",
          "logIndex": "0x0",
          "removed": false
        }
      ],
      "logsBloom": "0x00000000000000000000000000000800000000000000000000000000000000000000000000000000000000000000000000000000000000000000000000000000000000000010000000000008000000000000000000000000000000000000000000000000000000000000000000000000000400000000000000000040000000000000000000000008000000000000000000000000000000000000000000000000000000000000000000000000000000000000000000000000000000000000000020000000000000040000000000000000000000000000000000000000000000000000000000000000000000000000000000000000000000000000000000000010",
      "type": "0x2",
      "transactionHash": "0x6df59fe3ebff0104478b3caee3124883235c0be8c0b7edcd55715d46e12344d6",
      "transactionIndex": "0x0",
      "blockHash": "0xa37634b28348d66dee773707609f8a3219d31bd8ae9f3d5b4a42fe2466ca0406",
      "blockNumber": "0x1329af3",
      "gasUsed": "0x23309",
      "effectiveGasPrice": "0x3b9acce5",
      "blobGasPrice": "0x1",
      "from": "0x73109baf60bab74b9e8273dfd4236d17c56cfc67",
      "to": "0xbbbbbbbbbb9cc5e90e3b3af64bdaf62c37eeffcb",
      "contractAddress": null,
      "root": "0x0000000000000000000000000000000000000000000000000000000000000000"
    },
    {
      "status": "0x1",
      "cumulativeGasUsed": "0x70ed",
      "logs": [],
      "logsBloom": "0x00000000000000000000000000000000000000000000000000000000000000000000000000000000000000000000000000000000000000000000000000000000000000000000000000000000000000000000000000000000000000000000000000000000000000000000000000000000000000000000000000000000000000000000000000000000000000000000000000000000000000000000000000000000000000000000000000000000000000000000000000000000000000000000000000000000000000000000000000000000000000000000000000000000000000000000000000000000000000000000000000000000000000000000000000000000",
      "type": "0x2",
      "transactionHash": "0x2eb8883ecc568a1e4d17495695feb3a89e2c289dc5466804a65fc8a0d269498e",
      "transactionIndex": "0x0",
      "blockHash": "0x710fb1ced5aa1df306d54b2b580a88559d2bcf63b2aa30f73b731e32a0080246",
      "blockNumber": "0x1329af4",
      "gasUsed": "0x70ed",
      "effectiveGasPrice": "0x3b9acc8a",
      "blobGasPrice": "0x1",
      "from": "0x73109baf60bab74b9e8273dfd4236d17c56cfc67",
      "to": "0xbbbbbbbbbb9cc5e90e3b3af64bdaf62c37eeffcb",
      "contractAddress": null,
      "root": "0x0000000000000000000000000000000000000000000000000000000000000000"
    },
    {
      "status": "0x1",
      "cumulativeGasUsed": "0x125c2",
      "logs": [
        {
          "address": "0x0103b836d24d935aad2e88016d225444f47a0417",
          "topics": [
            "0x8c5be1e5ebec7d5bd14f71427d1e84f3dd0314c0f7b2291e5b200ac8c7c3b925",
            "0x00000000000000000000000073109baf60bab74b9e8273dfd4236d17c56cfc67",
            "0x000000000000000000000000afa2b03e027e0ae3864cf85cc736fd067960573c"
          ],
          "data": "0xffffffffffffffffffffffffffffffffffffffffffffffffffffffffffffffff",
          "blockHash": "0x710fb1ced5aa1df306d54b2b580a88559d2bcf63b2aa30f73b731e32a0080246",
          "blockNumber": "0x1329af4",
          "blockTimestamp": "0x666d6f77",
          "transactionHash": "0xe5d1fd9b1a8005f85ec0251bc65c8ff10b2ecf0490decd20a582b504ac497be9",
          "transactionIndex": "0x1",
          "logIndex": "0x0",
          "removed": false
        }
      ],
      "logsBloom": "0x00000000000000000010200000000000000000000000000000000000000200000000000000000000000000000000000000000000000000000000000000200000000000000000000000000000008000000000080000000000000000000000000004000000000000000000000000000000000000000000000000000000000080000000000000000000000000000000000000000000000000000000000000000000020000000000000000000000000000000100008000000000000000000000000000000000000000000000000000000000000000000000000000000000000000000010000000000000000000000000000000000000000000000000000000000000",
      "type": "0x2",
      "transactionHash": "0xe5d1fd9b1a8005f85ec0251bc65c8ff10b2ecf0490decd20a582b504ac497be9",
      "transactionIndex": "0x1",
      "blockHash": "0x710fb1ced5aa1df306d54b2b580a88559d2bcf63b2aa30f73b731e32a0080246",
      "blockNumber": "0x1329af4",
      "gasUsed": "0xb4d5",
      "effectiveGasPrice": "0x3b9acc8a",
      "blobGasPrice": "0x1",
      "from": "0x73109baf60bab74b9e8273dfd4236d17c56cfc67",
      "to": "0x0103b836d24d935aad2e88016d225444f47a0417",
      "contractAddress": null,
      "root": "0x0000000000000000000000000000000000000000000000000000000000000000"
    },
    {
      "status": "0x1",
      "cumulativeGasUsed": "0x30155",
      "logs": [
        {
          "address": "0x0103b836d24d935aad2e88016d225444f47a0417",
          "topics": [
            "0x8c5be1e5ebec7d5bd14f71427d1e84f3dd0314c0f7b2291e5b200ac8c7c3b925",
            "0x000000000000000000000000afa2b03e027e0ae3864cf85cc736fd067960573c",
            "0x000000000000000000000000bbbbbbbbbb9cc5e90e3b3af64bdaf62c37eeffcb"
          ],
          "data": "0xffffffffffffffffffffffffffffffffffffffffffffffffffffffffffffffff",
          "blockHash": "0x710fb1ced5aa1df306d54b2b580a88559d2bcf63b2aa30f73b731e32a0080246",
          "blockNumber": "0x1329af4",
          "blockTimestamp": "0x666d6f77",
          "transactionHash": "0xcabb26192c866c5b587647973cf21ad7dfa14f76eb4eadc3c4176b76103e6987",
          "transactionIndex": "0x2",
          "logIndex": "0x1",
          "removed": false
        },
        {
          "address": "0x0103b836d24d935aad2e88016d225444f47a0417",
          "topics": [
            "0xddf252ad1be2c89b69c2b068fc378daa952ba7f163c4a11628f55a4df523b3ef",
            "0x00000000000000000000000073109baf60bab74b9e8273dfd4236d17c56cfc67",
            "0x000000000000000000000000afa2b03e027e0ae3864cf85cc736fd067960573c"
          ],
          "data": "0x00000000000000000000000000000000000000000000006c6b935b8bbd400000",
          "blockHash": "0x710fb1ced5aa1df306d54b2b580a88559d2bcf63b2aa30f73b731e32a0080246",
          "blockNumber": "0x1329af4",
          "blockTimestamp": "0x666d6f77",
          "transactionHash": "0xcabb26192c866c5b587647973cf21ad7dfa14f76eb4eadc3c4176b76103e6987",
          "transactionIndex": "0x2",
          "logIndex": "0x2",
          "removed": false
        },
        {
          "address": "0xbbbbbbbbbb9cc5e90e3b3af64bdaf62c37eeffcb",
          "topics": [
            "0xa3b9472a1399e17e123f3c2e6586c23e504184d504de59cdaa2b375e880c6184",
            "0xd37c9fc8c1a699ea58869149a19ad214130681604ea498ef3652295a7c99a078",
            "0x000000000000000000000000afa2b03e027e0ae3864cf85cc736fd067960573c",
            "0x00000000000000000000000073109baf60bab74b9e8273dfd4236d17c56cfc67"
          ],
          "data": "0x00000000000000000000000000000000000000000000006c6b935b8bbd400000",
          "blockHash": "0x710fb1ced5aa1df306d54b2b580a88559d2bcf63b2aa30f73b731e32a0080246",
          "blockNumber": "0x1329af4",
          "blockTimestamp": "0x666d6f77",
          "transactionHash": "0xcabb26192c866c5b587647973cf21ad7dfa14f76eb4eadc3c4176b76103e6987",
          "transactionIndex": "0x2",
          "logIndex": "0x3",
          "removed": false
        },
        {
          "address": "0x0103b836d24d935aad2e88016d225444f47a0417",
          "topics": [
            "0xddf252ad1be2c89b69c2b068fc378daa952ba7f163c4a11628f55a4df523b3ef",
            "0x000000000000000000000000afa2b03e027e0ae3864cf85cc736fd067960573c",
            "0x000000000000000000000000bbbbbbbbbb9cc5e90e3b3af64bdaf62c37eeffcb"
          ],
          "data": "0x00000000000000000000000000000000000000000000006c6b935b8bbd400000",
          "blockHash": "0x710fb1ced5aa1df306d54b2b580a88559d2bcf63b2aa30f73b731e32a0080246",
          "blockNumber": "0x1329af4",
          "blockTimestamp": "0x666d6f77",
          "transactionHash": "0xcabb26192c866c5b587647973cf21ad7dfa14f76eb4eadc3c4176b76103e6987",
          "transactionIndex": "0x2",
          "logIndex": "0x4",
          "removed": false
        }
      ],
      "logsBloom": "0x00000000000000000010200000000080000000000000000000000000000200000000000000000000000000000000000000000000000000000000000000200000000000000010000000000008008000000000080000000000000000000000000004000000000000000000000000000000000400000000000000000010000080000000008000000008000000000000000000000000000000000000000000000000020000000000000000000000000000000100008000000000000000000000000020000002000000040000000000000000000000000000000400000000000000000010000001000000000000200000200000000000000000000000000000000000",
      "type": "0x2",
      "transactionHash": "0xcabb26192c866c5b587647973cf21ad7dfa14f76eb4eadc3c4176b76103e6987",
      "transactionIndex": "0x2",
      "blockHash": "0x710fb1ced5aa1df306d54b2b580a88559d2bcf63b2aa30f73b731e32a0080246",
      "blockNumber": "0x1329af4",
      "gasUsed": "0x1db93",
      "effectiveGasPrice": "0x3b9acc8a",
      "blobGasPrice": "0x1",
      "from": "0x73109baf60bab74b9e8273dfd4236d17c56cfc67",
      "to": "0xafa2b03e027e0ae3864cf85cc736fd067960573c",
      "contractAddress": null,
      "root": "0x0000000000000000000000000000000000000000000000000000000000000000"
    },
    {
      "status": "0x1",
      "cumulativeGasUsed": "0xb4d5",
      "logs": [
        {
          "address": "0xec62870a545dda5650437db9847cf4ec9bd4c48a",
          "topics": [
            "0x8c5be1e5ebec7d5bd14f71427d1e84f3dd0314c0f7b2291e5b200ac8c7c3b925",
            "0x00000000000000000000000073109baf60bab74b9e8273dfd4236d17c56cfc67",
            "0x000000000000000000000000afa2b03e027e0ae3864cf85cc736fd067960573c"
          ],
          "data": "0xffffffffffffffffffffffffffffffffffffffffffffffffffffffffffffffff",
          "blockHash": "0x12ef16d7822745492f9f7912a5892fb992e8802cfdd10e9385e0854d435269c7",
          "blockNumber": "0x1329af5",
          "blockTimestamp": "0x666d6f78",
          "transactionHash": "0x9f94e40950e5a4424001fcc076830410dda52c3bf45e56a5e253f69d2ad5ed69",
          "transactionIndex": "0x0",
          "logIndex": "0x0",
          "removed": false
        }
      ],
      "logsBloom": "0x00000000000000000010200000000000000000000000000000000000000200000000000000000000000000000000000000000000000000000000000000200000000000000000000000000000008000000000000000000000000000000000000004000000000000000000000000000000000000000000000000000000000080000000000000000000000000000000000000000000000000000000000000000000020000000000000000000000000000000100000000008000000000000000000000000000000000000000000000000000000000000000000000001000000000000010000000000000000000000000000000000000000000000000000000000000",
      "type": "0x2",
      "transactionHash": "0x9f94e40950e5a4424001fcc076830410dda52c3bf45e56a5e253f69d2ad5ed69",
      "transactionIndex": "0x0",
      "blockHash": "0x12ef16d7822745492f9f7912a5892fb992e8802cfdd10e9385e0854d435269c7",
      "blockNumber": "0x1329af5",
      "gasUsed": "0xb4d5",
      "effectiveGasPrice": "0x3b9acc3a",
      "blobGasPrice": "0x1",
      "from": "0x73109baf60bab74b9e8273dfd4236d17c56cfc67",
      "to": "0xec62870a545dda5650437db9847cf4ec9bd4c48a",
      "contractAddress": null,
      "root": "0x0000000000000000000000000000000000000000000000000000000000000000"
    },
    {
      "status": "0x1",
      "cumulativeGasUsed": "0x2ffcc",
      "logs": [
        {
          "address": "0xec62870a545dda5650437db9847cf4ec9bd4c48a",
          "topics": [
            "0x8c5be1e5ebec7d5bd14f71427d1e84f3dd0314c0f7b2291e5b200ac8c7c3b925",
            "0x000000000000000000000000afa2b03e027e0ae3864cf85cc736fd067960573c",
            "0x000000000000000000000000bbbbbbbbbb9cc5e90e3b3af64bdaf62c37eeffcb"
          ],
          "data": "0xffffffffffffffffffffffffffffffffffffffffffffffffffffffffffffffff",
          "blockHash": "0x12ef16d7822745492f9f7912a5892fb992e8802cfdd10e9385e0854d435269c7",
          "blockNumber": "0x1329af5",
          "blockTimestamp": "0x666d6f78",
          "transactionHash": "0x34ba10fbeb886a432039855b6a85fff908226180f9f89615a7dcbc43e50fb6a2",
          "transactionIndex": "0x1",
          "logIndex": "0x1",
          "removed": false
        },
        {
          "address": "0xec62870a545dda5650437db9847cf4ec9bd4c48a",
          "topics": [
            "0xddf252ad1be2c89b69c2b068fc378daa952ba7f163c4a11628f55a4df523b3ef",
            "0x00000000000000000000000073109baf60bab74b9e8273dfd4236d17c56cfc67",
            "0x000000000000000000000000afa2b03e027e0ae3864cf85cc736fd067960573c"
          ],
          "data": "0x00000000000000000000000000000000000000000000006c6b935b8bbd400000",
          "blockHash": "0x12ef16d7822745492f9f7912a5892fb992e8802cfdd10e9385e0854d435269c7",
          "blockNumber": "0x1329af5",
          "blockTimestamp": "0x666d6f78",
          "transactionHash": "0x34ba10fbeb886a432039855b6a85fff908226180f9f89615a7dcbc43e50fb6a2",
          "transactionIndex": "0x1",
          "logIndex": "0x2",
          "removed": false
        },
        {
          "address": "0xbbbbbbbbbb9cc5e90e3b3af64bdaf62c37eeffcb",
          "topics": [
            "0xedf8870433c83823eb071d3df1caa8d008f12f6440918c20d75a3602cda30fe0",
            "0xd37c9fc8c1a699ea58869149a19ad214130681604ea498ef3652295a7c99a078",
            "0x000000000000000000000000afa2b03e027e0ae3864cf85cc736fd067960573c",
            "0x00000000000000000000000073109baf60bab74b9e8273dfd4236d17c56cfc67"
          ],
          "data": "0x00000000000000000000000000000000000000000000006c6b935b8bbd400000000000000000000000000000000000000000000006765c793fa10079d0000000",
          "blockHash": "0x12ef16d7822745492f9f7912a5892fb992e8802cfdd10e9385e0854d435269c7",
          "blockNumber": "0x1329af5",
          "blockTimestamp": "0x666d6f78",
          "transactionHash": "0x34ba10fbeb886a432039855b6a85fff908226180f9f89615a7dcbc43e50fb6a2",
          "transactionIndex": "0x1",
          "logIndex": "0x3",
          "removed": false
        },
        {
          "address": "0xec62870a545dda5650437db9847cf4ec9bd4c48a",
          "topics": [
            "0xddf252ad1be2c89b69c2b068fc378daa952ba7f163c4a11628f55a4df523b3ef",
            "0x000000000000000000000000afa2b03e027e0ae3864cf85cc736fd067960573c",
            "0x000000000000000000000000bbbbbbbbbb9cc5e90e3b3af64bdaf62c37eeffcb"
          ],
          "data": "0x00000000000000000000000000000000000000000000006c6b935b8bbd400000",
          "blockHash": "0x12ef16d7822745492f9f7912a5892fb992e8802cfdd10e9385e0854d435269c7",
          "blockNumber": "0x1329af5",
          "blockTimestamp": "0x666d6f78",
          "transactionHash": "0x34ba10fbeb886a432039855b6a85fff908226180f9f89615a7dcbc43e50fb6a2",
          "transactionIndex": "0x1",
          "logIndex": "0x4",
          "removed": false
        }
      ],
      "logsBloom": "0x00000000000000000010200000000080000000000000000000000000000200000000000000000000000000000000000000000000000000000000000000200000000000000010000000000008808000000000000800000000000000000000000004000000000000000000000000000000000400000000000000000010000080000000000000000008000000000000000000000000000000000000000000000000020000000000000000000000000000000100000000008000000000000000000020000002000000040000000000000000000000000000000000001000000000400010000001000000000000200000000000000000000000000000000000000000",
      "type": "0x2",
      "transactionHash": "0x34ba10fbeb886a432039855b6a85fff908226180f9f89615a7dcbc43e50fb6a2",
      "transactionIndex": "0x1",
      "blockHash": "0x12ef16d7822745492f9f7912a5892fb992e8802cfdd10e9385e0854d435269c7",
      "blockNumber": "0x1329af5",
      "gasUsed": "0x24af7",
      "effectiveGasPrice": "0x3b9acc3a",
      "blobGasPrice": "0x1",
      "from": "0x73109baf60bab74b9e8273dfd4236d17c56cfc67",
      "to": "0xafa2b03e027e0ae3864cf85cc736fd067960573c",
      "contractAddress": null,
      "root": "0x0000000000000000000000000000000000000000000000000000000000000000"
    },
    {
      "status": "0x1",
      "cumulativeGasUsed": "0x3c734",
      "logs": [
        {
          "address": "0xec62870a545dda5650437db9847cf4ec9bd4c48a",
          "topics": [
            "0xddf252ad1be2c89b69c2b068fc378daa952ba7f163c4a11628f55a4df523b3ef",
            "0x0000000000000000000000000000000000000000000000000000000000000000",
            "0x000000000000000000000000afa2b03e027e0ae3864cf85cc736fd067960573c"
          ],
          "data": "0x000000000000000000000000000000000000000000002a5a058fc295ed000000",
          "blockHash": "0x12ef16d7822745492f9f7912a5892fb992e8802cfdd10e9385e0854d435269c7",
          "blockNumber": "0x1329af5",
          "blockTimestamp": "0x666d6f78",
          "transactionHash": "0xcde068ad3c800d9672190615ea12b446de3e35bbb4f22e046e0c9a10303214e6",
          "transactionIndex": "0x2",
          "logIndex": "0x5",
          "removed": false
        }
      ],
      "logsBloom": "0x00000000000000000010200000000000000000000000000000000000000000000000000000000000000000000000000000000000000000000000000000000000000000000000000000000008008000000000000000000000000000000000000000000000020000000000000000000800000000000000000000000010000080000000000000000000000000000000000000000000000000000000000000000000000000000000000000000000000000000000000000008000000000000000000000000002000000000000000000000000000000000000000000001000000020000000000000000000000000000000000000000000000000000000000000000000",
      "type": "0x2",
      "transactionHash": "0xcde068ad3c800d9672190615ea12b446de3e35bbb4f22e046e0c9a10303214e6",
      "transactionIndex": "0x2",
      "blockHash": "0x12ef16d7822745492f9f7912a5892fb992e8802cfdd10e9385e0854d435269c7",
      "blockNumber": "0x1329af5",
      "gasUsed": "0xc768",
      "effectiveGasPrice": "0x3b9acc3a",
      "blobGasPrice": "0x1",
      "from": "0x73109baf60bab74b9e8273dfd4236d17c56cfc67",
      "to": "0xec62870a545dda5650437db9847cf4ec9bd4c48a",
      "contractAddress": null,
      "root": "0x0000000000000000000000000000000000000000000000000000000000000000"
    },
    {
      "status": "0x1",
      "cumulativeGasUsed": "0x42e4d",
      "logs": [
        {
          "address": "0x0103b836d24d935aad2e88016d225444f47a0417",
          "topics": [
            "0x8c5be1e5ebec7d5bd14f71427d1e84f3dd0314c0f7b2291e5b200ac8c7c3b925",
            "0x00000000000000000000000073109baf60bab74b9e8273dfd4236d17c56cfc67",
            "0x000000000000000000000000afa2b03e027e0ae3864cf85cc736fd067960573c"
          ],
          "data": "0xffffffffffffffffffffffffffffffffffffffffffffffffffffffffffffffff",
          "blockHash": "0x12ef16d7822745492f9f7912a5892fb992e8802cfdd10e9385e0854d435269c7",
          "blockNumber": "0x1329af5",
          "blockTimestamp": "0x666d6f78",
          "transactionHash": "0x9f665f01e949cd52342ea46662b997a67b26a4af17e705a601e15654a620fa6c",
          "transactionIndex": "0x3",
          "logIndex": "0x6",
          "removed": false
        }
      ],
      "logsBloom": "0x00000000000000000010200000000000000000000000000000000000000200000000000000000000000000000000000000000000000000000000000000200000000000000000000000000000008000000000080000000000000000000000000004000000000000000000000000000000000000000000000000000000000080000000000000000000000000000000000000000000000000000000000000000000020000000000000000000000000000000100008000000000000000000000000000000000000000000000000000000000000000000000000000000000000000000010000000000000000000000000000000000000000000000000000000000000",
      "type": "0x2",
      "transactionHash": "0x9f665f01e949cd52342ea46662b997a67b26a4af17e705a601e15654a620fa6c",
      "transactionIndex": "0x3",
      "blockHash": "0x12ef16d7822745492f9f7912a5892fb992e8802cfdd10e9385e0854d435269c7",
      "blockNumber": "0x1329af5",
      "gasUsed": "0x6719",
      "effectiveGasPrice": "0x3b9acc3a",
      "blobGasPrice": "0x1",
      "from": "0x73109baf60bab74b9e8273dfd4236d17c56cfc67",
      "to": "0x0103b836d24d935aad2e88016d225444f47a0417",
      "contractAddress": null,
      "root": "0x0000000000000000000000000000000000000000000000000000000000000000"
    },
    {
      "status": "0x1",
      "cumulativeGasUsed": "0x1118c",
      "logs": [
        {
          "address": "0x0103b836d24d935aad2e88016d225444f47a0417",
          "topics": [
            "0x8c5be1e5ebec7d5bd14f71427d1e84f3dd0314c0f7b2291e5b200ac8c7c3b925",
            "0x000000000000000000000000afa2b03e027e0ae3864cf85cc736fd067960573c",
            "0x000000000000000000000000bbbbbbbbbb9cc5e90e3b3af64bdaf62c37eeffcb"
          ],
          "data": "0xffffffffffffffffffffffffffffffffffffffffffffffffffffffffffffffff",
          "blockHash": "0xe15c56de6dd19686e2f23d63f93caaba8c24244c1c725625640657b2477e6901",
          "blockNumber": "0x1329af6",
          "blockTimestamp": "0x666d6f79",
          "transactionHash": "0x1af5c2886fbe60a477cb32686776564ba080c2e90dc29d6ff47e309e3ee768f0",
          "transactionIndex": "0x0",
          "logIndex": "0x0",
          "removed": false
        },
        {
          "address": "0x0103b836d24d935aad2e88016d225444f47a0417",
          "topics": [
            "0xddf252ad1be2c89b69c2b068fc378daa952ba7f163c4a11628f55a4df523b3ef",
            "0x00000000000000000000000073109baf60bab74b9e8273dfd4236d17c56cfc67",
            "0x000000000000000000000000afa2b03e027e0ae3864cf85cc736fd067960573c"
          ],
          "data": "0x0000000000000000000000000000000000000000000000008ac7230489e80000",
          "blockHash": "0xe15c56de6dd19686e2f23d63f93caaba8c24244c1c725625640657b2477e6901",
          "blockNumber": "0x1329af6",
          "blockTimestamp": "0x666d6f79",
          "transactionHash": "0x1af5c2886fbe60a477cb32686776564ba080c2e90dc29d6ff47e309e3ee768f0",
          "transactionIndex": "0x0",
          "logIndex": "0x1",
          "removed": false
        },
        {
          "address": "0xbbbbbbbbbb9cc5e90e3b3af64bdaf62c37eeffcb",
          "topics": [
            "0xa3b9472a1399e17e123f3c2e6586c23e504184d504de59cdaa2b375e880c6184",
            "0xd37c9fc8c1a699ea58869149a19ad214130681604ea498ef3652295a7c99a078",
            "0x000000000000000000000000afa2b03e027e0ae3864cf85cc736fd067960573c",
            "0x00000000000000000000000073109baf60bab74b9e8273dfd4236d17c56cfc67"
          ],
          "data": "0x0000000000000000000000000000000000000000000000008ac7230489e80000",
          "blockHash": "0xe15c56de6dd19686e2f23d63f93caaba8c24244c1c725625640657b2477e6901",
          "blockNumber": "0x1329af6",
          "blockTimestamp": "0x666d6f79",
          "transactionHash": "0x1af5c2886fbe60a477cb32686776564ba080c2e90dc29d6ff47e309e3ee768f0",
          "transactionIndex": "0x0",
          "logIndex": "0x2",
          "removed": false
        },
        {
          "address": "0x0103b836d24d935aad2e88016d225444f47a0417",
          "topics": [
            "0xddf252ad1be2c89b69c2b068fc378daa952ba7f163c4a11628f55a4df523b3ef",
            "0x000000000000000000000000afa2b03e027e0ae3864cf85cc736fd067960573c",
            "0x000000000000000000000000bbbbbbbbbb9cc5e90e3b3af64bdaf62c37eeffcb"
          ],
          "data": "0x0000000000000000000000000000000000000000000000008ac7230489e80000",
          "blockHash": "0xe15c56de6dd19686e2f23d63f93caaba8c24244c1c725625640657b2477e6901",
          "blockNumber": "0x1329af6",
          "blockTimestamp": "0x666d6f79",
          "transactionHash": "0x1af5c2886fbe60a477cb32686776564ba080c2e90dc29d6ff47e309e3ee768f0",
          "transactionIndex": "0x0",
          "logIndex": "0x3",
          "removed": false
        }
      ],
      "logsBloom": "0x00000000000000000010200000000080000000000000000000000000000200000000000000000000000000000000000000000000000000000000000000200000000000000010000000000008008000000000080000000000000000000000000004000000000000000000000000000000000400000000000000000010000080000000008000000008000000000000000000000000000000000000000000000000020000000000000000000000000000000100008000000000000000000000000020000002000000040000000000000000000000000000000400000000000000000010000001000000000000200000200000000000000000000000000000000000",
      "type": "0x2",
      "transactionHash": "0x1af5c2886fbe60a477cb32686776564ba080c2e90dc29d6ff47e309e3ee768f0",
      "transactionIndex": "0x0",
      "blockHash": "0xe15c56de6dd19686e2f23d63f93caaba8c24244c1c725625640657b2477e6901",
      "blockNumber": "0x1329af6",
      "gasUsed": "0x1118c",
      "effectiveGasPrice": "0x3b9acbf5",
      "blobGasPrice": "0x1",
      "from": "0x73109baf60bab74b9e8273dfd4236d17c56cfc67",
      "to": "0xafa2b03e027e0ae3864cf85cc736fd067960573c",
      "contractAddress": null,
      "root": "0x0000000000000000000000000000000000000000000000000000000000000000"
    },
    {
      "status": "0x1",
      "cumulativeGasUsed": "0x171e1",
      "logs": [
        {
          "address": "0xbbbbbbbbbb9cc5e90e3b3af64bdaf62c37eeffcb",
          "topics": [
            "0x570954540bed6b1304a87dfe815a5eda4a648f7097a16240dcd85c9b5fd42a43",
            "0xd37c9fc8c1a699ea58869149a19ad214130681604ea498ef3652295a7c99a078",
            "0x00000000000000000000000073109baf60bab74b9e8273dfd4236d17c56cfc67",
            "0x00000000000000000000000073109baf60bab74b9e8273dfd4236d17c56cfc67"
          ],
          "data": "0x000000000000000000000000afa2b03e027e0ae3864cf85cc736fd067960573c000000000000000000000000000000000000000000000000000000000002ed640000000000000000000000000000000000000000000000000000002caacb2100",
          "blockHash": "0x53f497ced84b6a64f76cebfdf558ed7c3e70b98fbec86c20e7b9f1b609015b14",
          "blockNumber": "0x1329af7",
          "blockTimestamp": "0x666d6f7a",
          "transactionHash": "0x8593761abb87ac28079a521b25e1fcfd60ea5ff6682467cf2000e52f4071234b",
          "transactionIndex": "0x0",
          "logIndex": "0x0",
          "removed": false
        },
        {
          "address": "0xec62870a545dda5650437db9847cf4ec9bd4c48a",
          "topics": [
            "0xddf252ad1be2c89b69c2b068fc378daa952ba7f163c4a11628f55a4df523b3ef",
            "0x000000000000000000000000bbbbbbbbbb9cc5e90e3b3af64bdaf62c37eeffcb",
            "0x00000000000000000000000073109baf60bab74b9e8273dfd4236d17c56cfc67"
          ],
          "data": "0x000000000000000000000000000000000000000000000000000000000002ed64",
          "blockHash": "0x53f497ced84b6a64f76cebfdf558ed7c3e70b98fbec86c20e7b9f1b609015b14",
          "blockNumber": "0x1329af7",
          "blockTimestamp": "0x666d6f7a",
          "transactionHash": "0x8593761abb87ac28079a521b25e1fcfd60ea5ff6682467cf2000e52f4071234b",
          "transactionIndex": "0x0",
          "logIndex": "0x1",
          "removed": false
        }
      ],
      "logsBloom": "0x00000000000000000002000000000080000000000000000000000000000200000000000000000000000000000000000000000000000000000000000000000000000000000010000000000008008000000000000000000000000000000000000004000000000000000000000000000000000400000000000000000010000000000000000000000008000000000000000000000000000000000000000000000000000000000000000000000000000000000100000000008000000000000000000020000002000000040000000000000000000000000000000000001000000000000000004001000008000000200000000000000000000000000000000000000000",
      "type": "0x2",
      "transactionHash": "0x8593761abb87ac28079a521b25e1fcfd60ea5ff6682467cf2000e52f4071234b",
      "transactionIndex": "0x0",
      "blockHash": "0x53f497ced84b6a64f76cebfdf558ed7c3e70b98fbec86c20e7b9f1b609015b14",
      "blockNumber": "0x1329af7",
      "gasUsed": "0x171e1",
      "effectiveGasPrice": "0x3b9acbb7",
      "blobGasPrice": "0x1",
      "from": "0x73109baf60bab74b9e8273dfd4236d17c56cfc67",
      "to": "0xafa2b03e027e0ae3864cf85cc736fd067960573c",
      "contractAddress": null,
      "root": "0x0000000000000000000000000000000000000000000000000000000000000000"
    },
    {
      "status": "0x1",
      "cumulativeGasUsed": "0x1d84a",
      "logs": [],
      "logsBloom": "0x00000000000000000000000000000000000000000000000000000000000000000000000000000000000000000000000000000000000000000000000000000000000000000000000000000000000000000000000000000000000000000000000000000000000000000000000000000000000000000000000000000000000000000000000000000000000000000000000000000000000000000000000000000000000000000000000000000000000000000000000000000000000000000000000000000000000000000000000000000000000000000000000000000000000000000000000000000000000000000000000000000000000000000000000000000000",
      "type": "0x2",
      "transactionHash": "0xf287cf6df23d657af146afb107b737e66f0d2c85efcc339786f1267286cdb9aa",
      "transactionIndex": "0x1",
      "blockHash": "0x53f497ced84b6a64f76cebfdf558ed7c3e70b98fbec86c20e7b9f1b609015b14",
      "blockNumber": "0x1329af7",
      "gasUsed": "0x6669",
      "effectiveGasPrice": "0x3b9acbb7",
      "blobGasPrice": "0x1",
      "from": "0x73109baf60bab74b9e8273dfd4236d17c56cfc67",
      "to": "0xf1f789bffa9fdd873d3aa8ed15559ce2e42e6e9b",
      "contractAddress": null,
      "root": "0x0000000000000000000000000000000000000000000000000000000000000000"
    }
  ],
  "libraries": [],
  "pending": [],
  "returns": {},
  "timestamp": 1718562197,
  "chain": 1,
  "commit": "201e34d"
}