{
  "transactions": [
    {
      "hash": "0xbf2dda8ce9c7a83110ce11b39f8e5563285fa5eb8913627ed54101d921a4a90a",
      "transactionType": "CREATE",
      "contractName": "Liquidator",
      "contractAddress": "0x879bc988eefc40801dcd2ba5f659c1e7ca926c5e",
      "function": null,
      "arguments": [
        "0xBBBBBbbBBb9cC5e90e3b3Af64bdAF62C37EEFFCb",
        "0xE592427A0AEce92De3Edee1F18E0157C05861564"
      ],
      "transaction": {
        "from": "0x73109baf60bab74b9e8273dfd4236d17c56cfc67",
        "gas": "0x28e036",
        "value": "0x0",
        "input": "0x60c0346200016157601f6200256b38819003918201601f19168301916001600160401b038311848410176200016657808492604094855283398101031262000161576200005a602062000052836200017c565b92016200017c565b903315620001485760008054336001600160a01b0319821681178355604051946001600160a01b0394909385939192918416907f8be0079c531659141344cd1fd0a4f28419497f9722a3daafe3b4186f6b6457e09080a3166080521660a0526123d99081620001928239608051818181610164015281816103040152818161039701528181610418015281816105110152818161065b0152818161081001528181610863015281816109e701528181610c7301528181610d9201528181610dee015281816110b2015281816111590152818161125b0152818161161001526119b2015260a051816113210152f35b604051631e4fbdf760e01b815260006004820152602490fd5b600080fd5b634e487b7160e01b600052604160045260246000fd5b51906001600160a01b0382168203620001615756fe6040608081526004908136101561001557600080fd5b600091823560e01c9081629f7501146115d75781630a0a3fe9146115955781632015428814611569578163252dba42146113505781632b3297f91461130c5781633c0ebf60146112f1578382635024e5751461123c57508163559cb3a9146110dc5781636b116ebc14610d0f578163706eaf1314610c42578163715018a614610be55781637362377b14610b995781638947606914610ace5781638da5cb5b14610aa6578163a01225ca146109b4578163b4dfbfe41461083b578163b936ba0c146107e3578163ba570dbf1461062a578163c1195161146105e8578163cd32e0b5146104e0578163cf7ea196146103c6578163d8fbc83314610382578163e0317517146102bd578163e42c08f214610223578163f2fde38b14610196575063f367be6b1461014257600080fd5b346101925760a036600319011261019257602090610188610162366117d0565b7f0000000000000000000000000000000000000000000000000000000000000000611f23565b5092519283525050f35b5080fd5b90503461021f57602036600319011261021f576101b16117ba565b906101ba611d21565b6001600160a01b039182169283156102095750506000548260018060a01b0319821617600055167f8be0079c531659141344cd1fd0a4f28419497f9722a3daafe3b4186f6b6457e0600080a380f35b51631e4fbdf760e01b8152908101849052602490fd5b8280fd5b838334610192576020928360031936011261021f576001600160a01b0390849060248361024e6117ba565b169386541691855194859384926370a0823160e01b84528301525afa9283156102b2579261027e575b5051908152f35b9091508281813d83116102ab575b6102968183611783565b810103126102a657519083610277565b600080fd5b503d61028c565b8251903d90823e3d90fd5b839150346101925760c036600319011261019257826102ff916102df366117d0565b82516350d8cd4b60e01b815293849283923391829160a435918601611bd6565b0381857f00000000000000000000000000000000000000000000000000000000000000006001600160a01b03165af1908115610378578291610349575b5082519182526020820152f35b905061036b9150823d8411610371575b6103638183611783565b810190611b87565b8361033c565b503d610359565b83513d84823e3d90fd5b505034610192578160031936011261019257517f00000000000000000000000000000000000000000000000000000000000000006001600160a01b03168152602090f35b90503461021f578160031936011261021f57602435916001600160401b038084116104dc57366023850112156104dc57838301359081116104dc5783013660248201116104dc576001600160a01b03927f000000000000000000000000000000000000000000000000000000000000000084163303610499575083602091031261049557602481519361045885611717565b0135918216918281036102a6576020935251908152207f66f7054e689959c3bda7f62e0d02c602abe5123a8e5cfb0b260190d3bb4fce868280a280f35b8380fd5b606490602084519162461bcd60e51b8352820152602060248201527f6d73672e73656e6465722073686f756c64206265204d6f7270686f20426c75656044820152fd5b8480fd5b839150346101925760a0366003190112610192576104fd366117d0565b60a0812084516349e2903160e11b815291927f00000000000000000000000000000000000000000000000000000000000000006001600160a01b031692909160609082908190610551903390838801611950565b0381865afa9081156105de579185879492610591969482916105af575b505160011c855196879586948593635c2bea4960e01b8552339233928601611b9d565b03925af1908115610378578291610349575082519182526020820152f35b6105d1915060603d6060116105d7575b6105c98183611783565b8101906118ff565b8961056e565b503d6105bf565b86513d87823e3d90fd5b839150346101925760c036600319011261019257826102ff9161060a366117d0565b8251635c2bea4960e01b815293849283923391829160a435918601611bd6565b839150346101925760c036600319011261019257610647366117d0565b9060a43560018060a01b03908184511691807f000000000000000000000000000000000000000000000000000000000000000016928751906020820163095ea7b360e01b9081815286602485015260001960448501526044845260808401906001600160401b0391858110838211176107ce57918b80809795938f9c9b9a9997958d5286519082875af16106d9611b25565b8161079f575b5080610795575b15610721575b5050505095610705836105919883511630903390611c6e565b855163a99aad8960e01b81529687958694859333928501611c0f565b91939597999698909294505191602083015287602483015289604483015260448252608082019082821090821117610780579580946107788b958d9a9895610773610705966105919e9c8e5282611e8b565b611e8b565b92988c6106ec565b604189634e487b7160e01b6000525260246000fd5b50823b15156106e6565b80518015925082156107b4575b50508e6106df565b6107c7925060208091830101910161187d565b8e806107ac565b60418a634e487b7160e01b6000525260246000fd5b5050346101925760c036600319011261019257602090610834610805366117d0565b61080d6117a4565b907f0000000000000000000000000000000000000000000000000000000000000000611cb2565b9051908152f35b90503461021f5760c036600319011261021f57610857366117d0565b61085f6117a4565b93807f0000000000000000000000000000000000000000000000000000000000000000956108bb6108c960a0862088516020810191825260028a8201528981526108a881611768565b5190208851928391602083019586611895565b03601f198101835282611783565b519020916109a1575060006108e06108f8926122b0565b855180938192637784c68560e01b8352878301611dc6565b03816001600160a01b0389165afa9081156109965761092b929161092491600091610973575b50611b64565b5194611f23565b50509390916001830180931161095e57620f4240850180951161095e57509261095961083492602095611d0e565b611c4e565b601190634e487b7160e01b6000525260246000fd5b61099091503d806000833e6109888183611783565b810190611d4d565b3861091e565b84513d6000823e3d90fd5b634e487b7160e01b815260118452602490fd5b839150346101925760c0366003190112610192576109d1366117d0565b60a43560018060a01b03918281511692856020827f0000000000000000000000000000000000000000000000000000000000000000169560448a518094819363095ea7b360e01b83528a8c84015260001960248401525af18015610a9c5792610a51856105919896948a948c9997610a6d575b5083511630903390611c6e565b85516320b76e8160e01b81529687958694859333928501611c0f565b610a8e9060203d602011610a95575b610a868183611783565b81019061187d565b508c610a44565b503d610a7c565b88513d89823e3d90fd5b505034610192578160031936011261019257905490516001600160a01b039091168152602090f35b90503461021f576020918260031936011261049557610aeb6117ba565b610af3611d21565b81516370a0823160e01b815230938101939093526001600160a01b0316908383602481855afa928315610b8f578593610b5e575b50610b5b93610b4d610773925194859263a9059cbb60e01b908401523360248401611895565b03601f198101845283611783565b80f35b9092508381813d8311610b88575b610b768183611783565b810103126102a6575191610b5b610b27565b503d610b6c565b81513d87823e3d90fd5b9190503461021f578260031936011261021f57610bb4611d21565b8280808060018060a01b0381541647905af1610bce611b25565b5015610bd8578280f35b516347474d6760e11b8152fd5b8334610c3f5780600319360112610c3f57610bfe611d21565b600080546001600160a01b0319811682556001600160a01b03167f8be0079c531659141344cd1fd0a4f28419497f9722a3daafe3b4186f6b6457e08280a380f35b80fd5b839150346101925760a036600319011261019257610c5f366117d0565b60a0812084516349e2903160e11b815291927f00000000000000000000000000000000000000000000000000000000000000006001600160a01b031692909160609082908190610cb3903390838801611950565b0381865afa9081156105de57918587949261059196948291610cf0575b50518551635c2bea4960e01b815296879586948593339283928601611b9d565b610d09915060603d6060116105d7576105c98183611783565b89610cd0565b90503461021f57366003190160e081126104955760a01361021f57610d326117a4565b9260c435801515810361019257610d47611d21565b818560a0610d54366117d0565b208283946000146110a95750610d71610d8e9392610d7692612266565b6122b0565b865180938192637784c68560e01b8352888301611dc6565b03817f00000000000000000000000000000000000000000000000000000000000000006001600160a01b03165afa908115610ffe5790610dd49184916110955750611b64565b5160801c5b610de1611b0f565b9560018060a01b039182807f000000000000000000000000000000000000000000000000000000000000000016981697875198636eb1769f60e11b8a5230888b01528160248b01526020998a81604481855afa90811561108b57889161105e575b5015611008575b50602435948486168096036102a657858951610e6481611717565b52885192868b8501528a8452610e798461174d565b8951631b1d579760e31b81529686610e8f6117ba565b168a89015260248801526044358681168091036102a65760448801526064358681168091036102a657610ef7889586948b948a8f9a8896606488015260843560848801521660a486015260c485015260e484015261012061010484015261012483019061183d565b03925af1938415610ffe5783928495610fd9575b508682610f16611b0f565b169160248851809481936370a0823160e01b835233908301525afa938415610fce579087929194610f7d575b50907fd6ce906bec1daf0f48062ab9510e6e5b207e4418abfa65f675e14b0df4eae30c91610f6e611b0f565b16948651908152a45160018152f35b8281939295503d8311610fc7575b610f958183611783565b810103126102a657519185907fd6ce906bec1daf0f48062ab9510e6e5b207e4418abfa65f675e14b0df4eae30c610f42565b503d610f8b565b8651903d90823e3d90fd5b909450610ff4919250853d8711610371576103638183611783565b9190919338610f0b565b85513d85823e3d90fd5b898260448a8a8d51958694859363095ea7b360e01b855284015260001960248401525af180156110545715610e495761104d908a3d8c11610a9557610a868183611783565b5038610e49565b89513d89823e3d90fd5b90508a81813d8311611084575b6110758183611783565b810103126102a6575138610e42565b503d61106b565b8a513d8a823e3d90fd5b61099091503d8086833e6109888183611783565b93506110d692507f0000000000000000000000000000000000000000000000000000000000000000611e02565b90610dd9565b90503461021f5760c036600319011261021f576110f8366117d0565b82810151835163501ad8ff60e11b81529192906001600160a01b039060209084908490829085165afa9283156112325786936111fc575b5061115591606091865180809581946349e2903160e11b8352339060a435908401611950565b03917f0000000000000000000000000000000000000000000000000000000000000000165afa9081156111f2576a0c097ce7bc90715b34b9f160241b6111c16111cb94670de0b6b3a7640000969460809460209a916111d3575b508801516000196001861b0116611d0e565b0491015190611d0e565b049051908152f35b6111ec915060603d6060116105d7576105c98183611783565b386111af565b84513d87823e3d90fd5b9092506020813d60201161122a575b8161121860209383611783565b810103126102a657519161115561112f565b3d915061120b565b85513d88823e3d90fd5b809184346112ed5760c03660031901126112ed57611259366117d0565b7f00000000000000000000000000000000000000000000000000000000000000006001600160a01b03169290833b156104dc576101048592836112af9686519788958694638720316d60e01b86528501906118b0565b60a43560a48401523360c48401523360e48401525af19081156112e457506112d45750f35b6112dd906116ee565b610c3f5780f35b513d84823e3d90fd5b5050fd5b50503461019257816003193601126101925751478152602090f35b505034610192578160031936011261019257517f00000000000000000000000000000000000000000000000000000000000000006001600160a01b03168152602090f35b9050602091826003193601126104955781356001600160401b0392838211611565573660238301121561156557818101359380851161156157602460059336828860051b8301011161155d576113a587611af8565b966113b287519889611783565b8088526113be81611af8565b601f1901898b5b82811061154d575050503461153d5794899698999060621983360301915b87811061144e578b8b8b8b8251928084019043855285850152825180915260608401948060608360051b870101940192955b8287106114225785850386f35b90919293828061143e600193605f198a8203018652885161183d565b9601920196019592919092611415565b80829c9b999c1b8581860101358481121561153957850190868201356001600160a01b03811681036102a6578e9060449384810135906042198136030182121561049557019089820135918b83116104955785019180360383136104955783928f8290519283928337810184815203915af4906114c9611b25565b908d51851015611525578d018e0152156114ea57506001019a97999a6113e3565b8776135d5b1d1a58d85b1b0cce8818d85b1b0819985a5b1959604a1b60649260178f8a908f519562461bcd60e51b8752860152840152820152fd5b8860328c634e487b7160e01b600052526000fd5b8d80fd5b8651630f007ec960e41b81528590fd5b606082828d010152018a906113c5565b8880fd5b8680fd5b8580fd5b5050346101925760a03660031901126101925760209061158b610162366117d0565b5050509051908152f35b828434610c3f5760e0366003190112610c3f57506115b2366117d0565b60c43591906001600160a01b03831683036102a6576020926108349160a43590611969565b9190503461021f5760c036600319011261021f57826115f5366117d0565b60a43593602082019060018060a01b038083511692856020837f0000000000000000000000000000000000000000000000000000000000000000169560448a518094819363095ea7b360e01b83528a8a84015260001960248401525af18015610a9c579161167193918a936116cf575b50511630903390611c6e565b813b1561049557836101249261169a978751988996879563238d657960e01b87528601906118b0565b60a48401523360c484015261010060e4840152816101048401525af19081156112e457506116c6575080f35b610b5b906116ee565b6116e79060203d602011610a9557610a868183611783565b5038611665565b6001600160401b03811161170157604052565b634e487b7160e01b600052604160045260246000fd5b602081019081106001600160401b0382111761170157604052565b60a081019081106001600160401b0382111761170157604052565b604081019081106001600160401b0382111761170157604052565b606081019081106001600160401b0382111761170157604052565b90601f801991011681019081106001600160401b0382111761170157604052565b60a435906001600160a01b03821682036102a657565b600435906001600160a01b03821682036102a657565b60a09060031901126102a657604051906117e982611732565b816001600160a01b0360043581811681036102a657825260243581811681036102a657602083015260443581811681036102a657604083015260643590811681036102a65760608201526080608435910152565b919082519283825260005b848110611869575050826000602080949584010152601f8019910116010190565b602081830181015184830182015201611848565b908160209103126102a6575180151581036102a65790565b6001600160a01b039091168152602081019190915260400190565b6080809160018060a01b0380825116855280602083015116602086015280604083015116604086015260608201511660608501520151910152565b51906001600160801b03821682036102a657565b908160609103126102a65760405190606082018281106001600160401b03821117611701576119489160409182528051845261193d602082016118eb565b6020850152016118eb565b604082015290565b9081526001600160a01b03909116602082015260400190565b604081810151815163501ad8ff60e11b81529594919391906001600160a01b03906020908890600490829085165afa968715611ab657600097611ac1575b50906060816119ed937f00000000000000000000000000000000000000000000000000000000000000009588518096819482936349e2903160e11b845260048401611950565b039187165afa918215611ab65796611a51936a0c097ce7bc90715b34b9f160241b93611a3c938760809a9b600093611a93575b50611a2b9293611cb2565b9601516000196001891b0116611d0e565b04670de0b6b3a7640000948593015190611d0e565b048115611a8a57828102928184041490151715611a7457611a7191611c4e565b90565b634e487b7160e01b600052601160045260246000fd5b50505060001990565b611a2b9350611ab09060603d6060116105d7576105c98183611783565b92611a20565b85513d6000823e3d90fd5b919096506020823d602011611af0575b81611ade60209383611783565b810103126102a65790519560606119a7565b3d9150611ad1565b6001600160401b0381116117015760051b60200190565b6004356001600160a01b03811681036102a65790565b3d15611b5f573d906001600160401b0382116117015760405191611b53601f8201601f191660200184611783565b82523d6000602084013e565b606090565b805115611b715760200190565b634e487b7160e01b600052603260045260246000fd5b91908260409103126102a6576020825192015190565b9290949361010092611bb4856101208101986118b0565b600060a086015260c08501526001600160a01b0391821660e085015216910152565b9290949361010092611bed856101208101986118b0565b60a0850152600060c08501526001600160a01b0391821660e085015216910152565b919061014093600092611c2585610120946118b0565b60a085015260c084018390526001600160a01b031660e084015261010083018190528201520190565b8115611c58570490565b634e487b7160e01b600052601260045260246000fd5b6040516323b872dd60e01b60208201526001600160a01b039283166024820152929091166044830152606480830193909352918152611cb09161077382611732565b565b9190611cc5611ccb9260a0832085611e02565b92611f23565b939250905060018101809111611a7457620f4240830191828411611a7457620f423f91611cf791611d0e565b920191818311611a7457611a719261095991612259565b81810292918115918404141715611a7457565b6000546001600160a01b03163303611d3557565b60405163118cdaa760e01b8152336004820152602490fd5b60209081818403126102a6578051906001600160401b0382116102a657019180601f840112156102a6578251611d8281611af8565b93611d906040519586611783565b818552838086019260051b8201019283116102a6578301905b828210611db7575050505090565b81518152908301908301611da9565b602090602060408183019282815285518094520193019160005b828110611dee575050505090565b835185529381019392810192600101611de0565b611e14610d71611e3094600094612266565b906040518080958194637784c68560e01b835260048301611dc6565b03916001600160a01b03165afa908115611e7f57600091611e64575b506001600160801b0390611e5f90611b64565b511690565b611e7991503d806000833e6109888183611783565b38611e4c565b6040513d6000823e3d90fd5b600080611eb49260018060a01b03169360208151910182865af1611ead611b25565b9083612340565b8051908115159182611ee2575b5050611eca5750565b60249060405190635274afe760e01b82526004820152fd5b611ef5925060208091830101910161187d565b153880611ec1565b91908203918211611a7457565b6001600160801b039182169082160191908211611a7457565b60a0822060408051632e3071cd60e11b815260048101929092529390926001600160a01b039260c0908590602490829087165afa938415611ab657600094612196575b506080840180516001600160801b03949190611f8490861642611efd565b9182151580612188575b80612179575b611fbc575b505050508183511691606081806020870151169686015116940151169193929190565b60608401518851638c00bf6b60e01b8152911693611fde9060048301906118b0565b8587511660a482015260208701938685511660c483015286898901938185511660e48501528160608b01511661010485015251166101248301526020826101648160a08c01948b8651166101448301525afa801561216e578792600091612135575b5061209f612055612094968587511693611d0e565b91612099671bc16d674ec8000061206c8580611d0e565b0493670de0b6b3a764000098856729a2241af62c000061208d848d99611d0e565b0492612259565b612259565b90611d0e565b0492826120b76120ae866122d5565b82845116611f0a565b169052816120d06120c7856122d5565b828b5116611f0a565b16885251168015611f99576120e491611d0e565b046120f28185875116611efd565b8483511691620f42408301809311611a745760018201809211611a74576121246121299261095988956120ae94611d0e565b6122d5565b16905238808080611f99565b9250506020823d602011612166575b8161215160209383611783565b810103126102a657905186919061209f612040565b3d9150612144565b89513d6000823e3d90fd5b50806060850151161515611f94565b508588880151161515611f8e565b60c0949194813d60c011612251575b816121b260c09383611783565b810103126101925785519160c08301908382106001600160401b0383111761223d57506122319160a09188526121e7816118eb565b84526121f5602082016118eb565b60208501526122058882016118eb565b88850152612215606082016118eb565b6060850152612226608082016118eb565b6080850152016118eb565b60a08201529238611f66565b634e487b7160e01b81526041600452602490fd5b3d91506121a5565b91908201809211611a7457565b61229f6108bb9160405160208101918252600260408201526040815261228b81611768565b519020604051928391602083019586611895565b51902060018101809111611a745790565b604051906122bd8261174d565b60018252602036818401376122d182611b64565b5290565b6040516001600160801b0391906122eb8161174d565b60148152731b585e081d5a5b9d0c4c8e08195e18d95959195960621b602082015282821161231857501690565b60405162461bcd60e51b81526020600482015290819061233c90602483019061183d565b0390fd5b90612367575080511561235557805190602001fd5b604051630a12f52160e11b8152600490fd5b8151158061239a575b612378575090565b604051639996b31560e01b81526001600160a01b039091166004820152602490fd5b50803b1561237056fea264697066735822122041c1cfb5f5f33bc414d02f828400b3bb9df84726044e3f706cb7d6bc279a275b64736f6c63430008170033000000000000000000000000bbbbbbbbbb9cc5e90e3b3af64bdaf62c37eeffcb000000000000000000000000e592427a0aece92de3edee1f18e0157c05861564",
        "nonce": "0x7d",
        "chainId": "0x1"
      },
      "additionalContracts": [],
      "isFixedGasLimit": false
    },
    {
      "hash": "0x3999c142710d2f19f4d968139685f8af15ed52db817e2abaae5d1559056cc435",
      "transactionType": "CREATE",
      "contractName": "MockToken",
      "contractAddress": "0x0b18476ad2dad540e1ae9f7bc3d0a714b97da6f2",
      "function": null,
      "arguments": [
        "\"LoanToken\"",
        "\"LT\""
      ],
      "transaction": {
        "from": "0x73109baf60bab74b9e8273dfd4236d17c56cfc67",
        "gas": "0xb048c",
        "value": "0x0",
        "input": "0x60406080815234620003a45762000b5e803803806200001e81620003a9565b92833981018282820312620003a45781516001600160401b039290838111620003a457826200004f918301620003cf565b9060209283820151858111620003a4576200006b9201620003cf565b928151818111620002a4576003908154906001948583811c9316801562000399575b8784101462000383578190601f938481116200032d575b508790848311600114620002c657600092620002ba575b505060001982851b1c191690851b1782555b8551928311620002a45760049586548581811c9116801562000299575b87821014620002845782811162000239575b5085918411600114620001ce57938394918492600095620001c2575b50501b92600019911b1c19161782555b3315620001ab57600254683635c9adc5dea00000928382018092116200019657506000917fddf252ad1be2c89b69c2b068fc378daa952ba7f163c4a11628f55a4df523b3ef9160025533835282815284832084815401905584519384523393a35161071c9081620004428239f35b601190634e487b7160e01b6000525260246000fd5b506000602492519163ec442f0560e01b8352820152fd5b01519350388062000118565b9190601f198416928760005284876000209460005b898983831062000221575050501062000206575b50505050811b01825562000128565b01519060f884600019921b161c1916905538808080620001f7565b868601518955909701969485019488935001620001e3565b87600052866000208380870160051c8201928988106200027a575b0160051c019086905b8281106200026d575050620000fc565b600081550186906200025d565b9250819262000254565b602288634e487b7160e01b6000525260246000fd5b90607f1690620000ea565b634e487b7160e01b600052604160045260246000fd5b015190503880620000bb565b90879350601f1983169186600052896000209260005b8b828210620003165750508411620002fd575b505050811b018255620000cd565b015160001983871b60f8161c19169055388080620002ef565b8385015186558b97909501949384019301620002dc565b90915084600052876000208480850160051c8201928a861062000379575b918991869594930160051c01915b82811062000369575050620000a4565b6000815585945089910162000359565b925081926200034b565b634e487b7160e01b600052602260045260246000fd5b92607f16926200008d565b600080fd5b6040519190601f01601f191682016001600160401b03811183821017620002a457604052565b919080601f84011215620003a45782516001600160401b038111620002a45760209062000405601f8201601f19168301620003a9565b92818452828287010111620003a45760005b8181106200042d57508260009394955001015290565b85810183015184820184015282016200041756fe608060408181526004918236101561001657600080fd5b600092833560e01c91826306fdde03146104d157508163095ea7b31461042757816318160ddd1461040857816323b872dd14610311578163313ce567146102f557816340c10f191461024957816370a082311461021257816395d89b411461010e57508063a9059cbb146100de5763dd62ed3e1461009357600080fd5b346100da57806003193601126100da57806020926100af6105d7565b6100b76105f2565b6001600160a01b0391821683526001865283832091168252845220549051908152f35b5080fd5b50346100da57806003193601126100da576020906101076100fd6105d7565b6024359033610608565b5160018152f35b8383346100da57816003193601126100da5780519082845460018160011c9060018316928315610208575b60209384841081146101f5578388529081156101d957506001146101a1575b505050829003601f01601f191682019267ffffffffffffffff84118385101761018e575082918261018a92528261058e565b0390f35b634e487b7160e01b815260418552602490fd5b919250868652828620918387935b8385106101c55750505050830101858080610158565b8054888601830152930192849082016101af565b60ff1916878501525050151560051b8401019050858080610158565b634e487b7160e01b895260228a52602489fd5b91607f1691610139565b5050346100da5760203660031901126100da5760209181906001600160a01b0361023a6105d7565b16815280845220549051908152f35b919050346102f157806003193601126102f1576102646105d7565b6001600160a01b031691602435919083156102dc57600254908382018092116102c9575084927fddf252ad1be2c89b69c2b068fc378daa952ba7f163c4a11628f55a4df523b3ef9260209260025585855284835280852082815401905551908152a380f35b634e487b7160e01b865260119052602485fd5b84602492519163ec442f0560e01b8352820152fd5b8280fd5b5050346100da57816003193601126100da576020905160128152f35b905082346104055760603660031901126104055761032d6105d7565b6103356105f2565b916044359360018060a01b038316808352600160205286832033845260205286832054916000198303610371575b602088610107898989610608565b8683106103d95781156103c25733156103ab5750825260016020908152868320338452815291869020908590039055829061010787610363565b8751634a1406b160e11b8152908101849052602490fd5b875163e602df0560e01b8152908101849052602490fd5b8751637dc7a0d960e11b8152339181019182526020820193909352604081018790528291506060010390fd5b80fd5b5050346100da57816003193601126100da576020906002549051908152f35b9050346102f157816003193601126102f1576104416105d7565b6024359033156104ba576001600160a01b03169182156104a357508083602095338152600187528181208582528752205582519081527f8c5be1e5ebec7d5bd14f71427d1e84f3dd0314c0f7b2291e5b200ac8c7c3b925843392a35160018152f35b8351634a1406b160e11b8152908101859052602490fd5b835163e602df0560e01b8152808401869052602490fd5b849084346102f157826003193601126102f1578260035460018160011c9060018316928315610584575b60209384841081146101f5578388529081156101d9575060011461054b57505050829003601f01601f191682019267ffffffffffffffff84118385101761018e575082918261018a92528261058e565b91925060038652828620918387935b8385106105705750505050830101858080610158565b80548886018301529301928490820161055a565b91607f16916104fb565b6020808252825181830181905290939260005b8281106105c357505060409293506000838284010152601f8019910116010190565b8181018601518482016040015285016105a1565b600435906001600160a01b03821682036105ed57565b600080fd5b602435906001600160a01b03821682036105ed57565b916001600160a01b038084169283156106cd57169283156106b45760009083825281602052604082205490838210610682575091604082827fddf252ad1be2c89b69c2b068fc378daa952ba7f163c4a11628f55a4df523b3ef958760209652828652038282205586815220818154019055604051908152a3565b60405163391434e360e21b81526001600160a01b03919091166004820152602481019190915260448101839052606490fd5b60405163ec442f0560e01b815260006004820152602490fd5b604051634b637e8f60e11b815260006004820152602490fdfea2646970667358221220fb4b09f7652b6ed6b7f7c99ef828b4067b7e6c6e331e3587efdc639d67ac10a264736f6c634300081700330000000000000000000000000000000000000000000000000000000000000040000000000000000000000000000000000000000000000000000000000000008000000000000000000000000000000000000000000000000000000000000000094c6f616e546f6b656e000000000000000000000000000000000000000000000000000000000000000000000000000000000000000000000000000000000000024c54000000000000000000000000000000000000000000000000000000000000",
        "nonce": "0x7e",
        "chainId": "0x1"
      },
      "additionalContracts": [],
      "isFixedGasLimit": false
    },
    {
      "hash": "0x2d5e77651cc73b64a96a413a4c70de60c719df32a65acda55c7d05d1453de3c9",
      "transactionType": "CREATE",
      "contractName": "MockToken",
      "contractAddress": "0xc8f0f1f829e11a5c94b96fb9dbf89be6af560a49",
      "function": null,
      "arguments": [
        "\"CollatToken\"",
        "\"CT\""
      ],
      "transaction": {
        "from": "0x73109baf60bab74b9e8273dfd4236d17c56cfc67",
        "gas": "0xb04ab",
        "value": "0x0",
        "input": "0x60406080815234620003a45762000b5e803803806200001e81620003a9565b92833981018282820312620003a45781516001600160401b039290838111620003a457826200004f918301620003cf565b9060209283820151858111620003a4576200006b9201620003cf565b928151818111620002a4576003908154906001948583811c9316801562000399575b8784101462000383578190601f938481116200032d575b508790848311600114620002c657600092620002ba575b505060001982851b1c191690851b1782555b8551928311620002a45760049586548581811c9116801562000299575b87821014620002845782811162000239575b5085918411600114620001ce57938394918492600095620001c2575b50501b92600019911b1c19161782555b3315620001ab57600254683635c9adc5dea00000928382018092116200019657506000917fddf252ad1be2c89b69c2b068fc378daa952ba7f163c4a11628f55a4df523b3ef9160025533835282815284832084815401905584519384523393a35161071c9081620004428239f35b601190634e487b7160e01b6000525260246000fd5b506000602492519163ec442f0560e01b8352820152fd5b01519350388062000118565b9190601f198416928760005284876000209460005b898983831062000221575050501062000206575b50505050811b01825562000128565b01519060f884600019921b161c1916905538808080620001f7565b868601518955909701969485019488935001620001e3565b87600052866000208380870160051c8201928988106200027a575b0160051c019086905b8281106200026d575050620000fc565b600081550186906200025d565b9250819262000254565b602288634e487b7160e01b6000525260246000fd5b90607f1690620000ea565b634e487b7160e01b600052604160045260246000fd5b015190503880620000bb565b90879350601f1983169186600052896000209260005b8b828210620003165750508411620002fd575b505050811b018255620000cd565b015160001983871b60f8161c19169055388080620002ef565b8385015186558b97909501949384019301620002dc565b90915084600052876000208480850160051c8201928a861062000379575b918991869594930160051c01915b82811062000369575050620000a4565b6000815585945089910162000359565b925081926200034b565b634e487b7160e01b600052602260045260246000fd5b92607f16926200008d565b600080fd5b6040519190601f01601f191682016001600160401b03811183821017620002a457604052565b919080601f84011215620003a45782516001600160401b038111620002a45760209062000405601f8201601f19168301620003a9565b92818452828287010111620003a45760005b8181106200042d57508260009394955001015290565b85810183015184820184015282016200041756fe608060408181526004918236101561001657600080fd5b600092833560e01c91826306fdde03146104d157508163095ea7b31461042757816318160ddd1461040857816323b872dd14610311578163313ce567146102f557816340c10f191461024957816370a082311461021257816395d89b411461010e57508063a9059cbb146100de5763dd62ed3e1461009357600080fd5b346100da57806003193601126100da57806020926100af6105d7565b6100b76105f2565b6001600160a01b0391821683526001865283832091168252845220549051908152f35b5080fd5b50346100da57806003193601126100da576020906101076100fd6105d7565b6024359033610608565b5160018152f35b8383346100da57816003193601126100da5780519082845460018160011c9060018316928315610208575b60209384841081146101f5578388529081156101d957506001146101a1575b505050829003601f01601f191682019267ffffffffffffffff84118385101761018e575082918261018a92528261058e565b0390f35b634e487b7160e01b815260418552602490fd5b919250868652828620918387935b8385106101c55750505050830101858080610158565b8054888601830152930192849082016101af565b60ff1916878501525050151560051b8401019050858080610158565b634e487b7160e01b895260228a52602489fd5b91607f1691610139565b5050346100da5760203660031901126100da5760209181906001600160a01b0361023a6105d7565b16815280845220549051908152f35b919050346102f157806003193601126102f1576102646105d7565b6001600160a01b031691602435919083156102dc57600254908382018092116102c9575084927fddf252ad1be2c89b69c2b068fc378daa952ba7f163c4a11628f55a4df523b3ef9260209260025585855284835280852082815401905551908152a380f35b634e487b7160e01b865260119052602485fd5b84602492519163ec442f0560e01b8352820152fd5b8280fd5b5050346100da57816003193601126100da576020905160128152f35b905082346104055760603660031901126104055761032d6105d7565b6103356105f2565b916044359360018060a01b038316808352600160205286832033845260205286832054916000198303610371575b602088610107898989610608565b8683106103d95781156103c25733156103ab5750825260016020908152868320338452815291869020908590039055829061010787610363565b8751634a1406b160e11b8152908101849052602490fd5b875163e602df0560e01b8152908101849052602490fd5b8751637dc7a0d960e11b8152339181019182526020820193909352604081018790528291506060010390fd5b80fd5b5050346100da57816003193601126100da576020906002549051908152f35b9050346102f157816003193601126102f1576104416105d7565b6024359033156104ba576001600160a01b03169182156104a357508083602095338152600187528181208582528752205582519081527f8c5be1e5ebec7d5bd14f71427d1e84f3dd0314c0f7b2291e5b200ac8c7c3b925843392a35160018152f35b8351634a1406b160e11b8152908101859052602490fd5b835163e602df0560e01b8152808401869052602490fd5b849084346102f157826003193601126102f1578260035460018160011c9060018316928315610584575b60209384841081146101f5578388529081156101d9575060011461054b57505050829003601f01601f191682019267ffffffffffffffff84118385101761018e575082918261018a92528261058e565b91925060038652828620918387935b8385106105705750505050830101858080610158565b80548886018301529301928490820161055a565b91607f16916104fb565b6020808252825181830181905290939260005b8281106105c357505060409293506000838284010152601f8019910116010190565b8181018601518482016040015285016105a1565b600435906001600160a01b03821682036105ed57565b600080fd5b602435906001600160a01b03821682036105ed57565b916001600160a01b038084169283156106cd57169283156106b45760009083825281602052604082205490838210610682575091604082827fddf252ad1be2c89b69c2b068fc378daa952ba7f163c4a11628f55a4df523b3ef958760209652828652038282205586815220818154019055604051908152a3565b60405163391434e360e21b81526001600160a01b03919091166004820152602481019190915260448101839052606490fd5b60405163ec442f0560e01b815260006004820152602490fd5b604051634b637e8f60e11b815260006004820152602490fdfea2646970667358221220fb4b09f7652b6ed6b7f7c99ef828b4067b7e6c6e331e3587efdc639d67ac10a264736f6c6343000817003300000000000000000000000000000000000000000000000000000000000000400000000000000000000000000000000000000000000000000000000000000080000000000000000000000000000000000000000000000000000000000000000b436f6c6c6174546f6b656e00000000000000000000000000000000000000000000000000000000000000000000000000000000000000000000000000000000024354000000000000000000000000000000000000000000000000000000000000",
        "nonce": "0x7f",
        "chainId": "0x1"
      },
      "additionalContracts": [],
      "isFixedGasLimit": false
    },
    {
      "hash": "0x6c46cf77689d49266f2be2aaab9b0f94810f202b5bb3f66543d2521fb72bdb96",
      "transactionType": "CREATE",
      "contractName": "Swap",
      "contractAddress": "0x8445fa07f61c2f1bef798294eb1c82889a7d8482",
      "function": null,
      "arguments": [
        "0xE592427A0AEce92De3Edee1F18E0157C05861564",
        "0x0b18476aD2dAD540e1ae9F7bC3D0A714B97dA6F2",
        "0xC8F0F1F829e11a5C94B96FB9dbf89BE6AF560a49",
        "0x879BC988EefC40801dcD2ba5F659c1E7Ca926c5e"
      ],
      "transaction": {
        "from": "0x73109baf60bab74b9e8273dfd4236d17c56cfc67",
        "gas": "0x5b2bf",
        "value": "0x0",
        "input": "0x60a0346100d657601f61032938819003918201601f19168301916001600160401b038311848410176100db578084926080946040528339810103126100d657610047816100f1565b90610054602082016100f1565b61006c6060610065604085016100f1565b93016100f1565b906304e45aaf60e01b60805260018060a01b03928380928160018060a01b03199716876000541617600055168560015416176001551683600254161760025533836004541617600455169060035416176003556040516102239081610106823960805181608d0152f35b600080fd5b634e487b7160e01b600052604160045260246000fd5b51906001600160a01b03821682036100d65756fe60806040818152600436101561001457600080fd5b600091823560e01c90816306d3781714610184575080632681f7e41461015d5780634046ebae1461013557806365fd87d9146101115780638b23ccac146101115780638da5cb5b146100e957806394ee0827146100c15763feca4a1d1461007a57600080fd5b346100bd57816003193601126100bd57517f00000000000000000000000000000000000000000000000000000000000000006001600160e01b0319168152602090f35b5080fd5b50346100bd57816003193601126100bd5760025490516001600160a01b039091168152602090f35b50346100bd57816003193601126100bd5760045490516001600160a01b039091168152602090f35b50346100bd5760203660031901126100bd5760209061012e6101a9565b9051908152f35b50346100bd57816003193601126100bd5760035490516001600160a01b039091168152602090f35b50346100bd57816003193601126100bd57905490516001600160a01b039091168152602090f35b8390346100bd57816003193601126100bd576001546001600160a01b03168152602090f35b600354336001600160a01b0391821614801591906101de575b506101cc57600090565b604051631648fd0160e01b8152600490fd5b905060045416331415386101c256fea264697066735822122052e48ba40a909f840495943c0ade8cb6abd7d0c3137f07aa9a398c6b0d4ac73264736f6c63430008170033000000000000000000000000e592427a0aece92de3edee1f18e0157c058615640000000000000000000000000b18476ad2dad540e1ae9f7bc3d0a714b97da6f2000000000000000000000000c8f0f1f829e11a5c94b96fb9dbf89be6af560a49000000000000000000000000879bc988eefc40801dcd2ba5f659c1e7ca926c5e",
        "nonce": "0x80",
        "chainId": "0x1"
      },
      "additionalContracts": [],
      "isFixedGasLimit": false
    },
    {
      "hash": "0x70e74b3ca87256ab6693daf3015dbaa3d3a404953de1665fbb8e247312485b56",
      "transactionType": "CALL",
      "contractName": null,
      "contractAddress": "0xbbbbbbbbbb9cc5e90e3b3af64bdaf62c37eeffcb",
      "function": "setAuthorization(address,bool)",
      "arguments": [
        "0x879BC988EefC40801dcD2ba5F659c1E7Ca926c5e",
        "true"
      ],
      "transaction": {
        "from": "0x73109baf60bab74b9e8273dfd4236d17c56cfc67",
        "to": "0xbbbbbbbbbb9cc5e90e3b3af64bdaf62c37eeffcb",
        "gas": "0x10dee",
        "value": "0x0",
        "input": "0xeecea000000000000000000000000000879bc988eefc40801dcd2ba5f659c1e7ca926c5e0000000000000000000000000000000000000000000000000000000000000001",
        "nonce": "0x81",
        "chainId": "0x1"
      },
      "additionalContracts": [],
      "isFixedGasLimit": false
    },
    {
      "hash": "0x034ebe5d1001275cc815b1d255ca9c81f787346d75bc5271f8db303226fe983e",
      "transactionType": "CREATE",
      "contractName": "MockOracle",
      "contractAddress": "0x3be143e2f9bdc8239fd77851a0ac0a6e07946762",
      "function": null,
      "arguments": [
        "101000000000000000000"
      ],
      "transaction": {
        "from": "0x73109baf60bab74b9e8273dfd4236d17c56cfc67",
        "gas": "0x260d1",
        "value": "0x0",
        "input": "0x60803461005057601f61013238819003918201601f19168301916001600160401b0383118484101761005557808492602094604052833981010312610050575160005560405160c6908161006c8239f35b600080fd5b634e487b7160e01b600052604160045260246000fdfe6080806040526004361015601257600080fd5b600090813560e01c908163673a7e28146077578163859310b614605b575063a035b1fe14603e57600080fd5b346058578060031936011260585760209054604051908152f35b80fd5b90503460735781600319360112607357602091548152f35b5080fd5b823460585780600319360112605857805460011c815580f3fea264697066735822122046a4906cef5c6eef9c4710602113fcd15000a4879121968654f21c7005898c6f64736f6c6343000817003300000000000000000000000000000000000000000000000579a814e10a740000",
        "nonce": "0x82",
        "chainId": "0x1"
      },
      "additionalContracts": [],
      "isFixedGasLimit": false
    },
    {
      "hash": "0x8611ffeaf3f84bc5fd26b83307e410c6e0c06532d8eb1746b8c6da588f7d2473",
      "transactionType": "CREATE",
      "contractName": "MockOracle",
      "contractAddress": "0x4a3128f8479624cc34deab7881950da52c350ab7",
      "function": null,
      "arguments": [
        "331000000000000000000"
      ],
      "transaction": {
        "from": "0x73109baf60bab74b9e8273dfd4236d17c56cfc67",
        "gas": "0x260d1",
        "value": "0x0",
        "input": "0x60803461005057601f61013238819003918201601f19168301916001600160401b0383118484101761005557808492602094604052833981010312610050575160005560405160c6908161006c8239f35b600080fd5b634e487b7160e01b600052604160045260246000fdfe6080806040526004361015601257600080fd5b600090813560e01c908163673a7e28146077578163859310b614605b575063a035b1fe14603e57600080fd5b346058578060031936011260585760209054604051908152f35b80fd5b90503460735781600319360112607357602091548152f35b5080fd5b823460585780600319360112605857805460011c815580f3fea264697066735822122046a4906cef5c6eef9c4710602113fcd15000a4879121968654f21c7005898c6f64736f6c63430008170033000000000000000000000000000000000000000000000011f18c3a496e4c0000",
        "nonce": "0x83",
        "chainId": "0x1"
      },
      "additionalContracts": [],
      "isFixedGasLimit": false
    },
    {
      "hash": "0x5750ef8181b8a2d11a43e482fd1277de621f2918c9b8ef0ede7efea560594060",
      "transactionType": "CALL",
      "contractName": "MockToken",
      "contractAddress": "0xc8f0f1f829e11a5c94b96fb9dbf89be6af560a49",
      "function": "mint(address,uint256)",
      "arguments": [
        "0x73109Baf60baB74B9E8273DfD4236d17C56CFc67",
        "20000000000000000000000"
      ],
      "transaction": {
        "from": "0x73109baf60bab74b9e8273dfd4236d17c56cfc67",
        "to": "0xc8f0f1f829e11a5c94b96fb9dbf89be6af560a49",
        "gas": "0xb73a",
        "value": "0x0",
        "input": "0x40c10f1900000000000000000000000073109baf60bab74b9e8273dfd4236d17c56cfc6700000000000000000000000000000000000000000000043c33c1937564800000",
        "nonce": "0x84",
        "chainId": "0x1"
      },
      "additionalContracts": [],
      "isFixedGasLimit": false
    },
    {
      "hash": "0x8e1ab35bc80273b373e2f28daf2598c31bcec3b7ac4a7fd822c39b821f7e9856",
      "transactionType": "CALL",
      "contractName": "MockToken",
      "contractAddress": "0xc8f0f1f829e11a5c94b96fb9dbf89be6af560a49",
      "function": "mint(address,uint256)",
      "arguments": [
        "0x73109Baf60baB74B9E8273DfD4236d17C56CFc67",
        "20000000000000000000000"
      ],
      "transaction": {
        "from": "0x73109baf60bab74b9e8273dfd4236d17c56cfc67",
        "to": "0xc8f0f1f829e11a5c94b96fb9dbf89be6af560a49",
        "gas": "0xb73a",
        "value": "0x0",
        "input": "0x40c10f1900000000000000000000000073109baf60bab74b9e8273dfd4236d17c56cfc6700000000000000000000000000000000000000000000043c33c1937564800000",
        "nonce": "0x85",
        "chainId": "0x1"
      },
      "additionalContracts": [],
      "isFixedGasLimit": false
    },
    {
      "hash": "0x168ffa766c7630f7770bf3e6fdbea870ee521e53f967f40df067b08e94c44a07",
      "transactionType": "CALL",
      "contractName": "MockToken",
      "contractAddress": "0x0b18476ad2dad540e1ae9f7bc3d0a714b97da6f2",
      "function": "mint(address,uint256)",
      "arguments": [
        "0x73109Baf60baB74B9E8273DfD4236d17C56CFc67",
        "20000000000000000000000"
      ],
      "transaction": {
        "from": "0x73109baf60bab74b9e8273dfd4236d17c56cfc67",
        "to": "0x0b18476ad2dad540e1ae9f7bc3d0a714b97da6f2",
        "gas": "0xb73a",
        "value": "0x0",
        "input": "0x40c10f1900000000000000000000000073109baf60bab74b9e8273dfd4236d17c56cfc6700000000000000000000000000000000000000000000043c33c1937564800000",
        "nonce": "0x86",
        "chainId": "0x1"
      },
      "additionalContracts": [],
      "isFixedGasLimit": false
    },
    {
      "hash": "0x09be876e07b1b3b8b99014f27ad6c5c990d9a0533a3381c74fb9b6d91f8eadd4",
      "transactionType": "CALL",
      "contractName": null,
      "contractAddress": "0xbbbbbbbbbb9cc5e90e3b3af64bdaf62c37eeffcb",
      "function": "createMarket((address,address,address,address,uint256))",
      "arguments": [
        "(0x0b18476aD2dAD540e1ae9F7bC3D0A714B97dA6F2, 0xC8F0F1F829e11a5C94B96FB9dbf89BE6AF560a49, 0x3BE143e2F9bdC8239fd77851a0ac0a6e07946762, 0x0000000000000000000000000000000000000000, 945000000000000000)"
      ],
      "transaction": {
        "from": "0x73109baf60bab74b9e8273dfd4236d17c56cfc67",
        "to": "0xbbbbbbbbbb9cc5e90e3b3af64bdaf62c37eeffcb",
        "gas": "0x33770",
        "value": "0x0",
        "input": "0x8c1358a20000000000000000000000000b18476ad2dad540e1ae9f7bc3d0a714b97da6f2000000000000000000000000c8f0f1f829e11a5c94b96fb9dbf89be6af560a490000000000000000000000003be143e2f9bdc8239fd77851a0ac0a6e0794676200000000000000000000000000000000000000000000000000000000000000000000000000000000000000000000000000000000000000000d1d507e40be8000",
        "nonce": "0x87",
        "chainId": "0x1"
      },
      "additionalContracts": [],
      "isFixedGasLimit": false
    },
    {
      "hash": "0x4cd12ebd9a636244a79f7743527ad7f3b2a4985dee1e162c11e8951b3a0d9b4c",
      "transactionType": "CALL",
      "contractName": null,
      "contractAddress": "0xbbbbbbbbbb9cc5e90e3b3af64bdaf62c37eeffcb",
      "function": "accrueInterest((address,address,address,address,uint256))",
      "arguments": [
        "(0x0b18476aD2dAD540e1ae9F7bC3D0A714B97dA6F2, 0xC8F0F1F829e11a5C94B96FB9dbf89BE6AF560a49, 0x3BE143e2F9bdC8239fd77851a0ac0a6e07946762, 0x0000000000000000000000000000000000000000, 945000000000000000)"
      ],
      "transaction": {
        "from": "0x73109baf60bab74b9e8273dfd4236d17c56cfc67",
        "to": "0xbbbbbbbbbb9cc5e90e3b3af64bdaf62c37eeffcb",
        "gas": "0x8b26",
        "value": "0x0",
        "input": "0x151c1ade0000000000000000000000000b18476ad2dad540e1ae9f7bc3d0a714b97da6f2000000000000000000000000c8f0f1f829e11a5c94b96fb9dbf89be6af560a490000000000000000000000003be143e2f9bdc8239fd77851a0ac0a6e0794676200000000000000000000000000000000000000000000000000000000000000000000000000000000000000000000000000000000000000000d1d507e40be8000",
        "nonce": "0x88",
        "chainId": "0x1"
      },
      "additionalContracts": [],
      "isFixedGasLimit": false
    },
    {
      "hash": "0x012950a4c9d6934016742b7fd7d58dfc0e35578a224e291a5e9d820ea099cc93",
      "transactionType": "CALL",
      "contractName": "MockToken",
      "contractAddress": "0xc8f0f1f829e11a5c94b96fb9dbf89be6af560a49",
      "function": "approve(address,uint256)",
      "arguments": [
        "0x879BC988EefC40801dcD2ba5F659c1E7Ca926c5e",
        "115792089237316195423570985008687907853269984665640564039457584007913129639935"
      ],
      "transaction": {
        "from": "0x73109baf60bab74b9e8273dfd4236d17c56cfc67",
        "to": "0xc8f0f1f829e11a5c94b96fb9dbf89be6af560a49",
        "gas": "0xf9c5",
        "value": "0x0",
        "input": "0x095ea7b3000000000000000000000000879bc988eefc40801dcd2ba5f659c1e7ca926c5effffffffffffffffffffffffffffffffffffffffffffffffffffffffffffffff",
        "nonce": "0x89",
        "chainId": "0x1"
      },
      "additionalContracts": [],
      "isFixedGasLimit": false
    },
    {
      "hash": "0x66c53d6f30c3d88cd40109419f36c7d5d5ec1294e96c8afd26b92243fa01a0d1",
      "transactionType": "CALL",
      "contractName": "Liquidator",
      "contractAddress": "0x879bc988eefc40801dcd2ba5f659c1e7ca926c5e",
      "function": "supplyCollateral((address,address,address,address,uint256),uint256)",
      "arguments": [
        "(0x0b18476aD2dAD540e1ae9F7bC3D0A714B97dA6F2, 0xC8F0F1F829e11a5C94B96FB9dbf89BE6AF560a49, 0x3BE143e2F9bdC8239fd77851a0ac0a6e07946762, 0x0000000000000000000000000000000000000000, 945000000000000000)",
        "2000000000000000000000"
      ],
      "transaction": {
        "from": "0x73109baf60bab74b9e8273dfd4236d17c56cfc67",
        "to": "0x879bc988eefc40801dcd2ba5f659c1e7ca926c5e",
        "gas": "0x2b786",
        "value": "0x0",
        "input": "0x009f75010000000000000000000000000b18476ad2dad540e1ae9f7bc3d0a714b97da6f2000000000000000000000000c8f0f1f829e11a5c94b96fb9dbf89be6af560a490000000000000000000000003be143e2f9bdc8239fd77851a0ac0a6e0794676200000000000000000000000000000000000000000000000000000000000000000000000000000000000000000000000000000000000000000d1d507e40be800000000000000000000000000000000000000000000000006c6b935b8bbd400000",
        "nonce": "0x8a",
        "chainId": "0x1"
      },
      "additionalContracts": [],
      "isFixedGasLimit": false
    },
    {
      "hash": "0x613539f858a0b91bf7e34fc3226f1386d026fbaba472a61c861125ed595f1b8e",
      "transactionType": "CALL",
      "contractName": "MockToken",
      "contractAddress": "0x0b18476ad2dad540e1ae9f7bc3d0a714b97da6f2",
      "function": "approve(address,uint256)",
      "arguments": [
        "0x879BC988EefC40801dcD2ba5F659c1E7Ca926c5e",
        "115792089237316195423570985008687907853269984665640564039457584007913129639935"
      ],
      "transaction": {
        "from": "0x73109baf60bab74b9e8273dfd4236d17c56cfc67",
        "to": "0x0b18476ad2dad540e1ae9f7bc3d0a714b97da6f2",
        "gas": "0xf9c5",
        "value": "0x0",
        "input": "0x095ea7b3000000000000000000000000879bc988eefc40801dcd2ba5f659c1e7ca926c5effffffffffffffffffffffffffffffffffffffffffffffffffffffffffffffff",
        "nonce": "0x8b",
        "chainId": "0x1"
      },
      "additionalContracts": [],
      "isFixedGasLimit": false
    },
    {
      "hash": "0x33262f8518fec82e2cb750757766680b8a851fd27b238feca94114fbdf01d8b7",
      "transactionType": "CALL",
      "contractName": "Liquidator",
      "contractAddress": "0x879bc988eefc40801dcd2ba5f659c1e7ca926c5e",
      "function": "supply((address,address,address,address,uint256),uint256)",
      "arguments": [
        "(0x0b18476aD2dAD540e1ae9F7bC3D0A714B97dA6F2, 0xC8F0F1F829e11a5C94B96FB9dbf89BE6AF560a49, 0x3BE143e2F9bdC8239fd77851a0ac0a6e07946762, 0x0000000000000000000000000000000000000000, 945000000000000000)",
        "2000000000000000000000"
      ],
      "transaction": {
        "from": "0x73109baf60bab74b9e8273dfd4236d17c56cfc67",
        "to": "0x879bc988eefc40801dcd2ba5f659c1e7ca926c5e",
        "gas": "0x3489f",
        "value": "0x0",
        "input": "0xba570dbf0000000000000000000000000b18476ad2dad540e1ae9f7bc3d0a714b97da6f2000000000000000000000000c8f0f1f829e11a5c94b96fb9dbf89be6af560a490000000000000000000000003be143e2f9bdc8239fd77851a0ac0a6e0794676200000000000000000000000000000000000000000000000000000000000000000000000000000000000000000000000000000000000000000d1d507e40be800000000000000000000000000000000000000000000000006c6b935b8bbd400000",
        "nonce": "0x8c",
        "chainId": "0x1"
      },
      "additionalContracts": [],
      "isFixedGasLimit": false
    },
    {
      "hash": "0xbea0ac984ee1608335300eadfeef8e2e4c5c350a3d45cd20346f1465dfab68d1",
      "transactionType": "CALL",
      "contractName": "MockToken",
      "contractAddress": "0x0b18476ad2dad540e1ae9f7bc3d0a714b97da6f2",
      "function": "mint(address,uint256)",
      "arguments": [
        "0x879BC988EefC40801dcD2ba5F659c1E7Ca926c5e",
        "200000000000000000000000"
      ],
      "transaction": {
        "from": "0x73109baf60bab74b9e8273dfd4236d17c56cfc67",
        "to": "0x0b18476ad2dad540e1ae9f7bc3d0a714b97da6f2",
        "gas": "0x1136d",
        "value": "0x0",
        "input": "0x40c10f19000000000000000000000000879bc988eefc40801dcd2ba5f659c1e7ca926c5e000000000000000000000000000000000000000000002a5a058fc295ed000000",
        "nonce": "0x8d",
        "chainId": "0x1"
      },
      "additionalContracts": [],
      "isFixedGasLimit": false
    },
    {
      "hash": "0xe8a63f82441811888d36daed8d91d5b63913a5b427b306cd28a3432e368d3496",
      "transactionType": "CALL",
      "contractName": "MockToken",
      "contractAddress": "0xc8f0f1f829e11a5c94b96fb9dbf89be6af560a49",
      "function": "approve(address,uint256)",
      "arguments": [
        "0x879BC988EefC40801dcD2ba5F659c1E7Ca926c5e",
        "115792089237316195423570985008687907853269984665640564039457584007913129639935"
      ],
      "transaction": {
        "from": "0x73109baf60bab74b9e8273dfd4236d17c56cfc67",
        "to": "0xc8f0f1f829e11a5c94b96fb9dbf89be6af560a49",
        "gas": "0x96c7",
        "value": "0x0",
        "input": "0x095ea7b3000000000000000000000000879bc988eefc40801dcd2ba5f659c1e7ca926c5effffffffffffffffffffffffffffffffffffffffffffffffffffffffffffffff",
        "nonce": "0x8e",
        "chainId": "0x1"
      },
      "additionalContracts": [],
      "isFixedGasLimit": false
    },
    {
      "hash": "0xf1cc0aef18d7435a42fb264e474d49c1c49afec9fd103259e1a3acb0d4e6c5b3",
      "transactionType": "CALL",
      "contractName": "Liquidator",
      "contractAddress": "0x879bc988eefc40801dcd2ba5f659c1e7ca926c5e",
      "function": "supplyCollateral((address,address,address,address,uint256),uint256)",
      "arguments": [
        "(0x0b18476aD2dAD540e1ae9F7bC3D0A714B97dA6F2, 0xC8F0F1F829e11a5C94B96FB9dbf89BE6AF560a49, 0x3BE143e2F9bdC8239fd77851a0ac0a6e07946762, 0x0000000000000000000000000000000000000000, 945000000000000000)",
        "10000000000000000000"
      ],
      "transaction": {
        "from": "0x73109baf60bab74b9e8273dfd4236d17c56cfc67",
        "to": "0x879bc988eefc40801dcd2ba5f659c1e7ca926c5e",
        "gas": "0x179d5",
        "value": "0x0",
        "input": "0x009f75010000000000000000000000000b18476ad2dad540e1ae9f7bc3d0a714b97da6f2000000000000000000000000c8f0f1f829e11a5c94b96fb9dbf89be6af560a490000000000000000000000003be143e2f9bdc8239fd77851a0ac0a6e0794676200000000000000000000000000000000000000000000000000000000000000000000000000000000000000000000000000000000000000000d1d507e40be80000000000000000000000000000000000000000000000000008ac7230489e80000",
        "nonce": "0x8f",
        "chainId": "0x1"
      },
      "additionalContracts": [],
      "isFixedGasLimit": false
    },
    {
      "hash": "0x62f3c50c471118e2727704b9ff81e35cc06c8bba54c387644c8f20898243ffac",
      "transactionType": "CALL",
      "contractName": "Liquidator",
      "contractAddress": "0x879bc988eefc40801dcd2ba5f659c1e7ca926c5e",
      "function": "maxBorrow((address,address,address,address,uint256),bytes32)",
      "arguments": [
        "(0x0b18476aD2dAD540e1ae9F7bC3D0A714B97dA6F2, 0xC8F0F1F829e11a5C94B96FB9dbf89BE6AF560a49, 0x3BE143e2F9bdC8239fd77851a0ac0a6e07946762, 0x0000000000000000000000000000000000000000, 945000000000000000)",
        "0xb54a9326485fc24ef80c6cf77dc715b9a70855f5571e4f03474854a39c2814ee"
      ],
      "transaction": {
        "from": "0x73109baf60bab74b9e8273dfd4236d17c56cfc67",
        "to": "0x879bc988eefc40801dcd2ba5f659c1e7ca926c5e",
        "gas": "0xd696",
        "value": "0x0",
        "input": "0x559cb3a90000000000000000000000000b18476ad2dad540e1ae9f7bc3d0a714b97da6f2000000000000000000000000c8f0f1f829e11a5c94b96fb9dbf89be6af560a490000000000000000000000003be143e2f9bdc8239fd77851a0ac0a6e0794676200000000000000000000000000000000000000000000000000000000000000000000000000000000000000000000000000000000000000000d1d507e40be8000b54a9326485fc24ef80c6cf77dc715b9a70855f5571e4f03474854a39c2814ee",
        "nonce": "0x90",
        "chainId": "0x1"
      },
      "additionalContracts": [],
      "isFixedGasLimit": false
    },
    {
      "hash": "0x36cbc110358ca25c7c21a8d172ef5e88b17090e2fe60f95a67145d78cbb99833",
      "transactionType": "CALL",
      "contractName": "Liquidator",
      "contractAddress": "0x879bc988eefc40801dcd2ba5f659c1e7ca926c5e",
      "function": "borrow((address,address,address,address,uint256),uint256)",
      "arguments": [
        "(0x0b18476aD2dAD540e1ae9F7bC3D0A714B97dA6F2, 0xC8F0F1F829e11a5C94B96FB9dbf89BE6AF560a49, 0x3BE143e2F9bdC8239fd77851a0ac0a6e07946762, 0x0000000000000000000000000000000000000000, 945000000000000000)",
        "191844"
      ],
      "transaction": {
        "from": "0x73109baf60bab74b9e8273dfd4236d17c56cfc67",
        "to": "0x879bc988eefc40801dcd2ba5f659c1e7ca926c5e",
        "gas": "0x20b22",
        "value": "0x0",
        "input": "0xe03175170000000000000000000000000b18476ad2dad540e1ae9f7bc3d0a714b97da6f2000000000000000000000000c8f0f1f829e11a5c94b96fb9dbf89be6af560a490000000000000000000000003be143e2f9bdc8239fd77851a0ac0a6e0794676200000000000000000000000000000000000000000000000000000000000000000000000000000000000000000000000000000000000000000d1d507e40be8000000000000000000000000000000000000000000000000000000000000002ed64",
        "nonce": "0x91",
        "chainId": "0x1"
      },
      "additionalContracts": [],
      "isFixedGasLimit": false
    },
    {
      "hash": "0x58796b8ab5f3cab69b560273800601ff9b9240b43b8d1757ac7bb67ab4879cf4",
      "transactionType": "CALL",
      "contractName": "MockOracle",
      "contractAddress": "0x3be143e2f9bdc8239fd77851a0ac0a6e07946762",
      "function": "updatePrice()",
      "arguments": [],
      "transaction": {
        "from": "0x73109baf60bab74b9e8273dfd4236d17c56cfc67",
        "to": "0x3be143e2f9bdc8239fd77851a0ac0a6e07946762",
        "gas": "0x95c6",
        "value": "0x0",
        "input": "0x673a7e28",
        "nonce": "0x92",
        "chainId": "0x1"
      },
      "additionalContracts": [],
      "isFixedGasLimit": false
    }
  ],
  "receipts": [
    {
      "status": "0x1",
      "cumulativeGasUsed": "0x1f73c1",
      "logs": [
        {
          "address": "0x879bc988eefc40801dcd2ba5f659c1e7ca926c5e",
          "topics": [
            "0x8be0079c531659141344cd1fd0a4f28419497f9722a3daafe3b4186f6b6457e0",
            "0x0000000000000000000000000000000000000000000000000000000000000000",
            "0x00000000000000000000000073109baf60bab74b9e8273dfd4236d17c56cfc67"
          ],
          "data": "0x",
          "blockHash": "0x037d177920a7f22e58ad0154b19064d3571ac20f303ed4e1bc4226e1f6f71ce2",
          "blockNumber": "0x1329ac8",
          "blockTimestamp": "0x666d6b00",
          "transactionHash": "0xbf2dda8ce9c7a83110ce11b39f8e5563285fa5eb8913627ed54101d921a4a90a",
          "transactionIndex": "0x0",
          "logIndex": "0x0",
          "removed": false
        }
      ],
      "logsBloom": "0x00000000000000000000000000000000000000000000000000800000000200000000000000000000000000000000000000000000000200000000000000000000000000000000000000000000000000000001000000000000000000000000000004000000020000000000000000000800000000000040000000000000000000400000000000000000000000000000000000000000000000000000000000000000010000000000000000000000000000000100000000000000000000000000000000000000000000000000000000000000000000000000000000000000000020000000000000000000000000000000000000000000000000000000000000000000",
      "type": "0x2",
      "transactionHash": "0xbf2dda8ce9c7a83110ce11b39f8e5563285fa5eb8913627ed54101d921a4a90a",
      "transactionIndex": "0x0",
      "blockHash": "0x037d177920a7f22e58ad0154b19064d3571ac20f303ed4e1bc4226e1f6f71ce2",
      "blockNumber": "0x1329ac8",
      "gasUsed": "0x1f73c1",
      "effectiveGasPrice": "0x3b9dbab2",
      "blobGasPrice": "0x1",
      "from": "0x73109baf60bab74b9e8273dfd4236d17c56cfc67",
      "to": null,
      "contractAddress": "0x879bc988eefc40801dcd2ba5f659c1e7ca926c5e",
      "root": "0x0000000000000000000000000000000000000000000000000000000000000000"
    },
    {
      "status": "0x1",
      "cumulativeGasUsed": "0x87a69",
      "logs": [
        {
          "address": "0x0b18476ad2dad540e1ae9f7bc3d0a714b97da6f2",
          "topics": [
            "0xddf252ad1be2c89b69c2b068fc378daa952ba7f163c4a11628f55a4df523b3ef",
            "0x0000000000000000000000000000000000000000000000000000000000000000",
            "0x00000000000000000000000073109baf60bab74b9e8273dfd4236d17c56cfc67"
          ],
          "data": "0x00000000000000000000000000000000000000000000003635c9adc5dea00000",
          "blockHash": "0x4709214726b27b22fe13f402b6d0d1c6ac8f3648a23492ec09b20eb7716e847c",
          "blockNumber": "0x1329ac9",
          "blockTimestamp": "0x666d6b01",
          "transactionHash": "0x3999c142710d2f19f4d968139685f8af15ed52db817e2abaae5d1559056cc435",
          "transactionIndex": "0x0",
          "logIndex": "0x0",
          "removed": false
        }
      ],
      "logsBloom": "0x00000000000000000000000000000000000000000000000000000000000200000000000000000000000000000000000000000000000000000000000000000000000000000000000000000008000000000000000000000200000000000000000004000000020000000000000000000800000000000000000000000010000000000000000000000000000000000000000000000000000000000000000000000000000000000000000000000000000000000100000000000000000000000000000000000002000000000000000000000000000000000000000000000000008020000000000000000000000000000000000000400000000000000000000000000000",
      "type": "0x2",
      "transactionHash": "0x3999c142710d2f19f4d968139685f8af15ed52db817e2abaae5d1559056cc435",
      "transactionIndex": "0x0",
      "blockHash": "0x4709214726b27b22fe13f402b6d0d1c6ac8f3648a23492ec09b20eb7716e847c",
      "blockNumber": "0x1329ac9",
      "gasUsed": "0x87a69",
      "effectiveGasPrice": "0x3b9d698a",
      "blobGasPrice": "0x1",
      "from": "0x73109baf60bab74b9e8273dfd4236d17c56cfc67",
      "to": null,
      "contractAddress": "0x0b18476ad2dad540e1ae9f7bc3d0a714b97da6f2",
      "root": "0x0000000000000000000000000000000000000000000000000000000000000000"
    },
    {
      "status": "0x1",
      "cumulativeGasUsed": "0x87a81",
      "logs": [
        {
          "address": "0xc8f0f1f829e11a5c94b96fb9dbf89be6af560a49",
          "topics": [
            "0xddf252ad1be2c89b69c2b068fc378daa952ba7f163c4a11628f55a4df523b3ef",
            "0x0000000000000000000000000000000000000000000000000000000000000000",
            "0x00000000000000000000000073109baf60bab74b9e8273dfd4236d17c56cfc67"
          ],
          "data": "0x00000000000000000000000000000000000000000000003635c9adc5dea00000",
          "blockHash": "0x8e1cac2707f14070ec2a802807d1540c050a3f958fbe1a6ab7537f2b0f15f392",
          "blockNumber": "0x1329aca",
          "blockTimestamp": "0x666d6b02",
          "transactionHash": "0x2d5e77651cc73b64a96a413a4c70de60c719df32a65acda55c7d05d1453de3c9",
          "transactionIndex": "0x0",
          "logIndex": "0x0",
          "removed": false
        }
      ],
      "logsBloom": "0x00000000000000000000000000000000000000000000000000000000000200000000000000000000000000000000000000000000000000000000000000000000000000000000000000000008000000000000000000000000000000000000000004000000020000000000000000000800000000000000000000000010000800000000000000000000000000001000000000000000000000000000000000000000000000000000000000000000000000000100000000000000000000000000000000000002000000000000000000000000000000000000000000000000000020000000000000002000000000000000000000000000000000000000000000000000",
      "type": "0x2",
      "transactionHash": "0x2d5e77651cc73b64a96a413a4c70de60c719df32a65acda55c7d05d1453de3c9",
      "transactionIndex": "0x0",
      "blockHash": "0x8e1cac2707f14070ec2a802807d1540c050a3f958fbe1a6ab7537f2b0f15f392",
      "blockNumber": "0x1329aca",
      "gasUsed": "0x87a81",
      "effectiveGasPrice": "0x3b9d18b5",
      "blobGasPrice": "0x1",
      "from": "0x73109baf60bab74b9e8273dfd4236d17c56cfc67",
      "to": null,
      "contractAddress": "0xc8f0f1f829e11a5c94b96fb9dbf89be6af560a49",
      "root": "0x0000000000000000000000000000000000000000000000000000000000000000"
    },
    {
      "status": "0x1",
      "cumulativeGasUsed": "0x46259",
      "logs": [],
      "logsBloom": "0x00000000000000000000000000000000000000000000000000000000000000000000000000000000000000000000000000000000000000000000000000000000000000000000000000000000000000000000000000000000000000000000000000000000000000000000000000000000000000000000000000000000000000000000000000000000000000000000000000000000000000000000000000000000000000000000000000000000000000000000000000000000000000000000000000000000000000000000000000000000000000000000000000000000000000000000000000000000000000000000000000000000000000000000000000000000",
      "type": "0x2",
      "transactionHash": "0x6c46cf77689d49266f2be2aaab9b0f94810f202b5bb3f66543d2521fb72bdb96",
      "transactionIndex": "0x0",
      "blockHash": "0x4d8a54812822e02fd4778124fc9232d446874711e672b37ba04debb8964b171c",
      "blockNumber": "0x1329acb",
      "gasUsed": "0x46259",
      "effectiveGasPrice": "0x3b9cd19b",
      "blobGasPrice": "0x1",
      "from": "0x73109baf60bab74b9e8273dfd4236d17c56cfc67",
      "to": null,
      "contractAddress": "0x8445fa07f61c2f1bef798294eb1c82889a7d8482",
      "root": "0x0000000000000000000000000000000000000000000000000000000000000000"
    },
    {
      "status": "0x1",
      "cumulativeGasUsed": "0x51aeb",
      "logs": [
        {
          "address": "0xbbbbbbbbbb9cc5e90e3b3af64bdaf62c37eeffcb",
          "topics": [
            "0xd5e969f01efe921d3f766bdebad25f0a05e3f237311f56482bf132d0326309c0",
            "0x00000000000000000000000073109baf60bab74b9e8273dfd4236d17c56cfc67",
            "0x00000000000000000000000073109baf60bab74b9e8273dfd4236d17c56cfc67",
            "0x000000000000000000000000879bc988eefc40801dcd2ba5f659c1e7ca926c5e"
          ],
          "data": "0x0000000000000000000000000000000000000000000000000000000000000001",
          "blockHash": "0x4d8a54812822e02fd4778124fc9232d446874711e672b37ba04debb8964b171c",
          "blockNumber": "0x1329acb",
          "blockTimestamp": "0x666d6b03",
          "transactionHash": "0x70e74b3ca87256ab6693daf3015dbaa3d3a404953de1665fbb8e247312485b56",
          "transactionIndex": "0x1",
          "logIndex": "0x0",
          "removed": false
        }
      ],
      "logsBloom": "0x00000000000000000000002000000000000000000000000000000000000200000000000000000000000000000000000000000000000000000000000000000000000000000010000000000000000000000000000800000000000000000020000004000000000000000000200000000000000000000000000000000000000000000000000000000008000000000000000000000000000000000000000004000000000000000000000000000000000000020100000000000000000000000000000020000000000000000000000000000000000000000000000000000000000000000000000000000000000000000000000000000000000000000000000000000000",
      "type": "0x2",
      "transactionHash": "0x70e74b3ca87256ab6693daf3015dbaa3d3a404953de1665fbb8e247312485b56",
      "transactionIndex": "0x1",
      "blockHash": "0x4d8a54812822e02fd4778124fc9232d446874711e672b37ba04debb8964b171c",
      "blockNumber": "0x1329acb",
      "gasUsed": "0xb892",
      "effectiveGasPrice": "0x3b9cd19b",
      "blobGasPrice": "0x1",
      "from": "0x73109baf60bab74b9e8273dfd4236d17c56cfc67",
      "to": "0xbbbbbbbbbb9cc5e90e3b3af64bdaf62c37eeffcb",
      "contractAddress": null,
      "root": "0x0000000000000000000000000000000000000000000000000000000000000000"
    },
    {
      "status": "0x1",
      "cumulativeGasUsed": "0x6ef53",
      "logs": [],
      "logsBloom": "0x00000000000000000000000000000000000000000000000000000000000000000000000000000000000000000000000000000000000000000000000000000000000000000000000000000000000000000000000000000000000000000000000000000000000000000000000000000000000000000000000000000000000000000000000000000000000000000000000000000000000000000000000000000000000000000000000000000000000000000000000000000000000000000000000000000000000000000000000000000000000000000000000000000000000000000000000000000000000000000000000000000000000000000000000000000000",
      "type": "0x2",
      "transactionHash": "0x034ebe5d1001275cc815b1d255ca9c81f787346d75bc5271f8db303226fe983e",
      "transactionIndex": "0x2",
      "blockHash": "0x4d8a54812822e02fd4778124fc9232d446874711e672b37ba04debb8964b171c",
      "blockNumber": "0x1329acb",
      "gasUsed": "0x1d468",
      "effectiveGasPrice": "0x3b9cd19b",
      "blobGasPrice": "0x1",
      "from": "0x73109baf60bab74b9e8273dfd4236d17c56cfc67",
      "to": null,
      "contractAddress": "0x3be143e2f9bdc8239fd77851a0ac0a6e07946762",
      "root": "0x0000000000000000000000000000000000000000000000000000000000000000"
    },
    {
      "status": "0x1",
      "cumulativeGasUsed": "0x8c3bb",
      "logs": [],
      "logsBloom": "0x00000000000000000000000000000000000000000000000000000000000000000000000000000000000000000000000000000000000000000000000000000000000000000000000000000000000000000000000000000000000000000000000000000000000000000000000000000000000000000000000000000000000000000000000000000000000000000000000000000000000000000000000000000000000000000000000000000000000000000000000000000000000000000000000000000000000000000000000000000000000000000000000000000000000000000000000000000000000000000000000000000000000000000000000000000000",
      "type": "0x2",
      "transactionHash": "0x8611ffeaf3f84bc5fd26b83307e410c6e0c06532d8eb1746b8c6da588f7d2473",
      "transactionIndex": "0x3",
      "blockHash": "0x4d8a54812822e02fd4778124fc9232d446874711e672b37ba04debb8964b171c",
      "blockNumber": "0x1329acb",
      "gasUsed": "0x1d468",
      "effectiveGasPrice": "0x3b9cd19b",
      "blobGasPrice": "0x1",
      "from": "0x73109baf60bab74b9e8273dfd4236d17c56cfc67",
      "to": null,
      "contractAddress": "0x4a3128f8479624cc34deab7881950da52c350ab7",
      "root": "0x0000000000000000000000000000000000000000000000000000000000000000"
    },
    {
      "status": "0x1",
      "cumulativeGasUsed": "0x94863",
      "logs": [
        {
          "address": "0xc8f0f1f829e11a5c94b96fb9dbf89be6af560a49",
          "topics": [
            "0xddf252ad1be2c89b69c2b068fc378daa952ba7f163c4a11628f55a4df523b3ef",
            "0x0000000000000000000000000000000000000000000000000000000000000000",
            "0x00000000000000000000000073109baf60bab74b9e8273dfd4236d17c56cfc67"
          ],
          "data": "0x00000000000000000000000000000000000000000000043c33c1937564800000",
          "blockHash": "0x4d8a54812822e02fd4778124fc9232d446874711e672b37ba04debb8964b171c",
          "blockNumber": "0x1329acb",
          "blockTimestamp": "0x666d6b03",
          "transactionHash": "0x5750ef8181b8a2d11a43e482fd1277de621f2918c9b8ef0ede7efea560594060",
          "transactionIndex": "0x4",
          "logIndex": "0x1",
          "removed": false
        }
      ],
      "logsBloom": "0x00000000000000000000000000000000000000000000000000000000000200000000000000000000000000000000000000000000000000000000000000000000000000000000000000000008000000000000000000000000000000000000000004000000020000000000000000000800000000000000000000000010000800000000000000000000000000001000000000000000000000000000000000000000000000000000000000000000000000000100000000000000000000000000000000000002000000000000000000000000000000000000000000000000000020000000000000002000000000000000000000000000000000000000000000000000",
      "type": "0x2",
      "transactionHash": "0x5750ef8181b8a2d11a43e482fd1277de621f2918c9b8ef0ede7efea560594060",
      "transactionIndex": "0x4",
      "blockHash": "0x4d8a54812822e02fd4778124fc9232d446874711e672b37ba04debb8964b171c",
      "blockNumber": "0x1329acb",
      "gasUsed": "0x84a8",
      "effectiveGasPrice": "0x3b9cd19b",
      "blobGasPrice": "0x1",
      "from": "0x73109baf60bab74b9e8273dfd4236d17c56cfc67",
      "to": "0xc8f0f1f829e11a5c94b96fb9dbf89be6af560a49",
      "contractAddress": null,
      "root": "0x0000000000000000000000000000000000000000000000000000000000000000"
    },
    {
      "status": "0x1",
      "cumulativeGasUsed": "0x9cd0b",
      "logs": [
        {
          "address": "0xc8f0f1f829e11a5c94b96fb9dbf89be6af560a49",
          "topics": [
            "0xddf252ad1be2c89b69c2b068fc378daa952ba7f163c4a11628f55a4df523b3ef",
            "0x0000000000000000000000000000000000000000000000000000000000000000",
            "0x00000000000000000000000073109baf60bab74b9e8273dfd4236d17c56cfc67"
          ],
          "data": "0x00000000000000000000000000000000000000000000043c33c1937564800000",
          "blockHash": "0x4d8a54812822e02fd4778124fc9232d446874711e672b37ba04debb8964b171c",
          "blockNumber": "0x1329acb",
          "blockTimestamp": "0x666d6b03",
          "transactionHash": "0x8e1ab35bc80273b373e2f28daf2598c31bcec3b7ac4a7fd822c39b821f7e9856",
          "transactionIndex": "0x5",
          "logIndex": "0x2",
          "removed": false
        }
      ],
      "logsBloom": "0x00000000000000000000000000000000000000000000000000000000000200000000000000000000000000000000000000000000000000000000000000000000000000000000000000000008000000000000000000000000000000000000000004000000020000000000000000000800000000000000000000000010000800000000000000000000000000001000000000000000000000000000000000000000000000000000000000000000000000000100000000000000000000000000000000000002000000000000000000000000000000000000000000000000000020000000000000002000000000000000000000000000000000000000000000000000",
      "type": "0x2",
      "transactionHash": "0x8e1ab35bc80273b373e2f28daf2598c31bcec3b7ac4a7fd822c39b821f7e9856",
      "transactionIndex": "0x5",
      "blockHash": "0x4d8a54812822e02fd4778124fc9232d446874711e672b37ba04debb8964b171c",
      "blockNumber": "0x1329acb",
      "gasUsed": "0x84a8",
      "effectiveGasPrice": "0x3b9cd19b",
      "blobGasPrice": "0x1",
      "from": "0x73109baf60bab74b9e8273dfd4236d17c56cfc67",
      "to": "0xc8f0f1f829e11a5c94b96fb9dbf89be6af560a49",
      "contractAddress": null,
      "root": "0x0000000000000000000000000000000000000000000000000000000000000000"
    },
    {
      "status": "0x1",
      "cumulativeGasUsed": "0x84a8",
      "logs": [
        {
          "address": "0x0b18476ad2dad540e1ae9f7bc3d0a714b97da6f2",
          "topics": [
            "0xddf252ad1be2c89b69c2b068fc378daa952ba7f163c4a11628f55a4df523b3ef",
            "0x0000000000000000000000000000000000000000000000000000000000000000",
            "0x00000000000000000000000073109baf60bab74b9e8273dfd4236d17c56cfc67"
          ],
          "data": "0x00000000000000000000000000000000000000000000043c33c1937564800000",
          "blockHash": "0xde49bc87f80372531b51c7e28a33ebae35180e24aafb92e80a81326e11a976e4",
          "blockNumber": "0x1329acd",
          "blockTimestamp": "0x666d6b05",
          "transactionHash": "0x168ffa766c7630f7770bf3e6fdbea870ee521e53f967f40df067b08e94c44a07",
          "transactionIndex": "0x0",
          "logIndex": "0x0",
          "removed": false
        }
      ],
      "logsBloom": "0x00000000000000000000000000000000000000000000000000000000000200000000000000000000000000000000000000000000000000000000000000000000000000000000000000000008000000000000000000000200000000000000000004000000020000000000000000000800000000000000000000000010000000000000000000000000000000000000000000000000000000000000000000000000000000000000000000000000000000000100000000000000000000000000000000000002000000000000000000000000000000000000000000000000008020000000000000000000000000000000000000400000000000000000000000000000",
      "type": "0x2",
      "transactionHash": "0x168ffa766c7630f7770bf3e6fdbea870ee521e53f967f40df067b08e94c44a07",
      "transactionIndex": "0x0",
      "blockHash": "0xde49bc87f80372531b51c7e28a33ebae35180e24aafb92e80a81326e11a976e4",
      "blockNumber": "0x1329acd",
      "gasUsed": "0x84a8",
      "effectiveGasPrice": "0x3b9c5a42",
      "blobGasPrice": "0x1",
      "from": "0x73109baf60bab74b9e8273dfd4236d17c56cfc67",
      "to": "0x0b18476ad2dad540e1ae9f7bc3d0a714b97da6f2",
      "contractAddress": null,
      "root": "0x0000000000000000000000000000000000000000000000000000000000000000"
    },
    {
      "status": "0x1",
      "cumulativeGasUsed": "0x2b7b1",
      "logs": [
        {
          "address": "0xbbbbbbbbbb9cc5e90e3b3af64bdaf62c37eeffcb",
          "topics": [
            "0xac4b2400f169220b0c0afdde7a0b32e775ba727ea1cb30b35f935cdaab8683ac",
            "0xb54a9326485fc24ef80c6cf77dc715b9a70855f5571e4f03474854a39c2814ee"
          ],
          "data": "0x0000000000000000000000000b18476ad2dad540e1ae9f7bc3d0a714b97da6f2000000000000000000000000c8f0f1f829e11a5c94b96fb9dbf89be6af560a490000000000000000000000003be143e2f9bdc8239fd77851a0ac0a6e0794676200000000000000000000000000000000000000000000000000000000000000000000000000000000000000000000000000000000000000000d1d507e40be8000",
          "blockHash": "0xde49bc87f80372531b51c7e28a33ebae35180e24aafb92e80a81326e11a976e4",
          "blockNumber": "0x1329acd",
          "blockTimestamp": "0x666d6b05",
          "transactionHash": "0x09be876e07b1b3b8b99014f27ad6c5c990d9a0533a3381c74fb9b6d91f8eadd4",
          "transactionIndex": "0x1",
          "logIndex": "0x1",
          "removed": false
        }
      ],
      "logsBloom": "0x00000000000000000000000000000800000000000000000000000000000000000000000000000000000000000000000000000000080000000000000000000000000000000010000000000000000000000000000000000000000000000000000000000000000000000000000000000000000000000000000000000040000000000000000000000008000000000000000000000000000000000000000000000000000000000000000000000000000000000000000000000000000000000000000030000000000000000000000000000000000000000000000000000000020000000000000000000000000000000000000000000000000000000000000000000010",
      "type": "0x2",
      "transactionHash": "0x09be876e07b1b3b8b99014f27ad6c5c990d9a0533a3381c74fb9b6d91f8eadd4",
      "transactionIndex": "0x1",
      "blockHash": "0xde49bc87f80372531b51c7e28a33ebae35180e24aafb92e80a81326e11a976e4",
      "blockNumber": "0x1329acd",
      "gasUsed": "0x23309",
      "effectiveGasPrice": "0x3b9c5a42",
      "blobGasPrice": "0x1",
      "from": "0x73109baf60bab74b9e8273dfd4236d17c56cfc67",
      "to": "0xbbbbbbbbbb9cc5e90e3b3af64bdaf62c37eeffcb",
      "contractAddress": null,
      "root": "0x0000000000000000000000000000000000000000000000000000000000000000"
    },
    {
      "status": "0x1",
      "cumulativeGasUsed": "0x31c70",
      "logs": [],
      "logsBloom": "0x00000000000000000000000000000000000000000000000000000000000000000000000000000000000000000000000000000000000000000000000000000000000000000000000000000000000000000000000000000000000000000000000000000000000000000000000000000000000000000000000000000000000000000000000000000000000000000000000000000000000000000000000000000000000000000000000000000000000000000000000000000000000000000000000000000000000000000000000000000000000000000000000000000000000000000000000000000000000000000000000000000000000000000000000000000000",
      "type": "0x2",
      "transactionHash": "0x4cd12ebd9a636244a79f7743527ad7f3b2a4985dee1e162c11e8951b3a0d9b4c",
      "transactionIndex": "0x2",
      "blockHash": "0xde49bc87f80372531b51c7e28a33ebae35180e24aafb92e80a81326e11a976e4",
      "blockNumber": "0x1329acd",
      "gasUsed": "0x64bf",
      "effectiveGasPrice": "0x3b9c5a42",
      "blobGasPrice": "0x1",
      "from": "0x73109baf60bab74b9e8273dfd4236d17c56cfc67",
      "to": "0xbbbbbbbbbb9cc5e90e3b3af64bdaf62c37eeffcb",
      "contractAddress": null,
      "root": "0x0000000000000000000000000000000000000000000000000000000000000000"
    },
    {
      "status": "0x1",
      "cumulativeGasUsed": "0x3d145",
      "logs": [
        {
          "address": "0xc8f0f1f829e11a5c94b96fb9dbf89be6af560a49",
          "topics": [
            "0x8c5be1e5ebec7d5bd14f71427d1e84f3dd0314c0f7b2291e5b200ac8c7c3b925",
            "0x00000000000000000000000073109baf60bab74b9e8273dfd4236d17c56cfc67",
            "0x000000000000000000000000879bc988eefc40801dcd2ba5f659c1e7ca926c5e"
          ],
          "data": "0xffffffffffffffffffffffffffffffffffffffffffffffffffffffffffffffff",
          "blockHash": "0xde49bc87f80372531b51c7e28a33ebae35180e24aafb92e80a81326e11a976e4",
          "blockNumber": "0x1329acd",
          "blockTimestamp": "0x666d6b05",
          "transactionHash": "0x012950a4c9d6934016742b7fd7d58dfc0e35578a224e291a5e9d820ea099cc93",
          "transactionIndex": "0x3",
          "logIndex": "0x2",
          "removed": false
        }
      ],
      "logsBloom": "0x00000000000000000000000000000000000000000000000000000000000200000000000000000000000000000000000000000000000000000000000000200000000000000000000000000000000000000000000000000000000000000020000004000000000000000000000000000000000000000000000000000000000800000000000000000000000000001000000000000000000000000000000004000000020000000000000000000000000000020100000000000000000000000000000000000000000000000000000000000000000000000000000000000000000000000010000000002000000000000000000000000000000000000000000000000000",
      "type": "0x2",
      "transactionHash": "0x012950a4c9d6934016742b7fd7d58dfc0e35578a224e291a5e9d820ea099cc93",
      "transactionIndex": "0x3",
      "blockHash": "0xde49bc87f80372531b51c7e28a33ebae35180e24aafb92e80a81326e11a976e4",
      "blockNumber": "0x1329acd",
      "gasUsed": "0xb4d5",
      "effectiveGasPrice": "0x3b9c5a42",
      "blobGasPrice": "0x1",
      "from": "0x73109baf60bab74b9e8273dfd4236d17c56cfc67",
      "to": "0xc8f0f1f829e11a5c94b96fb9dbf89be6af560a49",
      "contractAddress": null,
      "root": "0x0000000000000000000000000000000000000000000000000000000000000000"
    },
    {
      "status": "0x1",
      "cumulativeGasUsed": "0x5acd8",
      "logs": [
        {
          "address": "0xc8f0f1f829e11a5c94b96fb9dbf89be6af560a49",
          "topics": [
            "0x8c5be1e5ebec7d5bd14f71427d1e84f3dd0314c0f7b2291e5b200ac8c7c3b925",
            "0x000000000000000000000000879bc988eefc40801dcd2ba5f659c1e7ca926c5e",
            "0x000000000000000000000000bbbbbbbbbb9cc5e90e3b3af64bdaf62c37eeffcb"
          ],
          "data": "0xffffffffffffffffffffffffffffffffffffffffffffffffffffffffffffffff",
          "blockHash": "0xde49bc87f80372531b51c7e28a33ebae35180e24aafb92e80a81326e11a976e4",
          "blockNumber": "0x1329acd",
          "blockTimestamp": "0x666d6b05",
          "transactionHash": "0x66c53d6f30c3d88cd40109419f36c7d5d5ec1294e96c8afd26b92243fa01a0d1",
          "transactionIndex": "0x4",
          "logIndex": "0x3",
          "removed": false
        },
        {
          "address": "0xc8f0f1f829e11a5c94b96fb9dbf89be6af560a49",
          "topics": [
            "0xddf252ad1be2c89b69c2b068fc378daa952ba7f163c4a11628f55a4df523b3ef",
            "0x00000000000000000000000073109baf60bab74b9e8273dfd4236d17c56cfc67",
            "0x000000000000000000000000879bc988eefc40801dcd2ba5f659c1e7ca926c5e"
          ],
          "data": "0x00000000000000000000000000000000000000000000006c6b935b8bbd400000",
          "blockHash": "0xde49bc87f80372531b51c7e28a33ebae35180e24aafb92e80a81326e11a976e4",
          "blockNumber": "0x1329acd",
          "blockTimestamp": "0x666d6b05",
          "transactionHash": "0x66c53d6f30c3d88cd40109419f36c7d5d5ec1294e96c8afd26b92243fa01a0d1",
          "transactionIndex": "0x4",
          "logIndex": "0x4",
          "removed": false
        },
        {
          "address": "0xbbbbbbbbbb9cc5e90e3b3af64bdaf62c37eeffcb",
          "topics": [
            "0xa3b9472a1399e17e123f3c2e6586c23e504184d504de59cdaa2b375e880c6184",
            "0xb54a9326485fc24ef80c6cf77dc715b9a70855f5571e4f03474854a39c2814ee",
            "0x000000000000000000000000879bc988eefc40801dcd2ba5f659c1e7ca926c5e",
            "0x00000000000000000000000073109baf60bab74b9e8273dfd4236d17c56cfc67"
          ],
          "data": "0x00000000000000000000000000000000000000000000006c6b935b8bbd400000",
          "blockHash": "0xde49bc87f80372531b51c7e28a33ebae35180e24aafb92e80a81326e11a976e4",
          "blockNumber": "0x1329acd",
          "blockTimestamp": "0x666d6b05",
          "transactionHash": "0x66c53d6f30c3d88cd40109419f36c7d5d5ec1294e96c8afd26b92243fa01a0d1",
          "transactionIndex": "0x4",
          "logIndex": "0x5",
          "removed": false
        },
        {
          "address": "0xc8f0f1f829e11a5c94b96fb9dbf89be6af560a49",
          "topics": [
            "0xddf252ad1be2c89b69c2b068fc378daa952ba7f163c4a11628f55a4df523b3ef",
            "0x000000000000000000000000879bc988eefc40801dcd2ba5f659c1e7ca926c5e",
            "0x000000000000000000000000bbbbbbbbbb9cc5e90e3b3af64bdaf62c37eeffcb"
          ],
          "data": "0x00000000000000000000000000000000000000000000006c6b935b8bbd400000",
          "blockHash": "0xde49bc87f80372531b51c7e28a33ebae35180e24aafb92e80a81326e11a976e4",
          "blockNumber": "0x1329acd",
          "blockTimestamp": "0x666d6b05",
          "transactionHash": "0x66c53d6f30c3d88cd40109419f36c7d5d5ec1294e96c8afd26b92243fa01a0d1",
          "transactionIndex": "0x4",
          "logIndex": "0x6",
          "removed": false
        }
      ],
      "logsBloom": "0x00000000000000000000000000000080000000000000000000000000000200000000000000000000000000000000000000000000080000000000000000200000000000000010000000000008000000000000000000000000000000000020000004000000000000000000000000000000000000000000000000000010000800000000008000000008000000001000000000000000000000000000000004000000020000000000000000000000000000020100000000000000000000000000000030000002000000000000000000000000000000000000000400000000020000000010000001002000000000200000200000000000000000000000000000000000",
      "type": "0x2",
      "transactionHash": "0x66c53d6f30c3d88cd40109419f36c7d5d5ec1294e96c8afd26b92243fa01a0d1",
      "transactionIndex": "0x4",
      "blockHash": "0xde49bc87f80372531b51c7e28a33ebae35180e24aafb92e80a81326e11a976e4",
      "blockNumber": "0x1329acd",
      "gasUsed": "0x1db93",
      "effectiveGasPrice": "0x3b9c5a42",
      "blobGasPrice": "0x1",
      "from": "0x73109baf60bab74b9e8273dfd4236d17c56cfc67",
      "to": "0x879bc988eefc40801dcd2ba5f659c1e7ca926c5e",
      "contractAddress": null,
      "root": "0x0000000000000000000000000000000000000000000000000000000000000000"
    },
    {
      "status": "0x1",
      "cumulativeGasUsed": "0x661ad",
      "logs": [
        {
          "address": "0x0b18476ad2dad540e1ae9f7bc3d0a714b97da6f2",
          "topics": [
            "0x8c5be1e5ebec7d5bd14f71427d1e84f3dd0314c0f7b2291e5b200ac8c7c3b925",
            "0x00000000000000000000000073109baf60bab74b9e8273dfd4236d17c56cfc67",
            "0x000000000000000000000000879bc988eefc40801dcd2ba5f659c1e7ca926c5e"
          ],
          "data": "0xffffffffffffffffffffffffffffffffffffffffffffffffffffffffffffffff",
          "blockHash": "0xde49bc87f80372531b51c7e28a33ebae35180e24aafb92e80a81326e11a976e4",
          "blockNumber": "0x1329acd",
          "blockTimestamp": "0x666d6b05",
          "transactionHash": "0x613539f858a0b91bf7e34fc3226f1386d026fbaba472a61c861125ed595f1b8e",
          "transactionIndex": "0x5",
          "logIndex": "0x7",
          "removed": false
        }
      ],
      "logsBloom": "0x00000000000000000000000000000000000000000000000000000000000200000000000000000000000000000000000000000000000000000000000000200000000000000000000000000000000000000000000000000200000000000020000004000000000000000000000000000000000000000000000000000000000000000000000000000000000000000000000000000000000000000000000004000000020000000000000000000000000000020100000000000000000000000000000000000000000000000000000000000000000000000000000000000000008000000010000000000000000000000000000000400000000000000000000000000000",
      "type": "0x2",
      "transactionHash": "0x613539f858a0b91bf7e34fc3226f1386d026fbaba472a61c861125ed595f1b8e",
      "transactionIndex": "0x5",
      "blockHash": "0xde49bc87f80372531b51c7e28a33ebae35180e24aafb92e80a81326e11a976e4",
      "blockNumber": "0x1329acd",
      "gasUsed": "0xb4d5",
      "effectiveGasPrice": "0x3b9c5a42",
      "blobGasPrice": "0x1",
      "from": "0x73109baf60bab74b9e8273dfd4236d17c56cfc67",
      "to": "0x0b18476ad2dad540e1ae9f7bc3d0a714b97da6f2",
      "contractAddress": null,
      "root": "0x0000000000000000000000000000000000000000000000000000000000000000"
    },
    {
      "status": "0x1",
      "cumulativeGasUsed": "0x8a076",
      "logs": [
        {
          "address": "0x0b18476ad2dad540e1ae9f7bc3d0a714b97da6f2",
          "topics": [
            "0x8c5be1e5ebec7d5bd14f71427d1e84f3dd0314c0f7b2291e5b200ac8c7c3b925",
            "0x000000000000000000000000879bc988eefc40801dcd2ba5f659c1e7ca926c5e",
            "0x000000000000000000000000bbbbbbbbbb9cc5e90e3b3af64bdaf62c37eeffcb"
          ],
          "data": "0xffffffffffffffffffffffffffffffffffffffffffffffffffffffffffffffff",
          "blockHash": "0xde49bc87f80372531b51c7e28a33ebae35180e24aafb92e80a81326e11a976e4",
          "blockNumber": "0x1329acd",
          "blockTimestamp": "0x666d6b05",
          "transactionHash": "0x33262f8518fec82e2cb750757766680b8a851fd27b238feca94114fbdf01d8b7",
          "transactionIndex": "0x6",
          "logIndex": "0x8",
          "removed": false
        },
        {
          "address": "0x0b18476ad2dad540e1ae9f7bc3d0a714b97da6f2",
          "topics": [
            "0xddf252ad1be2c89b69c2b068fc378daa952ba7f163c4a11628f55a4df523b3ef",
            "0x00000000000000000000000073109baf60bab74b9e8273dfd4236d17c56cfc67",
            "0x000000000000000000000000879bc988eefc40801dcd2ba5f659c1e7ca926c5e"
          ],
          "data": "0x00000000000000000000000000000000000000000000006c6b935b8bbd400000",
          "blockHash": "0xde49bc87f80372531b51c7e28a33ebae35180e24aafb92e80a81326e11a976e4",
          "blockNumber": "0x1329acd",
          "blockTimestamp": "0x666d6b05",
          "transactionHash": "0x33262f8518fec82e2cb750757766680b8a851fd27b238feca94114fbdf01d8b7",
          "transactionIndex": "0x6",
          "logIndex": "0x9",
          "removed": false
        },
        {
          "address": "0xbbbbbbbbbb9cc5e90e3b3af64bdaf62c37eeffcb",
          "topics": [
            "0xedf8870433c83823eb071d3df1caa8d008f12f6440918c20d75a3602cda30fe0",
            "0xb54a9326485fc24ef80c6cf77dc715b9a70855f5571e4f03474854a39c2814ee",
            "0x000000000000000000000000879bc988eefc40801dcd2ba5f659c1e7ca926c5e",
            "0x00000000000000000000000073109baf60bab74b9e8273dfd4236d17c56cfc67"
          ],
          "data": "0x00000000000000000000000000000000000000000000006c6b935b8bbd400000000000000000000000000000000000000000000006765c793fa10079d0000000",
          "blockHash": "0xde49bc87f80372531b51c7e28a33ebae35180e24aafb92e80a81326e11a976e4",
          "blockNumber": "0x1329acd",
          "blockTimestamp": "0x666d6b05",
          "transactionHash": "0x33262f8518fec82e2cb750757766680b8a851fd27b238feca94114fbdf01d8b7",
          "transactionIndex": "0x6",
          "logIndex": "0xa",
          "removed": false
        },
        {
          "address": "0x0b18476ad2dad540e1ae9f7bc3d0a714b97da6f2",
          "topics": [
            "0xddf252ad1be2c89b69c2b068fc378daa952ba7f163c4a11628f55a4df523b3ef",
            "0x000000000000000000000000879bc988eefc40801dcd2ba5f659c1e7ca926c5e",
            "0x000000000000000000000000bbbbbbbbbb9cc5e90e3b3af64bdaf62c37eeffcb"
          ],
          "data": "0x00000000000000000000000000000000000000000000006c6b935b8bbd400000",
          "blockHash": "0xde49bc87f80372531b51c7e28a33ebae35180e24aafb92e80a81326e11a976e4",
          "blockNumber": "0x1329acd",
          "blockTimestamp": "0x666d6b05",
          "transactionHash": "0x33262f8518fec82e2cb750757766680b8a851fd27b238feca94114fbdf01d8b7",
          "transactionIndex": "0x6",
          "logIndex": "0xb",
          "removed": false
        }
      ],
      "logsBloom": "0x00000000000000000000000000000080000000000000000000000000000200000000000000000000000000000000000000000000080000000000000000200000000000000010000000000008800000000000000800000200000000000020000004000000000000000000000000000000000000000000000000000010000000000000000000000008000000000000000000000000000000000000000004000000020000000000000000000000000000020100000000000000000000000000000030000002000000000000000000000000000000000000000000000000028000400010000001000000000000200000000000400000000000000000000000000000",
      "type": "0x2",
      "transactionHash": "0x33262f8518fec82e2cb750757766680b8a851fd27b238feca94114fbdf01d8b7",
      "transactionIndex": "0x6",
      "blockHash": "0xde49bc87f80372531b51c7e28a33ebae35180e24aafb92e80a81326e11a976e4",
      "blockNumber": "0x1329acd",
      "gasUsed": "0x23ec9",
      "effectiveGasPrice": "0x3b9c5a42",
      "blobGasPrice": "0x1",
      "from": "0x73109baf60bab74b9e8273dfd4236d17c56cfc67",
      "to": "0x879bc988eefc40801dcd2ba5f659c1e7ca926c5e",
      "contractAddress": null,
      "root": "0x0000000000000000000000000000000000000000000000000000000000000000"
    },
    {
      "status": "0x1",
      "cumulativeGasUsed": "0xc768",
      "logs": [
        {
          "address": "0x0b18476ad2dad540e1ae9f7bc3d0a714b97da6f2",
          "topics": [
            "0xddf252ad1be2c89b69c2b068fc378daa952ba7f163c4a11628f55a4df523b3ef",
            "0x0000000000000000000000000000000000000000000000000000000000000000",
            "0x000000000000000000000000879bc988eefc40801dcd2ba5f659c1e7ca926c5e"
          ],
          "data": "0x000000000000000000000000000000000000000000002a5a058fc295ed000000",
          "blockHash": "0xc71a9d6bb6688bfb708bbaccf44fc5d8941be4b0ba55d08878cb6572dc5159ac",
          "blockNumber": "0x1329ace",
          "blockTimestamp": "0x666d6b06",
          "transactionHash": "0xbea0ac984ee1608335300eadfeef8e2e4c5c350a3d45cd20346f1465dfab68d1",
          "transactionIndex": "0x0",
          "logIndex": "0x0",
          "removed": false
        }
      ],
      "logsBloom": "0x00000000000000000000000000000000000000000000000000000000000000000000000000000000000000000000000000000000000000000000000000000000000000000000000000000008000000000000000000000200000000000020000000000000020000000000000000000800000000000000000000000010000000000000000000000000000000000000000000000000000000000000000004000000000000000000000000000000000000020000000000000000000000000000000000000002000000000000000000000000000000000000000000000000008020000000000000000000000000000000000000400000000000000000000000000000",
      "type": "0x2",
      "transactionHash": "0xbea0ac984ee1608335300eadfeef8e2e4c5c350a3d45cd20346f1465dfab68d1",
      "transactionIndex": "0x0",
      "blockHash": "0xc71a9d6bb6688bfb708bbaccf44fc5d8941be4b0ba55d08878cb6572dc5159ac",
      "blockNumber": "0x1329ace",
      "gasUsed": "0xc768",
      "effectiveGasPrice": "0x3b9c2a1d",
      "blobGasPrice": "0x1",
      "from": "0x73109baf60bab74b9e8273dfd4236d17c56cfc67",
      "to": "0x0b18476ad2dad540e1ae9f7bc3d0a714b97da6f2",
      "contractAddress": null,
      "root": "0x0000000000000000000000000000000000000000000000000000000000000000"
    },
    {
      "status": "0x1",
      "cumulativeGasUsed": "0x6719",
      "logs": [
        {
          "address": "0xc8f0f1f829e11a5c94b96fb9dbf89be6af560a49",
          "topics": [
            "0x8c5be1e5ebec7d5bd14f71427d1e84f3dd0314c0f7b2291e5b200ac8c7c3b925",
            "0x00000000000000000000000073109baf60bab74b9e8273dfd4236d17c56cfc67",
            "0x000000000000000000000000879bc988eefc40801dcd2ba5f659c1e7ca926c5e"
          ],
          "data": "0xffffffffffffffffffffffffffffffffffffffffffffffffffffffffffffffff",
          "blockHash": "0x5e7a61f4497f66e619f148d6aa6f13b0eabea89c00877a482c3ff193c3351db2",
          "blockNumber": "0x1329acf",
          "blockTimestamp": "0x666d6b07",
          "transactionHash": "0xe8a63f82441811888d36daed8d91d5b63913a5b427b306cd28a3432e368d3496",
          "transactionIndex": "0x0",
          "logIndex": "0x0",
          "removed": false
        }
      ],
      "logsBloom": "0x00000000000000000000000000000000000000000000000000000000000200000000000000000000000000000000000000000000000000000000000000200000000000000000000000000000000000000000000000000000000000000020000004000000000000000000000000000000000000000000000000000000000800000000000000000000000000001000000000000000000000000000000004000000020000000000000000000000000000020100000000000000000000000000000000000000000000000000000000000000000000000000000000000000000000000010000000002000000000000000000000000000000000000000000000000000",
      "type": "0x2",
      "transactionHash": "0xe8a63f82441811888d36daed8d91d5b63913a5b427b306cd28a3432e368d3496",
      "transactionIndex": "0x0",
      "blockHash": "0x5e7a61f4497f66e619f148d6aa6f13b0eabea89c00877a482c3ff193c3351db2",
      "blockNumber": "0x1329acf",
      "gasUsed": "0x6719",
      "effectiveGasPrice": "0x3b9bfe40",
      "blobGasPrice": "0x1",
      "from": "0x73109baf60bab74b9e8273dfd4236d17c56cfc67",
      "to": "0xc8f0f1f829e11a5c94b96fb9dbf89be6af560a49",
      "contractAddress": null,
      "root": "0x0000000000000000000000000000000000000000000000000000000000000000"
    },
    {
      "status": "0x1",
      "cumulativeGasUsed": "0x178a5",
      "logs": [
        {
          "address": "0xc8f0f1f829e11a5c94b96fb9dbf89be6af560a49",
          "topics": [
            "0x8c5be1e5ebec7d5bd14f71427d1e84f3dd0314c0f7b2291e5b200ac8c7c3b925",
            "0x000000000000000000000000879bc988eefc40801dcd2ba5f659c1e7ca926c5e",
            "0x000000000000000000000000bbbbbbbbbb9cc5e90e3b3af64bdaf62c37eeffcb"
          ],
          "data": "0xffffffffffffffffffffffffffffffffffffffffffffffffffffffffffffffff",
          "blockHash": "0x5e7a61f4497f66e619f148d6aa6f13b0eabea89c00877a482c3ff193c3351db2",
          "blockNumber": "0x1329acf",
          "blockTimestamp": "0x666d6b07",
          "transactionHash": "0xf1cc0aef18d7435a42fb264e474d49c1c49afec9fd103259e1a3acb0d4e6c5b3",
          "transactionIndex": "0x1",
          "logIndex": "0x1",
          "removed": false
        },
        {
          "address": "0xc8f0f1f829e11a5c94b96fb9dbf89be6af560a49",
          "topics": [
            "0xddf252ad1be2c89b69c2b068fc378daa952ba7f163c4a11628f55a4df523b3ef",
            "0x00000000000000000000000073109baf60bab74b9e8273dfd4236d17c56cfc67",
            "0x000000000000000000000000879bc988eefc40801dcd2ba5f659c1e7ca926c5e"
          ],
          "data": "0x0000000000000000000000000000000000000000000000008ac7230489e80000",
          "blockHash": "0x5e7a61f4497f66e619f148d6aa6f13b0eabea89c00877a482c3ff193c3351db2",
          "blockNumber": "0x1329acf",
          "blockTimestamp": "0x666d6b07",
          "transactionHash": "0xf1cc0aef18d7435a42fb264e474d49c1c49afec9fd103259e1a3acb0d4e6c5b3",
          "transactionIndex": "0x1",
          "logIndex": "0x2",
          "removed": false
        },
        {
          "address": "0xbbbbbbbbbb9cc5e90e3b3af64bdaf62c37eeffcb",
          "topics": [
            "0xa3b9472a1399e17e123f3c2e6586c23e504184d504de59cdaa2b375e880c6184",
            "0xb54a9326485fc24ef80c6cf77dc715b9a70855f5571e4f03474854a39c2814ee",
            "0x000000000000000000000000879bc988eefc40801dcd2ba5f659c1e7ca926c5e",
            "0x00000000000000000000000073109baf60bab74b9e8273dfd4236d17c56cfc67"
          ],
          "data": "0x0000000000000000000000000000000000000000000000008ac7230489e80000",
          "blockHash": "0x5e7a61f4497f66e619f148d6aa6f13b0eabea89c00877a482c3ff193c3351db2",
          "blockNumber": "0x1329acf",
          "blockTimestamp": "0x666d6b07",
          "transactionHash": "0xf1cc0aef18d7435a42fb264e474d49c1c49afec9fd103259e1a3acb0d4e6c5b3",
          "transactionIndex": "0x1",
          "logIndex": "0x3",
          "removed": false
        },
        {
          "address": "0xc8f0f1f829e11a5c94b96fb9dbf89be6af560a49",
          "topics": [
            "0xddf252ad1be2c89b69c2b068fc378daa952ba7f163c4a11628f55a4df523b3ef",
            "0x000000000000000000000000879bc988eefc40801dcd2ba5f659c1e7ca926c5e",
            "0x000000000000000000000000bbbbbbbbbb9cc5e90e3b3af64bdaf62c37eeffcb"
          ],
          "data": "0x0000000000000000000000000000000000000000000000008ac7230489e80000",
          "blockHash": "0x5e7a61f4497f66e619f148d6aa6f13b0eabea89c00877a482c3ff193c3351db2",
          "blockNumber": "0x1329acf",
          "blockTimestamp": "0x666d6b07",
          "transactionHash": "0xf1cc0aef18d7435a42fb264e474d49c1c49afec9fd103259e1a3acb0d4e6c5b3",
          "transactionIndex": "0x1",
          "logIndex": "0x4",
          "removed": false
        }
      ],
      "logsBloom": "0x00000000000000000000000000000080000000000000000000000000000200000000000000000000000000000000000000000000080000000000000000200000000000000010000000000008000000000000000000000000000000000020000004000000000000000000000000000000000000000000000000000010000800000000008000000008000000001000000000000000000000000000000004000000020000000000000000000000000000020100000000000000000000000000000030000002000000000000000000000000000000000000000400000000020000000010000001002000000000200000200000000000000000000000000000000000",
      "type": "0x2",
      "transactionHash": "0xf1cc0aef18d7435a42fb264e474d49c1c49afec9fd103259e1a3acb0d4e6c5b3",
      "transactionIndex": "0x1",
      "blockHash": "0x5e7a61f4497f66e619f148d6aa6f13b0eabea89c00877a482c3ff193c3351db2",
      "blockNumber": "0x1329acf",
      "gasUsed": "0x1118c",
      "effectiveGasPrice": "0x3b9bfe40",
      "blobGasPrice": "0x1",
      "from": "0x73109baf60bab74b9e8273dfd4236d17c56cfc67",
      "to": "0x879bc988eefc40801dcd2ba5f659c1e7ca926c5e",
      "contractAddress": null,
      "root": "0x0000000000000000000000000000000000000000000000000000000000000000"
    },
    {
      "status": "0x1",
      "cumulativeGasUsed": "0x92ba",
      "logs": [],
      "logsBloom": "0x00000000000000000000000000000000000000000000000000000000000000000000000000000000000000000000000000000000000000000000000000000000000000000000000000000000000000000000000000000000000000000000000000000000000000000000000000000000000000000000000000000000000000000000000000000000000000000000000000000000000000000000000000000000000000000000000000000000000000000000000000000000000000000000000000000000000000000000000000000000000000000000000000000000000000000000000000000000000000000000000000000000000000000000000000000000",
      "type": "0x2",
      "transactionHash": "0x62f3c50c471118e2727704b9ff81e35cc06c8bba54c387644c8f20898243ffac",
      "transactionIndex": "0x0",
      "blockHash": "0x389ee799081e437a6364f7aa51b60920b0a0d04bba2e65c9b7e503ab1263d298",
      "blockNumber": "0x1329ad0",
      "gasUsed": "0x92ba",
      "effectiveGasPrice": "0x3b9bd7f8",
      "blobGasPrice": "0x1",
      "from": "0x73109baf60bab74b9e8273dfd4236d17c56cfc67",
      "to": "0x879bc988eefc40801dcd2ba5f659c1e7ca926c5e",
      "contractAddress": null,
      "root": "0x0000000000000000000000000000000000000000000000000000000000000000"
    },
    {
      "status": "0x1",
      "cumulativeGasUsed": "0x2049b",
      "logs": [
        {
          "address": "0xbbbbbbbbbb9cc5e90e3b3af64bdaf62c37eeffcb",
          "topics": [
            "0x570954540bed6b1304a87dfe815a5eda4a648f7097a16240dcd85c9b5fd42a43",
            "0xb54a9326485fc24ef80c6cf77dc715b9a70855f5571e4f03474854a39c2814ee",
            "0x00000000000000000000000073109baf60bab74b9e8273dfd4236d17c56cfc67",
            "0x00000000000000000000000073109baf60bab74b9e8273dfd4236d17c56cfc67"
          ],
          "data": "0x000000000000000000000000879bc988eefc40801dcd2ba5f659c1e7ca926c5e000000000000000000000000000000000000000000000000000000000002ed640000000000000000000000000000000000000000000000000000002caacb2100",
          "blockHash": "0x389ee799081e437a6364f7aa51b60920b0a0d04bba2e65c9b7e503ab1263d298",
          "blockNumber": "0x1329ad0",
          "blockTimestamp": "0x666d6b08",
          "transactionHash": "0x36cbc110358ca25c7c21a8d172ef5e88b17090e2fe60f95a67145d78cbb99833",
          "transactionIndex": "0x1",
          "logIndex": "0x0",
          "removed": false
        },
        {
          "address": "0x0b18476ad2dad540e1ae9f7bc3d0a714b97da6f2",
          "topics": [
            "0xddf252ad1be2c89b69c2b068fc378daa952ba7f163c4a11628f55a4df523b3ef",
            "0x000000000000000000000000bbbbbbbbbb9cc5e90e3b3af64bdaf62c37eeffcb",
            "0x00000000000000000000000073109baf60bab74b9e8273dfd4236d17c56cfc67"
          ],
          "data": "0x000000000000000000000000000000000000000000000000000000000002ed64",
          "blockHash": "0x389ee799081e437a6364f7aa51b60920b0a0d04bba2e65c9b7e503ab1263d298",
          "blockNumber": "0x1329ad0",
          "blockTimestamp": "0x666d6b08",
          "transactionHash": "0x36cbc110358ca25c7c21a8d172ef5e88b17090e2fe60f95a67145d78cbb99833",
          "transactionIndex": "0x1",
          "logIndex": "0x1",
          "removed": false
        }
      ],
      "logsBloom": "0x00000000000000000002000000000080000000000000000000000000000200000000000000000000000000000000000000000000080000000000000000000000000000000010000000000008000000000000000000000200000000000000000004000000000000000000000000000000000000000000000000000010000000000000000000000008000000000000000000000000000000000000000000000000000000000000000000000000000000000100000000000000000000000000000030000002000000000000000000000000000000000000000000000000028000000000004001000008000000200000000000400000000000000000000000000000",
      "type": "0x2",
      "transactionHash": "0x36cbc110358ca25c7c21a8d172ef5e88b17090e2fe60f95a67145d78cbb99833",
      "transactionIndex": "0x1",
      "blockHash": "0x389ee799081e437a6364f7aa51b60920b0a0d04bba2e65c9b7e503ab1263d298",
      "blockNumber": "0x1329ad0",
      "gasUsed": "0x171e1",
      "effectiveGasPrice": "0x3b9bd7f8",
      "blobGasPrice": "0x1",
      "from": "0x73109baf60bab74b9e8273dfd4236d17c56cfc67",
      "to": "0x879bc988eefc40801dcd2ba5f659c1e7ca926c5e",
      "contractAddress": null,
      "root": "0x0000000000000000000000000000000000000000000000000000000000000000"
    },
    {
      "status": "0x1",
      "cumulativeGasUsed": "0x26b04",
      "logs": [],
      "logsBloom": "0x00000000000000000000000000000000000000000000000000000000000000000000000000000000000000000000000000000000000000000000000000000000000000000000000000000000000000000000000000000000000000000000000000000000000000000000000000000000000000000000000000000000000000000000000000000000000000000000000000000000000000000000000000000000000000000000000000000000000000000000000000000000000000000000000000000000000000000000000000000000000000000000000000000000000000000000000000000000000000000000000000000000000000000000000000000000",
      "type": "0x2",
      "transactionHash": "0x58796b8ab5f3cab69b560273800601ff9b9240b43b8d1757ac7bb67ab4879cf4",
      "transactionIndex": "0x2",
      "blockHash": "0x389ee799081e437a6364f7aa51b60920b0a0d04bba2e65c9b7e503ab1263d298",
      "blockNumber": "0x1329ad0",
      "gasUsed": "0x6669",
      "effectiveGasPrice": "0x3b9bd7f8",
      "blobGasPrice": "0x1",
      "from": "0x73109baf60bab74b9e8273dfd4236d17c56cfc67",
      "to": "0x3be143e2f9bdc8239fd77851a0ac0a6e07946762",
      "contractAddress": null,
      "root": "0x0000000000000000000000000000000000000000000000000000000000000000"
    }
  ],
  "libraries": [],
  "pending": [],
  "returns": {},
  "timestamp": 1718561061,
  "chain": 1,
  "commit": "201e34d"
}